:4000000000800020110000004D0100004D01000008B5044B1A6803F53F5302331A6000F097F800BFFA46004010B5054C237833B9044B13B10448AFF300800123237010BD4C
:400040002881FF1F00000000B4150000084B10B51BB108480849AFF300800848036803B910BD074B002BFBD0BDE81040184700BF00000000B41500002C81FF1F0881FF1F6F
:400080000000000008B562B600F052FE00F0CEFB0020014600F0D8FB254800F069FB01F09FF801F0BBF901F0E5F801F0ADF800F0A1F900F095FE0A2000F054FA1D4B93F98D
:4000C0000030012B2FD101F0A7F801F0DDF8054601F0AAF8184C605501F0A6F8174B18700120002100F0B0FB207800F0CBFB0120042100F0A9FB607800F0C4FB0120082108
:4001000000F0A2FBA07800F0BDFB01200C2100F09BFBE07800F0B6FB00F06CF90022054B1A7001F071F84FF47A7000F01BFAC0E7B81500005481FF1F5881FF1F5681FF1F75
:400140000122014B1A7070475481FF1FFEE700BF08B5104E104D16E029686B68AC68002204E051F8040B43F8040B0432A242F8D1E868002203E0002143F8041B04328242FD
:40018000F9D11035013E002EE6D101F0D9F9FFF779FFFEE7010000009C17000008B5124A124B1A60124A136843F40073136000230AE0032B03D80F4A52F8231000E00E493B
:4001C0000E4A42F8231001332F2BF2D90C4B1A780C4B1A70094A0C4B1A6000F041F900220A4B1A6008BD00BF0004FA050CED00E014ED00E0000000004D0100000080FF1FAB
:40020000BC7600400481FF1F08ED00E00081FF1FFEE700BFF0B40022174611E050F82760F3B226F0FF0608E001EB420511F812406D78A5550132013BDBB2002BF4D1013775
:40024000112FEBD9F0BC7047064B1B78DBB203F00701054A11701B09013213704422034B1A707047CF0100496E5800407658004008B50A46002101F094F908BD08B501F0C0
:4002800085F908BD38B500223C4B1A80502202331A703B483B490422FFF7F0FF02223A4B1A7008224FF040231A7043F2133203F212231A80023B05221A701B7843F2C8241F
:4002C00004E04FF4F07000F03BF9013C24B12F4B1B7813F0800FF4D114B90120FFF798FF4FF400722A4B1A804FF4E16203F21E231A8009224FF040231A7041F2512203F553
:4003000008731A80002419250CE0224B1B7803F0010343EA440404F003044FF4F07000F00FF9013D0DB1032CEFD149224FF040231A70202203F500731A70A3F5FE7307226D
:400340001A70002214490A704820023108701A700222033B1A7004220A331A700F4A137843F001031370013A137843F001031370013A137843F08003137038BD8040004072
:4003800000410040BC0000480043004010420040044000402542004006400040A2430040012807D8044B53F820201844017A13780B431370704700BFC4150000012808D860
:4003C000044B53F820201844017A137823EA010313707047C4150000FF22044B1A700023034A137002F6F312137070470C81FF1F0D510040184A13780133DBB213705BB2F2
:40040000072B05D8DFE803F0070F171F040404040022114B1A700122104B1A70102203F6F3131A70704702220C4B1A70202203F6F3131A7070470422084B1A70402203F630
:40044000F3131A7070470822044B1A70802203F6F3131A70704700BF0C81FF1F0D51004070B572B6284A137843F00403137000240AE0264963001A1952000A44D068118ABB
:40048000FFF7F6FE0134E4B2082CF2D94FF090401F49FFF7BFFE0A221E4B1A701E4A137843F0020313701032137843F0020313701A4C237843F040032370A2F58632513A25
:4004C000137843F010031370154816490822FFF7D5FE154815490822FFF7D0FE144A137843F008031370134E01253570FFF7CAFE81233370104B1D70FFF7A6FE0F48214635
:400500000E22FFF7BBFE70BDE8460040C4150000480000488358004003500140A043004002510040AC00004822510040B4000048224300400048004004000840B043004024
:400540000230800803D000BF01380046FCD17047EFF3108072B6704780F31088704700BF01BE704710B5044605E0084B1868FFF7E7FFA4F50044B4F5004FF6D8034B586890
:4005800000FB04F0FFF7DCFF10BD00BF1081FF1F08B5034B1B7A03FB00F0FFF7D1FF08BD1081FF1F70B504460E46074B1D681F2802D90020FFF7D4FF04F01F04103455F82B
:4005C000240045F8246070BD08ED00E038B504460D46072902D90020FFF7C2FF1F2C02D90020FFF7BDFF04F01F0000F1604000F564406D01EDB2057038BD00BF10B50B4C21
:40060000237803F09F032370237803F0F00323702378184340F0100020700120FFF7B8FF237803F0EF03237010BD00BF2051004038B505460E4C237843F02003237023784E
:4006400003F0BF0323700020FFF7A2FF237803F0F003237023781D4345F0100525700120FFF796FF237803F0EF03237038BD00BF2051004070B5354B1A7802F08002D2B23A
:400680001A7033490A7802F0F00242F00F020A7001310A7802F0F0020A7001310A7802F0F0020A701A7802F0DF021A701A7842F040021A704FF4CA760020FFF769FF234DFD
:4006C0002B7843F010032B700120FFF761FF214B1C78E4B22B7803F0EF032B700020FFF757FF04F00804E4B22B7843F010032B700120FFF74DFF2B7803F0EF032B7014B96D
:400700000A20FFF745FF013E0CB1002ED4D10F4A137803F0BF031370137803F08003DBB213700232137803F0F00313700132137803F0F00343F00F0313700132137803F014
:40074000F00343F00F03137070BD00BF20510040225100402151004010B50446FFF78AFF2009FFF765FF04F00F00FFF761FF10BD38B505460078012404E0FFF7EDFF285D65
:400780000134E4B20028F8D138BD00BF08B5FFF7E3FF08BD10B50446FFF76CFF2009FFF72DFF04F00F00FFF729FF10BD08B52820FFF7D8FE0320FFF721FF0520FFF7D2FED1
:4007C0000320FFF71BFF0F20FFF7CCFE0320FFF715FF0120FFF7C6FE0220FFF70FFF0520FFF7C0FE0620FFF7D5FF0E20FFF7D2FF2C20FFF7CFFF0820FFF7CCFF0120FFF7DB
:40080000C9FF0C20FFF7C6FF0320FFF7C3FF0520FFF7A8FE08BD00BF08B50C20FFF7BAFF0122014B1A7008BD4481FF1F08B5054B5B7823B9FFF7BAFF0122024B5A70FFF715
:40084000EBFF08BD4481FF1F08B5032819D8DFE800F002070D1381F08000FFF79BFF08BDA1F14000C0B2FFF795FF08BDA1F16C00C0B2FFF78FFF08BDA1F12C00C0B2FFF775
:4008800089FF08BD38B504460309054DE85CFFF77DFF04F00F04285DFFF778FF38BD00BF0816000008B5134A136823F0010313604FF4206300E0013B23B10E4A126812F02C
:4008C000010FF8D19BB14FF480320B4B1A60FFF73FFE0A4A137803F0FE0313701032137803F0FE031370FFF737FE002008BD012008BD00BF10A0004080E100E0A643004032
:40090000064B1A7842F001021A701B7813F0010F01D1012070470020704700BF04A0004008B5FFF715FE144A137843F0010313701032137843F001031370FFF70DFE41F227
:4009400001220E4B1A60FFF7DBFF4FF480320C4B1A600C4A136843F001031360C02300E0013B23B1074A126812F0010FF8D00BB9012008BD002008BDA643004000A0004060
:4009800000E100E010A00040064B1A7802F0FE021A701B7813F0010F01D0012070470020704700BF04A0004010F4004F07D1064B18801B889BB2834203D0012070470220C8
:4009C00070470020704700BF16A0004050B90D4B5A7802F0EF025A705B7813F0100F0CD001207047074B5A7842F010025A705B7813F0100F03D10120704700207047002061
:400A0000704700BF14A0004030B4841EE4B20D2C28D88C1EE4B2052C02D92BBB012925D1032A25D8824225D88A4225D8164C657805F0F005284360706478E4B284421DD167
:400A40000BB9002000E002204B01DBB29200D2B2134303430C4A13701278D2B29A420FD001200EE002200CE002200AE0022008E0022006E0022004E0022002E0012000E01D
:400A8000002030BC704700BF14A0004050B90D4B1A7802F0EF021A701B7813F0100F0CD001207047074B1A7842F010021A701B7813F0100F03D101207047002070470020ED
:400AC000704700BF14A0004050B90D4B1A7802F0FE021A701B7813F0010F0CD001207047074B1A7842F001021A701B7813F0010F03D101207047002070470020704700BF61
:400B000014A00040044B18801B889BB2834201D0012070470020704704A0004003785B01214A416841F08011995003785B0199189A5802F07F12436823F080139A4228D108
:400B400083680B610278184B03EB421319698268914220D1C2685A610278134B03EB42135969C268914218D14FF0FF329A6102780D4B03EB42139A69B2F1FF3F0FD10022C0
:400B8000DA610278084B03EB4213DB694BB101207047012070470120704701207047012070470020704700BFA0A0004001780901114A436843F4000343F008038B50037805
:400BC0001B0199189B580D4A1A40436823F4000323F008039A420BD183684B600278064B03EB02135A6883689A4203D001207047012070470020704720A00040F7007F002C
:400C000038B5002409E004EB44039B000E481844FFF7CCFF28B90134E4B2072CF3D9002500E001254DB10DE0084800EB0410FFF775FF30B90134E4B200E000240F2CF3D93D
:400C400000E00125284638BD181600007816000008B5FFF77DFC324A137843F0010313701032137843F001031370FFF775FC2D4A137803F0FE0313704FF4206300E0013B19
:400C800023B1284A127812F0010FF8D1002B3CD04FF48032244B1A6010202449FFF782FC10200721FFF792FC0020FFF77DFE88B9FFF78CFE80B90C20012100221346FFF73D
:400CC000A3FE58B9FFF7E2FE50B9FFF7FDFE48B1012308E0012306E0012304E0012302E0012300E0002393B9FFF78AFF88B941F20120FFF707FF70B90A4B00221A701B7815
:400D000013F0010F09D0012008BD012008BD012008BD012008BD012008BD002008BD00BFA643004010A0004080E100E0BD0D000008B5074B1B7813B9FFF78AFF00E0002094
:400D400020B90122024B1A70FFF7EAFD08BD00BF4681FF1F08B50222034B5A70FFF714FEFFF7A0FD08BD00BF00A0004038B510220F4B5A700125002417E00E4B1B881D4283
:400D80000FD063010C4A9B5C13F0200F09D015F0010F03D02CB900F047F802E0204600F035F86D00ADB20134E4B20F2CE5D938BD00A0004008A00040A0A0004008B5074B5B
:400DC0005B7813F0020F01D0FFF7C4FF034B5B7813F0100F01D0FFF7C9FF08BD00A00040084B1B7813F0010F09D1074B1A78054BDA721A6842F001021A600020704701208F
:400E0000704700BF20A000405681FF1F4001054BC25C12F0010F03D0C25C42F00102C254704700BFA0A00040044BD97A044A11701A7842F001021A70704700BFA0A000409C
:400E40005581FF1F10B59DF80840012C4AD10138092826D8DFE800F00525250525250D15251D0F2B02D9214800781BE02048007818E00F2B02D91F48007813E01E480078E5
:400E800010E00F2B02D91D4800780BE01C48007808E00F2B02D91B48007803E01A48007800E0002040B201EB401101FB02F1C90B8AB20D2B0BD8C3F10E0289B211418AB21E
:400EC000124901EB8401013301F8023C05E00F4B03EB84030F2103F8021C013C0B4B23F8242010BD0020FFF73BFB10BD180100491C010049190100491D0100491A010049F0
:400F00001E0100491B0100491F0100494881FF1FF8B50746FFF71CFB06460D4D2B7843F003032B700B4C237843F0030323700A4B1F700320FFF72CFB2B7803F0FC032B705E
:400F4000237803F0FC0323703046FFF705FBF8BDF8460040F9460040925800400022344B1A71012862D12DE9F0413022314B1A70042202331A70062601331E7000240133B7
:400F80001C7001331C700F2201331A7002331C7001331C7001331C7001250A331D70142203F527631A704FF00508013383F80080162201331A7001331C70442203331A702C
:400FC000482201331A7001331D70022702331F70222201331A70282201331A70EB2201331A705220FFF794FF5822134B1A7001331C70053383F8008001331F7001331C7073
:4010000001331C70204600F055F933220B4B1A603046294600F072F91C20294600F024FA1D200749FFF7BEFABDE8F081704700BF4881FF1F004E0040945800406081FF1FC7
:4010400071120000F0B583B0284D01272F70284E00247471102000F03FF9102000F0F2F91D200721FFF7B2FA0422224B1A7001331C7007331C70204A137843F01803137087
:401080001E4B1C7003F2F5231C7001331C700A22A3F209331A7001331C7002331C70122205331A70132201331A7004331C701422A3F68C231A700097022048F66B514FF430
:4010C00000420823FFF7BEFE2B7806EB830313F8022C0B4B1A702B78013B36F82320094B1A802878FFF73AFF03B0F0BD2081FF1F4881FF1F96580040075B00409358004090
:401100000E4E00400C4E004070B5FFF721FA06462A4B1B782A4B1A7842F001021A701A7842F010021A7010331A7842F001021A701A7842F010021A70224D2B7843F002038B
:401140002B70214C237843F0020323701F4A137843F0030313700320FFF71AFA2B7803F0FD032B70237803F0FD032370184A137843F0060313707A22164B1A70164A1378B4
:4011800043F0010313701032137843F0010313700F3A137843F0010313701032137843F0010313704FF000530C4A1360A2F5C07213603046FFF7D0F970BD00BF2081FF1F62
:4011C000AA430040F8460040F9460040915800407758004082580040A143004080E200E008B5084B9B794BB9064BDB7913F0FF0F01D1FFF727FF0122024B9A71FFF784FF4D
:4012000008BD00BF4881FF1F024A137843F0010313707047004E0040024A137803F0FE0313707047004E00400C4B1B7803F003030B4A1078022B02D10A4B1B7803E0032B21
:4012400001D1094B1B78094B1B7913F0FF0F02D00022064B5A7140B2704700BF144E0040104E0040114E0040124E00404881FF1F704700BF08B5FFF7AFF80122014B1A7015
:4012800008BD00BF5081FF1F014B93F9000070470C81FF1F10B5002404E02046FFF78EF80134E4B2012CF8D9FF22014B1A7010BD2181FF1F10B50446FFF7ECFF2046FFF739
:4012C0006FF8014B1C7010BD2181FF1F014B188880B2704780400040034B1A7800F0F80010431870704700BF82400040024B187800F00700704700BF8240004070B5054676
:401300000E46FFF7F3FF0446FFF7E0FF854256D02B4B1B7803F0010294B900B185B938B9284B1D80284A137803F0BF03137070BD254A137843F040031370224B1D8070BD9D
:4013400022B3002321490B7001240F310C7004310B700C390B7803F07F030B701A4B1B7813F0080F00D08DB9194B18800721013B1970164B1B7813F0010FFAD110490B7888
:4013800003F0FE030B700021104B19700C4B1B7813F0010F0DD00E4B1D800EB1032200E001220A4B1A70094B1B7813F0010FFAD170BD044B1D8002490B7813430B7070BD79
:4013C000A24300408040004082400040014000400240004008B5FEF7B3FE08BD024B1B68C3F8B400704700BF08ED00E04001C0B2014B1870704700BF1DE400E04FF00052A2
:40140000014B1A60704700BF00E100E04FF00052014B1A60704700BF80E100E008B5FFF7F5FF0448FFF7DAFF0720FFF7DFFFFFF7E5FF08BDD5130000014B188880B2704788
:4014400000410040034B1A7800F0F80010431870704700BF02410040024B187800F00700704700BF0241004070B505460E46FFF7F3FF0446FFF7E0FF854256D02B4B1B78C1
:4014800003F0010294B900B185B938B9284B1D80284A137803F0BF03137070BD254A137843F040031370224B1D8070BD22B3002321490B70012413310C7004390B700839B2
:4014C0000B7803F07F030B701A4B1B7813F0080F00D08DB9194B18800721013B1970164B1B7813F0010FFAD110490B7803F0FE030B700021104B19700C4B1B7813F0010F49
:401500000DD00E4B1D800EB1032200E001220A4B1A70094B1B7813F0010FFAD170BD044B1D8002490B7813430B7070BDA1430040004100400241004001400040024000403D
:401540000E4B70B51E460E4C0025E41AA410A54204D056F8253098470135F8E700F00CF9084B094C1E46E41AA4100025A54204D056F8253098470135F8E770BD8417000014
:4015800084170000841700008C17000010B5431E0A44914204D011F8014B03F8014FF8E710BD03460244934202D003F8011BFAE77047000000000000456E7669616E646FD2
:4015C0002E2E2E00035B00402443004040000000105100401000305100404000C05100401000F0510040100000000140001000140140000800400140000A004C0140000270
:4016000000500140200000003031323334353637383941424344454600000000000001000000004A0100000008008800000000000200000000000000000000000300000076
:40164000000000000000000004000000000000000000000005000000000000000000000006000000000000000000000007000000000000000000000000000000280000002C
:40168000F9FF1F00000020000100000000000000000000000000000002000000000000000000000000000000030000000000000000000000000000000400000000000000E9
:4016C00000000000000000000500000000000000000000000000000006000000000000000000000000000000070000000000000000000000000000000800000000000000D0
:401700000000000000000000090000000000000000000000000000000A0000000000000000000000000000000B0000000000000000000000000000000C000000000000007F
:4017400000000000000000000D0000000000000000000000000000000E0000000000000000000000000000000F000000000000000000000000000000F8B500BFF8BC08BC5B
:401780009E4670474D0000009D010000F8B500BFF8BC08BC9E46704729000000B01700000881FF1F20000000400000000000000000000000FF0000000000E02EC05D000003
:4017C0001800000000366E0101FF0000000000000000000000000000000000000000000000000000000000000000000000000000000000000000000000000000000000002C
:4018000000000000000000000000000000000000000000000000000000000000000000000000000000000000000000000000000000000000000000000000000000000000A8
:401840000000000000000000000000000000000000000000000000000000000000000000000000000000000000000000000000000000000000000000000000000000000068
:401880000000000000000000000000000000000000000000000000000000000000000000000000000000000000000000000000000000000000000000000000000000000028
:4018C00000000000000000000000000000000000000000000000000000000000000000000000000000000000000000000000000000000000000000000000000000000000E8
:020000040003F7
:0200000480007A
:40000000015200400105014001090140040A0140020B014002150140021B014004410140024201400143014002440140014501400646014004470140034801400349014078
:40004000024C0140094D01400040E880B502B802BE01D804DF011D02E880E210EC10E210EC100C405F02C280D6809F02B0409F027C01DE019401450894019820B020D001C0
:40008000E8019820A508B401EC0825109F02C8208F029F02B5109820A508181078208C109820B508C608DE02E208EC088040400040000F00007F7F00000000001C00180150
:4000C0000000000000000000000000000000000000000000000000000000000000000000000000000000000000000000000000000000000000000000000000000000000000
:4001000000000000000000000000000000000000000000000000000000000000000000000000000000000000000000000000000000000000000000000000000000000000BF
:40014000000000000000000000000000000000000000000000000000000000000000000000000000000000000000000000000000000000000000000000000000000000007F
:40018000000000000000000000000000000000000000000000000000000000000000000000000000000000000000000000000000000000000000000000000000000000003F
:0200000490006A
:0400000000004005B7
:0200000490105A
:04000000BC90ACAF55
:0200000490303A
:020000001B21C2
:0200000490402A
:4000000000000000000000000000000000000000000000000000000000000000000000000000000000000000000000000000000000000000000000000000000000000000C0
:400040000000000000000000000000000000000000000000000000000000000000000000000000000000000000000000000000000000000000000000000000000000000080
:400080000000000000000000000000000000000000000000000000000000000000000000000000000000000000000000000000000000000000000000000000000000000040
:4000C0000000000000000000000000000000000000000000000000000000000000000000000000000000000000000000000000000000000000000000000000000000000000
:0200000490501A
:0C00000000012E12306900012E1A4B8AFC
:00000001FF