:400000000040002011000000950800009508000010B500F059FCC04670B51E4C1223236000F0E4FD1C4801F0A3FC182000F094FD00F01AFD194A1A4B1A601A4D8026F605EF
:400040002E600022184B1A60184B19491960194819490860194919609C204002184908601849196080210906174B1960174B1A604232174B1A60013A164B1A6016490720BB
:4000800000F0A2FC072000F089FC2E601123236070BDC04630001040001BB7000600008004010B400C020B40000301400000014040FF008000BF5D000803014042FF0080B0
:4000C0000403014041FF008008010B4000010B405801014050010140D90C000070B572B60122394B1A7000240FE038486200131959000B00411889881A5AC31858880004A7
:40010000104300F0BDFB0134E4B2022CEDD9002411E02E4EA2001319590071188D8AC88A000428430A8B498B09041143802200F0ADFB0134E4B2002CEBD02449203124480C
:40014000743000F073FBA0221201224B1A800121214B1970EE221202204B1A60AA22204B1A60204A204B1A60802292021F4B1A60992212041E4B1A6007231E4A13601E4A46
:4001800013601E4803783C22934314221343DBB203701B4A107816230343DBB21370194B1960D8221201184B1A600222174B1A602F32174B1A60C0229202164B1A60FFF764
:4001C0002BFF00F04DFB70BD1C700F40043B0000843C000000600F4002600F4000030240000402400400990020500F4024500F4030500F402000104000800F4001700F40BE
:4002000000700F40080204400803044000040440080404400806044010B5064C2378002B07D1054B002B02D0044800E000BF0123237010BD6001002000000000003B00004B
:40024000084B10B5002B03D00749084800E000BF07480368002B00D110BD064B002BFBD09847F9E70000000064010020003B0000C00000200000000010B501F0B5FA03F0A8
:40028000DBF90022064B02F039FB03F06BFA054C616801F0ABFC044901F0CEFE206010BD00E06F407C0100200000C84210B503F041FB03F0C1F90022F8239B0502F042FF89
:4002C00010BDC04610B5FFF7F1FF03F04BFA03F0F5F910BD10B5FFF7E9FF03F043FA03F0EDF9044A044B02F02DFF03F03BFA03F0E5F910BD9A9999999999C93F10B5FFF713
:40030000D5FF044A044B02F01DFF03F02BFA03F0D5F910BD9A9999999999B9BF10B5FFF7C5FF03F01FFA03F0C9F9084A084B02F009FF03F017FA03F0C1F9044A054B01F06A
:40034000B1FF03F00FFA03F0B9F910BD7B14AE47E17A84BFE17A943F10B5094B80221A70C9B259709970653ADA7000221A715A719871D97100F0C8FF322000F05DFB10BDAB
:4003800018020020F0B585B00190029103921F00274901F051FE4000400801F061FF06002349029801F048FE4000400801F058FF05001F49039801F03FFE4000400801F006
:4003C0004FFF04001B4B81221A705F70F7B23612F6B20021019801F0E1FB002801D0803EF6B2144B9F70DE70EEB22D12EDB20021029801F0D3FB002801D0803DEDB20D4B69
:400400001E715D71E5B22412E4B20021039801F0C5FB002801D0803CE4B2064B9D71DC7100F0C6FF192000F007FB05B0F0BDC04600401C460802002070B51A4B1B787F2BBD
:400440000BD1184A9278022A07D1164AD2782B2A03D1144A1179144A9160802B21D1114BDB781B2B1DD10F4BDA790F4B9B689A4217DB0E4D0C4C20232A68E1682069FFF77E
:4004800081FF322000F0D8FA6A68E16860692123FFF778FF322000F0CFFA00210020FFF75BFF70BD300200207C010020C40000203D4B1B78822B75D13B4B5B78002B0BD109
:4004C000394A9278002A07D1374AD278002A03D10022364B5A6065E0002B0BD1324A9278002A07D1304AD278012A03D1304A2F4B5A6057E0002B0BD12B4A9278012A07D142
:40050000294AD278002A03D12A4A284B5A6049E0002B0BD1244A9278012A07D1224AD278012A03D1244A214B5A603BE0012B0BD11D4A9278002A07D11B4AD278002A03D128
:400540001B4A1A4B5A602DE0012B0BD1164A9278002A07D1144AD278012A03D1174A134B5A601FE0012B0BD10F4A9278012A07D10D4AD278002A03D10F4A0C4B5A6011E0EF
:40058000012B0CD1084B9B78012B08D1064BDB78012B04D1FE229205044B5A6002E00022024B5A607047C046280200207C010020CDCC4C3E9A99193FCDCC4C3FCDCCCC3E3E
:4005C00010B500F029FC00F059FEFFF735FFFFF76FFF00F0EFFB10BD70B5604B9B69012B15D15E4B5A69DA611A691A62DA685A625B4A516891601168D160002159611961CD
:40060000D960584B536013600F231361A4E0022B4ED1524B1A689A62FFF748FE0022524B01F082FA00281BD0FFF74CFE4B4C03F099F82061FFF74EFE03F094F86061FFF758
:400640005DFE03F08FF8E060FFF768FE474A484B01F028FE03F086F8414B1860586018E0FFF730FE3D4C03F07DF8606100232361FFF744FE03F076F8E060394C394B2360C7
:40068000FFF74CFE394A3A4B01F00CFE03F06AF86060324B1A69DA62314A116851615969196351689161D96859633223136153E0032B0BD1294B00225A611A61DA60284B9B
:4006C000284A5A601A600F221A6145E0042B3BD1224C2068A063274DE36B2B7001F0C0FD687000F0B9FEA06AA16B01F057FA00280CD01A4BDA695A611A6A1A615A6ADA6009
:40070000174B9A685A60DA681A600BE0134B1A6B5A61DA6A1A615A6BDA60114B9A695A605A691A600D4BDB6B002B03D101220B4BDA6302E00022094BDA630022074B9A61EB
:400740004632074B1A6107E0042B05DD0022034B9A610432024B1A6170BDC0467C010020C40000207D3F553F0000E03F0E2DB29DEFA7EA3F2002002070B51C4940228B5A54
:4007800001331BB28B521A4A126993422AD1012000F0E4F8154A936901339361FFF71CFF002518E0124E114C20233268E1682069FFF7E8FD322000F03FF97268E168606961
:4007C0002123FFF7DFFD322000F036F900210020FFF7C2FD0135042DE4DD00214023034AD15202E0002000F0B9F870BD7C010020C400002010B500F023FD00F059FF00F002
:400800008DFF00F0E1FF064800F0F8FE00F0D2FA044801F09DF8044800F08EFF62B6FEE7C10500007902000079070000F0B50025002711E0BB00C658F3B2FF22964308E0D1
:400840006A008A181478A419527822700135013BDBB2002BF4D10137092FEBD9F0BDC0460323044A1360044A13600022034B1A607047C0463000304030003140000E3F40D4
:4008800010B50A00002103F04CF810BD10B503F03FF810BDFEE7C04610B50300084A1068C318084A9A1A802A02DC054A136005E003F002F80C2303600120404210BDC04606
:4008C000E00000204802002070B50F4E0F4D13E029686B68AC68002202E001C901C30432A242FAD1E868002202E0002102C304328242FAD11035013E002EE9D102F0E2FF90
:40090000FFF778FFFEE7C046010000003040000010B50E4A136801218B43136000230AE0032B03D89A000A49505800E009489900094A885001332F2BF2D9FFF7CFFB034AED
:40094000116801230B43136010BDC0460000104000000000950800000000002004490A68D2B220239A434001184010430860704700060440024A1168024B0B4013607047FA
:4009800000002240FFFFFFBF034B18688023DB05184000D001207047000022401F2318401E3B8340014A13607047C04600E100E01F2318401E3B8340014A13607047C04643
:4009C00080E100E001BE704770B504000D001F2802D90020FFF7F6FF1034A40080239B059C4664442068256070BDC04670B504000E00032902D90020FFF7E4FF1F2C02D98B
:400A00000020FFF7DFFF03252540ED00063500F0B8FFA408A400074B9C46644421680323AB4099430B003100A9401943216000F0ACFF70BD00E400E010B5040006E0084B34
:400A4000186800F095FF074B9C46644480231B029C42F4D8024B5868604300F089FF10BDE40000200080FFFF30B583B000F0DEF800285AD000F085FF040000230AE02C4A8A
:400A800012683F210A402B49C95C8A4201D1033303E001332D2BF2D90323274A1268D20606D1254802681F218A4313390A430260224A1168224A0A40224959438020C001C9
:400AC00084466144C90B01394905490D0A43A021490311430800192B02D81B4B1A430EE01A4A9A1812781A3B1249C9183023CB5CD318FF2B00D9FF239B0502001A430F4B3C
:400B00001A60134D2B680193302000F041FF114A13688021C9050B4313601420FFF78CFF019B2B60200000F030FF03B030BDC0462CFF0B40A03D000034FF0B400800224032
:400B400000F800C040420F000000D43FCDF1FF0F300010400000224030B587B0040000F010FF0500FFF710FF002803D0FFF702FF012100E00021104B1B6800930F4B1B68DF
:400B80000193033C0E4B1B5D02930E4B1B68039304AA0D4B04936B4605930C4B1A600C480C4A10601B68012901D1FFF75DFF280000F0EBFE07B030BD08010B4000010B40A3
:400BC000A03D000030001040B6EA0000080010401700008004001040034B1868C0231B02184000D00120704700010B4010B50D4B1A6801218A431A601A68022082431A60B0
:400C0000094A10683024A043203C204310601068093CA043014311601A68802109060A431A6010BD00002240000F2240034B1B68002B01DA012000E0002070470000224084
:400C400010B500F09EFE044A1368C02109020B43136000F09AFE10BD00010B4010B500F090FE08490A68084B1A408024E40122430A600A6813408022120213430B6000F0D5
:400C800084FE10BD00010B40FF3FFFFF70B5050000F077FE0400FFF79FFF002803D0FFF7DDFF012100E0002108482840084A1568084B2B40184310601368012901D1FFF7C9
:400CC000BFFF200000F061FE70BDC0460404040010020B40FBFBFBFF10B5244B1B685B0715D5234B5B685B070ED5224B596A042001401F4C62688A4362605A6A82435A6224
:400D00009B69002B00D098470420FFF7BFFF174B1B685B0518D5164B5B685B0510D5154B596A8022D2001140114842688A434260596A114A0A405A62DB69002B00D09847C6
:400D40008020C000FFF7A2FF084B1B685B030CD5074B5B685B0304D5064B1B6A002B00D098478020C002FFF791FF10BD10020B40F4000020D0010020FFFBFFFF10B50C4A41
:400D8000136801218B431360F0231B0100E0013B002B03D0064A1268D207F8D4002B04D01B20FFF705FE002000E0012010BDC04610002E40054B1A6801210A431A601B68BA
:400DC000194201D1012000E00020704704002E4010B50E4A0E4B1A60FFF7ECFF1B20FFF7DDFD0C4A116801230B43136090235B0000E0013B002B03D0064A1268D207F8D554
:400E0000002B01D1012000E0002010BD0112000000002E4010002E40054B1A6801218A431A601B68194201D0012000E00020704704002E4003B2002B0DDB094A1168094BAC
:400E40000B400004034313601268074B1340984203D0012002E0022000E000207047C04614002E40FFFF00800000FF7F002809D10C4B19680C4A0A401A601B68DB040CD507
:400E800001300DE0074B1A68802149010A431A601B680B4203D1012002E0002000E000207047C04614002E40FFEFFFFF70B5841EE4B20D2C35D88C1EE4B2052C03D9002B81
:400EC00031D1012931D1032A31D8904231D3914231D31C4D2C68240AE4B20F26B44320432E68194C3440000204432C602C686040F0242401204220D1002B00D00223490123
:400F0000C9B29200D2B2114319430E4A1368EE2083430B4313601368034099420FD0ED380EE002200CE002200AE0022008E0022006E0022004E0022002E0012000E0002026
:400F400070BDC04614002E40FFF0FFFF002809D10B4B1A6810218A431A601B6819420BD001300CE0064B1A6810210A431A601B68194203D1012002E0002000E00020704750
:400F800014002E40002809D10B4B1A6801218A431A601B6819420BD001300CE0064B1A6801210A431A601B68194203D1012002E0002000E00020704714002E40054B186004
:400FC0001B681B041B0C984201D0012000E000207047C04604002E4010B503785B01204A944663441F4A41680A431A6003785B01634419681C4A11401C4A446822409142D0
:4010000024D182681A6103785B0163441A6981688A421DD1C2685A6103785B0163445A69C1688A4216D1012252429A6103785B0163449A6901320FD10022DA6103785B0136
:401040006344DB69002B09D0012008E0012006E0012004E0012002E0012000E0002010BDA0002E40800080007F007F007FFF7FFF10B503781B01104A944663440F4A41683A
:401080000A431A6003781B01634419680C4A11400C4A4468224091420AD182685A6003781B0163445A6883689A4203D0012002E0012000E0002010BD20002E4008008000AC
:4010C000F7007F00F7FF7FFF70B500240AE063001B199800104B1818FFF7CAFF002805D10134E4B2072CF2D9002500E00125002D0BD00FE0230108486030C018FFF76CFF34
:40110000002806D10134E4B200E000240F2CF1D900E00125280070BDE83D0000002809D10C4B19680C4A0A401A601B689B040CD501300DE0074B1A68802189010A431A6081
:401140001B680B4203D1012002E0002000E000207047C04614002E40FFDFFFFF10B580221206334B1A60334A136801218B431360F0231B0100E0013B002B03D02D4A126881
:40118000D207F8D4002B49D01B20FFF711FC2A491B20FFF719FC03211B20FFF727FC0120FFF748FE002819D1FFF760FE002817D1FFF7B4FF002815D10023012201210830AD
:4011C000FFF774FE00280FD1FFF7C0FE00280DD1FFF7D8FE00280BD001230AE0012308E0012306E0012304E0012302E0012300E00023002B14D1FFF767FF002812D10F48CF
:40120000FFF7DCFE00280FD10A4B1A6807218A431A601B68194209D0013008E0012006E0012004E0012002E0012000E0002010BD00042E4010002E40E912000001120000C5
:4012400010B5084B1B78002B02D1FFF787FF00E00020002804D10122024B1A70FFF7B8FD10BDC046F801002010B580229200024B1A60FFF783FD10BD00002E4070B5802283
:401280005201164B1A600125002423E0144B1B682B421BD06301134A944663441B689B0614D56B070FD0012C07D0002C02D0022C06D00BE000F004F908E000F029F905E01C
:4012C00000F04EF902E0200000F0ECF86D00ADB20134E4B20F2CD9D970BDC04600002E4008002E40A0002E4010B5064B1B689B0501D5FFF7B9FF034B1B68DB0401D5FFF7FF
:40130000BDFF10BD00002E4070B5234B1B68DB073FD4224B19680902090A214A107800060143196019681F4801400C0051780904214319601C681C490C4025009478240275
:401340002C431C601C68FF26B443D5782C431C60164B1C682402240A15792D062C431C601C68204054792404204318601868014090790002014319601868B043D1790200C9
:401380000A431A60044A116801230B431360002000E0012070BDC04620002E4028002E4018020020FFFF00FFFF00FFFF2C002E4070B5234B1B68DB073FD4224B1968090270
:4013C000090A214A107800060143196019681F4801400C0051780904214319601C681C490C402500947824022C431C601C68FF26B443D5782C431C60164B1C682402240AB4
:4014000015792D062C431C601C68204054792404204318601868014090790002014319601868B043D17902000A431A60044A116801230B431360002000E0012070BDC0463D
:4014400030002E4038002E4008020020FFFF00FFFF00FFFF3C002E400E4B1B68DB0716D40D490B681B021B0A0C480278120613430B600A680A4B13404278120413430B6055
:40148000044A116801230B431360002000E001207047C04650002E4058002E4020020020FFFF00FF4001054B9C4660440368DB0703D502680123134303607047A0002E4097
:4014C0000F4A1168090E0F4B19701168090C59701168090A99701268DA700B4A1168090E19711168090C59711168090A99711268DA71064A116801230B4313607047C046E3
:40150000A8002E4030020020AC002E40A0002E400F4A1168090E0F4B19701168090C59701168090A99701268DA700B4A1168090E19711168090C59711168090A99711268C8
:40154000DA71064A116801230B4313607047C046C8002E4010020020CC002E40C0002E400F4A1168090E0F4B19701168090C59701168090A99701268DA700B4A1168090E84
:4015800019711168090C59711168090A99711268DA71064A116801230B4313607047C046E8002E4028020020EC002E40E0002E40AC23014AD05070470000002010B5040061
:4015C00000F0DFF9044A13689B009B08A4071C43146000F0DAF910BD18E400E080221205014B1A607047C04600E100E080221205014B1A607047C04680E100E010B50400EF
:40160000FFF7F4FF2000FFF7D3FF0320FFF7D6FFFFF7E4FF10BDC046034A117880235B420B43DBB21370704773000F40014B18707047C04683000F40014B1878C0B27047EA
:4016400063000F40014B18707047C04623000F40014B1878C0B2704743000F40014B18707047C04603000F4010B501E0FFF7F0FFFFF7E2FF0307F9D410BDC04610B5FF204B
:40168000FFF7E0FFFF20FFF7E9FF00F07AF9074A117810230B43DBB2137000F076F9FFF7E3FF0020FFF7C2FF10BDC04693000F4010B5064B1B78002B04D1FFF7DFFF012227
:4016C000024B1A70FFF7A8FF10BDC046F90100207047C046014B58647047C0460000002010B5040000F04DF9044A1168044B0B40A4031C43146000F048F910BD00E400E04B
:40170000FF3FFFFF0222014B1A60704700E100E00222014B1A60704780E100E010B5FFF7F7FF0448FFF7D6FF0320FFF7D9FFFFF7E9FF10BDD116000010B50400FFF7E8FF38
:401740002000FFF7C7FF0320FFF7CAFFFFF7DAFF10BDC04610B509490220FFF735F903210220FFF743F90022054B1A707232054B1A70523A044B1A7010BDC0466118000009
:40178000FA01002081000F4082000F4010B500F0F8F804000A4A117820230B43DBB21370084A117810230B43DBB213700220FFF7F5F8FF2000F09CF8200000F0E6F810BD77
:4017C00091000F4092000F4010B5064B5B78002B04D1FFF7BFFF0122024B5A70FFF7D6FF10BDC046FA01002010B50220FFF7E0F8174A9378DBB2D178C9B21279002A01D19F
:401800008B4210D0134AD45CE4B20133DBB2072B00D900230E4A93701379002B12D000220B4B1A710EE00C4B1B78DBB29A0606D50A4A1478E4B21E221A4202D102E0002427
:4018400000E000240220FFF7A9F8200010BDC046FA0100203802002062000F4042000F401B4B1B78DBB21E221A4204D019481A4001780A4302702022134025D0164A1178A5
:40188000C9B2164A1278D2B215488154154A1278002A02D00121144A117010490A780132D2B20A700A78D2B2072A02D900210B4A11700A4A1178C9B20C4A1278D2B2914283
:4018C00002D10121074A1170002BC9D17047C04662000F40FA01002042000F40FD01002038020020FE010020FF010020FC010020044B1B68002BFBDB0002034B1843014BA4
:40190000186070470000014041000080014B18647047C0460000002010B5040000F031F8044A1368C0218B43A4011C43146000F02CF810BD00E400E00122014B1A607047BA
:4019400000E100E00122014B1A60704780E100E010B50400FFF7F6FF2000FFF7D7FF0320FFF7DAFFFFF7E8FF10BDC046000000000230800803D00138FDD1C046C046C046DD
:401980007047EFF3108072B6704780F31088704770B50400FFF7F5FF0500102C05D8104A136803218B43136016E0202C07D80C490B6803229343023A13430B600CE0302CC9
:4019C00007D807490B6803229343013A13430B6002E00020FEF7F6FF2800FFF7D6FF70BD30001040002243088B4274D303098B425FD3030A8B4244D3030B8B4228D3030C60
:401A00008B420DD3FF22090212BA030C8B4202D31212090265D0030B8B4219D300E0090AC30B8B4201D3CB03C01A5241830B8B4201D38B03C01A5241430B8B4201D34B0321
:401A4000C01A5241030B8B4201D30B03C01A5241C30A8B4201D3CB02C01A5241830A8B4201D38B02C01A5241430A8B4201D34B02C01A5241030A8B4201D30B02C01A52412F
:401A8000CDD2C3098B4201D3CB01C01A524183098B4201D38B01C01A524143098B4201D34B01C01A524103098B4201D30B01C01A5241C3088B4201D3CB00C01A52418308C0
:401AC0008B4201D38B00C01A524143088B4201D34B00C01A5241411A00D20146524110467047FFE701B5002000F006F802BDC0460029F7D076E770477047C0468446101C6F
:401B000062468C46191C634600E0C0461FB501F0AFFA002801D40021C8421FBD10B501F003FA4042013010BD10B501F0A1FA002801DB002010BD012010BDC04610B501F0D6
:401B400097FA002801DD002010BD012010BDC04610B501F029FA002801DC002010BD012010BDC04610B501F01FFA002801DA002010BD012010BDC0468446081C6146FFE700
:401B80001FB500F015FA002801D40021C8421FBD10B500F0A1F94042013010BD10B500F007FA002801DB002010BD012010BDC04610B500F0FDF9002801DD002010BD012025
:401BC00010BDC04610B500F0AFF9002801DC002010BD012010BDC04610B500F0A5F9002801DA002010BD012010BDC046F8B54A02430244004E00C50F240E28009B09360EB2
:401C0000C90F92098D4259D0A01B002800DC8DE0002E1AD1002A00D079E05A0704D00F221A40042A00D004335A0138D50134FF2C00D189E028009B015B0AE4B25B02E405A5
:401C40005B0A2343C0071843F8BDFF2CE5D08021C9040A431B2800DD89E016002021C640081A8240511E8A4132439B1A5A0114D59B019E09300001F001FE05388640844289
:401C800065DC041B330020200134E340041BA640721E964100243343BFE75A07BFD1DF082800FF2C2FD1002F00D187E08022D20313003B435B025B0AFF24BFE7A11B002943
:401CC00049DD002E29D0FF2CA7D08026F60432431B2900DD8DE017002026CF40711A8A40511E8A413A439B185A01D6D50134FF2C64D0012276491A405B080B4013438CE7DA
:401D0000031ECAD100207B025B0AE4B296E701380028AAD0FF2C9DD17FE7002A00D17CE701390029DFD0FF2CD2D176E7002820D1601CC0B2012853DD80279E1AFF04374024
:401D40002FD0D61A0D0095E72800002376E7614B241A334061E700294DD1611CCEB2012E2FDDFF292AD09B185B080C0055E701227BE7002C1BD1002B5BD0C04300280CD0A5
:401D8000FF2E7ED01B2800DD92E01D002024C540201A8340581E83412B43D31A34000D0064E7002E00D065E700200024ABE7FF2E67D08024E40440422343E3E7FF2400238A
:401DC0003CE7002C61D1002B7ED0002A00D124E79B185A0100D460E73E4A0C0013401CE7002C1ED1002B2FD1002A66D013000D0013E7012277E7002C1FD1002B5AD0C94312
:401E000000290BD0FF2E50D01B295FDC1F002024CF40611A8B40591E8B413B439B18340062E7002B1CD1002A4AD013000D00FF24F3E6130034000D00EFE6FF2E35D08024B2
:401E4000E40449422343DFE7002A00D1E5E68027981AFF04074000D152E7D31A0D00DCE6FF24002A00D1D8E68020DB08C003034204D0D208024201D113000D00DB00FF244B
:401E8000CBE61300FF240D00C7E6002B0DD0FF24002A00D1C1E68021DB08C9030B42EDD0D2080A42EAD11300E8E71300FF24B4E6012372E713003400AFE60027002022E71E
:401EC00080270020FF03F1E61300A6E60123A5E7FFFFFF7DFFFFFFFB430270B542004C005D0AC30F4802120E460A240EC90FFF2A0FD0FF2C11D00120A24200D070BDB5427F
:401F0000FCD18B420DD0002AF8D12800431E9841F4E70120002DF1D1EBE70120002EEDD1E9E70020EAE7C0464302F0B542005D0AC30F4802440A4800120E000EC90FFF2AD0
:401F40001FD0FF2822D0002A09D16E426E4100280FD1002C0DD10020002D09D005E0002801D1002C01D08B4213D0584201231843F0BD002EF7D04842414101204942084374
:401F8000F6E7002DDDD002204042F1E7002CDAD0F9E78242E9DC04DBA542E6D80020A542E6D25842434101205B421843E0E7C0464302F0B542004C005E0AC30F4802120E4C
:401FC000450A240EC90FFF2A17D0FF2C19D0002A0BD170427041002C17D0002807D048424141012049420843F0BD002C13D08B4214D0584201231843F6E70220002EF3D16F
:40200000E3E70220002DEFD1E1E7002DE5D10020002EE9D0EDE7002DE9D1EAE7A242E8DC04DBAE42E5D80020AE42DDD25842434101205B421843D7E7F0B557464E46454640
:402040004300E0B446028846760A1F0EC40F002F47D0FF2F25D0002380259A469946F600ED042E437F3F434642465D02D20F5B006D0A1B0E904640D0FF2B39D080220020C6
:40208000ED00D20415437F3BFB1842465746591C62408C4607430F2F5CD86F49BF00C9598F46002E45D108239A46063B9946DAE7424602282DD0032800D1C3E0012800D089
:4020C000A2E0002500260240D4B27602ED05760A2E43E407264330001CBC90469946A246F0BD002E1AD104239A46033B9946BAE72A00511E8A41901CC6E70120002DC3D0CE
:40210000280001F0BBFB431F76309D4043420020BAE70124FF2514400026D6E7300001F0ADFB431F9E400023763047429A46994699E70C239A46093B994694E78026002414
:40214000F603FF25C1E735004846B2E7350022004846AEE72904090C0800370C3604360C2C0C7943704367437443060C64183619B14203D980214902884647440004000CB2
:40218000310409188D01681E8541890E2943350CED19AD010D43290104D5012369081D4063460D4319007F31002925DD680704D00F202840042800D00435280103D5274945
:4021C00080330D401900FE29A3DC0124AD016E0A1440CDB279E78020C003064207D0054205D128434602760A4446FF256DE706437602760AFF2568E70124611A1B2905DD54
:4022000014400025002660E76346CBE72E002023CE40591A8D406B1E9D412E43730704D00F233340042B00D00436730104D5012401251440002648E70124B601760A1440A9
:40224000002542E780260124F6032E437602760A1440FF2539E7C046483F0000FFFFFFF74302590A4300C20F1B0E00207E2B0EDD9D2B0DDC802000040143952B0BDC96203B
:40228000C31AD9400B005842002A00D118007047034BD018FBE7963B99400B00F3E7C046FFFFFF7FF8B556465F464D464446F0B40F00FD0FAA4609037C002E005F00450F6D
:4022C000490A7F0D2943C5001803BC46400A570F640DDB0F3843D2009A4500D1AAE06646A61B002E00DCFFE06346002B39D10300134300D0D9E06B0709D00F232B40042BF2
:4023000005D02B1DAB42AD416D4249191D000B0200D482E0CA4B01349C4200D1FEE00A005646C84BED081A405007640552020543120B640D002112030B0D1B056405120B77
:402340001A436308C04CF60714401C43640064083443280021003CBC90469946A246AB46F8BDB74B9C42C6D080231B041843382E00DDEBE01F2E00DD1EE120239B1B9C4669
:4023800003006746BB40984613004746F3403B436746BA40571EBA4113430200F240EB1A9D42B6411D008A1A7642911B0B0231D54A02560A002E00D1B4E0300001F05EFAD7
:4023C0000300083B1F2B00DDB5E020222900D21AD1409E400A009D4032439C4200DDB1E01C1B631C1F2B00DDD5E0202114002800C91A8C40D8408D400443DA40681E85419D
:4024000011002543002476E74146314300D134E2310045466B0700D06FE756464807ED08C9080543864B9C4235D00A036405120B640D7FE76346E31A9B46002B00DC8BE05C
:402440006746002F3CD07E4FBC4200D153E780273F0438435B46382B00DCF7E00243501E82410020D2B253194218AB4289411D00494289180B02CDD5714B01349C4200D153
:402480003DE101206F4A6B080A4028401843D507054351082FE72B000B4300D1CBE180231B030B431A03120B44E7013E002E6DD1AE1AB5429B41091A5B42C91A350075E72D
:4024C0000700174300D116E701235B429C46E3445B46002B00D0E0E0AA18AA429B4109185B4259181500C5E7002E75D1661C7605760D012E00DCF3E0AE1AB0464545BF41F3
:402500000E1A7F42F61B370200D48FE0551BAA42B641411A76428E1B9A464BE756460022002507E7280001F0A9F920300300083B1F2B00DC49E72A002838824000259C423D
:4025400000DC4DE73F49E41A1140D4E60243501E8241D3B2002222E7002B00D0F3E0631C9C465B055B0D012B00DC9FE0344B9C4500D1C3E0AA180918AA42804140424118D7
:40258000CD075208154349086446B4E62C4B9C4200D0ECE6AFE611001F3CE1400C00202B00D17FE04021CB1A9A4015436A1E95410021254300242DE733000700203BDF4015
:4025C0003B00202E70D04027BE1BB0400243501E824113430022E2E6002C4FD0184CA44500D1ABE08024240476422143382E00DDDFE01F2E00DD43E12027BC1BA1460C00EF
:402600004F46BC40A0462C004746F4403C434F46BD406F1EBD41F1402C43151BAA429241411A5242891A64469A46BFE641464546314300D0BEE6002600240025F2E6C04603
:40264000FF070000FFFF7FFFFFFF0F801F2B59DC2027FF1ABC46070063469F405B46B9461700DF40B8464F4643461F4363469A40531E9A415B463A43D840F4E60C002C432D
:402680005CD0F643002E55D1551BAA42A441411A6442091B9A46644688E6964FBC4200D0D8E628E6002280E700208FE70B002B43002C00D0C2E0002B00D101E10300134317
:4026C00000D118E6AB18AB42B6410918764271180A0200D409E1884A1D00114064460AE6002C5BD10E002E4300D08AE00100114300D1C2E0010015009A46FCE564460021E3
:4027000000258FE620235B429C46DC4463460700DF405B46BC46202B00D1ACE040235F46DB1B98400243501E8241634613431A00002098E66F4CA44500D057E70100150038
:4027400064469A46D7E5002C39D10C002C436ED0DB43002B1AD0674CA44568D0382B00DDA4E01F2B00DDAEE020240F00E41AA740B9462F00DF40B846A3464F4644462743AF
:402780005C46A5406C1EA541D9403D43AD1895429B4109185B42591864466BE60C002C4315D1010011437BD0010015009A46514CA1E50D43691E8D410021ECB22DE74D4CBC
:4027C000A44534D0802424045B422143C6E7040014434ED0ED084C072C438025C9082D03294208D0C6082E4205D1D208410711430C009A463100620FC900E50011433D4CB6
:4028000079E50600164300D175E5AE1AB0464545BF410E1A7F42F61B370200D4F4E5551BAA42B641411A7642891B9A4663E50100150064465FE5002200257BE5002B3BD075
:402840000300134315D0ED084B072B438025C9082D03294207D0C4082C4204D141070B002100D2081343C9005A0F1143DD00214C41E5204C3FE5002054E700260025D1E5E8
:4028800034000F00203CE7403C00202E2BD04027BE1BB1400D43691E8D4100212C43BCE6802100260903134C0025BBE50D43691E8D410021EDB269E7010015000D4C1AE5AB
:4028C0000100150017E51C000F00203CE7403C00202B0CD04027FB1A99400D43691E8D410021254352E70021D4E71D0092E50021F3E7C046FF070000FFFF7FFFF0B55646C5
:402900004D4644465F46F0B41D000E034C00CB0F87B0070092468146360B640D98466AD06D4B9C4235D08022430F12041343F6001E43C3009946694B00279C4600236444BA
:4029400002932B0368001B0BED0F51469B46400D009500D178E0604B98426CD05B46DA004B0F802109040B4313439B465346D9005A4B9C46002360444246201A6A409246BA
:4029800001901F430F2F00D9B0E05548BF00C0598746374300D088E0002399460233082700260293CDE74346B34649460093029B009A9246022B00D0BFE100215346012287
:4029C000002689461A40444B002136030C0D2405360B2643434C1B0526401E437600D207760816434846310007B03CBC90469946A246AB46F0BD330003434FD0002E00D1D7
:402A0000BCE1300000F03AFF03000B3B1C2B00DDADE11D220100D31A08393A008F408E40DA40B9461643304B00279C46002360444442029385E753465A4613432CD100236D
:402A400000219B46023397E70B4320D05B46002B00D19EE1584600F011FF03000B3B1C2B00DD8FE102005946083A91408B461D21CB1A5146D9400B0059460B4351469B4604
:402A80009140194B9C4660444042002374E7002300219B4601336FE703236DE70023994601330427002602934BE703230C27029347E70122D51A382D00DCB0E153461A40F1
:402AC00000210023002689467EE700238026994600223603004B77E7FF07000001FCFFFF883F0000FFFF0F80F30300005E4500D972E100D16DE1019B4D46013B0193002331
:402B0000340002935B461E020B0E1E430B020393330C994633041B0C494620000093FEF761FF009B370043430600494620009846FEF7DEFF2C0C09040C43A04509D9E419C6
:402B4000731EA74200D95CE1A04500D859E1023EE4194346E41A49462000FEF743FF0300009A80465343494620009B46FEF7C0FF2A040904120C0A4393450DD94346D2190F
:402B8000013B974200D93AE1934500D837E102235B429C46D219E0445B46D21A4346360433439B460399180C0B0C1D00059309045B46090C0C001B041B0C44430491594391
:402BC0006B4368431B190D0CEB189C4203D980246402A44660441C0C09041B04090C20185D18824200D2DEE000D1D7E0161A029B9C465D1BAC459B415B42F61AB74200D17D
:402C000006E149463000FEF7EDFE009B04004343494630009846FEF76BFF2E0C09040E43B04509D9F619631EB74200D9F3E0B04500D8F0E0023CF6194346F31A4946180022
:402C40000293FEF7CFFE009B06004343494602989846FEF74DFF2D0409042D0C0D43A84509D9ED19731EAF4200D9D6E0A84500D8D3E0023EED192404210043463143049E3B
:402C8000059A3000ED1A0B040C0C1B0C58436643534354439A19030C9B189E4203D980225202944664441A0C00041B04000C14191B18A54250D34DD001231943964A019BFE
:402CC00094466344002B00DCF3E64A0709D00F220A40042A05D00A1D8A42894149428B4411005A46D20108D55A468C4B1A4093468022D2009446019B6344894A934200DD93
:402D00005BE65A46C908500708435602514601225B058146360B5B0D0A4055E680231B031E4211D05A461A420ED15E461E433603360B2A0089467B4B46E6032B00D1E1E0D1
:402D4000012BBBD11A40BBE61E433603360B4246744B39E6002BB1D07D194A1EAF4252D91100A542A8D1039A9A42A5D1A6E703003E00283B9E400023994654E600F07EFD83
:402D8000203041E603005246283B9A400021934677E6504600F072FD20305EE6029B0026AB4200D323E7039E0299B44661448846B045B6415B467642F619B218013B0291C1
:402DC000974213D290424FD800D18EE0161A9B460DE7894500D28EE674084B46F60735005B081D434B46DB0702938BE69742EDD10399029CA142E5D93E1A9B46F7E69846E3
:402E0000CAE61E00A5E6AC423ED874D0110053E70121494252E71C000EE71E002BE71F2D3CDC20230A0058465B1B9840EA4099400243481E81415E461143EE404B0709D021
:402E40000F230B40042B05D00B00191D99429B415B42F61833023CD55346012200211A40002601238946AFE502235B429C46039CE344A446029B63449846A045B6417642FA
:402E8000F6190293B218B1E603988A1E41008142B6417642F619AD19039161E71F225242D31A5A46DA401300202D29D040225846551BA8400143481E814107200B43184000
:402EC0000026002809D00F2200261A401900042ABBD10B0070077602360BDB0803439946012253461A4000236EE502998D42BBD89B4600267BE603989842C5D3110032E7BC
:402F00000020D7E780265B4636031E433603360B009A8946034B57E5FF030000FFFFFFFEFE070000FF070000F0B55F4656464D464446F0B41F035C00DB0F9A46194B0E03F9
:402F40004D00C90F8046360B6D0D8B4691463F0B640D9D4219D0134B9C421BD00123A54206D018003CBC90469946A246AB46F0BDBE42F6D1C845F4D1D34510D0002DF0D1AE
:402F8000304303005A1E9341EBE7310001230143E7D1E0E73A430123002AE2D1DEE70023DFE7C046FF070000F0B55F46444656464D46F0B41F033C0B2C4F0E034D00A3465B
:402FC0005C008446360B6D0DC90F9046640DDB0FBD422BD0254FBC422ED0002D0ED130430700814678427841002C17D15F463A4314D14B460020002B0AD006E0002C02D107
:403000005846024301D099421AD00123484218433CBC90469946A246AB46F0BD0028F2D058425841012240421043F1E737000743D0D002204042EBE75F461743CDD0F8E7DC
:40304000A542E2DC05DB5E45DFD808D000205E45DED248424841012340421843D8E7C445D3D80020C445F4D3D2E7C046FF070000F0B55F464D4644465646F0B41C03240BF5
:40308000A4462F4C0F034D005E00C90F80463F0B6D0D8B469146760DDB0FA54220D0284CA64222D0002D12D1384344424441002E20D0002C0DD05C42634101245B421C4332
:4030C00020003CBC90469946A246AB46F0BD002E17D05B4519D05B465C4201231C43EFE7390002240143EBD1D9E7614602241143E6D1D7E761460A43DBD100240028DFD0F7
:40310000E9E761460A43E4D1E5E7B54203DD01225C421443D4E7B542CDDB6745DBD809D000246745CCD259464C426141012449420C43C5E7C845CED80024C845F3D3BFE791
:40314000FF070000F0B55F4656464D464446F0B40D0399464E002B0B87B00700924680469B46760DCC0F002E69D06D4B9E4235D05B468022DD001204430F13432B439B46E3
:40318000C3009846674B00279C460023664401934A4615035000D20F53462D0B400D914600D176E05E4A90426CD080225B0F120413435C4AED0094461D4353460022DB00CC
:4031C000604449463618701C6140029017430F2F00D9AFE05448BF00C759BF465B461F4300D088E000239B469846023308270193CEE74946022A6AD0032A00D109E2012A3C
:4032000000D0BBE111400022002300259046CCB200212D030A0D12052D0B1543434A1B0515401D436D00E4076D0825434046290007B03CBC90469946A246AB46F0BD03438E
:4032400052D05B46002B00D18AE1584600F016FB03000B3B1C2B00DD7BE11D22D31A3A0001005D46DA4008398D4013008F402B439B46B8462E4B00279C460023604446428A
:40328000019385E752462A432CD100250023022297E752462A4321D0002D00D154E1280000F0ECFA03000B3B1C2B00DD46E11D21CB1A51460200D9405346083A954093400F
:4032C0000D431B4A944660444042002279E7012400220C40124B0025904699E70025002301226EE703226CE700239B4698460133042701934CE703230C27019348E70023AD
:403300008025984600242D03054B81E75D464346019A6FE75D4643462100019A6AE7C046FF07000001FCFFFFC83F0000FFFF0F80F30300004246120C91461A0C9446424612
:4033400017044A461B041B0C5A43604690464A4642431000039262461C003F0C7A437C4342440192220C9246019A5244904506D98246802040028046C24450460390100C3F
:40338000049048462404240C1204121905922A0C2D042D0C68432C00824648467C4350438146200C8046574357444744BA4503D9802040028046C144380C3F04B84648448A
:4033C0002404240C01900498A044404404905846000C814658460404200C8246070048465F434C464343604660436446834650464443380C8446E4186444A34203D9802303
:403400005B029C46E34448463F04230C3F0C2404E419574668436F4384464D46504655434243380C814662444A445B44944503D9802040028446654403983F048346049881
:403440003F0C8446E344C345804140428246100484460198674484466744A344BC46A345A4419946D44464428742BF41D4458041E144A04699459B417F424042C844074312
:40348000120CBA18A045A4415F423B0064422343D71843467D19DB0D6D021D435B465A02059B1A43531E9A415B46DB0D1A4343465B021343EA0107D501225C081340234336
:4034C000EA07029E13436D08574AB218002A4BDD580709D00F201840042805D0181D98429B415B42ED180300E80104D54F4A15408022D200B2184E48824200DDE7E601244C
:40350000DB08680718436D02530580462D0B5B0D0C407DE6802259461203114208D0154206D115432D0398462D0B4C46414B6FE65D4615432D032D0B3E4B69E60300554669
:40354000283B9D400023BCE6504600F097F92030A8E60300283B9F400023BB46984689E600F08CF9203073E60124A61A382E07DD00220C4000230025904649E6029EA3E76A
:403580001F2E20DC20222C001800921BF040944093400443581E83411C43F540630709D00F232340042B05D023001C1D9C4292415242AD182B021FD5012400220C40012389
:4035C0000025904624E61F202C004042821AD440202E1CD04022961BB5402B43581E83410720234318400025002809D00F2200251A401C00042AD8D1230068076D022D0B58
:403600000124DB08034398460C40002300E60025E3E780220124120315432D0398462D0B0C40044BF4E5C046FF030000FFFFFFFEFE070000FF07000070B5002830D0C317F7
:40364000C4185C40C50F200000F018F9174B184A1B1AD21A1F2A18DD164AD21A9440002224035B05240B5B0D0021100024030A0D1205240B1443104A1B0514401C436400BD
:40368000ED0764082C43210070BD210091400A000B21081AC4405B052403240B5B0DE3E70025002300240022DEE7C0461E0400003304000013040000FFFF0F804200120EFF
:4036C000511C4302C9B270B55D0AC40F012915DDE02189008C466D071B0B6244002128000D0D2D052B431C4D52052B40520813435B00E4075B082343190070BD002A15D143
:40370000002D1FD0280000F0B9F80A281DDC0B232A001B1ADA4013000200153295400F4A1B03121A52051B0B520DD7E7002D06D080221B0B120313436D07094ACEE7084A60
:403740000023CBE700220023C8E703000B3B9D402B000025E3E7C046FFFF0F8089030000FF0700004B0070B55E0D0C03751C640A420F6D052243C90FC4006D0D012D2ADDBF
:403780003B4BF318FE2B1ADC002B42DD8001451EA841D2001043620F0243500704D00F201040042800D004328020C004104021D00133FF2B03D09201520ADBB201E0FF2336
:4037C00000225202520ADB0513435B00C9075B080B43180070BD002E07D01443EFD08020D20080040243FF23D7E722430023002A03D00522D208FF2B03D05202520ADBB2AA
:40380000DFE7002A32D08020C00302435202520AD7E71800173014DB8020000402431E20C01A1F280FDC2500124BF3189D406E1EB5419A402B0013432200C2401A43002314
:40384000ABE70023D5E702256D42EB1A1500DD40202809D0084BF3189A401443621E9441220000232A4398E70022F6E70022A8E780FCFFFF82FCFFFFA2FCFFFF1C210123F1
:403880001B04984201D3000C10391B0A984201D3000A08391B09984201D30009043902A2105C40187047C04604030202010101010000000000000000014B18687047C046F3
:4038C0005C0100200E4B70B500251E000D4CE41AA410A54204D0AB00F35898470135F8E700F094FB084B00251E00084CE41AA410A54204D0AB00F35898470135F8E770BDED
:4039000018400000184000001840000020400000002310B59A4203D0CC5CC4540133F9E710BD03008218934202D019700133FAE770470000154B10B51C68A36B002B15D106
:40394000182000F033F8124BA0630380114B01224380114B8380114BC380114B03810523438106338381002302614361A46B0D4A206961690C4B00F097F801220023801831
:403980005941206161614800400810BD5C0100200E330000CDABFFFF341200006DE6FFFFECDEFFFF2D7F954C2DF4515810B5034B0100186800F004F810BDC0465C01002013
:4039C000032370B5CD1C9D43083506000C2D01D20C2501E0002D01DBA94202D90C23336048E0300000F05EF8234B1C681A002100002913D00B685B1B0DD40B2B02D90B60A4
:403A0000CC181EE08C4202D1636813601AE04B6863600C0016E00C004968E9E7174C2368002B03D1300000F02BF820602900300000F026F8431C18D00323C41C9C43A042A1
:403A40000DD12560300000F02EF8200007220B30231D9043C31A0ED05A42E2500BE0211A300000F00DF8431CEBD10C233000336000F019F8002070BD04020020000200208F
:403A8000002370B5064C050008002360FCF704FF431C03D12368002B00D02B6070BDC0464002002070477047F0B54F464646C0B41604360C9946330005042C0C070C150C82
:403AC00063437E436F4365431C0CAD1964199C46A64203D980235B02984647446346250CEF191D044B464A4343432D0C240464199918C91920000CBC90469946F0BDC04623
:403B00000000000000300F40000280320F40800100400F400004000000320F40203D00008000000081728238830D0001010603010502080109060B010C010D010F061301D9
:403B40002104280129062D07360137073B883E40580459045C105F01801F8318841885E7880889E78C078D188E1891809204941C95199602970698049A209C1C9E019F189B
:403B8000A010A12AA341A554A721AB18AD18AE03B020B180B21FB360B507B718BA08D602D710D804D904DB04DC11DD10DF010052044006D40E5912081440174019801C1008
:403BC0001E501F0820022208240125012602275428402A522D022E842F0832023745385039013A043C423D293E01420443105D806D286F017616C0FBC2F0C492CAFDCCD1F9
:403C0000CEFFD6108A019A02A202AE01B002B201B401BE05C053C5ECC702C813C9FFCAFFCBFFCF01D018D280D401D804DA04DB04DC03DD33DF01E040E240E440E540E6807F
:403C4000E880EA80EC80EE8003080440065409200E180F021086132016021715181019201A401C401DA01F02268027202C202F0236883C023E103F0242C0430845A147011D
:403C8000480249054C804E084F405308542059055B405C415F406404668067807002852087408A488C108F409001921094409A169B149E40A001A101A20CB502B604C0F20F
:403CC000C2E2C4F9CA50CC50CEA0D0B2D238D68BD8B068806B086F087308DAC0DC2084808708A480A708E210E6400108C008B508EA02100A1101000003000F4042300F4030
:403D00002B310F4022320F4045330F4006400F4006410F4002420F4002430F4002600F401F0000010C0000000400000113000C00000000001C010300010040000F00100299
:403D4000000013000300200202004000080100000F0000021C00600100800200000040045406020001C0E0000AFFFFFF62A0F0410C000000180004000404040411110001DA
:403D80000000000000004002001030100010101200000000000000000000000000000000030405060708090A0B0C0E0F101112131415161718191B1C1D1E1F2021222325CE
:403DC000262728292A2B2E2F3031323334350000EEDBC9B9AA9B8E82766B60564D443B332C241D17100A0400000000000000080000002000010000000000080000004000FB
:403E000002000000000000000000000003000000000008000000800004000000000000000000000005000000000000000000000006000000000000000000000007000000DF
:403E400000000000000000000000000028000000F9FF1F00000020000100000028000000F9FF1F00000040000200000028000000F9FF1F00000060000300000000000000BF
:403E800000000000000000000400000000000000000000000000000005000000000000000000000000000000060000000000000000000000000000000700000000000000EC
:403EC000000000000000000008000000000000000000000000000000090000000000000000000000000000000A0000000000000000000000000000000B000000000000009C
:403F000000000000000000000C0000000000000000000000000000000D0000000000000000000000000000000E0000000000000000000000000000000F000000000000004B
:403F4000000000000000000054210000B2200000B2200000B020000046210000462100003C210000B0200000462100003C21000046210000B02000004C2100004C21000088
:403F80004C210000D6210000EC2A0000BA290000C02A0000B0290000C02A0000CA2A0000C02A0000B0290000BA290000BA290000CA2A0000B0290000A6290000A62900000F
:403FC000A62900001C2D000034330000F4310000F4310000F23100000C3300000C330000FE320000F23100000C330000FE3200000C330000F23100001433000014330000A5
:40400000143300001435000043000000F8B5C046F8BC08BC9E4670474102000011090000F8B5C046F8BC08BC9E4670471902000040400000C0000020A0000000E8000000C1
:40404000000000007D3F553F7D3F553F7D3F553F7D3F553F960000007D3F553F7D3F553F480200200000E02EC05D00001800000000366E01F000000004040400000000007C
:4040800000000000000000000000000000000000000000000000000000000000084000000000000000000000000000000000000000000000000000000000000000000000B8
:4040C00000000000000000000000000000000000000000000000000000000000FC0000200000000000000000000000000000000000000000000000000000000000000000A4
:40410000000000000000000000000000000000000000000000000000000000000000000000000000000000000000000000000000000000000000000000000000000000007F
:40414000000000000000000000000000000000000000000000000000000000000000000000000000000000000000000000000000000000000000000000000000000000003F
:4041800000000000000000000000000000000000000000000000000000000000000000000000000000000000000000000000000000000000000000000000000000000000FF
:4041C00000000000000000000000000000000000000000000000000000000000000000000000000000000000000000000000000000000000000000000000000000000000BF
:020000040001F9
:0200000490303A
:02000000C9FF36
:0200000490402A
:4000000000000000000000000000000000000000000000000000000000000000000000000000000000000000000000000000000000000000000000000000000000000000C0
:400040000000000000000000000000000000000000000000000000000000000000000000000000000000000000000000000000000000000000000000000000000000000080
:0200000490501A
:0C0000000002112D11A100011141DBA034
:0200000490600A
:0100000001FE
:00000001FF