:400000000040002011000000990300009903000008B500F0DBF9C04670B51E4C1223236000F0C2FB1C4801F037F9182000F068FB00F0F2FA194A1A4B1A601A4D8026F60566
:400040002E600022184B1A60184B194919609C2040021849086018491960E020C000174908601749196082210906164B1960164B1A604232154B1A60013A154B1A600720C2
:40008000144900F079FA072000F060FA2E601123236070BD30001040001BB7000600008004010B400C020B40000301400000014040FF00800803014042FF00800403014083
:4000C00041FF008008010B4000010B404C010140280101409508000038B572B6002410E03F4863001A195200821891881B195B001A5AC31858880004104300F0CFF90134BE
:40010000E4B2022CECD9002412E0354DA3001A195200AA18918AD08A00040843131C128B598B09041143802200F0BEF90134E4B2002CEAD02A49081C2030403100F094F910
:4001400080225200274B1A80FF3A274B1A702F32264B1A60EE221202254B1A60AA22254B1A6099231B04244A13602449244A116080218902234A116080210903224A11609E
:40018000224A1360224B197802220A431A70214802783C218A4328390A430270197816220A431A701C4A1D4B1A6042221C4B1A6031231C4A136040211B4A1160D8210901A6
:4001C0001A4A11601A4A022111601A4A1360C0229202194B1A60FFF71FFF00F079F938BD5422000000600F4002600F4000020240000302400004024010500F4004009900AB
:4002000020500F4024500F4028500F4030500F4000700F4001700F4008101800080104400002044008020440180204400803044000040440080404400806044010B5064C68
:400240002378002B07D1054B002B02D0044800E000BF0123237010BD50010020000000004C22000008B5084B002B03D00748084900E000BF07480368002B00D108BD064B2C
:40028000002BFBD09847F9E7000000004C22000054010020C80000200000000070B500F0BBFD012000F032F9244E3278244C254D201C296801F0CAFB201C00F0A9FE727877
:4002C000201C296801F0C2FB201C00F0A1FEB278201C296801F0BAFB201C00F099FEF278201C296801F0B2FB201C00F091FE3279201C296801F0AAFB201C00F089FE72791C
:40030000201C296801F0A2FB201C00F081FEB279201C296801F09AFB201C00F079FEF2792968201C01F092FB201C00F071FE002000F082FE002000F0E9F870BDB8010020BE
:40034000B0010020CC00002010B562B6002000F0DDF800F041FE012000F08CFE00F02CFF00F03AFF022000F041FF00F037FD084800F0E8FD00F0FCFA002000F04BFF011CF8
:40038000044C2060002000F05BFF6060F4E7C0469D0200006C010020FEE7C04608B5031C084A1068C318084A9A1A802A02DC054A136005E001F00CFB0C2303600120404268
:4003C00008BDC046D0000020D001002070B50F4E0F4D13E029686B68AC68002202E001C901C30432A242FAD1E868002202E0002102C304328242FAD11035013E002EE9D126
:4004000001F0ECFAFFF7A0FFFEE7C046010000000028000008B50F4A136801218B43136000230AE0032B03D89A000B49505800E00A4899000A4A885001332F2BF2D9FFF756
:400440004BFE0022074B1A60024A116801230B43136008BD00001040000000009903000000000020C0000020F0B50025002711E0BB00C658F3B2FF22964308E06A008A189C
:400480001478A419527822700135013BDBB2002BF4D10137072FEBD9F0BDC04608B50A1C002101F0CAFA08BD08B501F0BDFA08BD064B1B68002803D080221206134301E05B
:4004C0005B005B08014A13607047C04680033A4008B50323084A1360084A136080221206074B1A604022074B1A600022064B1A600120FFF7DDFF08BD3000304030003140BF
:4005000000003A4000033A40000E3F4004490A68DF231A404001BF3B184010430860704700060440024A1168024B0B401360704700002240FFFFFFBF034B18688023DB05D7
:40054000184000D001207047000022401F2318401E3B8340181C014B1860704700E100E01F2318401E3B8340181C014B1860704780E100E001BE704738B5041C0D1C1F285A
:4005800002D90020FFF7F6FFA400034B9C4664442068256038BDC0464000002070B5041C0E1E032E02D90020FFF7E4FF1F2C02D90020FFF7DFFF03252540ED00063500F03C
:4005C00074FEA408A400074B9C46644423680322AA409343AE40351C1D43256000F069FE70BDC04600E400E010B5041C06E0084B186800F051FE074B9C46644480231B0202
:400600009C42F4D8024B5868604300F045FE10BDD40000200080FFFF30B583B000F0E4F8002856D000F041FE041C00230AE02A4A11683F220A402949C95C8A4201D103335D
:4006400003E001332D2BF2D90323254A1268D20606D1234802681F218A4313390A430260204A1168204A1140204A5A438020C00184466244D20B013A5205520D0A43A02153
:4006800049031143192B02D819490A430BE0194A9A1812781148C3189B7DD218FF2A00D9FF2292050A430F4B1A60134D2B680193302000F001FE114A13688021C9050B43D9
:4006C00013601420FFF790FF019B2B60201C00F0F0FD03B030BDC0462CFF0B403C25000034FF0B400800224000F800C040420F000000D43FCDF1FF0F30001040000022401F
:4007000030B587B0041C00F0D0FD051CFFF714FF002803D0FFF706FF012100E00021104B1B6800930F4B1B680193033C0E4B1B5D02930E4B1B68039304AA0D4B04936B4636
:4007400005930C4B1A600C480C4A10601B68012901D1FFF761FF281C00F0ABFD07B030BD08010B4000010B403C25000030001040B6EA00000800104017000080040010403D
:4007800008B5034B1B7A584300F086FD08BDC046D4000020034B1868C0231B02184000D00120704700010B4010B50D4B1A6801218A431A601A68022082431A60094A1068FC
:4007C0003024A043203C204310601068093CA043014311601A68802109060A431A6010BD00002240000F2240034B1B68002B01DA012000E0002070470000224008B500F0E7
:4008000054FD044A1368C02109020B43136000F050FD08BD00010B4010B500F046FD08490A68084B1A408024E40122430A600A6813408022120213430B6000F03AFD10BDB3
:4008400000010B40FF3FFFFF70B5061C00F02DFD041CFFF79FFF002803D0FFF7DDFF012500E000250848331C0340084A106808490840184310601368012D01D1FFF7BEFFA5
:40088000201C00F016FD70BD0404040010020B40FBFBFBFF10B5244B1B685B0715D5234B5B685B070ED5224B596A042001401F4C62688A4362605A6A82435A629B69002B2D
:4008C00000D098470420FFF7BFFF174B1B685B0518D5164B5B685B0510D5154B596A8022D2001140114842688A434260596A114A0A405A62DB69002B00D098478020C000DA
:40090000FFF7A2FF084B1B685B030CD5074B5B685B0304D5064B1B6A002B00D098478020C002FFF791FF10BD10020B40E40000207C010020FFFBFFFF08B50C4A13680121B4
:400940008B431360F023DB0100E0013B002B03D0064A1268D207F8D4002B04D01B20FFF7FFFD002000E0012008BDC04610002E40054B1A6801210A431A601B68194201D1BD
:40098000012000E00020704704002E4008B50E4A0E4B1A60FFF7ECFF1B20FFF7D7FD0C4A116801230B43136090231B0100E0013B002B03D0064A1268D207F8D5002B01D115
:4009C000012000E0002008BD0112000000002E4010002E4003B2002B0DDB094A1168094B0B400004034313601268074B1340984203D0012002E0022000E000207047C04674
:400A000014002E40FFFF00800000FF7F002809D10C4B19680C4A0A401A601B68DB040CD501300DE0074B1A68802149010A431A601B680B4203D1012002E0002000E0002096
:400A40007047C04614002E40FFEFFFFF70B5841E0D2C36D88C1E052C03D9002B33D1012933D1032A33D8824233D88A4233D81D4E3468250AF0242C40204335681A4C2540CA
:400A800004022C4334603568F02424012C400F2528400002844220D1002B00D002234901C9B29200D2B2114319430E4A1368EE2083430B4313601368034099420FD0ED38E6
:400AC0000EE002200CE002200AE0022008E0022006E0022004E0022002E0012000E0002070BDC04614002E40FFF0FFFF002809D10B4B1A6810218A431A601B6819420BD004
:400B000001300CE0064B1A6810210A431A601B68194203D1012002E0002000E00020704714002E40002809D10B4B1A6801218A431A601B6819420BD001300CE0064B1A68D3
:400B400001210A431A601B68194203D1012002E0002000E00020704714002E40044B18601B689BB2834201D0012000E00020704704002E4010B503785B01204A9446634480
:400B80001F4A41680A431A6003785B01634419681C4A11401C4A44682240914224D182681A6103785B0163441A6981688A421DD1C2685A6103785B0163445A69C1688A4246
:400BC00016D1012252429A6103785B0163449A6901320FD10022DA6103785B016344DB69002B09D0012008E0012006E0012004E0012002E0012000E0002010BDA0002E4091
:400C0000800080007F007F007FFF7FFF10B503781B01104A944663440F4A41680A431A6003781B01634419680C4A11400C4A4468224091420AD182685A6003781B01634460
:400C40005A6883689A4203D0012002E0012000E0002010BD20002E4008008000F7007F00F7FF7FFF38B500240AE063001B199B001048C018FFF7CAFF002805D10134E4B242
:400C8000072CF2D9002500E00125002D0BD00FE0230108486030C018FFF76CFF002806D10134E4B200E000240F2CF1D900E00125281C38BD84250000002809D10C4B196842
:400CC0000C4A0A401A601B689B040CD501300DE0074B1A68802189010A431A601B680B4203D1012002E0002000E000207047C04614002E40FFDFFFFF08B580221206334B1C
:400D00001A60334A136801218B431360F023DB0100E0013B002B03D02D4A1268D207F8D4002B49D01B20FFF71BFC1B202949FFF723FC1B200321FFF731FC0B20FFF74AFE06
:400D4000002819D1FFF762FE002817D1FFF7B4FF002815D10B30022102220023FFF776FE00280FD1FFF7C2FE00280DD1FFF7DAFE00280BD001230AE0012308E0012306E07C
:400D8000012304E0012302E0012300E00023002B14D1FFF767FF002812D10F48FFF7DEFE00280FD10A4B1A6807218A431A601B68194209D0013008E0012006E0012004E034
:400DC000012002E0012000E0002008BD00042E4010002E406D0E00000112000008B5084B1B78002B02D1FFF787FF00E00020002804D10122024B1A70FFF7C8FD08BDC046F2
:400E0000A401002008B580229200024B1A60FFF793FD08BD00002E4038B580225201104B1A600125002418E00E4B1B681D4210D063010D4A944663441B689B0609D5EB0738
:400E400004D5002C05D100F02FF802E0201C00F01DF86D00ADB20134E4B20F2CE4D938BD00002E4008002E40A0002E4008B5064B1B689B0501D5FFF7C5FF034B1B68DB0476
:400E800001D5FFF7C9FF08BD00002E404001054B9C4660440368DB0703D502680123134303607047A0002E400F4A1168090E0F4B19701168090C59701168090A99701268F1
:400EC000DA700B4A1168090E19711168090C59711168090A99711268DA71064A116801230B4313607047C046A8002E40B8010020AC002E40A0002E40AC23014AD050704713
:400F00000000002010B5041C00F0CFF9044A13689B009B08A4071C43146000F0CAF910BD18E400E080221205014B1A607047C04600E100E080221205014B1A607047C046DA
:400F400080E100E010B5041CFFF7F4FF201CFFF7D3FF0320FFF7D6FFFFF7E4FF10BDC0467222074B1A70523A064B1A701A3A064B1A704132054B1A700022054B1A707047BE
:400F800081000F4080000F4023000F4033000F4082000F4010B500F088F9041C0B4A117820230B4313700A490A7810231A43D2B20A70084A11780B43DBB21370FF2000F0DA
:400FC0004BF8201C00F075F910BDC04691000F4090000F4092000F4008B5064B1B78002B04D1FFF7BDFF0122024B1A70FFF7D2FF08BDC046A5010020034B1B785B07FBD4EA
:40100000024B18707047C04662000F4042000F4038B5084B1B78002B05D109E0FFF7ECFF0134A4B201E0051C0024285D0028F5D138BDC046A501002008B5064B1B78002B8D
:4010400007D0FFF7D9FF0D20FFF7D6FF0A20FFF7D3FF08BDA5010020044B1B68002BFBDB0002034B1843014B18607047000001404200008004490A68BF231A4080017F3B24
:4010800018401043086070470001044008B510200321FFF783FA10202349FFF76DFA0122224B1A60224B1B68002B01DA214900E02149224A13680B431360214A214B1A60F7
:4010C000214A224B1A600023214A1360214A22490A6022490A6022490A688020400202430A60204A1360204A136001221F4B1A601F4A11681F4B0B40802189050B431360D2
:4011000000230DE09A001C498C4662440021116058001A4A8152990019481A4A88500133002BEFD008BDC0468912000020003A4080033A40700210517002005100003A40A6
:401140008400008004003A400000FF0718003A401C003A400400040010003A4014003A4000033A4028023A4038023A4018023A4030003A40FEFFFFDF80003A40C4010020D2
:401180003E180000C001002008B5094B1B68002B0CDB084B1B68002BFBDB054A1368802109060B4313600A20FFF7EAFA08BDC04600003A4008023A4008B5064B1B78002BA7
:4011C00004D1FFF763FF0122024B1A70FFF7DCFF08BDC046A7010020034A1368802149020B4313607047C04604003A40021C83070CD0074B1B680120184001D19307F8D4AA
:40120000002804D00122024B1A6000E00020704710023A4010B5041E02D00020FFF7AAF9002C07D1A400054B9C46644420680004000C00E0002000B210BDC04680013A4079
:4012400038B5041C0D1C002802D00020FFF792F962000A4BD05A281A00B200F053FB084900F01EFA051CA400064BE05800F04AFB011C281C00F0DCF838BDC046C4010020A9
:4012800000002041C0010020014B1A681A60704710023A40000000000230800803D00138FDD1C046C046C0467047EFF3108072B6704780F31088704738B5041CFFF7F5FFFA
:4012C000051C102C05D8104A136803218B43136016E0202C07D80C490B6803229343023A13430B600CE0302C07D807490B6803229343013A13430B6002E00020FFF73AF98D
:40130000281CFFF7D6FF38BD30001040002243088B4274D303098B425FD3030A8B4244D3030B8B4228D3030C8B420DD3FF22090212BA030C8B4202D31212090265D0030BFF
:401340008B4219D300E0090AC30B8B4201D3CB03C01A5241830B8B4201D38B03C01A5241430B8B4201D34B03C01A5241030B8B4201D30B03C01A5241C30A8B4201D3CB02DE
:40138000C01A5241830A8B4201D38B02C01A5241430A8B4201D34B02C01A5241030A8B4201D30B02C01A5241CDD2C3098B4201D3CB01C01A524183098B4201D38B01C01AF0
:4013C000524143098B4201D34B01C01A524103098B4201D30B01C01A5241C3088B4201D3CB00C01A524183088B4201D38B00C01A524143088B4201D34B00C01A5241411AC7
:4014000000D20146524110467047FFE701B5002000F00CF802BDC0460029F7D003B5FFF775FF0EBC4243891A1847C0467047C046F0B556464D465F464446F0B44302450027
:40144000C70F83B08A465C0A2E0EB94641D0FF2E26D080231B042343DC00002398469B467F3E53465B025D0A53465A00DB0F120E9A4639D0FF2A33D080231B042B43DD009F
:4014800000237F3A5146B21A46467940081C01921E430F2E00D976E07E4AB6009659B746002C30D108239846063B9B46D9E780230021DB03FF245B02E4055B0AC9072343FC
:4014C0000B43181C03B03CBC90469946A246AB46F0BD002C28D104239846033B9B46C0E7002D1FD1022302E0002D11D10123B21A50464646784001921E430F2E27D86649B8
:40150000B60089598F460C239846093B9B46A8E7281C00F03FFA7622431F52429D40121A0023AFE70323ADE7201C00F033FA431F9C4076235B421E1A002398469B4690E7A8
:401540000025D1469B465B464846022B6FD10121FF2401400023AEE77E23019A5B429B1A1B2B6DDD01214B46194000240023A2E78023DB031C4249D18023DB0323435B023D
:401580005B0A391C96E763016D01AB4237D389461A2001215B1B01241E1C49005B00002E01DBAB4201D35B1B214301380028F3D1581E83410B431D1C019C7F34002CCBDDD8
:4015C0006B0704D00F232B40042B00D004352B0104D5019A314B8032141C1D40FE2C07DD4B460121FF241940002364E7251CAAE701214A46AB015B0AE4B211405BE7019A71
:401600008946013A01921B200021C4E71D4207D023435B025B0A391C4CE700256302ABD58023DB032B435B025B0A514642E7032B25D0012BC0D101210024014000233AE7FA
:40164000291CD9402B1C019A9E3293405D1EAB410B435A0704D00F221A40042A00D004335A0105D54B46012101241940002322E701214A469B015B0A114000241BE780237E
:4016800001214A46DB032B435B020A405B0A111C10E7C046E426000024270000FFFFFFF7F0B55F4656464D464446F0B445024600C40F83B00F1C6D0A360EA34645D0FF2E62
:4016C00025D080231B041D4300239A46ED007F3E01937B025B0A98467800FB0F000E994640D0FF2838D0802342461B041343DB00984600237F384A46019F30186240411C7A
:401700001F430F2F69D87D4EBF00F659B746002D45D108230193063B9A46DAE793465346022B2FD15B46012400251C40FF236D02DB056D0AE4071D432543281C03B03CBC9E
:4017400090469946A246AB46F0BD002D2CD104230193033B9A46BCE743465A4253410322D31AC8E742460123002AC4D0404600F011F94246431F9A4076235B42181A904622
:401780000023B8E7032B00D1ADE0012B00D08CE05B4654461C40E4B200230025C7E70C230193093B9A4694E7281C00F0F3F87626431F9D4000237642361A01939A4688E7E6
:4017C00080250024ED03FF23B1E74546CB469A46A5E7454693469A46A1E743462C041B0C9C46230C444626041C1C360C2F0C7443351C66467D4373437743EB18260C9E1978
:40180000B54203D980235B029C46674424043304240C1B199D016C1EA5419B0E360C2B43BD19AD011D432B0104D5012368081D400543081C031C7F33002B2CDD690704D08F
:401840000F212940042900D00435290103D52C4B1D40031C8033FE2B17DD0124FF231440002564E78020C003054209D04346034206D1454605436D026D0A4C46FF2356E7F7
:4018800005436D026D0AFF2351E70124AD016D0ADBB214404BE77E235B421B1A1B2B07DD012400231440002541E7081C5A46C1E79E30291C8540D940681E85410D436B0752
:4018C00004D00F232B40042B00D004356B0104D5012401231440002529E70124AD016D0A1440002323E78023DB031D4301245B466D0223401C1C6D0AFF2318E76427000089
:40190000FFFFFFF770B5041E39D0C50F00D04442201C00F03FF89E23261C1B1A962B07DC082801DD083884406402640AD8B21EE0992B0ADD0522211C121AD1400A1C011CFD
:401940001B318E40711E8E411643052801DD421F96400F4C3440720704D00F221640042E00D0043462010ED4A401640AD8B26402C005640AED0704432C43201C70BD0025C4
:4019800000200024F3E7024B1C409F231B1AEBE7FFFFFFFB1C2101231B04984201D3000C10391B0A984201D3000A08391B09984201D30009043902A2105C40187047C046C1
:4019C00004030202010101010000000000000000014B18687047C0464C0100200E4B70B500251E1C0D4CE41AA410A54204D0AB00F35898470135F8E700F0F0FE084B0025FF
:401A00001E1C084CE41AA410A54204D0AB00F35898470135F8E770BDE8270000E8270000E8270000F0270000002310B5934203D0CC5CC4540133F9E710BD031C8218934211
:401A400002D019700133FAE7704700000EB410B59DB002A9029008610B48822488604861012040421FABC881084804CBA400006801938C8100F06CF80023029A13701DB056
:401A800010BC08BC03B01847FFFFFF7F4C010020F0B58E6885B0071C0C1C03920193B34245D390238A89DB001A423DD003250969236801985B1A029363695D43EB0F5D199C
:401AC000029B6D1001331B189D4200D21D1C381C53050FD5291C00F01DFB061E13D0029A2169FFF7A1FFA289184B134080221343A38111E02A1C00F065FB061E0CD1381C02
:401B0000216900F0C1FA0C23402201203B60A38940421343A38117E0029B2661F61826606561019EED1AA560019BB34200D2019E321C2068039900F092FA0020A3689B1B0A
:401B4000A36023689E19266005B0F0BD7FFBFFFFF0B59FB0029005938B890E1C171C1B0610D50B69002B0DD1402100F0D3FA30603061002804D10C23029A01381360D0E04B
:401B800040237361002306AD6B6120336B761033AB763C1C2378002B03D1E31B049312D003E0252BF9D00134F4E7049B0298311C3A1CFFF76DFF431C00D1ACE06A69049BD3
:401BC000944663446B612378002B00D1A3E00122002352426A6002A95432521801342B60EB60AB601370AB654F4F2178381C052200F02AFA002808D0C01B01278740381CB2
:401C00002B68013418432860EEE72B68DA0604D55322202102A8121811701A0704D553222B2102A81218117022782A2A01D0099B0EE0059A111D12680591002A01DB0992EE
:401C400004E05242EA60022213432B60013409E02278303A092A04D80A214B4301349B18F6E7099323782E2B18D163782A2B09D1059B02341A1D1B680592002B0DDA01230E
:401C80005B420AE0002301342278303A092A04D80A214B4301349B18F6E70793234F2178381C032200F0D0F9002807D0C01B40278740381C2B6801341843286021781C48D9
:401CC0000622671C297600F0BFF9002812D0194B002B06D10722059B073393430833059314E005AB00930298291C321C124B00E000BF07E005AB00930298291C321C0E4BC6
:401D000000F08AF80390039B013304D06B69039A9B186B613DE7B3890B985B0601D5012040421FB0F0BDC046A6270000AC270000B027000000000000911A0000F7B5171CA8
:401D400001930A698B6800900C1C934200DA131C221C3B6043321278002A01D001333B6023689B0602D53B6802333B60062523681D401ED0231C43331B785A1E934122689C
:401D800092061CD53020E1184031C870211C5A1C45310978A21840320233D1700FE0221C0123009801991932089EB047431C0ED00135E3683A689B1A9D42F0DBDAE7221C33
:401DC000009801994332089DA847431C02D10120404220E006232068E1683A6803400025042B03D18D1AEB43DB171D40A3682269934201DD9B1AED180027AF420ADA221C6B
:401E00000123009801991A32089EB047431CDED00137F2E70020FEBDF0B58BB006920A1C43320793059004920A7E0C1C109B6E2A00D1A8E011D8632A22D009D8002A00D102
:401E4000B2E0582A00D0C2E045310A707C4A4FE0642A1DD0692A1BD0B9E0732A00D1A7E009D86F2A29D0702A00D0B0E0202209680A43226037E0752A1FD0782A33D0A6E0B1
:401E80000E1C1A684236111D196013683370A1E021681A68080606D4490604D5111D19600023D55E02E0111D19601568002D3BDA2D23049A6D42137036E021681A68080609
:401EC00006D4490604D51568111D1960ADB202E0111D196015685A4B227E03930A276F2A1DD108271BE0221C782145321170554A19680392081D226818600D68100602D48E
:401F0000500600D5ADB2D30702D520231A4322601027002D03D1202322689A432260231C002243331A7002E00A27454B03936368A360002B03DB0422216891432160002D3E
:401F400002D1049E002B0ED0049E281C391CFFF763FA039B013E5B5C281C3370391CFFF7D5F9051EF1D1082F09D12368DB0706D563682269934202DC3023013E3370049BA6
:401F80009B1B23612BE009681A68080607D4490605D5111D19601368A28A1A8004E0111D1960136862691A600023049E236116E01A68111D196016680021301C626800F097
:401FC00043F8002801D0801B6060636803E0261C42363270012323610023049A1370079B05980093211C069B09AAFFF7A7FE431C02D10120404221E0236905980699321C72
:40200000079DA847431CF4D023689B0705D4099BE068984212DA181C10E00025E368099A9B1A9D42F3DA221C0123059806991932079EB047431CDCD00135EFE70BB0F0BD96
:40204000B7270000C8270000C9B28218904204D003788B4202D00130F8E70020704710B5814208D28B18984205D29B1A013A09D3995C8154FAE70023934203D0CC5CC4549F
:402080000133F9E710BD000030B500293ED004390B68002B00DAC9181D4A1368141C002B02D14B60116031E099420DD208680A189A4203D11368C3180B6053684B602160AC
:4020C00024E08A4203D8131C5A68002AF9D11D685C198C420BD10968691858181960904214D110685268091819605A600EE08C4202D90C23036009E008680C18944203D144
:4021000014685268001908604A60596030BDC046AC010020032370B5CC1C9C430834051C0C2C01D20C2405E0002C03DA0C2300202B6042E08C42F9D3204A1368101C191C51
:40214000002913D00A68121B0DD40B2A02D90A608B181FE08B4202D15A6802601BE04A685A600B1C17E00B1C4968E9E7144E3368002B03D1281C00F04BF83060281C211C42
:4021800000F046F8031C421CD0D00322C61C964386420AD11C60181C07210B301A1D8843821A0AD05142995007E0311A281C00F02FF8431CBAD0331CECE770BDAC010020B8
:4021C000A8010020F8B5061C0C1C151C002904D1111CFFF79FFF041C18E0002A03D1FFF753FF2C1C12E000F025F8A8420ED2301C291CFFF78FFF071E07D0211C2A1CFFF736
:4022000013FC301C211CFFF73FFF3C1C201CF8BD38B50023064C051C081C2360FEF7BEF8431C03D12368002B00D02B6038BDC046C80100200B1F1A68101F002A04DA891808
:4022400004390B68D018043870470000000000002025690000300F40800000310F40000300400F400004000080300F40BC2400008000000003000F4012300F4036310F4018
:4022800069320F4057330F4004420F4003430F4002600F4080388172820F12011402210126012A042E0430013202340437013A803E153F405418580459045B045F01041019
:4022C0000540071009060C400D090E08102811801602172A180419481B411C081D0A1E011F04230124102540261129022D802F24360137283C183D023E023F80450A474056
:402300004C044F8054285A015E20600463026E046F057580772AC0E0C2FCC4F7CA71CCE0CEF0D0D0D230D621D80C000A021404800513062008E00E08100311101214141348
:402340001501160C170A18E019021B091E15202022C0241326042704284029132A203010310C320F330334E035103A083E013F0140234106460C47BE483449FF4AFF4BFF98
:402380004EF04F44500C5401580459045A045B045F0166C06A406B028203840C85718671870E8C148F0C900992D09410952C96AC974399809B139F08A010A240A620A8DCF0
:4023C000A971AA22AB06B01FB1C0B30FB4E0B530B922BA20BB08BF10C002C540C9FFCA07CBFFCC40CD20CEF0CF05D008D804D904DA04DF01E040E1A8E240E32000040102AB
:402400000302044005200640071409080B400C040D480E040F801020128814481504180419021A081D081E401F282040211022082340240827502B082D202F20303032885F
:4024400036043711384439043E044110441448204A804E045448550457425D085E405F21800883018440872088408A488B208C208D4092049408980899089B059C409D02DE
:402480009F50A204A504A804A901AB01AC04AD01B408B604B720C0FDC2FCC47ECA64CCEECE4AD064D220D6F0E80101085202C008D401AA02B508EA0210011101000000032A
:4024C000823C00411C3CE342FF7F00000F00F004F3080C0041180000C300000008000000040400800C6700180010F3001C800F1F2C20C04000802808000000103605040089
:402500000100C00E18FFFFFF62A0F0410C0000000000021104040404000000010000000000004002001030100010101200000000000000000000000000000000030405067E
:402540000708090A0B0C0E0F101112131415161718191B1C1D1E1F2021222325262728292A2B2E2F3031323334350000EEDBC9B9AA9B8E82766B60564D443B332C241D17C3
:40258000100A0400000000000000080000002000010000000000000000000000020000000000000000000000030000000000000000000000040000000000000000000000CB
:4025C0000500000000000000000000000600000000000000000000000700000000000000000000000000000028000000F9FF1F000000200001000000000000000000000069
:40260000000000000200000000000000000000000000000003000000000000000000000000000000040000000000000000000000000000000500000000000000000000008C
:40264000000000000600000000000000000000000000000007000000000000000000000000000000080000000000000000000000000000000900000000000000000000003C
:40268000000000000A0000000000000000000000000000000B0000000000000000000000000000000C0000000000000000000000000000000D0000000000000000000000EC
:4026C000000000000E0000000000000000000000000000000F000000000000000000000000000000861500004E1500006A150000421500006A150000AE1400006A15000029
:40270000421500004E1500004E150000AE14000042150000EC150000EC150000EC150000701500004E1500004E150000361600004015000036160000AE140000361600001A
:40274000401500004E1500004E150000AE14000040150000EC150000EC150000EC1500001A160000DA170000D2170000D2170000CA1700001C1700001C170000C017000013
:40278000CA1700001C170000C01700001C170000CA1700001E1700001E1700001E170000641800004300232D302B2000686C4C0065666745464700303132333435363738F9
:4027C00039414243444546003031323334353637383961626364656600000000F8B5C046F8BC08BC9E4670476502000015040000F8B5C046F8BC08BC9E4670473D0200005E
:4028000010280000C800002088000000800000000000000050220000D00100200000E02EC05D00001800000000366E01F00000000404040000000000000000000000000029
:402840000000000000000000000000000000000000000000A4270000000000000000000000000000000000000000000000000000000000000000000000000000000000008D
:402880000000000000000000000000000000000000000000EC000020000000000000000000000000000000000000000000000000000000000000000000000000000000000C
:4028C00000000000000000000000000000000000000000000000000000000000000000000000000000000000000000000000000000000000000000000000000000000000D8
:402900000000000000000000000000000000000000000000000000000000000000000000000000000000000000000000000000000000000000000000000000000000000097
:402940000000000000000000000000000000000000000000000000000000000000000000000000000000000000000000000000000000000000000000000000000000000057
:402980000000000000000000000000000000000000000000000000000000000000000000000000000000000000000000000000000000000000000000000000000000000017
:020000040001F9
:0200000490303A
:02000000E7C255
:0200000490402A
:4000000000000000000000000000000000000000000000000000000000000000000000000000000000000000000000000000000000000000000000000000000000000000C0
:400040000000000000000000000000000000000000000000000000000000000000000000000000000000000000000000000000000000000000000000000000000000000080
:0200000490501A
:0C0000000002112D11A100011138F9635C
:0200000490600A
:0100000001FE
:00000001FF