:400000000040002011000000DD0F0000DD0F000010B500F0FDFFC04670B51E4C1223236001F088F91C4802F047F8182001F038F901F0BEF8194A1A4B1A601A4D8026F60527
:400040002E600022184B1A60184B19491960194819490860194919609C204002184908601849196080210906174B1960174B1A604232174B1A60013A164B1A6016490720BB
:4000800001F046F8072001F02DF82E601123236070BDC04630001040001BB7000600008004010B400C020B40000301400000014040FF008000BF5D000803014042FF00806E
:4000C0000403014041FF008008010B4000010B4058010140500101402114000070B572B60122394B1A7000240FE038486200131959000B00411889881A5AC3185888000457
:40010000104300F061FF0134E4B2022CEDD9002411E02E4EA2001319590071188D8AC88A000428430A8B498B09041143802200F051FF0134E4B2002CEBD0244920312448BC
:40014000743000F017FFA0221201224B1A800121214B1970EE221202204B1A60AA22204B1A60204A204B1A60802292021F4B1A60992212041E4B1A6007231E4A13601E4A9E
:4001800013601E4803783C22934314221343DBB203701B4A107816230343DBB21370194B1960D8221201184B1A600222174B1A602F32174B1A60C0229202164B1A60FFF764
:4001C0002BFF00F0F1FE70BD1C700F405C470000DC48000000600F4002600F4000030240000402400400990020500F4024500F4030500F402000104000800F4001700F404F
:4002000000700F40080204400803044000040440080404400806044010B5064C2378002B07D1054B002B02D0044800E000BF0123237010BD700100200000000058470000D7
:40024000084B10B5002B03D00749084800E000BF07480368002B00D110BD064B002BFBD09847F9E7000000007401002058470000C00000200000000010B501F059FE04F08B
:4002800007F80022054B03F0FFF904F097F8044C616801F0C3FF206010BDC0460000E03F8C01002010B504F071F903F0F1FF0022F8239B0503F0E8F910BDC04610B5FFF72F
:4002C000F1FF024A024B03F0DFF910BD9A9999999999C93F10B5FFF7E5FF04F06FF804F019F810BD10B5FFF7DDFF04F067F804F011F8044A044B03F0C7F904F05FF804F0FC
:4003000009F810BD9A9999999999C93F10B5FFF7C9FF0022C0231B0603F0B6F904F04EF8FE21890501F07AFF03F0F4FF10BDC04610B5FFF7B7FF04F041F803F0EBFF0C4A2A
:400340000C4B03F0A1F904F039F803F0E3FF084A094B03F013FC04F031F803F0DBFF074A074B02F057FD04F029F803F0D3FF10BD9A9999999999D93F9999C93F0E2DB29D0A
:40038000EFA7EA3F10B5094B80221A70C9B259709970653ADA7000221A715A719871D97101F056FB322000F0EBFE10BDA8030020F0B585B00190029103921F00274902F01F
:4003C0006DFA4000400802F003FD06002349029802F064FA4000400802F0FAFC05001F49039802F05BFA4000400802F0F1FC04001B4B81221A705F70F7B23612F6B200217A
:40040000019801F0E3FE002801D0803EF6B2144B9F70DE70EEB22D12EDB20021029801F0D5FE002801D0803DEDB20D4B1E715D71E5B22412E4B20021039801F0C7FE002832
:4004400001D0803CE4B2064B9D71DC7101F054FB192000F095FE05B0F0BDC04600401C469803002070B51A4B1B787F2B0BD1184A9278022A07D1164AD2782B2A03D1144AA8
:400480001179144A9160802B21D1114BDB781B2B1DD10F4BDA790F4B9B689A4217DB0E4D0C4C20232A68E1682069FFF781FF322000F066FE6A68E16860692123FFF778FF00
:4004C000322000F05DFE00210020FFF75BFF70BD880400208C010020C40000203C4B1B78822B74D13A4B5B78002B0BD1384A9278002A07D1364AD278002A03D10022354B01
:400500005A6064E0002B0BD1314A9278002A07D12F4AD278012A03D12F4A2E4B5A6056E0002B0BD12A4A9278012A07D1284AD278002A03D1294A274B5A6048E0002B0BD17B
:40054000234A9278012A07D1214AD278012A03D1234A204B5A603AE0012B0BD11C4A9278002A07D11A4AD278002A03D11A4A194B5A602CE0012B0BD1154A9278002A07D17A
:40058000134AD278012A03D1164A124B5A601EE0012B0BD10E4A9278012A07D10C4AD278002A03D10E4A0B4B5A6010E0012B0BD1074B9B78012B07D1054BDB78012B03D1A9
:4005C000094A044B5A6002E00022024B5A607047B80300208C0100200000A041000070420000A042000020420000C84210B500F0B7FF01F0E7F9FFF735FFFFF76FFF00F0BA
:400600007DFF10BDF0B583B007000E0003680193012409E0A300DD59291C019801F0D6FD002800D001950134B442F3DB019803B0F0BDC046F0B583B0040001001548FFF746
:40064000E1FF071C21001448FFF7DCFF0190002519E0104EAC00391CA05901F055FF011CA051FE20800502F02DFAA0510A4E0199A05901F049FF011CA051FE20800502F05B
:4006800021FAA0510135054B9B689D42E1DB03B0F0BDC04648030020F8020020C400002070B51B4B8200D1581A4A516101000A318900C9581161010014318900C958D16076
:4006C00002001E329200D158134A516028308000C3581360002518E00F4E0E4C20233268E1682069FFF764FE322000F049FD7268E16860692123FFF75BFE322000F040FD18
:4007000000210020FFF73EFE0135042DE4DD70BDC00300208C010020C400002070B5134B00225A611A61DA60114B124A5A601A60002518E00E4E0D4C20233268E1682069FB
:40074000FFF736FE322000F01BFD7268E16860692123FFF72DFE322000F012FD00210020FFF710FE0135042DE4DD70BD8C010020C40000207D3F553FF0B5474680B4414BE6
:4007800000229A61DA61002408E0A2003E4BD0583C4DA96901F042FDA86101343B4B9D68AC42F2DB002409E0A600374BF058354B996901F0A9FE364BF0500134AC42F3DBEA
:4007C00000271FE0FFF76EFD03F0F8FD051C2D4BD86100229A6100240BE0A2002C4BD158301C01F01BFD274B9861BB00294A9C500134244B9E69311C281C01F0FBFC002824
:40080000EBD10137214B9E68B742DBDB002234E09400204BE3582048990088461F4945462D5865501D000A35AD002D58AC4615000A35AD0067466F501D001435AD002D58B2
:40084000AC4615001435AD0067466F501D001E35AD002D58AC4615001E35AD0067466F5028339B001858130028339B005850064B4146C9580A4BE1500132B242C8DB04BCDA
:400880009046F0BD8C01002048030020C4000020700300202003002030020020C0030020F802002070B5051C0E1C141C111C01F0A1FC002807D1311C281C01F087FC00280C
:4008C00003D0301C02E0201C00E0281C70BDC046F8B50400FFF7E6FC0022244B01F03CFC002812D00027224DA600224A391C7059FFF7D8FF705126000A36B6001E4A391CEA
:400900007059FFF7CFFF705111E00027184DA600194A391C7059FFF7C5FF705126000A36B600144A391C7059FFF7BCFF7051104F25001435AD00FE2292051049E859FFF77F
:40094000B1FFE8510E4E23001E339D00321C0D49E859FFF7A7FFE8512834A400321C0949E059FFF79FFFE051F8BDC0460000E03FC0030020CDCC4C3ECDCC4C3F000080BF86
:400980002506913FB072083FF0B54F464646C0B487B0394CA06803F07BFC06000F00FFF781FC02000B003000390002F06DFE03F039FC8146A06803F06BFC04000D00FFF7B8
:4009C00071FC02000B002000290002F05DFE03F029FC8046002541E0FFF764FC03F0EEFC061CFFF75FFC03F0E9FC041C0296311CFE20800502F066F804900394211CFE20C7
:400A0000800502F05FF805901C4FAB0059194A004A449600F2594C004444A400E35900930192111C029801F039FF02900099049801F034FF011C029801F0F0FBF0510199EF
:400A4000039801F02BFF061C0099059801F026FF011C301C01F0E2FBE0510135042DBBDD4846FFF735FF4046FFF732FF07B00CBC90469946F0BDC046C4000020C0030020D8
:400A8000F0B5574680B482B0554B986803F000FC04000D00FFF706FC02000B002000290002F0F2FD03F0BEFB0400FFF7FBFB03F0B9FB85001AD14B4EAF007A1953001B19AA
:400AC0009B009B599A46FFF7F9FB00900191504603F020FC009A019B02F09CF97D196B001B199D0003F06AFCA85172E0012D1AD13C4EAF007A1953001B199B009B599A46C8
:400B0000FFF7DCFB00900191504603F003FC009A019B02F07FF97D196B001B199D0003F04DFCA85155E0022D1AD12E4EAF007A1953001B199B009B599A46FFF7BFFB009054
:400B40000191504603F0E6FB009A019B02F062F97D196B001B199D0003F030FCA85138E0032D1AD11F4EAF007A1953001B199B009B599A46FFF7A2FB00900191504603F0F6
:400B8000C9FB009A019B02F045F97D196B001B199D0003F013FCA8511BE0042D19D1114EAF007A1953001B199B009B599A46FFF785FB00900191504603F0ACFB009A019B93
:400BC00002F028F97D196B001B199D0003F0F6FBA8512000FFF77CFE02B004BC9246F0BDC4000020C003002010B5002422E0A300134A9858134A995801F0E8FA002818D0D9
:400C0000114AA100114B8858C85021000A3189008858C8502100143189008858C85021001E3189008858C8502100283189008A58CA500134064B9B689C42D8DB10BDC046C3
:400C4000F802002048030020C003002030020020C400002070B53D4B1B6A012B16D002DC002B05D070E0022B1BD0032B35D06BE0374CA068FFF7DEFCFFF7B6FF0523E3605D
:400C8000324B00225A6201321A625DE0FFF746FDFFF772FD05222E4BDA60033A2B4B1A6252E0FFF7FFFA03F089FB294B196901F08DFA002801D0FFF767FEFFF7F3FA03F016
:400CC0007DFB234B596901F081FA002801D0FFF7D7FE03221D4B1A6236E01C4B9B6A012B0DD0022B14D0002B2ED1184B01229A62586AFFF7D5FC3222154BDA6024E002222C
:400D0000124B9A62FFF70AFD1422114BDA601BE00E4C0023A3622068636A9B000D4A98500D4DE36A2B7002F053F8687000F038FF636A01336362064A0A21D1609268934226
:400D400002D10022014B1A6270BDC0468C010020C4000020F8020020B003002010B50B4A138E01331BB21386094AD268934208D1012000F097F9FFF76DFF0022034B1A8662
:400D800002E0002000F08EF910BDC0468C010020C400002010B5FFF7E1FF10BD70B5002458E0FFF77FFAA50003F008FB674BE850FFF778FA0022664B01F0CEF9002827D067
:400DC000FFF788FA634DA60003F0F8FA7051FFF789FA26000A36B60003F0F0FA7051FFF795FA26001436B60003F0E8FA7051FFF79FFA26001E36B60003F0E0FA7051FFF7C8
:400E000097FA26002836B60003F0D8FA705120E0FFF760FA4F4DA60003F0D0FA705123000A339B0000225A51FFF770FA26001436B60003F0C3FA705123001E339B00464AF3
:400E40005A51FFF775FA26002836B60003F0B6FA70510134414B9B689C42A2DB002458E0FFF720FAA50003F0A9FA3D4BE850FFF719FA0022364B01F06FF9002827D0FFF724
:400E800029FA384DA60003F099FA7051FFF72AFA26000A36B60003F091FA7051FFF736FA26001436B60003F089FA7051FFF740FA26001E36B60003F081FA7051FFF738FAEE
:400EC00026002836B60003F079FA705120E0FFF701FA244DA60003F071FA705123000A339B0000225A51FFF711FA26001436B60003F064FA705123001E339B00164A5A514F
:400F0000FFF716FA26002836B60003F057FA70510134124B9B689C42A2DB96220F4BDA6000F032FD00F068FF00F09CFF00F0F0FF0D4800F007FF00F0E1FA0C4801F0ACF851
:400F40000B4800F09DFF62B6FEE7C046480300200000E03F300200207D3F553FC4000020F8020020C0030020ED05000079020000950D0000F0B50025002711E0BB00C658B8
:400F8000F3B2FF22964308E06A008A181478A419527822700135013BDBB2002BF4D10137092FEBD9F0BDC0460323044A1360044A13600022034B1A607047C0463000304034
:400FC00030003140000E3F4010B50A00002103F0D4FA10BD10B503F0C7FA10BDFEE7C04610B50300084A1068C318084A9A1A802A02DC054A136005E003F08AFA0C23036069
:401000000120404210BDC046EC000020A004002070B50F4E0F4D13E029686B68AC68002202E001C901C30432A242FAD1E868002202E0002102C304328242FAD11035013E27
:40104000002EE9D103F06AFAFFF7A8FEFEE7C04601000000C84C000010B50E4A136801218B43136000230AE0032B03D89A000A49505800E009489900094A885001332F2B6C
:40108000F2D9FFF72BF8034A116801230B43136010BDC0460000104000000000DD0F00000000002004490A68D2B220239A434001184010430860704700060440024A1168F5
:4010C000024B0B401360704700002240FFFFFFBF034B18688023DB05184000D001207047000022401F2318401E3B8340014A13607047C04600E100E01F2318401E3B8340B5
:40110000014A13607047C04680E100E001BE704770B504000D001F2802D90020FFF7F6FF1034A40080239B059C4664442068256070BDC04670B504000E00032902D90020C7
:40114000FFF7E4FF1F2C02D90020FFF7DFFF03252540ED00063500F0B8FFA408A400074B9C46644421680323AB4099430B003100A9401943216000F0ACFF70BD00E400E0F0
:4011800010B5040006E0084B186800F095FF074B9C46644480231B029C42F4D8024B5868604300F089FF10BDF00000200080FFFF30B583B000F0DEF800285AD000F085FFBC
:4011C000040000230AE02C4A12683F210A402B49C95C8A4201D1033303E001332D2BF2D90323274A1268D20606D1254802681F218A4313390A430260224A1168224A0A4063
:40120000224959438020C00184466144C90B01394905490D0A43A021490311430800192B02D81B4B1A430EE01A4A9A1812781A3B1249C9183023CB5CD318FF2B00D9FF23E5
:401240009B0502001A430F4B1A60134D2B680193302000F041FF114A13688021C9050B4313601420FFF78CFF019B2B60200000F030FF03B030BDC0462CFF0B40F849000016
:4012800034FF0B400800224000F800C040420F000000D43FCDF1FF0F300010400000224030B587B0040000F010FF0500FFF710FF002803D0FFF702FF012100E00021104BA3
:4012C0001B6800930F4B1B680193033C0E4B1B5D02930E4B1B68039304AA0D4B04936B4605930C4B1A600C480C4A10601B68012901D1FFF75DFF280000F0EBFE07B030BD09
:4013000008010B4000010B40F849000030001040B6EA0000080010401700008004001040034B1868C0231B02184000D00120704700010B4010B50D4B1A6801218A431A6047
:401340001A68022082431A60094A10683024A043203C204310601068093CA043014311601A68802109060A431A6010BD00002240000F2240034B1B68002B01DA012000E093
:40138000002070470000224010B500F09EFE044A1368C02109020B43136000F09AFE10BD00010B4010B500F090FE08490A68084B1A408024E40122430A600A68134080221A
:4013C000120213430B6000F084FE10BD00010B40FF3FFFFF70B5050000F077FE0400FFF79FFF002803D0FFF7DDFF012100E0002108482840084A1568084B2B40184310602A
:401400001368012901D1FFF7BFFF200000F061FE70BDC0460404040010020B40FBFBFBFF10B5244B1B685B0715D5234B5B685B070ED5224B596A042001401F4C62688A4376
:4014400062605A6A82435A629B69002B00D098470420FFF7BFFF174B1B685B0518D5164B5B685B0510D5154B596A8022D2001140114842688A434260596A114A0A405A6296
:40148000DB69002B00D098478020C000FFF7A2FF084B1B685B030CD5074B5B685B0304D5064B1B6A002B00D098478020C002FFF791FF10BD10020B4000010020F8010020BA
:4014C000FFFBFFFF10B50C4A136801218B431360F0231B0100E0013B002B03D0064A1268D207F8D4002B04D01B20FFF705FE002000E0012010BDC04610002E40054B1A68CC
:4015000001210A431A601B68194201D1012000E00020704704002E4010B50E4A0E4B1A60FFF7ECFF1B20FFF7DDFD0C4A116801230B43136090235B0000E0013B002B03D010
:40154000064A1268D207F8D5002B01D1012000E0002010BD0112000000002E4010002E40054B1A6801218A431A601B68194201D0012000E00020704704002E4003B2002BFD
:401580000DDB094A1168094B0B400004034313601268074B1340984203D0012002E0022000E000207047C04614002E40FFFF00800000FF7F002809D10C4B19680C4A0A4075
:4015C0001A601B68DB040CD501300DE0074B1A68802149010A431A601B680B4203D1012002E0002000E000207047C04614002E40FFEFFFFF70B5841EE4B20D2C35D88C1E4B
:40160000E4B2052C03D9002B31D1012931D1032A31D8904231D3914231D31C4D2C68240AE4B20F26B44320432E68194C3440000204432C602C686040F0242401204220D177
:40164000002B00D002234901C9B29200D2B2114319430E4A1368EE2083430B4313601368034099420FD0ED380EE002200CE002200AE0022008E0022006E0022004E0022078
:4016800002E0012000E0002070BDC04614002E40FFF0FFFF002809D10B4B1A6810218A431A601B6819420BD001300CE0064B1A6810210A431A601B68194203D1012002E0DD
:4016C000002000E00020704714002E40002809D10B4B1A6801218A431A601B6819420BD001300CE0064B1A6801210A431A601B68194203D1012002E0002000E00020704730
:4017000014002E40054B18601B681B041B0C984201D0012000E000207047C04604002E4010B503785B01204A944663441F4A41680A431A6003785B01634419681C4A114085
:401740001C4A44682240914224D182681A6103785B0163441A6981688A421DD1C2685A6103785B0163445A69C1688A4216D1012252429A6103785B0163449A6901320FD1DC
:401780000022DA6103785B016344DB69002B09D0012008E0012006E0012004E0012002E0012000E0002010BDA0002E40800080007F007F007FFF7FFF10B503781B01104A42
:4017C000944663440F4A41680A431A6003781B01634419680C4A11400C4A4468224091420AD182685A6003781B0163445A6883689A4203D0012002E0012000E0002010BDF8
:4018000020002E4008008000F7007F00F7FF7FFF70B500240AE063001B199800104B1818FFF7CAFF002805D10134E4B2072CF2D9002500E00125002D0BD00FE0230108489F
:401840006030C018FFF76CFF002806D10134E4B200E000240F2CF1D900E00125280070BD404A0000002809D10C4B19680C4A0A401A601B689B040CD501300DE0074B1A68FE
:40188000802189010A431A601B680B4203D1012002E0002000E000207047C04614002E40FFDFFFFF10B580221206334B1A60334A136801218B431360F0231B0100E0013B37
:4018C000002B03D02D4A1268D207F8D4002B49D01B20FFF711FC2A491B20FFF719FC03211B20FFF727FC0120FFF748FE002819D1FFF760FE002817D1FFF7B4FF002815D117
:401900000023012201210830FFF774FE00280FD1FFF7C0FE00280DD1FFF7D8FE00280BD001230AE0012308E0012306E0012304E0012302E0012300E00023002B14D1FFF7AF
:4019400067FF002812D10F48FFF7DCFE00280FD10A4B1A6807218A431A601B68194209D0013008E0012006E0012004E0012002E0012000E0002010BD00042E4010002E40C4
:40198000311A00000112000010B5084B1B78002B02D1FFF787FF00E00020002804D10122024B1A70FFF7B8FD10BDC0462002002010B580229200024B1A60FFF783FD10BDEA
:4019C00000002E4070B580225201164B1A600125002423E0144B1B682B421BD06301134A944663441B689B0614D56B070FD0012C07D0002C02D0022C06D00BE000F004F97F
:401A000008E000F029F905E000F04EF902E0200000F0ECF86D00ADB20134E4B20F2CD9D970BDC04600002E4008002E40A0002E4010B5064B1B689B0501D5FFF7B9FF034B06
:401A40001B68DB0401D5FFF7BDFF10BD00002E4070B5234B1B68DB073FD4224B19680902090A214A107800060143196019681F4801400C0051780904214319601C681C49A3
:401A80000C402500947824022C431C601C68FF26B443D5782C431C60164B1C682402240A15792D062C431C601C68204054792404204318601868014090790002014319609E
:401AC0001868B043D17902000A431A60044A116801230B431360002000E0012070BDC04620002E4028002E40A8030020FFFF00FFFF00FFFF2C002E4070B5234B1B68DB07E5
:401B00003FD4224B19680902090A214A107800060143196019681F4801400C0051780904214319601C681C490C402500947824022C431C601C68FF26B443D5782C431C6099
:401B4000164B1C682402240A15792D062C431C601C68204054792404204318601868014090790002014319601868B043D17902000A431A60044A116801230B4313600020F1
:401B800000E0012070BDC04630002E4038002E4098030020FFFF00FFFF00FFFF3C002E400E4B1B68DB0716D40D490B681B021B0A0C480278120613430B600A680A4B1340DA
:401BC0004278120413430B60044A116801230B431360002000E001207047C04650002E4058002E40B0030020FFFF00FF4001054B9C4660440368DB0703D502680123134356
:401C000003607047A0002E400F4A1168090E0F4B19701168090C59701168090A99701268DA700B4A1168090E19711168090C59711168090A99711268DA71064A11680123F1
:401C40000B4313607047C046A8002E4088040020AC002E40A0002E400F4A1168090E0F4B19701168090C59701168090A99701268DA700B4A1168090E19711168090C5971B9
:401C80001168090A99711268DA71064A116801230B4313607047C046C8002E40A0030020CC002E40C0002E400F4A1168090E0F4B19701168090C59701168090A99701268CB
:401CC000DA700B4A1168090E19711168090C59711168090A99711268DA71064A116801230B4313607047C046E8002E40B8030020EC002E40E0002E40AC23014AD050704743
:401D00000000002010B5040000F0DFF9044A13689B009B08A4071C43146000F0DAF910BD18E400E080221205014B1A607047C04600E100E080221205014B1A607047C046C8
:401D400080E100E010B50400FFF7F4FF2000FFF7D3FF0320FFF7D6FFFFF7E4FF10BDC046034A117880235B420B43DBB21370704773000F40014B18707047C04683000F409E
:401D8000014B1878C0B2704763000F40014B18707047C04623000F40014B1878C0B2704743000F40014B18707047C04603000F4010B501E0FFF7F0FFFFF7E2FF0307F9D4B6
:401DC00010BDC04610B5FF20FFF7E0FFFF20FFF7E9FF00F07AF9074A117810230B43DBB2137000F076F9FFF7E3FF0020FFF7C2FF10BDC04693000F4010B5064B1B78002BF5
:401E000004D1FFF7DFFF0122024B1A70FFF7A8FF10BDC046210200207047C046014B58647047C0460000002010B5040000F04DF9044A1168044B0B40A4031C43146000F0E0
:401E400048F910BD00E400E0FF3FFFFF0222014B1A60704700E100E00222014B1A60704780E100E010B5FFF7F7FF0448FFF7D6FF0320FFF7D9FFFFF7E9FF10BD191E000075
:401E800010B50400FFF7E8FF2000FFF7C7FF0320FFF7CAFFFFF7DAFF10BDC04610B509490220FFF735F903210220FFF743F90022054B1A707232054B1A70523A044B1A7068
:401EC00010BDC046A91F00002202002081000F4082000F4010B500F0F8F804000A4A117820230B43DBB21370084A117810230B43DBB213700220FFF7F5F8FF2000F09CF827
:401F0000200000F0E6F810BD91000F4092000F4010B5064B5B78002B04D1FFF7BFFF0122024B5A70FFF7D6FF10BDC0462202002010B50220FFF7E0F8174A9378DBB2D17875
:401F4000C9B21279002A01D18B4210D0134AD45CE4B20133DBB2072B00D900230E4A93701379002B12D000220B4B1A710EE00C4B1B78DBB29A0606D50A4A1478E4B21E2213
:401F80001A4202D102E0002400E000240220FFF7A9F8200010BDC046220200209004002062000F4042000F401B4B1B78DBB21E221A4204D019481A4001780A4302702022D7
:401FC000134025D0164A1178C9B2164A1278D2B215488154154A1278002A02D00121144A117010490A780132D2B20A700A78D2B2072A02D900210B4A11700A4A1178C9B242
:402000000C4A1278D2B2914202D10121074A1170002BC9D17047C04662000F402202002042000F402502002090040020260200202702002024020020044B1B68002BFBDBF5
:402040000002034B1843014B186070470000014041000080014B18647047C0460000002010B5040000F031F8044A1368C0218B43A4011C43146000F02CF810BD00E400E01C
:402080000122014B1A60704700E100E00122014B1A60704780E100E010B50400FFF7F6FF2000FFF7D7FF0320FFF7DAFFFFF7E8FF10BDC046000000000230800803D00138D6
:4020C000FDD1C046C046C0467047EFF3108072B6704780F31088704770B50400FFF7F5FF0500102C05D8104A136803218B43136016E0202C07D80C490B6803229343023AAB
:4021000013430B600CE0302C07D807490B6803229343013A13430B6002E00020FEF7F6FF2800FFF7D6FF70BD300010408446101C62468C46191C634600E0C0461FB501F078
:4021400039FA002801D40021C8421FBD10B501F08DF94042013010BD10B501F02BFA002801DB002010BD012010BDC04610B501F021FA002801DD002010BD012010BDC046F4
:4021800010B501F0B3F9002801DC002010BD012010BDC04610B501F0A9F9002801DA002010BD012010BDC0468446081C6146FFE71FB500F02FFB002801D40021C8421FBD2E
:4021C00010B500F0BBFA4042013010BD10B500F021FB002801DB002010BD012010BDC04610B500F017FB002801DD002010BD012010BDC04610B500F0C9FA002801DC0020F4
:4022000010BD012010BDC04610B500F0BFFA002801DA002010BD012010BDC046F8B54A02430244004E00C50F240E28009B09360EC90F92098D4259D0A01B002800DC8DE00E
:40224000002E1AD1002A00D079E05A0704D00F221A40042A00D004335A0138D50134FF2C00D189E028009B015B0AE4B25B02E4055B0A2343C0071843F8BDFF2CE5D08021D3
:40228000C9040A431B2800DD89E016002021C640081A8240511E8A4132439B1A5A0114D59B019E09300002F015F905388640844265DC041B330020200134E340041BA64026
:4022C000721E964100243343BFE75A07BFD1DF082800FF2C2FD1002F00D187E08022D20313003B435B025B0AFF24BFE7A11B002949DD002E29D0FF2CA7D08026F604324329
:402300001B2900DD8DE017002026CF40711A8A40511E8A413A439B185A01D6D50134FF2C64D0012276491A405B080B4013438CE7031ECAD100207B025B0AE4B296E701388D
:402340000028AAD0FF2C9DD17FE7002A00D17CE701390029DFD0FF2CD2D176E7002820D1601CC0B2012853DD80279E1AFF0437402FD0D61A0D0095E72800002376E7614B1C
:40238000241A334061E700294DD1611CCEB2012E2FDDFF292AD09B185B080C0055E701227BE7002C1BD1002B5BD0C04300280CD0FF2E7ED01B2800DD92E01D002024C540B8
:4023C000201A8340581E83412B43D31A34000D0064E7002E00D065E700200024ABE7FF2E67D08024E40440422343E3E7FF2400233CE7002C61D1002B7ED0002A00D124E7B7
:402400009B185A0100D460E73E4A0C0013401CE7002C1ED1002B2FD1002A66D013000D0013E7012277E7002C1FD1002B5AD0C94300290BD0FF2E50D01B295FDC1F00202498
:40244000CF40611A8B40591E8B413B439B18340062E7002B1CD1002A4AD013000D00FF24F3E6130034000D00EFE6FF2E35D08024E40449422343DFE7002A00D1E5E6802793
:40248000981AFF04074000D152E7D31A0D00DCE6FF24002A00D1D8E68020DB08C003034204D0D208024201D113000D00DB00FF24CBE61300FF240D00C7E6002B0DD0FF2445
:4024C000002A00D1C1E68021DB08C9030B42EDD0D2080A42EAD11300E8E71300FF24B4E6012372E713003400AFE60027002022E780270020FF03F1E61300A6E60123A5E7B5
:40250000FFFFFF7DFFFFFFFBF0B5564644465F464D46F0B444024600C70F83B08846650A360EBA463DD0FF2E22D00023EC00802599469B46ED0425437F3E43465C02580077
:40254000DB0F640A000E984636D0FF2830D080230021E400DB041C437F38301A0190484642460843724E800030587A4013008746002D44D108239946063B9B46DDE701225A
:40258000FF2000241A406402C305640AD2071C431443200003B03CBC90469946A246AB46F0BD002D20D104239946033B9B46C4E7002C17D1022102E0002C0AD10121321AD1
:4025C00001924A4643460A435A48920082587B409746200001F07EFF431F76309C4040420021BAE70321B8E7280001F073FF431F9D4000237630464299469B469DE70C2335
:402600009946093B9B4698E780240022E403FF20B9E70024C2468B465A465346022AAED0032A7DD0012A31D1012200201A400024A9E70122101A1B2856DD1A400020002472
:40264000A1E78023DB031D424BD18023DB032B435C02640A3A00FF2095E76D016001854230D2019A0024013A01921B220127290064006D00002901DBA84201D82D1A3C4334
:40268000013A002AF3D16A1E95412C4301987F300028CEDD620704D00F222240042A00D00434220103D5244A019814408030FE2800DD64E70122A401640AC0B21A4062E764
:4026C0002C00A9E72D1A1A220124CFE76B02BCD500248023DB031C436402640A4246FF2051E71C42B3D1F4E721002022C140101A8440621E94410C43620704D00F22224088
:40270000042A00D00434620104D5012201201A40002438E70122A401640A1A40002032E78023DB031C436402640A5246FF202AE7A04B0000E04B0000FFFFFFF7430270B58D
:4027400042004C005D0AC30F4802120E460A240EC90FFF2A0FD0FF2C11D00120A24200D070BDB542FCD18B420DD0002AF8D12800431E9841F4E70120002DF1D1EBE7012017
:40278000002EEDD1E9E70020EAE7C0464302F0B542005D0AC30F4802440A4800120E000EC90FFF2A1FD0FF2822D0002A09D16E426E4100280FD1002C0DD10020002D09D04F
:4027C00005E0002801D1002C01D08B4213D0584201231843F0BD002EF7D048424141012049420843F6E7002DDDD002204042F1E7002CDAD0F9E78242E9DC04DBA542E6D899
:402800000020A542E6D25842434101205B421843E0E7C0464302F0B542004C005E0AC30F4802120E450A240EC90FFF2A17D0FF2C19D0002A0BD170427041002C17D0002898
:4028400007D048424141012049420843F0BD002C13D08B4214D0584201231843F6E70220002EF3D1E3E70220002DEFD1E1E7002DE5D10020002EE9D0EDE7002DE9D1EAE7F0
:40288000A242E8DC04DBAE42E5D80020AE42DDD25842434101205B421843D7E7F0B557464E4645464300E0B446028846760A1F0EC40F002F47D0FF2F25D0002380259A4651
:4028C0009946F600ED042E437F3F434642465D02D20F5B006D0A1B0E904640D0FF2B39D080220020ED00D20415437F3BFB1842465746591C62408C4607430F2F5CD86F4952
:40290000BF00C9598F46002E45D108239A46063B9946DAE7424602282DD0032800D1C3E0012800D0A2E0002500260240D4B27602ED05760A2E43E407264330001CBC904648
:402940009946A246F0BD002E1AD104239A46033B9946BAE72A00511E8A41901CC6E70120002DC3D0280001F0B5FD431F76309D4043420020BAE70124FF2514400026D6E7F1
:40298000300001F0A7FD431F9E400023763047429A46994699E70C239A46093B994694E780260024F603FF25C1E735004846B2E7350022004846AEE72904090C0800370CE2
:4029C0003604360C2C0C7943704367437443060C64183619B14203D980214902884647440004000C310409188D01681E8541890E2943350CED19AD010D43290104D50123B3
:402A000069081D4063460D4319007F31002925DD680704D00F202840042800D00435280103D5274980330D401900FE29A3DC0124AD016E0A1440CDB279E78020C003064273
:402A400007D0054205D128434602760A4446FF256DE706437602760AFF2568E70124611A1B2905DD14400025002660E76346CBE72E002023CE40591A8D406B1E9D412E43DB
:402A8000730704D00F233340042B00D00436730104D5012401251440002648E70124B601760A1440002542E780260124F6032E437602760A1440FF2539E7C046204C000074
:402AC000FFFFFFF7F8B54A024E0043024400240EC50F9B09360EC90F9209FF2E00D183E001204140A01BA9425CD0002800DC95E0002E1CD1002A00D081E05A0704D00F2287
:402B00001A40042A00D004335A013BD50134FF2C00D191E001209B015B0AE4B205405B02E4055B0AED0723432B431800F8BDFF2CE3D08021C9040A431B2800DD90E016007D
:402B40002021C640081A8240511E8A4132439B1A5A0115D59B019E09300001F0BBFC0538864084426CDC041B330020200134E340041BA640721E964100243343BDE70D00B4
:402B80005A07BCD1DF0801231D40FF2C33D1002F00D190E08022D20313003B435B025B0AFF24BCE700284FDD002E2ED0FF2CA4D08025ED042A431B2800DD97E0160020257C
:402BC000C640281A8240501E824132439B185A01D5D50134FF2C6DD001227B481A405B08034013430D0088E7002A00D07AE777E7031EC5D100257B025B0AE4B28FE701385C
:402C00000028A4D0FF2C97D177E7002A00D174E701380028DAD0FF2CCDD16EE7002821D1601CC0B2012858DD80279E1AFF0437402FD0D61A0D008FE701231D4000236EE7DE
:402C4000624B241A334058E7002851D1601CC6B2012E33DDFF282DD09B185B0804004CE7012274E7002C1AD0FF2E1FD08024E404404223431B2800DD96E01D002024C540A9
:402C8000201A8340581E83412B43D31A34000D005EE7002E00D05FE700250024ABE7002B44D0C0430028F0D0FF2EE3D11300FF240D0022E70D00FF24002330E7002C5DD1C2
:402CC000002B7DD0002A00D117E79B185A0100D456E73E4A040013400FE7002C1ED1002B2FD1002A65D013000D0006E701226DE7002C1FD1002B59D0C04300280BD0FF2EA3
:402D00004FD01B285EDC1D002024C540201A8340581E83412B439B18340058E7002B1CD1002A49D013000D00FF24E6E6130034000D00E2E6FF2E34D08024E404404223439B
:402D4000DFE7002A00D1D8E68027981AFF04074000D14DE7D31A0D00CFE6FF24002A00D1CBE68020DB08C003034204D0D208024201D113000D00DB00FF24BEE6002B10D092
:402D8000FF24002A00D1B8E68020DB08C003034203D0D208024200D11300DB000D00FF24ABE61300FF24A8E601236EE713003400A3E6002700251EE780270025FF03E9E660
:402DC00013009AE60123A6E7FFFFFF7DFFFFFFFB4302590A4300C20F1B0E00207E2B0EDD9D2B0DDC802000040143952B0BDC9620C31AD9400B005842002A00D11800704729
:402E0000034BD018FBE7963B99400B00F3E7C046FFFFFF7FF8B556465F464D464446F0B40F00FD0FAA4609037C002E005F00450F490A7F0D2943C5001803BC46400A570F69
:402E4000640DDB0F3843D2009A4500D1AAE06646A61B002E00DCFFE06346002B39D10300134300D0D9E06B0709D00F232B40042B05D02B1DAB42AD416D4249191D000B0210
:402E800000D482E0CA4B01349C4200D1FEE00A005646C84BED081A405007640552020543120B640D002112030B0D1B056405120B1A436308C04CF60714401C4364006408CB
:402EC0003443280021003CBC90469946A246AB46F8BDB74B9C42C6D080231B041843382E00DDEBE01F2E00DD1EE120239B1B9C4603006746BB40984613004746F3403B4358
:402F00006746BA40571EBA4113430200F240EB1A9D42B6411D008A1A7642911B0B0231D54A02560A002E00D1B4E0300001F0D2FA0300083B1F2B00DDB5E020222900D21A58
:402F4000D1409E400A009D4032439C4200DDB1E01C1B631C1F2B00DDD5E0202114002800C91A8C40D8408D400443DA40681E854111002543002476E74146314300D134E28E
:402F8000310045466B0700D06FE756464807ED08C9080543864B9C4235D00A036405120B640D7FE76346E31A9B46002B00DC8BE06746002F3CD07E4FBC4200D153E7802748
:402FC0003F0438435B46382B00DCF7E00243501E82410020D2B253194218AB4289411D00494289180B02CDD5714B01349C4200D13DE101206F4A6B080A4028401843D507D9
:40300000054351082FE72B000B4300D1CBE180231B030B431A03120B44E7013E002E6DD1AE1AB5429B41091A5B42C91A350075E70700174300D116E701235B429C46E344FC
:403040005B46002B00D0E0E0AA18AA429B4109185B4259181500C5E7002E75D1661C7605760D012E00DCF3E0AE1AB0464545BF410E1A7F42F61B370200D48FE0551BAA428E
:40308000B641411A76428E1B9A464BE756460022002507E7280001F01DFA20300300083B1F2B00DC49E72A002838824000259C4200DC4DE73F49E41A1140D4E60243501EBB
:4030C0008241D3B2002222E7002B00D0F3E0631C9C465B055B0D012B00DC9FE0344B9C4500D1C3E0AA180918AA42804140424118CD075208154349086446B4E62C4B9C4230
:4031000000D0ECE6AFE611001F3CE1400C00202B00D17FE04021CB1A9A4015436A1E95410021254300242DE733000700203BDF403B00202E70D04027BE1BB0400243501E4D
:40314000824113430022E2E6002C4FD0184CA44500D1ABE08024240476422143382E00DDDFE01F2E00DD43E12027BC1BA1460C004F46BC40A0462C004746F4403C434F4697
:40318000BD406F1EBD41F1402C43151BAA429241411A5242891A64469A46BFE641464546314300D0BEE6002600240025F2E6C046FF070000FFFF7FFFFFFF0F801F2B59DC62
:4031C0002027FF1ABC46070063469F405B46B9461700DF40B8464F4643461F4363469A40531E9A415B463A43D840F4E60C002C435CD0F643002E55D1551BAA42A441411ADB
:403200006442091B9A46644688E6964FBC4200D0D8E628E6002280E700208FE70B002B43002C00D0C2E0002B00D101E10300134300D118E6AB18AB42B64109187642711808
:403240000A0200D409E1884A1D00114064460AE6002C5BD10E002E4300D08AE00100114300D1C2E0010015009A46FCE56446002100258FE620235B429C46DC446346070003
:40328000DF405B46BC46202B00D1ACE040235F46DB1B98400243501E8241634613431A00002098E66F4CA44500D057E70100150064469A46D7E5002C39D10C002C436ED0A4
:4032C000DB43002B1AD0674CA44568D0382B00DDA4E01F2B00DDAEE020240F00E41AA740B9462F00DF40B846A3464F46444627435C46A5406C1EA541D9403D43AD1895422D
:403300009B4109185B42591864466BE60C002C4315D1010011437BD0010015009A46514CA1E50D43691E8D410021ECB22DE74D4CA44534D0802424045B422143C6E70400F1
:4033400014434ED0ED084C072C438025C9082D03294208D0C6082E4205D1D208410711430C009A463100620FC900E50011433D4C79E50600164300D175E5AE1AB046454565
:40338000BF410E1A7F42F61B370200D4F4E5551BAA42B641411A7642891B9A4663E50100150064465FE5002200257BE5002B3BD00300134315D0ED084B072B438025C908B1
:4033C0002D03294207D0C4082C4204D141070B002100D2081343C9005A0F1143DD00214C41E5204C3FE5002054E700260025D1E534000F00203CE7403C00202E2BD0402714
:40340000BE1BB1400D43691E8D4100212C43BCE6802100260903134C0025BBE50D43691E8D410021EDB269E7010015000D4C1AE50100150017E51C000F00203CE7403C00D5
:40344000202B0CD04027FB1A99400D43691E8D410021254352E70021D4E71D0092E50021F3E7C046FF070000FFFF7FFFF0B55F4656464D464446F0B41F035C00DB0F9A4687
:40348000194B0E034D00C90F8046360B6D0D8B4691463F0B640D9D4219D0134B9C421BD00123A54206D018003CBC90469946A246AB46F0BDBE42F6D1C845F4D1D34510D0E2
:4034C000002DF0D1304303005A1E9341EBE7310001230143E7D1E0E73A430123002AE2D1DEE70023DFE7C046FF070000F0B55F46444656464D46F0B41F033C0B2C4F0E035E
:403500004D00A3465C008446360B6D0DC90F9046640DDB0FBD422BD0254FBC422ED0002D0ED130430700814678427841002C17D15F463A4314D14B460020002B0AD006E08A
:40354000002C02D15846024301D099421AD00123484218433CBC90469946A246AB46F0BD0028F2D058425841012240421043F1E737000743D0D002204042EBE75F46174314
:40358000CDD0F8E7A542E2DC05DB5E45DFD808D000205E45DED248424841012340421843D8E7C445D3D80020C445F4D3D2E7C046FF070000F0B55F464D4644465646F0B482
:4035C0001C03240BA4462F4C0F034D005E00C90F80463F0B6D0D8B469146760DDB0FA54220D0284CA64222D0002D12D1384344424441002E20D0002C0DD05C42634101249B
:403600005B421C4320003CBC90469946A246AB46F0BD002E17D05B4519D05B465C4201231C43EFE7390002240143EBD1D9E7614602241143E6D1D7E761460A43DBD100248C
:403640000028DFD0E9E761460A43E4D1E5E7B54203DD01225C421443D4E7B542CDDB6745DBD809D000246745CCD259464C426141012449420C43C5E7C845CED80024C845E1
:40368000F3D3BFE7FF070000F0B55F4656464D464446F0B40D0399464E002B0B87B00700924680469B46760DCC0F002E69D06D4B9E4235D05B468022DD001204430F134381
:4036C0002B439B46C3009846674B00279C460023664401934A4615035000D20F53462D0B400D914600D176E05E4A90426CD080225B0F120413435C4AED0094461D43534635
:403700000022DB00604449463618701C6140029017430F2F00D9AFE05448BF00C759BF465B461F4300D088E000239B469846023308270193CEE74946022A6AD0032A00D10F
:4037400009E2012A00D0BBE111400022002300259046CCB200212D030A0D12052D0B1543434A1B0515401D436D00E4076D0825434046290007B03CBC90469946A246AB4626
:40378000F0BD034352D05B46002B00D18AE1584600F0A0FE03000B3B1C2B00DD7BE11D22D31A3A0001005D46DA4008398D4013008F402B439B46B8462E4B00279C460023F1
:4037C00060444642019385E752462A432CD100250023022297E752462A4321D0002D00D154E1280000F076FE03000B3B1C2B00DD46E11D21CB1A51460200D9405346083AB8
:40380000954093400D431B4A944660444042002279E7012400220C40124B0025904699E70025002301226EE703226CE700239B4698460133042701934CE703230C27019311
:4038400048E700238025984600242D03054B81E75D464346019A6FE75D4643462100019A6AE7C046FF07000001FCFFFF604C0000FFFF0F80F30300004246120C91461A0C38
:403880009446424617044A461B041B0C5A43604690464A4642431000039262461C003F0C7A437C4342440192220C9246019A5244904506D98246802040028046C244504647
:4038C0000390100C049048462404240C1204121905922A0C2D042D0C68432C00824648467C4350438146200C8046574357444744BA4503D9802040028046C144380C3F0420
:40390000B84648442404240C01900498A044404404905846000C814658460404200C8246070048465F434C464343604660436446834650464443380C8446E4186444A342B2
:4039400003D980235B029C46E34448463F04230C3F0C2404E419574668436F4384464D46504655434243380C814662444A445B44944503D9802040028446654403983F0422
:40398000834604983F0C8446E344C345804140428246100484460198674484466744A344BC46A345A4419946D44464428742BF41D4458041E144A04699459B417F424042BE
:4039C000C8440743120CBA18A045A4415F423B0064422343D71843467D19DB0D6D021D435B465A02059B1A43531E9A415B46DB0D1A4343465B021343EA0107D501225C0854
:403A000013402343EA07029E13436D08574AB218002A4BDD580709D00F201840042805D0181D98429B415B42ED180300E80104D54F4A15408022D200B2184E48824200DD3F
:403A4000E7E60124DB08680718436D02530580462D0B5B0D0C407DE6802259461203114208D0154206D115432D0398462D0B4C46414B6FE65D4615432D032D0B3E4B69E6D0
:403A800003005546283B9D400023BCE6504600F021FD2030A8E60300283B9F400023BB46984689E600F016FD203073E60124A61A382E07DD00220C4000230025904649E695
:403AC000029EA3E71F2E20DC20222C001800921BF040944093400443581E83411C43F540630709D00F232340042B05D023001C1D9C4292415242AD182B021FD5012400228A
:403B00000C4001230025904624E61F202C004042821AD440202E1CD04022961BB5402B43581E83410720234318400025002809D00F2200251A401C00042AD8D12300680749
:403B40006D022D0B0124DB08034398460C40002300E60025E3E780220124120315432D0398462D0B0C40044BF4E5C046FF030000FFFFFFFEFE070000FF070000F0B55746F0
:403B80004E464546E0B40E001100F20F9246C500420F180337037400400A4E0F7F0A3043CF4E17435A00640D520DDB0FC900B24200D1E5E001267340A61AB446534500D1FD
:403BC000AFE0002E00DC0DE1002A3AD103000B4300D0E4E06B0709D00F232B40042B05D02B1DAB42AD416D427F191D003B0200D488E0BB4B01349C4200D110E13A00B94B1F
:403C000051461A4001235007ED08520264050543120B640D0B400021280012030D0D120B64052D0515436208AF4CDB072C401443640064081C4321001CBC90469946A246EE
:403C4000F0BDA74B9C42C5D080231B0418436346382B00DDFDE01F2B00DD30E1624620239B1A02009A40664690460A009940F24046464B1E99413243114363460200DA40A7
:403C8000691A8D429B410D00BA1A5B42D71A3B0235D57A02530A98464346002B00D1C4E0404600F017FC0300083B1F2B00DDC5E020222900D21A4746D1409F400A009D40EA
:403CC0003A439C4200DDC0E01C1B631C1F2B00DDE4E0202114002800C91AD8408C408D400443DA40681E854117002543002471E7424663461A4300D14CE2674645466B075B
:403D000000D069E7012351467807ED08FA080B40054373498C4238D012036405120B640D79E7002E00DC9AE0002A47D06C4A944200D14FE78022120410436246382A00DC58
:403D400008E10143481E81410022C9B24919D219A942BF410D007F42BF183A0200D442E15F4A0134944200D14EE101205D4A69083A4028400843D507054357089A4629E7B4
:403D800006000E4300D017E714E72900114300D1F9E1802109030A431203120B3BE701235B429846C4446346002B72D1691A8D429B413F1A5B42FF1A0D0068E702000A43C7
:403DC00000D107E7012252429046C4446246002A00D0E6E06918A942B6413F187642F7190D00BAE7002E00D080E0621C5205520D012A00DCF9E06A1A91464D45B6413A1A2D
:403E00007642921B9046120200D499E04D1BA9428941C71B49427A1A90469A463CE752460123002513400022F5E6280000F052FB20300300083B1F2B00DC39E72A002838F3
:403E4000824000259C4200DC3EE7264FE41A1740C0E60143481E81410022C9B210E7002E00D0F1E0621C94465205520D012A00DCA0E01B4A944500D1C5E06918A9429241B5
:403E80003F185242D2194908D5070D4357086446A0E6134B9C4200D0D9E69BE611001F3CE1400C00202B00D180E04021CB1A9A4015436A1E95410027254300241FE7634687
:403EC0000200203BDA406346202B71D0402366469B1B98400143481E814111430022CFE6FF070000FFFF7FFFFFFF0F80002C48D0CA4CA24200D1A2E07442A14680242404D9
:403F000027434C46382C00DDDBE01F2C00DD44E14E462024A41B3E00A640A246B0464C462E00E640B4464646644626435446A5406C1EA54134002C434D46EF400D1B28E0A0
:403F40004A4643464D461A4300D0A5E6002300240025DEE61F2A5ADC66462022921B060096409146B04662460E00D640424616434A4691404A1E9141020060463143C24084
:403F8000E4E63C002C435AD0F443A146002C52D14D1BA9428941C71B49427F1A14009A4675E69E4A944200D0C7E613E600227FE700208FE7002C00D0C8E03B002B4300D113
:403FC0000FE103000B4300D104E66918A9429B413F185B42DF193B0200D41AE1904B0D001F406446F6E59A4689E63A002A43002C5CD1002A75D102000A4300D1CAE0070029
:404000000D009A46E6E564460022002581E662460600203AD6406246B046202A00D1B7E040226646921B904001434246481E8141114300228AE6794CA24200D061E70700D5
:404040000D0014009A46C5E5002C41D13C002C4378D0F443A146002C20D0704CA24271D04C46382C00DDB2E01F2C00DDBCE02026341BA2463C005646B4404E46A0462C0031
:40408000F440A446444666463443A4465446A54064466E1EB54125434C46E7406D188D4289413F184942CF19140056E6002A2FD102000A4300D184E007000D009A46574C02
:4040C00088E53D436F1EBD41ECB200270D1B60E7524CA24236D0744280263604A1463743BEE702000A4300D174E56A1A90464545B6413A1A7642921B9446120200D4F7E545
:404100004D1BA9428941C71B49427F1A9A4661E502000A433AD0ED087C072C438025FA082D032A4208D0C7082F4205D145072C003A009A46C9080C43670FD200E50017438C
:40414000364C47E507000D00140043E53A002A4343D002000A4319D0ED087C072C438025FA082D032A4207D0C6082E4204D147073C003200C9080C43D700620FE5001743D8
:404180009A46264C26E50022002544E5234C21E5002049E700230025BBE54C463E00203CE6404C46B446202C31D040244E46A61BB7403D436C1EA54164462C4300270D1B52
:4041C000E7E6802200231203144C0025A1E53D436F1EBD410027EDB260E707000D000F4CF8E407000D00F5E44E463C00203EF440A0464C46202C0ED040244E46A41BA7401B
:404200003D436F1EBD4144460027254346E70027CFE70D0073E50027F2E7C046FF070000FFFF7FFF0B0330B5134D1A0B4B005B0DC90F0024AB4211DD104CA34210DC802490
:40424000640322430E4CE41A1F2C0CDD0D48C31ADA4013005C42002900D11C00200030BD094BCC18FAE7E040084CA44663449A4013000343EEE7C046FE0300001D04000078
:404280003304000013040000FFFFFF7FEDFBFFFF70B5002830D0C317C4185C40C50F200000F018F9174B184A1B1AD21A1F2A18DD164AD21A9440002224035B05240B5B0D37
:4042C0000021100024030A0D1205240B1443104A1B0514401C436400ED0764082C43210070BD210091400A000B21081AC4405B052403240B5B0DE3E7002500230024002240
:40430000DEE7C0461E0400003304000013040000FFFF0F804200120E511C4302C9B270B55D0AC40F012915DDE02189008C466D071B0B6244002128000D0D2D052B431C4DA3
:4043400052052B40520813435B00E4075B082343190070BD002A15D1002D1FD0280000F0B9F80A281DDC0B232A001B1ADA4013000200153295400F4A1B03121A52051B0B5E
:40438000520DD7E7002D06D080221B0B120313436D07094ACEE7084A0023CBE700220023C8E703000B3B9D402B000025E3E7C046FFFF0F8089030000FF0700004B0070B53E
:4043C0005E0D0C03751C640A420F6D052243C90FC4006D0D012D2ADD3B4BF318FE2B1ADC002B42DD8001451EA841D2001043620F0243500704D00F201040042800D0043253
:404400008020C004104021D00133FF2B03D09201520ADBB201E0FF2300225202520ADB0513435B00C9075B080B43180070BD002E07D01443EFD08020D20080040243FF2386
:40444000D7E722430023002A03D00522D208FF2B03D05202520ADBB2DFE7002A32D08020C00302435202520AD7E71800173014DB8020000402431E20C01A1F280FDC250010
:40448000124BF3189D406E1EB5419A402B0013432200C2401A430023ABE70023D5E702256D42EB1A1500DD40202809D0084BF3189A401443621E9441220000232A4398E782
:4044C0000022F6E70022A8E780FCFFFF82FCFFFFA2FCFFFF1C2101231B04984201D3000C10391B0A984201D3000A08391B09984201D30009043902A2105C40187047C0469C
:4045000004030202010101010000000000000000014B18687047C046680100200E4B70B500251E000D4CE41AA410A54204D0AB00F35898470135F8E700F0B4FB084B0025D2
:404540001E00084CE41AA410A54204D0AB00F35898470135F8E770BDB04C0000B04C0000B04C0000B84C0000002310B59A4203D0CC5CC4540133F9E710BD03008218934223
:4045800002D019700133FAE770470000154B10B51C68A36B002B15D1182000F033F8124BA0630380114B01224380114B8380114BC380114B0381052343810633838100236A
:4045C00002614361A46B0D4A206961690C4B00F097F80122002380185941206161614800400810BD680100200E330000CDABFFFF341200006DE6FFFFECDEFFFF2D7F954CE1
:404600002DF4515810B5034B0100186800F004F810BDC04668010020032370B5CD1C9D43083506000C2D01D20C2501E0002D01DBA94202D90C23336048E0300000F05EF830
:40464000234B1C681A002100002913D00B685B1B0DD40B2B02D90B60CC181EE08C4202D1636813601AE04B6863600C0016E00C004968E9E7174C2368002B03D1300000F0EE
:404680002BF820602900300000F026F8431C18D00323C41C9C43A0420DD12560300000F02EF8200007220B30231D9043C31A0ED05A42E2500BE0211A300000F00DF8431C6F
:4046C000EBD10C233000336000F019F8002070BD2C02002028020020002370B5064C050008002360FCF77CFC431C03D12368002B00D02B6070BDC0469804002070477047F0
:40470000F0B54F464646C0B41604360C9946330005042C0C070C150C63437E436F4365431C0CAD1964199C46A64203D980235B02984647446346250CEF191D044B464A4300
:4047400043432D0C240464199918C91920000CBC90469946F0BDC0460000000000300F40000280320F40800100400F400004000000320F40784900008000000081728238ED
:40478000830D0001010603010502080109060B010C010D010F0613012104280129062D07360137073B883E40580459045C105F01801F8318841885E7880889E78C078D1888
:4047C0008E1891809204941C95199602970698049A209C1C9E019F18A010A12AA341A554A721AB18AD18AE03B020B180B21FB360B507B718BA08D602D710D804D904DB0493
:40480000DC11DD10DF010052044006D40E5912081440174019801C101E501F0820022208240125012602275428402A522D022E842F0832023745385039013A043C423D29FE
:404840003E01420443105D806D286F017616C0FBC2F0C492CAFDCCD1CEFFD6108A019A02A202AE01B002B201B401BE05C053C5ECC702C813C9FFCAFFCBFFCF01D018D280F4
:40488000D401D804DA04DB04DC03DD33DF01E040E240E440E540E680E880EA80EC80EE8003080440065409200E180F021086132016021715181019201A401C401DA01F0213
:4048C000268027202C202F0236883C023E103F0242C0430845A14701480249054C804E084F405308542059055B405C415F406404668067807002852087408A488C108F40AB
:404900009001921094409A169B149E40A001A101A20CB502B604C0F2C2E2C4F9CA50CC50CEA0D0B2D238D68BD8B068806B086F087308DAC0DC2084808708A480A708E2106A
:40494000E6400108C008B508EA02100A1101000003000F4042300F402B310F4022320F4045330F4006400F4006410F4002420F4002430F4002600F401F0000010C00000014
:404980000400000113000C00000000001C010300010040000F001002000013000300200202004000080100000F0000021C00600100800200000040045406020001C0E0007D
:4049C0000AFFFFFF62A0F0410C0000001800040004040404111100010000000000004002001030100010101200000000000000000000000000000000030405060708090A2A
:404A00000B0C0E0F101112131415161718191B1C1D1E1F2021222325262728292A2B2E2F3031323334350000EEDBC9B9AA9B8E82766B60564D443B332C241D17100A0400E2
:404A4000000000000000080000002000010000000000080000004000020000000000000000000000030000000000080000008000040000000000000000000000050000002F
:404A800000000000000000000600000000000000000000000700000000000000000000000000000028000000F9FF1F00000020000100000028000000F9FF1F00000040000A
:404AC0000200000028000000F9FF1F000000600003000000000000000000000000000000040000000000000000000000000000000500000000000000000000000000000009
:404B00000600000000000000000000000000000007000000000000000000000000000000080000000000000000000000000000000900000000000000000000000000000057
:404B40000A0000000000000000000000000000000B0000000000000000000000000000000C0000000000000000000000000000000D00000000000000000000000000000007
:404B80000E0000000000000000000000000000000F0000000000000000000000000000005A2600007E2500003C260000142600003C260000082600003C26000014260000ED
:404BC0007E2500007E2500000826000014260000C0260000C0260000C0260000422600007E2500007E2500002826000012260000282600000826000028260000122600001F
:404C00007E2500007E2500000826000012260000C0260000C0260000C0260000CC260000B8290000162900001629000014290000AA290000AA290000A029000014290000DC
:404C4000AA290000A0290000AA29000014290000B0290000B0290000B02900003A2A00007838000038370000383700003637000050380000503800004238000036370000A7
:404C800050380000423800005038000036370000583800005838000058380000583A000043000000F8B5C046F8BC08BC9E4670474102000059100000F8B5C046F8BC08BCDB
:404CC0009E46704719020000D84C0000C0000020B000000030030000000000007D3F553F7D3F553F0A000000960000003333333F9A99993E7D3F553F7D3F553F7D3F553F05
:404D00007D3F553FA00400200000E02EC05D00001800000000366E01F00000000404040000000000000000000000000000000000000000000000000000000000000000007B
:404D4000A04C000000000000000000000000000000000000000000000000000000000000000000000000000000000000000000000000000000000000000000000000000047
:404D800008010020000000000000000000000000000000000000000000000000000000000000000000000000000000000000000000000000000000000000000000000000CA
:404DC00000000000000000000000000000000000000000000000000000000000000000000000000000000000000000000000000000000000000000000000000000000000B3
:404E00000000000000000000000000000000000000000000000000000000000000000000000000000000000000000000000000000000000000000000000000000000000072
:404E40000000000000000000000000000000000000000000000000000000000000000000000000000000000000000000000000000000000000000000000000000000000032
:404E800000000000000000000000000000000000000000000000000000000000000000000000000000000000000000000000000000000000000000000000000000000000F2
:020000040001F9
:0200000490303A
:020000007DE59C
:0200000490402A
:4000000000000000000000000000000000000000000000000000000000000000000000000000000000000000000000000000000000000000000000000000000000000000C0
:400040000000000000000000000000000000000000000000000000000000000000000000000000000000000000000000000000000000000000000000000000000000000080
:0200000490501A
:0C0000000002112D11A1000111468F8695
:0200000490600A
:0100000001FE
:00000001FF