:400000000080002011000000F5000000F500000008B5044B1A6803F53F5302331A6000F06BF800BFFA46004010B5054C237833B9044B13B10448AFF300800123237010BD2A
:400040002081FF1F000000003C090000084B10B51BB108480849AFF300800848036803B910BD074B002BFBD0BDE81040184700BF000000003C0900002481FF1F0881FF1F87
:400080000000000008B562B600F016FA00F08AFA00F0DEFB0020014600F0E8FB124800F079FB124C207800F0C3F900F043FA00F035FA00F0C9F90E4D287023780133237041
:4000C0000120002100F0D2FB287800F0EDFB0120082100F0CBFB207800F0E6FB4FF47A7000F07EFADDE700BF400900004081FF1F4181FF1FFEE700BF08B5104E104D16E0EE
:4001000029686B68AC68002204E051F8040B43F8040B0432A242F8D1E868002203E0002143F8041B04328242F9D11035013E002EE6D100F0C9FBFFF7A5FFFEE7010000008B
:40014000CC09000008B5124A124B1A60124A136843F40073136000230AE0032B03D80F4A52F8231000E00E490E4A42F8231001332F2BF2D90C4B1A780C4B1A70094A0C4B11
:400180001A6000F0AFF800220A4B1A6008BD00BF0004FA050CED00E014ED00E000000000F50000000080FF1FBC7600400481FF1F08ED00E00081FF1FFEE700BFF0B4002276
:4001C000174611E050F82760F3B226F0FF0608E001EB420511F812406D78A5550132013BDBB2002BF4D10137132FEBD9F0BC7047064B1B78DBB203F00701054A11701B09E0
:40020000013213704422034B1A707047CF0100496E5800407658004008B50A46002100F084FB08BD38B50B22244B1A80182202331A70022203F27E231A7008224FF0402358
:400240001A70032103F5007319701D4B1B78DBB21C490B701C4B1A8041F25122023B1A80002419250CE0194B1B7803F0010343EA440404F003044FF4F07000F0A1F9013DDF
:400280000DB1032CEFD115B90320FFF795FF104B4FF480721A8007221A7000220D490A704820023108701A700222033B1A700A4A137843F00103137038BD00BF8040004071
:4002C00008010049A146004022420040254200400440004006400040A243004008B500F019FB08BD70B572B6314A137843F00403137000240CE02F4963001A1952000A44B7
:4003000023445B00C8589188FFF786FF0134E4B20A2CF0D900240BE02649A3001A1952000A44506C916C8022FFF7D8FF0134E4B2002CF1D04FF090401F49FFF73FFF1F4A95
:40034000137843F0020313701032137843F0020313701B4C237843F040032370A2F58632513A137843F010031370164816490822FFF7B4FF154816490822FFF7AFFF6422D6
:40038000144B1A70144A137843F008031370134E01253570FFF746FF81233370104B1D70FFF726FF0F4821460E22FFF797FF70BDE846004048090000500000480350014067
:4003C000A0430040225100408004004842510040880400485B140140224300400048004004000840B043004008B500F0F1F8094A137843F0200313700132137843F0100307
:400400001370023A137843F01003137000F0E4F808BD00BF96650040014B1878704700BF67650040014B1878704700BF65650040034B1B7813F0040FFAD0024B1870704717
:400440006765004046650040014B1878704700BF5665004008B501E00A4B1B780A4B1B7813F0200FF8D100F0B3F8084B1A7842F001021A701A7802F0FE021A7000F0ACF8EE
:4004800008BD00BF56650040656500409665004008B50F22064B1A70FFF7DCFFFFF7BCFFFFF7C0FF0023034A1370023A137008BD866500408765004008B5054B1B7823B92E
:4004C000FFF7E6FF0122024B1A70FFF78DFF08BD3C81FF1F08B500F07BF8094A137843F020031370FF3A137843F0100313700232137843F01003137000F06EF808BD00BF3F
:4005000094650040014B1878704700BF65640040014B1878704700BF67640040034B1B7813F0020FFAD0024B187070476564004047640040014B1878704700BF576400403E
:4005400008B501E00A4B1B780A4B1B7813F0080FF8D100F03DF8084B1A7842F003021A701A7802F0FC021A7000F036F808BD00BF57640040676400409764004008B507228A
:40058000064B1A70FFF7DCFFFFF7BCFFFFF7C0FF0023034A13700232137008BD846500408564004008B5054B1B7823B9FFF7E6FF0122024B1A70FFF78DFF08BD3D81FF1FF4
:4005C0000230800803D000BF01380046FCD17047EFF3108072B6704780F31088704700BF10B5044605E0084B1868FFF7E9FFA4F50044B4F5004FF6D8034B586800FB04F095
:40060000FFF7DEFF10BD00BF0C81FF1F08B5034B1B7A03FB00F0FFF7D3FF08BD0C81FF1F10B50B4C237803F09F032370237803F0F00323702378184340F010002070012010
:40064000FFF7E4FF237803F0EF03237010BD00BF2051004038B505460E4C237843F020032370237803F0BF0323700020FFF7CEFF237803F0F003237023781D4345F010051C
:4006800025700120FFF7C2FF237803F0EF03237038BD00BF2051004070B5354B1A7802F08002D2B21A7033490A7802F0F00242F00F020A7001310A7802F0F0020A700131B9
:4006C0000A7802F0F0020A701A7802F0DF021A701A7842F040021A704FF4CA760020FFF795FF234D2B7843F010032B700120FFF78DFF214B1C78E4B22B7803F0EF032B701E
:400700000020FFF783FF04F00804E4B22B7843F010032B700120FFF779FF2B7803F0EF032B7014B90A20FFF771FF013E0CB1002ED4D10F4A137803F0BF031370137803F08F
:400740008003DBB213700232137803F0F00313700132137803F0F00343F00F0313700132137803F0F00343F00F03137070BD00BF20510040225100402151004010B50446D5
:40078000FFF78AFF2009FFF765FF04F00F00FFF761FF10BD38B505460078012404E0FFF7EDFF285D0134E4B20028F8D138BD00BF08B5FFF7E3FF08BD10B50446FFF76CFFB7
:4007C0002009FFF72DFF04F00F00FFF729FF10BD08B52820FFF704FF0320FFF721FF0520FFF7FEFE0320FFF71BFF0F20FFF7F8FE0320FFF715FF0120FFF7F2FE0220FFF7D8
:400800000FFF0520FFF7ECFE0620FFF7D5FF0E20FFF7D2FF2C20FFF7CFFF0820FFF7CCFF0120FFF7C9FF0C20FFF7C6FF0320FFF7C3FF0520FFF7D4FE08BD00BF08B50C20CC
:40084000FFF7BAFF0122014B1A7008BD3E81FF1F08B5054B5B7823B9FFF7BAFF0122024B5A70FFF7EBFF08BD3E81FF1F08B5032819D8DFE800F002070D1381F08000FFF767
:400880009BFF08BDA1F14000C0B2FFF795FF08BDA1F16C00C0B2FFF78FFF08BDA1F12C00C0B2FFF789FF08BD38B504460309054DE85CFFF77DFF04F00F04285DFFF778FFD6
:4008C00038BD00BF980900000E4B70B51E460E4C0025E41AA410A54204D056F8253098470135F8E700F060F8084B094C1E46E41AA4100025A54204D056F8253098470135A0
:40090000F8E770BDB4090000B4090000B4090000BC09000010B5431E0A44914204D011F8014B03F8014FF8E710BD03460244934202D003F8011BFAE7704700000000000063
:400940004461746F73000000005100402000305100401000505100402000C05100401000F0510040100000000140001000140140000280160140800500400140000A004C2C
:4009800001400002005001402000000000160140000400488000000030313233343536373839414243444546F8B500BFF8BC08BC9E4670474D00000045010000F8B500BF00
:4009C000F8BC08BC9E46704729000000E00900000881FF1F180000002800000000000000000000000000E02EC05D00001800000000366E0100000000000000000000000003
:400A000000000000000000000000000000000000000000000000000000000000000000000000000000000000000000000000000000000000000000000000000000000000B6
:400A40000000000000000000000000000000000000000000000000000000000000000000000000000000000000000000000000000000000000000000000000000000000076
:400A80000000000000000000000000000000000000000000000000000000000000000000000000000000000000000000000000000000000000000000000000000000000036
:400AC00000000000000000000000000000000000000000000000000000000000000000000000000000000000000000000000000000000000000000000000000000000000F6
:020000040003F7
:0200000480007A
:40000000025200400264004002650040020101400403014031040140310501404B06014041070140371401403C15014003160140391701400E4001400641014008420140A0
:4000400004430140084801400349014004500140204421CC854787788407860F8A20E48099049A20B504E810001C08060A080B021C0A1E141F012408250126122E01301E2B
:4000800031023401370138023F405608580459045B045F01810485078F08910492019401970399049D019F06A104A201A508AB04AD01AF06B001B107B508BB02BE01BF10BA
:4000C000D441D804D904DB04DF01010203040A010B020F6011081340164019021B301E80208023012510274029042E022F29328037553B103D093F404510460858925908CB
:400100005D045EA0618062486358660878207B04810285848F0199049A20C00AC231C415CAF2CCF8CED4D67FD84FE61001060522070511021304150F171019021B041D02F0
:400140002106252429042B022D312F0A333835073B0859045F0185018704880489018B088C018D108F019204960898029D019E049F02A004A404AA01AB01AF1EB008B20476
:40018000B31FB401B602BE54BF04C001C106C210C403C5BEC6FDC70CC81FC9FFCAFFCBFFCC22CEF0CF0CD08CD110D420D804D904DA24DB04DC08DD08DF01E840E901EAC0FC
:4001C000EB0100800110080809A00B80108011041208180419481B0120102504272428082A202B012E0A2F093080375539943B803D09401348044A90500451A052205A0296
:40020000602461407880881089809302940895019601982099049A209B409C129D089E029F15A040A208A504A690A708A884C003C20FC40ECAFCCCF8CECED00AD204D601BA
:40024000D80EDE0805020902130215041D02250129012D013101350437023F515602572459045B245D805E085F01800484048502870888078A388C0A8E109004910D9501E0
:40028000960497029801990D9C609D029F0DA004A10DA404A50DA856A90DAA09AD02AF04B47FB70FB820BB80D440D804D904DB04DF0105D006200754080209020D010E28C9
:4002C0000F021410160417291E0820092122268029502A042C102D812E203082310432083690370539143D086120661067216882699478807A088201830884809103932169
:400300009401959499449A119B759C82A104A210A301A484A604B001B108C0F0C2F0C470CAFECCFBCE46D874DE0CD409DB04DF010560060807500EA00F0115031601172415
:400340001DC81E411F102550360837043DA83E21458A47204D084E084F0156185701580159285A40600266206D016EA06F1976038204854094019595960199049B649C80AF
:400380009E0A9F11A106A484A708AE21B502C0F0C2B0C4F0CC40CEF0D0F0D220D60FD828EC10022004010A800F105B805F20602065088B10C030C230D480D620D8C09001A7
:4003C0009C209D089FA0A220B64081088F8090019C209D089FA0A220E62090019C209F20A220802087209C209F20A220B401E240E6208620A220E44000010A0110011A0121
:400400000805003A580902360202000D21000820080052005213080C00000000000040005A000000030024000C0023005A00000020001000400F0F300000802000001500F2
:400440001206300004DEF0BC3BFFFFFF2200F008040000000000022404040404000000010000C00040011011C00100114001400100000000000000000000000000000000A3
:40048000007F7F000000000033CCCC00CC000000000000000000000000000000000000000000000000000000000000000000000000000000000000000000000000000000A7
:4004C00000000000000000000000000000000000000000000000000000000000000000000000000000000000000000000000000000000000000000000000000000000000FC
:4005000000000000000000000000000000000000000000000000000000000000000000000000000000000000000000000000000000000000000000000000000000000000BB
:40054000000000000000000000000000000000000000000000000000000000000000000000000000000000000000000000000000000000000000000000000000000000007B
:40058000000000000000000000000000000000000000000000000000000000000000000000000000000000000000000000000000000000000000000000000000000000003B
:0200000490006A
:0400000000004005B7
:0200000490105A
:04000000BC90ACAF55
:0200000490303A
:02000000F9CE37
:0200000490402A
:4000000000000000000000000000000000000000000000000000000000000000000000000000000000000000000000000000000000000000000000000000000000000000C0
:400040000000000000000000000000000000000000000000000000000000000000000000000000000000000000000000000000000000000000000000000000000000000080
:400080000000000000000000000000000000000000000000000000000000000000000000000000000000000000000000000000000000000000000000000000000000000040
:4000C0000000000000000000000000000000000000000000000000000000000000000000000000000000000000000000000000000000000000000000000000000000000000
:0200000490501A
:0C00000000012E12306900012E172A3773
:00000001FF