:400000000040002011000000010200000102000008B500F0F7F8C04670B5154C1223236000F0AAFA134800F05FF9182000F05AFA00F0E4F9104A114B1A60114D8026F605BA
:400040002E6000230F4A13600F49104A1160802109060F4A11600F4A136007200E4900F07DF9072000F064F92E601123236070BD30001040001BB7000600008004010B40A8
:400080000C020B400003014040FF00800000014008010B4000010B406506000010B572B6002410E0204863001A195200821891881B195B001A5AC31858880004104300F08F
:4000C000FFF80134E4B2012CECD9EE221202174B1A60AA22164B1A6099231B04154A1360154A1360154B197802220A431A70144802783C218A4328390A4302701978162251
:400100000A431A700F4A104B1A60D82212010F4B1A600F4B02221A602F320E4B1A60FFF77BFF00F0BDF810BDA40D0000000302400004024020500F4030500F4000700F4042
:4001400001700F40806D03000802044008030440000404400804044010B5064C2378002B07D1054B002B02D0044800E000BF0123237010BDE800002000000000A00D000074
:4001800008B5084B002B03D00748084900E000BF07480368002B00D108BD064B002BFBD09847F9E700000000A00D0000EC000020C80000200000000008B562B600F0F6FC19
:4001C0001E220D4B1A7000F081FD0C4B1B78012B0DD100F051FDFA20400000F0F7F8064A137801331370012000F070F8EBE7002000F06CF8E7E7C0462E0100202D01002042
:40020000FEE7C04670B50F4E0F4D13E029686B68AC68002202E001C901C30432A242FAD1E868002202E0002102C304328242FAD11035013E002EE9D100F084FDFFF7BCFF86
:40024000FEE7C046010000007C0F000008B50F4A136801218B43136000230AE0032B03D89A000B49505800E00A4899000A4A885001332F2BF2D9FFF711FF0022074B1A6023
:40028000024A116801230B43136008BD00001040000000000102000000000020C00000200323044A1360044A13600022034B1A607047C0463000304030003140000E3F405F
:4002C00008B50A1C002100F063FD08BD04490A68FB231A408000F73B184010430860704700020440000000000230800803D00138FDD1C046C046C0467047EFF3108072B6F5
:40030000704780F310887047024A1168024B0B401360704700002240FFFFFFBF034B18688023DB05184000D001207047000022401F2318401E3B8340181C014B1860704787
:4003400000E100E01F2318401E3B8340181C014B1860704780E100E001BE704738B5041C0D1C1F2802D90020FFF7F6FFA400034B9C4664442068256038BDC0464000002059
:4003800070B5041C0E1E032E02D90020FFF7E4FF1F2C02D90020FFF7DFFF03252540ED000635FFF7AAFFA408A400074B9C46644423680322AA409343AE40351C1D43256099
:4003C000FFF79FFF70BDC04600E400E010B5041C06E0084B1868FFF787FF074B9C46644480231B029C42F4D8024B58686043FFF77BFF10BDCC0000200080FFFF30B583B0A3
:4004000000F0DAF8002856D0FFF777FF041C00230AE02A4A11683F220A402949C95C8A4201D1033303E001332D2BF2D90323254A1268D20606D1234802681F218A431339EA
:400440000A430260204A1168204A1140204A5A438020C00184466244D20B013A5205520D0A43A02149031143192B02D819490A430BE0194A9A1812781148C3189B7DD2184E
:40048000FF2A00D9FF2292050A430F4B1A60134D2B680193302000F02BFC114A13688021C9050B4313601420FFF790FF019B2B60201CFFF726FF03B030BDC0462CFF0B401A
:4004C000B00D000034FF0B400800224000F800C040420F000000D43FCDF1FF0F300010400000224030B587B0041CFFF706FF051CFFF714FF002803D0FFF706FF012100E0F4
:400500000021104B1B6800930F4B1B680193033C0E4B1B5D02930E4B1B68039304AA0D4B04936B4605930C4B1A600C480C4A10601B68012901D1FFF761FF281CFFF7E1FEE2
:4005400007B030BD08010B4000010B40B00D000030001040B6EA0000080010401700008004001040034B1868C0231B02184000D00120704700010B4010B50D4B1A6801213C
:400580008A431A601A68022082431A60094A10683024A043203C204310601068093CA043014311601A68802109060A431A6010BD00002240000F2240034B1B68002B01DA1B
:4005C000012000E0002070470000224008B5FFF794FE044A1368C02109020B431360FFF790FE08BD00010B4010B5FFF786FE08490A68084B1A408024E40122430A600A68F8
:4006000013408022120213430B60FFF77AFE10BD00010B40FF3FFFFF70B5061CFFF76DFE041CFFF79FFF002803D0FFF7DDFF012500E000250848331C0340084A10680849DC
:400640000840184310601368012D01D1FFF7BEFF201CFFF756FE70BD0404040010020B40FBFBFBFF10B5244B1B685B0715D5234B5B685B070ED5224B596A042001401F4CB4
:4006800062688A4362605A6A82435A629B69002B00D098470420FFF7BFFF174B1B685B0518D5164B5B685B0510D5154B596A8022D2001140114842688A434260596A114AD3
:4006C0000A405A62DB69002B00D098478020C000FFF7A2FF084B1B685B030CD5074B5B685B0304D5064B1B6A002B00D098478020C002FFF791FF10BD10020B40DC000020C0
:4007000004010020FFFBFFFF08B50C4A136801218B431360F023DB0100E0013B002B03D0064A1268D207F8D4002B04D01B20FFF709FE002000E0012008BDC04610002E4092
:40074000054B1A6801210A431A601B68194201D1012000E00020704704002E4008B50E4A0E4B1A60FFF7ECFF1B20FFF7E1FD0C4A116801230B43136090231B0100E0013B4D
:40078000002B03D0064A1268D207F8D5002B01D1012000E0002008BD011A000000002E4010002E4003B2002B0DDB094A1168094B0B400004034313601268074B13409842F8
:4007C00003D0012002E0022000E000207047C04614002E40FFFF00800000FF7F002809D10C4B19680C4A0A401A601B68DB040CD501300DE0074B1A68802149010A431A60EB
:400800001B680B4203D1012002E0002000E000207047C04614002E40FFEFFFFF70B5841E0D2C36D88C1E052C03D9002B33D1012933D1032A33D8824233D88A4233D81D4E5B
:400840003468250AF0242C40204335681A4C254004022C4334603568F02424012C400F2528400002844220D1002B00D002234901C9B29200D2B2114319430E4A1368EE2036
:4008800083430B4313601368034099420FD0ED380EE002200CE002200AE0022008E0022006E0022004E0022002E0012000E0002070BDC04614002E40FFF0FFFF002809D12B
:4008C0000B4B1A6810218A431A601B6819420BD001300CE0064B1A6810210A431A601B68194203D1012002E0002000E00020704714002E40002809D10B4B1A6801218A4330
:400900001A601B6819420BD001300CE0064B1A6801210A431A601B68194203D1012002E0002000E00020704714002E40044B18601B689BB2834201D0012000E00020704798
:4009400004002E4010B503785B01204A944663441F4A41680A431A6003785B01634419681C4A11401C4A44682240914224D182681A6103785B0163441A6981688A421DD1AA
:40098000C2685A6103785B0163445A69C1688A4216D1012252429A6103785B0163449A6901320FD10022DA6103785B016344DB69002B09D0012008E0012006E0012004E0B7
:4009C000012002E0012000E0002010BDA0002E40800080007F007F007FFF7FFF10B503781B01104A944663440F4A41680A431A6003781B01634419680C4A11400C4A446896
:400A0000224091420AD182685A6003781B0163445A6883689A4203D0012002E0012000E0002010BD20002E4008008000F7007F00F7FF7FFF38B500240AE063001B199B004A
:400A40001048C018FFF7CAFF002805D10134E4B2072CF2D9002500E00125002D0BD00FE0230108486030C018FFF76CFF002806D10134E4B200E000240F2CF1D900E0012588
:400A8000281C38BDF80D0000002809D10C4B19680C4A0A401A601B689B040CD501300DE0074B1A68802189010A431A601B680B4203D1012002E0002000E000207047C04699
:400AC00014002E40FFDFFFFF08B580221206334B1A60334A136801218B431360F023DB0100E0013B002B03D02D4A1268D207F8D4002B49D01B20FFF725FC1B202949FFF7F6
:400B00002DFC1B200321FFF73BFC0B20FFF74AFE002819D1FFF762FE002817D1FFF7B4FF002815D10B30022102220023FFF776FE00280FD1FFF7C2FE00280DD1FFF7DAFEC7
:400B400000280BD001230AE0012308E0012306E0012304E0012302E0012300E00023002B14D1FFF767FF002812D10F48FFF7DEFE00280FD10A4B1A6807218A431A601B68A8
:400B8000194209D0013008E0012006E0012004E0012002E0012000E0002008BD00042E4010002E404D0C0000011A000008B5084B1B78002B02D1FFF787FF00E0002000284A
:400BC00004D10122024B1A70FFF7C8FD08BDC0462C01002008B580229200024B1A60FFF793FD08BD00002E4080221201014B1A607047C04600002E4038B580225201104BFF
:400C00001A600125002418E00E4B1B681D4210D063010D4A944663441B689B0609D5EB0704D5002C05D100F051F802E0201C00F03FF86D00ADB20134E4B20F2CE4D938BDD0
:400C400000002E4008002E40A0002E4008B5094B1B689B0501D5FFF7BDFF064B1B681B0501D5FFF7C1FF034B1B68DB0401D5FFF7C3FF08BD00002E400A4B1B68DB070FD438
:400C800009490B681B021B0A084A1278120613430B60044A116801230B431360002000E00120704720002E4028002E402E0100204001054B9C4660440368DB0703D50268DB
:400CC0000123134303607047A0002E40054B1B681B0E054A1370054A116801230B4313607047C046A8002E402D010020A0002E4038B5041CFFF701FB051C102C05D8104A15
:400D0000136803218B43136016E0202C07D80C490B6803229343023A13430B600CE0302C07D807490B6803229343013A13430B6002E00020FFF710FB281CFFF7E2FA38BD03
:400D4000300010400E4B70B500251E1C0D4CE41AA410A54204D0AB00F35898470135F8E700F0FAF8084B00251E1C084CE41AA410A54204D0AB00F35898470135F8E770BDFA
:400D8000640F0000640F0000640F00006C0F0000031C8218934202D019700133FAE770470000000000300F40000400400F400004030405060708090A0B0C0E0F10111213E6
:400DC0001415161718191B1C1D1E1F2021222325262728292A2B2E2F3031323334350000EEDBC9B9AA9B8E82766B60564D443B332C241D17100A04000000000000000100D8
:400E00000000A0460100000008008800000000000200000000000000000000000300000000000000000000000400000000000000000000000500000000000000000000002D
:400E40000600000000000000000000000700000000000000000000000000000028000000F9FF1F000000E00001000000000000000000000000000000020000000000000043
:400E80000000000000000000030000000000000000000000000000000400000000000000000000000000000005000000000000000000000000000000060000000000000020
:400EC00000000000000000000700000000000000000000000000000008000000000000000000000000000000090000000000000000000000000000000A00000000000000D0
:400F000000000000000000000B0000000000000000000000000000000C0000000000000000000000000000000D0000000000000000000000000000000E000000000000007F
:400F400000000000000000000F000000000000000000000000000000F8B5C046F8BC08BC9E467047810100004D020000F8B5C046F8BC08BC9E46704759010000900F00000C
:400F8000C8000020200000004800000000000000000000000000E02EC05D00001800000000366E01F0000000040404000000000000000000000000000000000000000000FD
:400FC00000000000000000000000000000000000000000000000000000000000000000000000000000000000000000000000000000000000000000000000000000000000F1
:4010000000000000000000000000000000000000000000000000000000000000000000000000000000000000000000000000000000000000000000000000000000000000B0
:401040000000000000000000000000000000000000000000000000000000000000000000000000000000000000000000000000000000000000000000000000000000000070
:401080000000000000000000000000000000000000000000000000000000000000000000000000000000000000000000000000000000000000000000000000000000000030
:020000040001F9
:0200000490303A
:02000000653861
:0200000490402A
:4000000000000000000000000000000000000000000000000000000000000000000000000000000000000000000000000000000000000000000000000000000000000000C0
:400040000000000000000000000000000000000000000000000000000000000000000000000000000000000000000000000000000000000000000000000000000000000080
:0200000490501A
:0C0000000002112D11A10001113176D970
:0200000490600A
:0100000001FE
:00000001FF