:400000000040002011000000690700006907000010B500F0ABFBC04610B512221C4B1A60302000F00FFD1B4A1B4B1A60E82252011A4B1A601A4B1B4919601B490A601B49F3
:4000400019601B490A601B4919601B490A601B4A1A60802212061A4B1A608022D202194B1A604322184B1A60033A184B1A600232174B1A60013A174B1A601749072000F0C8
:4000800019FC072000F000FC0022144B1A6010BD300010400600008004010B400C0301400000014043FF00800003014040FF00800803014042FF00800403014041FF00808F
:4000C00008010B4000010B4014010140100101400C01014008010140850B00000C020B4010B572B600240FE024486200131959000B00411889881A5AC318588800041043E9
:4001000000F02CFB0134E4B2012CEDD9EE231C4A13601C4A1360EE2109021B4A11601B4A13601B4A136099231B041A4A13601A4A13601A4A13601A4A117806230B43DBB236
:4001400013700323174A1360242217490A6017490B60174817490860D82000011649086016490B6016490A6016490B60164B1A60FFF752FF00F0E2FA10BDC046CC2700002F
:40018000000102400002024000030240000502400006024010500F4020500F4030500F4000700F40000104400801044000020440A46D030008020440080304400005044016
:4001C00008050440000604400806044010B5064C2378002B07D1054B002B02D0044800E000BF0123237010BDE000002000000000C8270000084B10B5002B03D007490848FC
:4002000000E000BF07480368002B00D110BD064B002BFBD09847F9E700000000E4000020C8270000C00000200000000010B582B001AC20706170002302222100132000F033
:400240009FFD00F075FD8307FBD502B010BDC04600B583B001A9087000236A46137002330122132000F08CFD00F062FD8307FBD5012301226946132000F0F8FD00F058FD41
:40028000C307FBD56B46187803B000BD10B58120FFF7DEFF21280ED0012000F0B1FAFA246400200000F03EFB002000F0A9FA200000F038FB1DE0002000F0A2FA0122154BEA
:4002C0001A600FE0012000F09BFAC82000F02AFB002000F095FAC82000F024FB0D4A1368013313600B4B1B68042BEBDD002000F087FA0F218420FFF799FF14218320FFF752
:4003000095FF00218920FFF791FF81218A20FFF78DFF10BDFC00002010B582B001AC20706170002302222100132000F0C9FE00F09FFE8307FBD502B010BDC04600B583B077
:4003400001A9087000236A46137002330122132000F0B6FE00F08CFE8307FBD5012301226946132000F022FF00F082FEC307FBD56B46187803B000BD10B58120FFF7DEFFD4
:4003800021280ED0012000F047FAFA246400200000F0C8FA002000F03FFA200000F0C2FA1DE0002000F038FA0122154B5A600FE0012000F031FAC82000F0B4FA002000F01E
:4003C0002BFAC82000F0AEFA0D4A5368013353600B4B5B68042BEBDD002000F01DFA0F218420FFF799FF14218320FFF795FF00218920FFF791FF81218A20FFF78DFF10BD79
:40040000FC00002010B58020FFF798FF0823010019438020FFF780FF8020FFF78FFF8306FAD58720FFF78AFF04028820FFF786FF204310BD10B582B001AC207061700023EE
:4004400002222100132000F0DBFF00F0B1FF8307FBD502B010BDC04600B583B001A9087000236A46137002330122132000F0C8FF00F09EFF8307FBD5012301226946132009
:4004800001F034F800F094FFC307FBD56B46187803B000BD10B58120FFF7DEFF21280ED0012000F0C5F9FA246400200000F03AFA002000F0BDF9200000F034FA1DE000203B
:4004C00000F0B6F90122154B9A600FE0012000F0AFF9C82000F026FA002000F0A9F9C82000F020FA0D4A9368013393600B4B9B68042BEBDD002000F08FF90F218420FFF771
:4005000099FF14218320FFF795FF00218920FFF791FF81218A20FFF78DFF10BDFC00002010B58020FFF798FF0823010019438020FFF780FF8020FFF78FFF8306FAD5872008
:40054000FFF78AFF04028820FFF786FF204310BD10B582B001AC20706170002302222100132001F0EDF801F0C3F88307FBD502B010BDC04600B583B001A9087000236A46C5
:40058000137002330122132001F0DAF801F0B0F88307FBD5012301226946132001F046F901F0A6F8C307FBD56B46187803B000BD10B58120FFF7DEFF21280ED0012000F0D3
:4005C00043F9FA246400200000F0ACF9002000F03BF9200000F0A6F91DE0002000F034F90122154BDA600FE0012000F02DF9C82000F098F9002000F027F9C82000F092F97C
:400600000D4AD3680133D3600B4BDB68042BEBDD002000F019F90F218420FFF799FF14218320FFF795FF00218920FFF791FF81218A20FFF78DFF10BDFC00002010B58020DF
:40064000FFF798FF0823010019438020FFF780FF8020FFF78FFF8306FAD58720FFF78AFF04028820FFF786FF204310BD10B562B6002000F0C5F8002000F0CEF8002000F0C5
:40068000D7F8002000F0E0F800F0E4FA00F0D6FA00F080FC00F072FC00F01CFE00F00EFE00F0B8FF00F0AAFF642000F03BF9FFF7EDFDFFF761FEFFF7EDFEFFF779FF1D4B51
:4006C00010229A5E1C4B9A4203DC012000F098F802E0002000F094F8FFF794FE00B2154B1882154B984203DC012000F095F802E0002000F091F8FFF713FF00B20D4B18827D
:400700000D4B984203DC012000F092F802E0002000F08EF8FFF792FF00B2064B1882064B984203DC012000F08FF8C8E7002000F08BF8C4E7FC000020B70B00000323044A90
:400740001360044A13600022034B1A607047C0463000304030003140000E3F4010B50A00002102F029F810BDFEE7C04670B50F4E0F4D13E029686B68AC68002202E001C9FE
:4007800001C30432A242FAD1E868002202E0002102C304328242FAD11035013E002EE9D101F0E4FFFFF762FFFEE7C046010000004428000010B50E4A136801218B431360A7
:4007C00000230AE0032B03D89A000A49505800E009489900094A885001332F2BF2D9FFF77FFC034A116801230B43136010BDC0460000104000000000690700000000002031
:4008000004490A68D2B204239A43800018401043086070470002044004490A68D2B208239A43C00018401043086070470002044004490A68D2B210239A43000118401043C7
:40084000086070470002044004490A68D2B220239A434001184010430860704700020440024A1168024B0B401360704700002240FFFFFFBF034B18688023DB05184000D041
:4008800001207047000022401F2318401E3B8340014A13607047C04600E100E01F2318401E3B8340014A13607047C04680E100E001BE704770B504000D001F2802D90020AC
:4008C000FFF7F6FF1034A40080239B059C4664442068256070BDC04670B504000E00032902D90020FFF7E4FF1F2C02D90020FFF7DFFF03252540ED00063501F01EF8A4085F
:40090000A400074B9C46644421680323AB4099430B003100A9401943216001F012F870BD00E400E010B5040006E0084B186800F0FBFF074B9C46644480231B029C42F4D821
:40094000024B5868604300F0EFFF10BDC40000200080FFFF30B583B000F0BEF800285AD000F0EBFF040000230AE02C4A12683F210A402B49C95C8A4201D1033303E00133A1
:400980002D2BF2D90323274A1268D20606D1254802681F218A4313390A430260224A1168224A0A40224959438020C00184466144C90B01394905490D0A43A02149031143A3
:4009C0000800192B02D81B4B1A430EE01A4A9A1812781A3B1249C9183023CB5CD318FF2B00D9FF239B0502001A430F4B1A60134D2B680193302000F0A7FF114A13688021AE
:400A0000C9050B4313601420FFF78CFF019B2B60200000F096FF03B030BDC0462CFF0B40D827000034FF0B400800224000F800C040420F000000D43FCDF1FF0F30001040FB
:400A40000000224030B587B0040000F076FF0500FFF710FF002803D0FFF702FF012100E00021104B1B6800930F4B1B680193033C0E4B1B5D02930E4B1B68039304AA0D4B71
:400A800004936B4605930C4B1A600C480C4A10601B68012901D1FFF75DFF280000F051FF07B030BD08010B4000010B40D827000030001040B6EA00000800104017000080E0
:400AC00004001040034B1868C0231B02184000D00120704700010B40034B1B68002B01DA012000E0002070470000224010B500F024FF044A1368C02109020B43136000F039
:400B000020FF10BD00010B4010B500F016FF08490A68084B1A408024E40122430A600A6813408022120213430B6000F00AFF10BD00010B40FF3FFFFF70B5050000F0FDFE4C
:400B40000400FFF7BFFF002803D0FFF7DDFF012100E0002108482840084A1568084B2B40184310601368012901D1FFF7BFFF200000F0E7FE70BDC0460404040010020B4001
:400B8000FBFBFBFF10B5244B1B685B0715D5234B5B685B070ED5224B596A042001401F4C62688A4362605A6A82435A629B69002B00D098470420FFF7BFFF174B1B685B0533
:400BC00018D5164B5B685B0510D5154B596A8022D2001140114842688A434260596A114A0A405A62DB69002B00D098478020C000FFF7A2FF084B1B685B030CD5074B5B68E2
:400C00005B0304D5064B1B6A002B00D098478020C002FFF791FF10BD10020B40D400002010010020FFFBFFFF10B50920FFF72CFE10BDC04610B500F01DF810BD10B5044A13
:400C40001368802109060B431360FFF7EDFF10BD0000254010B5064B1B78002B04D1FFF7E9FF0122024B1A70FFF7E8FF10BDC0463801002010B50024194B1C60194A1A4B59
:400C80001A601A4B1A4A13601A4A14601A4A14601A4A13601A4B1C600920FFF7FFFD03210920FFF719FE17490920FFF703FE164B1C60164B1C60164B1C601422FF32154BC3
:400CC0001A60154B1C60154B1C60043AFF3A144B1A70144B1C80144B1C60144B1C6010BD000025407708008060002540070100800003254004032540100325400002254080
:400D0000040225409D190000C80E2540880E2540480F2540080F2540C80F2540880F2540580100206C010020740100205C01002010B50920FFF7B2FD074B1C88A2B21400E3
:400D4000064B1B789B0602D504231A4394B20920FFF79AFD200010BD6C01002058010020054B1B682022134000D0082301221343024A13607047C0466400254068002540B6
:400D8000F0B583B001900C0017001D00002917D0284B1B78102B08D10920FFF77FFD264B1B68DB070ED508260FE0224B1B78602B0AD1224A138808218B431380002604E0EE
:400DC000042602E0002600E00426002E2BD12822184B1A7000231A4A13601A4A13601A4B1F601A4B1C60EAB2194B1A70019B5C00FF231C40114A138802218B431380154AE7
:400E0000154B1A604023154A1360154A1360EB0704D5FFF7A5FF134B1C6004E0114B1C600222114B1A600920FFF72EFD300003B0F0BDC04658010020640025406C0100202D
:400E4000640100205C01002060010020700100207C01002017030000000F2540800F2540880F25404002254068002540F0B583B001900C0017001D00002917D02D4B1B780B
:400E8000102B08D10920FFF709FD2B4B1B68DB070ED508260FE0274B1B78602B0AD1274A138808218B431380002604E0042602E0002600E00426002E35D129221D4B1A7066
:400EC00000221F4B1A601F4A17601F4B1C60EBB21E490B70019B5C00FF231C400120044316490B8883430B8019491A4B19601368072B03D80422184B1A6008E0174A1368F7
:400F0000802149000B4313600822134B1A60EB0704D5FFF725FF124B1C6004E0104B1C600222104B1A600920FFF7AEFC300003B0F0BDC04658010020640025406C01002064
:400F40007401002078010020680100207C01002017030000000F2540C80F254060002540400225406800254010B50A20FFF78CFC10BDC04610B500F01DF810BD10B5044A30
:400F80001368802109060B431360FFF7EDFF10BD0000264010B5064B1B78002B04D1FFF7E9FF0122024B1A70FFF7E8FF10BDC0464001002010B50024194B1C60194A1A4B0D
:400FC0001A601A4B1A4A13601A4A14601A4A14601A4A13601A4B1C600A20FFF75FFC03210A20FFF779FC17490A20FFF763FC164B1C60164B1C60164B1C601422FF32154B62
:401000001A60154B1C60154B1C60043AFF3A144B1A70144B1C80144B1C60144B1C6010BD000026407708008060002640070100800003264004032640100326400002264036
:4010400004022640111D0000C80E2640880E2640480F2640080F2640C80F2640880F26407D010020880100209C0100208401002010B50A20FFF712FC074B1C88A2B2140030
:40108000064B1B789B0602D504231A4394B20A20FFF7FAFB200010BD880100207D010020054B1B682022134000D0082301221343024A13607047C0466400264068002640D1
:4010C000F0B583B001900C0017001D00002917D0284B1B78102B08D10A20FFF7DFFB264B1B68DB070ED508260FE0224B1B78602B0AD1224A138808218B431380002604E04C
:40110000042602E0002600E00426002E2BD12822184B1A7000231A4A13601A4A13601A4B1F601A4B1C60EAB2194B1A70019B5C00FF231C40114A138802218B431380154AA3
:40114000154B1A604023154A1360154A1360EB0704D5FFF7A5FF134B1C6004E0114B1C600222114B1A600A20FFF78EFB300003B0F0BDC0467D010020640026408801002049
:4011800090010020840100208C010020A00100208001002017030000000F2640800F2640880F26404002264068002640F0B583B001900C0017001D00002917D02D4B1B780F
:4011C000102B08D10A20FFF769FB2B4B1B68DB070ED508260FE0274B1B78602B0AD1274A138808218B431380002604E0042602E0002600E00426002E35D129221D4B1A70C4
:4012000000221F4B1A601F4A17601F4B1C60EBB21E490B70019B5C00FF231C400120044316490B8883430B8019491A4B19601368072B03D80422184B1A6008E0174A1368B3
:40124000802149000B4313600822134B1A60EB0704D5FFF725FF124B1C6004E0104B1C600222104B1A600A20FFF70EFB300003B0F0BDC0467D01002064002640880100207F
:401280009C01002094010020980100208001002017030000000F2640C80F264060002640400226406800264010B50B20FFF7ECFA10BDC04610B500F01DF810BD10B5044A11
:4012C0001368802109060B431360FFF7EDFF10BD0000274010B5064B1B78002B04D1FFF7E9FF0122024B1A70FFF7E8FF10BDC0464801002010B50024194B1C60194A1A4BC1
:401300001A601A4B1A4A13601A4A14601A4A14601A4A13601A4B1C600B20FFF7BFFA03210B20FFF7D9FA17490B20FFF7C3FA164B1C60164B1C60164B1C601422FF32154B01
:401340001A60154B1C60154B1C60043AFF3A144B1A70144B1C80144B1C60144B1C6010BD0000274077080080600027400701008000032740040327401003274000022740ED
:401380000402274085200000C80E2740880E2740480F2740080F2740C80F2740880F2740A4010020AC010020A8010020C401002010B50B20FFF772FA074B1C88A2B2140079
:4013C000064B1B789B0602D504231A4394B20B20FFF75AFA200010BDAC010020A4010020054B1B682022134000D0082301221343024A13607047C0466400274068002740E1
:40140000F0B583B001900C0017001D00002917D0284B1B78102B08D10B20FFF73FFA264B1B68DB070ED508260FE0224B1B78602B0AD1224A138808218B431380002604E0A8
:40144000042602E0002600E00426002E2BD12822184B1A7000231A4A13601A4A13601A4B1F601A4B1C60EAB2194B1A70019B5C00FF231C40114A138802218B431380154A60
:40148000154B1A604023154A1360154A1360EB0704D5FFF7A5FF134B1C6004E0114B1C600222114B1A600B20FFF7EEF9300003B0F0BDC046A401002064002740AC0100205B
:4014C000B8010020C4010020B0010020C0010020C801002017030000000F2740800F2740880F27404002274068002740F0B583B001900C0017001D00002917D02D4B1B78D3
:40150000102B08D10B20FFF7C9F92B4B1B68DB070ED508260FE0274B1B78602B0AD1274A138808218B431380002604E0042602E0002600E00426002E35D129221D4B1A7021
:4015400000221F4B1A601F4A17601F4B1C60EBB21E490B70019B5C00FF231C400120044316490B8883430B8019491A4B19601368072B03D80422184B1A6008E0174A136870
:40158000802149000B4313600822134B1A60EB0704D5FFF725FF124B1C6004E0104B1C600222104B1A600B20FFF76EF9300003B0F0BDC046A401002064002740AC01002091
:4015C000A8010020B4010020BC010020C801002017030000000F2740C80F274060002740400227406800274010B50820FFF74CF910BDC04610B500F01DF810BD10B5044AD5
:401600001368802109060B431360FFF7EDFF10BD0000244010B5064B1B78002B04D1FFF7E9FF0122024B1A70FFF7E8FF10BDC0465001002010B50024194B1C60194A1A4B78
:401640001A601A4B1A4A13601A4A14601A4A14601A4A13601A4B1C600820FFF71FF903210820FFF739F917490820FFF723F9164B1C60164B1C60164B1C601422FF32154BAA
:401680001A60154B1C60154B1C60043AFF3A144B1A70144B1C80144B1C60144B1C6010BD0000244077080080600024400701008000032440040324401003244000022440BC
:4016C00004022440F9230000C80E2440880E2440480F2440080F2440C80F2440880F2440C9010020D4010020E0010020DC01002010B50820FFF7D2F8074B1C88A2B21400DC
:40170000064B1B789B0602D504231A4394B20820FFF7BAF8200010BDD4010020C9010020054B1B682022134000D0082301221343024A13607047C0466400244068002440FB
:40174000F0B583B001900C0017001D00002917D0284B1B78102B08D10820FFF79FF8264B1B68DB070ED508260FE0224B1B78602B0AD1224A138808218B431380002604E00A
:40178000042602E0002600E00426002E2BD12822184B1A7000231A4A13601A4A13601A4B1F601A4B1C60EAB2194B1A70019B5C00FF231C40114A138802218B431380154A1D
:4017C000154B1A604023154A1360154A1360EB0704D5FFF7A5FF134B1C6004E0114B1C600222114B1A600820FFF74EF8300003B0F0BDC046C901002064002440D401002072
:40180000E4010020DC010020D0010020EC010020CC01002017030000000F2440800F2440880F24404002244068002440F0B583B001900C0017001D00002917D02D4B1B780A
:40184000102B08D10820FFF729F82B4B1B68DB070ED508260FE0274B1B78602B0AD1274A138808218B431380002604E0042602E0002600E00426002E35D129221D4B1A7082
:4018800000221F4B1A601F4A17601F4B1C60EBB21E490B70019B5C00FF231C400120044316490B8883430B8019491A4B19601368072B03D80422184B1A6008E0174A13682D
:4018C000802149000B4313600822134B1A60EB0704D5FFF725FF124B1C6004E0104B1C600222104B1A600820FEF7CEFF300003B0F0BDC046C901002064002440D4010020A2
:40190000E0010020E8010020D8010020CC01002017030000000F2440C80F24406000244040022440680024400230800803D00138FDD1C046C046C0467047EFF3108072B6C2
:40194000704780F31088704770B50400FFF7F5FF0500102C05D8104A136803218B43136016E0202C07D80C490B6803229343023A13430B600CE0302C07D807490B68032293
:401980009343013A13430B6002E00020FEF790FF2800FFF7D6FF70BD3000104010B5B94B1B68002B00D09847B74B1B68DB0702D50022B64B1A60B64B1B789B0628D5B54BFC
:4019C0001B68DB0507D5B44A1188C0239B000B431380012300E00023AE4A1268D20706D5AD4A118890239B000B4313800123002B0FD0A74A1278D20701D5012200E0022227
:401A0000A549088802430A800021A14A117000E000239F4A1278920600D417E19D4A1268D20611D510229D4B1A60994B1B78DB0701D5012300E00223974A11880B4313808C
:401A40001022934B1A701BE1914A1278120720D5904A126892070AD50222904B1A608E4A118888239B000B431380012311E0884A1278D20703D52521854A117009E024219A
:401A8000834A1170864A1268002A02D01439854A11607F4A1278520700D4AEE07C4A1278D20749D5804A1268120727D57F4A12687F4909681F240C407E4909686418141B69
:401AC000082C09D8002C16D17B4A11687B4B0B401360012308340EE008240CE0754A116877480068411877480068C0B20870116801311160013C002CF0D119E06A4A126860
:401B0000520715D56B4A11686D48006841186D480068C0B208701168013111601168634A1268914203D20421674A116000E001236649674A116060E0564A1268920726D549
:401B40000222564B1A6063490B681D321A40096880231B020B4000D001239B185E4A1168CB1A136012685D4B1A604B4A118884239B000B4313805A4B1A68802149020A4375
:401B80001A601968574A0A401A60012335E0564A1268D2061ED427E04F4A1168404A126891421DD23E4A1268013A4B4909688A4204D140224D490A603A490A60464A11688E
:401BC0004B48006841180978C9B24A4801601168013111603F4A12681F210A40082ADBD11021424A116008E03F4A1268520604D5394B1A68394B1A600123002B40D02E4AF6
:401C000011682E4B0B40136000233B4A1360254A13603A4B1B789B070ED51D4B1B78DB0701D5092300E00A231B4A11880B4313806022174B1A7023E0314B1B689B0601D5A8
:401C4000182200E01022204B1A6019E0104B1B78DB0615D42B4A13685B005B08136010210B4B1970144B186827490140196018682649014019601368802109060B431360B3
:401C800010BDC0463C0100208C0E2540880E2540580100200C0F25406C010020000F254060010020880F2540CC0F254078010020080325407401002060002540FFFEFFFFE5
:401CC000680100204003254068002540ED0F0000C00F254008022540640100205C01002004022540FFFFFEFF8C0F2540800F25407001002040022540C80F25407C010020DA
:401D00006400254000002540FF5FFFFFFFFCFFFF10B5B94B1B68002B00D09847B74B1B68DB0702D50022B64B1A60B64B1B789B0628D5B54B1B68DB0507D5B44A1188C02334
:401D40009B000B431380012300E00023AE4A1268D20706D5AD4A118890239B000B4313800123002B0FD0A74A1278D20701D5012200E00222A549088802430A800021A14A03
:401D8000117000E000239F4A1278920600D417E19D4A1268D20611D510229D4B1A60994B1B78DB0701D5012300E00223974A11880B4313801022934B1A701BE1914A127867
:401DC000120720D5904A126892070AD50222904B1A608E4A118888239B000B431380012311E0884A1278D20703D52521854A117009E02421834A1170864A1268002A02D07E
:401E00001439854A11607F4A1278520700D4AEE07C4A1278D20749D5804A1268120727D57F4A12687F4909681F240C407E4909686418141B082C09D8002C16D17B4A116813
:401E40007B4B0B401360012308340EE008240CE0754A116877480068411877480068C0B20870116801311160013C002CF0D119E06A4A1268520715D56B4A11686D480068B4
:401E800041186D480068C0B208701168013111601168634A1268914203D20421674A116000E001236649674A116060E0564A1268920726D50222564B1A6063490B681D32A7
:401EC0001A40096880231B020B4000D001239B185E4A1168CB1A136012685D4B1A604B4A118884239B000B4313805A4B1A68802149020A431A601968574A0A401A6001231B
:401F000035E0564A1268D2061ED427E04F4A1168404A126891421DD23E4A1268013A4B4909688A4204D140224D490A603A490A60464A11684B48006841180978C9B24A48AC
:401F400001601168013111603F4A12681F210A40082ADBD11021424A116008E03F4A1268520604D5394B1A68394B1A600123002B40D02E4A11682E4B0B40136000233B4AFC
:401F80001360254A13603A4B1B789B070ED51D4B1B78DB0701D5092300E00A231B4A11880B4313806022174B1A7023E0314B1B689B0601D5182200E01022204B1A6019E053
:401FC000104B1B78DB0615D42B4A13685B005B08136010210B4B1970144B186827490140196018682649014019601368802109060B43136010BDC046440100208C0E264022
:40200000880E26407D0100200C0F264088010020000F26408C010020880F2640CC0F264094010020080326409C01002060002640FFFEFFFF980100204003264068002640A8
:40204000ED0F0000C00F264008022640900100208401002004022640FFFFFEFF8C0F2640800F2640A001002040022640C80F2640800100206400264000002640FF5FFFFF39
:40208000FFFCFFFF10B5B94B1B68002B00D09847B74B1B68DB0702D50022B64B1A60B64B1B789B0628D5B54B1B68DB0507D5B44A1188C0239B000B431380012300E0002398
:4020C000AE4A1268D20706D5AD4A118890239B000B4313800123002B0FD0A74A1278D20701D5012200E00222A549088802430A800021A14A117000E000239F4A1278920694
:4021000000D417E19D4A1268D20611D510229D4B1A60994B1B78DB0701D5012300E00223974A11880B4313801022934B1A701BE1914A1278120720D5904A126892070AD598
:402140000222904B1A608E4A118888239B000B431380012311E0884A1278D20703D52521854A117009E02421834A1170864A1268002A02D01439854A11607F4A127852079B
:4021800000D4AEE07C4A1278D20749D5804A1268120727D57F4A12687F4909681F240C407E4909686418141B082C09D8002C16D17B4A11687B4B0B401360012308340EE0F7
:4021C00008240CE0754A116877480068411877480068C0B20870116801311160013C002CF0D119E06A4A1268520715D56B4A11686D48006841186D480068C0B2087011682A
:40220000013111601168634A1268914203D20421674A116000E001236649674A116060E0564A1268920726D50222564B1A6063490B681D321A40096880231B020B4000D056
:4022400001239B185E4A1168CB1A136012685D4B1A604B4A118884239B000B4313805A4B1A68802149020A431A601968574A0A401A60012335E0564A1268D2061ED427E03D
:402280004F4A1168404A126891421DD23E4A1268013A4B4909688A4204D140224D490A603A490A60464A11684B48006841180978C9B24A4801601168013111603F4A1268A9
:4022C0001F210A40082ADBD11021424A116008E03F4A1268520604D5394B1A68394B1A600123002B40D02E4A11682E4B0B40136000233B4A1360254A13603A4B1B789B07EA
:402300000ED51D4B1B78DB0701D5092300E00A231B4A11880B4313806022174B1A7023E0314B1B689B0601D5182200E01022204B1A6019E0104B1B78DB0615D42B4A136836
:402340005B005B08136010210B4B1970144B186827490140196018682649014019601368802109060B43136010BDC0464C0100208C0E2740880E2740A40100200C0F2740F9
:40238000AC010020000F2740B0010020880F2740CC0F2740B401002008032740A801002060002740FFFEFFFFBC0100204003274068002740ED0F0000C00F274008022740FE
:4023C000B8010020C401002004022740FFFFFEFF8C0F2740800F2740C001002040022740C80F2740C80100206400274000002740FF5FFFFFFFFCFFFF10B5B94B1B68002B10
:4024000000D09847B74B1B68DB0702D50022B64B1A60B64B1B789B0628D5B54B1B68DB0507D5B44A1188C0239B000B431380012300E00023AE4A1268D20706D5AD4A1188CE
:4024400090239B000B4313800123002B0FD0A74A1278D20701D5012200E00222A549088802430A800021A14A117000E000239F4A1278920600D417E19D4A1268D20611D5DB
:4024800010229D4B1A60994B1B78DB0701D5012300E00223974A11880B4313801022934B1A701BE1914A1278120720D5904A126892070AD50222904B1A608E4A118888236B
:4024C0009B000B431380012311E0884A1278D20703D52521854A117009E02421834A1170864A1268002A02D01439854A11607F4A1278520700D4AEE07C4A1278D20749D504
:40250000804A1268120727D57F4A12687F4909681F240C407E4909686418141B082C09D8002C16D17B4A11687B4B0B401360012308340EE008240CE0754A116877480068A5
:40254000411877480068C0B20870116801311160013C002CF0D119E06A4A1268520715D56B4A11686D48006841186D480068C0B208701168013111601168634A1268914207
:4025800003D20421674A116000E001236649674A116060E0564A1268920726D50222564B1A6063490B681D321A40096880231B020B4000D001239B185E4A1168CB1A136099
:4025C00012685D4B1A604B4A118884239B000B4313805A4B1A68802149020A431A601968574A0A401A60012335E0564A1268D2061ED427E04F4A1168404A126891421DD232
:402600003E4A1268013A4B4909688A4204D140224D490A603A490A60464A11684B48006841180978C9B24A4801601168013111603F4A12681F210A40082ADBD11021424AD8
:40264000116008E03F4A1268520604D5394B1A68394B1A600123002B40D02E4A11682E4B0B40136000233B4A1360254A13603A4B1B789B070ED51D4B1B78DB0701D50923C9
:4026800000E00A231B4A11880B4313806022174B1A7023E0314B1B689B0601D5182200E01022204B1A6019E0104B1B78DB0615D42B4A13685B005B08136010210B4B197034
:4026C000144B186827490140196018682649014019601368802109060B43136010BDC046540100208C0E2440880E2440C90100200C0F2440D4010020000F2440D00100203A
:40270000880F2440CC0F2440E801002008032440E001002060002440FFFEFFFFD80100204003244068002440ED0F0000C00F244008022440E4010020DC01002004022440B2
:40274000FFFFFEFF8C0F2440800F2440EC01002040022440C80F2440CC0100206400244000002440FF5FFFFFFFFCFFFF0E4B70B500251E000D4CE41AA410A54204D0AB00DE
:40278000F35898470135F8E700F04AF8084B00251E00084CE41AA410A54204D0AB00F35898470135F8E770BD2C2800002C2800002C2800003428000003008218934202D09E
:4027C00019700133FAE770470000000000300F40000400400F400004030405060708090A0B0C0E0F101112131415161718191B1C1D1E1F2021222325262728292A2B2E2FAD
:402800003031323334350000EEDBC9B9AA9B8E82766B60564D443B332C241D17100A0400F8B5C046F8BC08BC9E467047F5010000B5070000F8B5C046F8BC08BC9E46704753
:40284000CD01000058280000C0000020200000001001000000000000000000000000C05D80BB000030000000006CDC02F0000000040404000000000000000000000000002B
:402880000000000000000000000000000000000000000000000000000000000000000000000000000000000000000000000000000000000000000000000000000000000018
:4028C00000000000000000000000000000000000000000000000000000000000000000000000000000000000000000000000000000000000000000000000000000000000D8
:402900000000000000000000000000000000000000000000000000000000000000000000000000000000000000000000000000000000000000000000000000000000000097
:402940000000000000000000000000000000000000000000000000000000000000000000000000000000000000000000000000000000000000000000000000000000000057
:020000040001F9
:0200000490303A
:020000006A870D
:0200000490402A
:4000000000000000000000000000000000000000000000000000000000000000000000000000000000000000000000000000000000000000000000000000000000000000C0
:400040000000000000000000000000000000000000000000000000000000000000000000000000000000000000000000000000000000000000000000000000000000000080
:0200000490501A
:0C0000000002112D11A1000111397C2813
:0200000490600A
:0100000001FE
:00000001FF