:4000000000400020110000005D0700005D07000008B500F0A5FBC04608B512221C4B1A60302000F01FFD1B4A1B4B1A60E82252011A4B1A601A4B1B4919601B490A601B4911
:4000400019601B490A601B4919601B490A601B4A1A60802212061A4B1A608022D202194B1A604322184B1A60033A184B1A600232174B1A60013A174B1A600720164900F0C9
:400080002DFC072000F014FC0022144B1A6008BD300010400600008004010B400C0301400000014043FF00800003014040FF00800803014042FF00800403014041FF00806F
:4000C00008010B4000010B4014010140100101400C01014008010140A50B00000C020B4010B572B6002410E0294863001A195200821891881B195B001A5AC3185888000448
:40010000104300F08BFB0134E4B2012CECD9EE23204A1360204A1360EE2109021F4A11601F4A13601F4A136099231B041E4A13601E4A13601E4A13601E4B197802220A43EB
:400140001A701D4802783C218A4328390A430270197816220A431A700323184A1360242217490A6017490B60174818490860D82000011749086017490B6017490A60174978
:400180000B60174B1A60FFF747FF00F037FB10BDEC270000000102400002024000030240000502400006024010500F4020500F4030500F4000700F4001700F40000104405E
:4001C0000801044000020440A46D030008020440080304400005044008050440000604400806044010B5064C2378002B07D1054B002B02D0044800E000BF0123237010BD14
:40020000E800002000000000E827000008B5084B002B03D00748084900E000BF07480368002B00D108BD064B002BFBD09847F9E700000000E8270000EC000020C8000020D6
:400240000000000000B583B001AB187059701320191C0222002300F0A3FD00F079FD8307FBD503B000BDC04600B583B001A9087000236A46137013200122023300F090FDBC
:4002800000F066FD8307FBD5132069460122012300F0FCFD00F05CFDC307FBD56B46187803B000BD10B58120FFF7DEFF21280ED0012000F0B9FAFA246400201C00F046FBD8
:4002C000002000F0B1FA201C00F040FB1DE0002000F0AAFA0122154B1A600FE0012000F0A3FAC82000F032FB002000F09DFAC82000F02CFB0D4A1368013313600B4B1B6894
:40030000042BEBDD002000F08FFA84200F21FFF799FF83201421FFF795FF89200021FFF791FF8A208121FFF78DFF10BD0401002000B583B001AB187059701320191C0222E8
:40034000002300F0CDFE00F0A3FE8307FBD503B000BDC04600B583B001A9087000236A46137013200122023300F0BAFE00F090FE8307FBD5132069460122012300F026FF95
:4003800000F086FEC307FBD56B46187803B000BD10B58120FFF7DEFF21280ED0012000F04FFAFA246400201C00F0D0FA002000F047FA201C00F0CAFA1DE0002000F040FAC4
:4003C0000122154B5A600FE0012000F039FAC82000F0BCFA002000F033FAC82000F0B6FA0D4A5368013353600B4B5B68042BEBDD002000F025FA84200F21FFF799FF8320FD
:400400001421FFF795FF89200021FFF791FF8A208121FFF78DFF10BD0401002010B58020FFF798FF0823011C19438020FFF780FF8020FFF78FFF8306FAD58720FFF78AFFA0
:4004400004028820FFF786FF204310BD00B583B001AB187059701320191C0222002300F0DFFF00F0B5FF8307FBD503B000BDC04600B583B001A9087000236A4613701320BA
:400480000122023300F0CCFF00F0A2FF8307FBD5132069460122012301F038F800F098FFC307FBD56B46187803B000BD10B58120FFF7DEFF21280ED0012000F0CDF9FA24CD
:4004C0006400201C00F042FA002000F0C5F9201C00F03CFA1DE0002000F0BEF90122154B9A600FE0012000F0B7F9C82000F02EFA002000F0B1F9C82000F028FA0D4A936809
:40050000013393600B4B9B68042BEBDD002000F097F984200F21FFF799FF83201421FFF795FF89200021FFF791FF8A208121FFF78DFF10BD0401002010B58020FFF798FFDE
:400540000823011C19438020FFF780FF8020FFF78FFF8306FAD58720FFF78AFF04028820FFF786FF204310BD00B583B001AB187059701320191C0222002301F0F1F801F068
:40058000C7F88307FBD503B000BDC04600B583B001A9087000236A46137013200122023301F0DEF801F0B4F88307FBD5132069460122012301F04AF901F0AAF8C307FBD579
:4005C0006B46187803B000BD10B58120FFF7DEFF21280ED0012000F04BF9FA246400201C00F0B4F9002000F043F9201C00F0AEF91DE0002000F03CF90122154BDA600FE02D
:40060000012000F035F9C82000F0A0F9002000F02FF9C82000F09AF90D4AD3680133D3600B4BDB68042BEBDD002000F021F984200F21FFF799FF83201421FFF795FF892047
:400640000021FFF791FF8A208121FFF78DFF10BD0401002010B58020FFF798FF0823011C19438020FFF780FF8020FFF78FFF8306FAD58720FFF78AFF04028820FFF786FF9D
:40068000204310BD08B562B6002000F0CDF8002000F0D6F8002000F0DFF8002000F0E8F800F0E8FA00F0DAFA00F084FC00F076FC00F020FE00F012FE00F0BCFF00F0AEFFED
:4006C000642000F043F9FFF7EDFDFFF761FEFFF7EDFEFFF779FF1F4B10229A5E1E4B9A4203DC012000F0A0F802E0002000F09CF8FFF794FE80B2174B188200B2164B98423C
:4007000003DC012000F09CF802E0002000F098F8FFF712FF80B20F4B188200B20E4B984203DC012000F098F802E0002000F094F8FFF790FF80B2074B188200B2064B984223
:4007400003DC012000F094F8C5E7002000F090F8C1E7C04604010020B70B0000FEE7C04670B50F4E0F4D13E029686B68AC68002202E001C901C30432A242FAD1E868002207
:4007800002E0002102C304328242FAD11035013E002EE9D101F0FAFFFFF774FFFEE7C046010000006428000008B50F4A136801218B43136000230AE0032B03D89A000B497D
:4007C000505800E00A4899000A4A885001332F2BF2D9FFF785FC0022074B1A60024A116801230B43136008BD00001040000000005D07000000000020C00000200323044A05
:400800001360044A13600022034B1A607047C0463000304030003140000E3F4008B50A1C002101F0D9FF08BD04490A68FB231A408000F73B18401043086070470002044084
:4008400004490A68F7231A40C000EF3B18401043086070470002044004490A68EF231A400001DF3B18401043086070470002044004490A68DF231A404001BF3B18401043F4
:400880000860704700020440024A1168024B0B401360704700002240FFFFFFBF034B18688023DB05184000D001207047000022401F2318401E3B8340181C014B1860704716
:4008C00000E100E01F2318401E3B8340181C014B1860704780E100E001BE704738B5041C0D1C1F2802D90020FFF7F6FFA400034B9C4664442068256038BDC04640000020D4
:4009000070B5041C0E1E032E02D90020FFF7E4FF1F2C02D90020FFF7DFFF03252540ED00063501F01AF8A408A400074B9C46644423680322AA409343AE40351C1D432560AF
:4009400001F00FF870BDC04600E400E010B5041C06E0084B186800F0F7FF074B9C46644480231B029C42F4D8024B5868604300F0EBFF10BDCC0000200080FFFF30B583B0E5
:4009800000F0BAF8002856D000F0E7FF041C00230AE02A4A11683F220A402949C95C8A4201D1033303E001332D2BF2D90323254A1268D20606D1234802681F218A4313391B
:4009C0000A430260204A1168204A1140204A5A438020C00184466244D20B013A5205520D0A43A02149031143192B02D819490A430BE0194A9A1812781148C3189B7DD218C9
:400A0000FF2A00D9FF2292050A430F4B1A60134D2B680193302000F0A7FF114A13688021C9050B4313601420FFF790FF019B2B60201C00F096FF03B030BDC0462CFF0B40AB
:400A4000F827000034FF0B400800224000F800C040420F000000D43FCDF1FF0F300010400000224030B587B0041C00F076FF051CFFF714FF002803D0FFF706FF012100E0A2
:400A80000021104B1B6800930F4B1B680193033C0E4B1B5D02930E4B1B68039304AA0D4B04936B4605930C4B1A600C480C4A10601B68012901D1FFF761FF281C00F051FFF2
:400AC00007B030BD08010B4000010B40F827000030001040B6EA0000080010401700008004001040034B1868C0231B02184000D00120704700010B40034B1B68002B01DA3F
:400B0000012000E0002070470000224008B500F024FF044A1368C02109020B43136000F020FF08BD00010B4010B500F016FF08490A68084B1A408024E40122430A600A6811
:400B400013408022120213430B6000F00AFF10BD00010B40FF3FFFFF70B5061C00F0FDFE041CFFF7BFFF002803D0FFF7DDFF012500E000250848331C0340084A1068084962
:400B80000840184310601368012D01D1FFF7BEFF201C00F0E6FE70BD0404040010020B40FBFBFBFF10B5244B1B685B0715D5234B5B685B070ED5224B596A042001401F4CE5
:400BC00062688A4362605A6A82435A629B69002B00D098470420FFF7BFFF174B1B685B0518D5164B5B685B0510D5154B596A8022D2001140114842688A434260596A114A8E
:400C00000A405A62DB69002B00D098478020C000FFF7A2FF084B1B685B030CD5074B5B685B0304D5064B1B6A002B00D098478020C002FFF791FF10BD10020B40DC0000207A
:400C400018010020FFFBFFFF08B50920FFF730FE08BDC04608B500F01DF808BD08B5044A1368802109060B431360FFF7EDFF08BD0000254008B5064B1B78002B04D1FFF74D
:400C8000E9FF0122024B1A70FFF7E8FF08BDC0464001002010B50024194B1C60194A1A4B1A601A4B1A4A13601A4A14601A4A14601A4A13601A4B1C600920FFF703FE092051
:400CC0000321FFF71DFE09201649FFF707FE164B1C60164B1C60164B1C601422FF32154B1A60154B1C60154B1C60043AFF3A144B1A70144B1C80144B1C60144B1C6010BDCE
:400D0000000025407708008060002540070100800003254004032540100325400002254004022540BD190000C80E2540880E2540480F2540080F2540C80F2540880F254068
:400D400060010020740100207C0100206401002010B50920FFF7B6FD074B1B889BB21C1C064A1278920601D504241C430920FFF79FFD201C10BDC04674010020600100207B
:400D8000054B1B682022134000D0082301221343024A13607047C0466400254068002540F0B583B001900C1C171C1D1C002919D0284B1B78102B0AD10920FFF783FD264B0A
:400DC0001B68DB0701D508260FE000260DE0214B1B78602B08D1214A138808218B431380002602E0042600E00426002E2BD12822184B1A7000231A4A13601A4A13601A4BC2
:400E00001F601A4B1C60EAB2194B1A70019B5C00FF231C40114A138802218B431380154A154B1A604023154A1360154A1360EB0704D5FFF7A5FF134B1C6004E0114B1C609D
:400E40000222114B1A600920FFF732FD301C03B0F0BDC0466001002064002540740100206C0100206401002068010020780100208401002017030000000F2540800F25403E
:400E8000880F25404002254068002540F0B583B001900C1C171C1D1C002919D02D4B1B78102B0AD10920FFF70DFD2B4B1B68DB0701D508260FE000260DE0264B1B78602BF9
:400EC00008D1264A138808218B431380002602E0042600E00426002E35D129221D4B1A7000221F4B1A601F4A17601F4B1C60EBB21E490B70019B5C00FF231C4001200443AE
:400F000016490B8883430B8019491A4B19601368072B03D80422184B1A6008E0174A1368802149000B4313600822134B1A60EB0704D5FFF725FF124B1C6004E0104B1C60B9
:400F40000222104B1A600920FFF7B2FC301C03B0F0BDC0466001002064002540740100207C01002080010020700100208401002017030000000F2540C80F25406000254017
:400F8000400225406800254008B50A20FFF790FC08BDC04608B500F01DF808BD08B5044A1368802109060B431360FFF7EDFF08BD0000264008B5064B1B78002B04D1FFF767
:400FC000E9FF0122024B1A70FFF7E8FF08BDC0464801002010B50024194B1C60194A1A4B1A601A4B1A4A13601A4A14601A4A14601A4A13601A4B1C600A20FFF763FC0A20A6
:401000000321FFF77DFC0A201649FFF767FC164B1C60164B1C60164B1C601422FF32154B1A60154B1C60154B1C60043AFF3A144B1A70144B1C80144B1C60144B1C6010BDCD
:40104000000026407708008060002640070100800003264004032640100326400002264004022640311D0000C80E2640880E2640480F2640080F2640C80F2640880F2640A0
:401080008501002090010020A40100208C01002010B50A20FFF716FC074B1B889BB21C1C064A1278920601D504241C430A20FFF7FFFB201C10BDC0469001002085010020A7
:4010C000054B1B682022134000D0082301221343024A13607047C0466400264068002640F0B583B001900C1C171C1D1C002919D0284B1B78102B0AD10A20FFF7E3FB264B66
:401100001B68DB0701D508260FE000260DE0214B1B78602B08D1214A138808218B431380002602E0042600E00426002E2BD12822184B1A7000231A4A13601A4A13601A4B7E
:401140001F601A4B1C60EAB2194B1A70019B5C00FF231C40114A138802218B431380154A154B1A604023154A1360154A1360EB0704D5FFF7A5FF134B1C6004E0114B1C605A
:401180000222114B1A600A20FFF792FB301C03B0F0BDC046850100206400264090010020980100208C01002094010020A80100208801002017030000000F2640800F2640A4
:4011C000880F26404002264068002640F0B583B001900C1C171C1D1C002919D02D4B1B78102B0AD10A20FFF76DFB2B4B1B68DB0701D508260FE000260DE0264B1B78602B54
:4012000008D1264A138808218B431380002602E0042600E00426002E35D129221D4B1A7000221F4B1A601F4A17601F4B1C60EBB21E490B70019B5C00FF231C40012004436A
:4012400016490B8883430B8019491A4B19601368072B03D80422184B1A6008E0174A1368802149000B4313600822134B1A60EB0704D5FFF725FF124B1C6004E0104B1C6076
:401280000222104B1A600A20FFF712FB301C03B0F0BDC046850100206400264090010020A40100209C010020A00100208801002017030000000F2640C80F264060002640B7
:4012C000400226406800264008B50B20FFF7F0FA08BDC04608B500F01DF808BD08B5044A1368802109060B431360FFF7EDFF08BD0000274008B5064B1B78002B04D1FFF7C2
:40130000E9FF0122024B1A70FFF7E8FF08BDC0465001002010B50024194B1C60194A1A4B1A601A4B1A4A13601A4A14601A4A14601A4A13601A4B1C600B20FFF7C3FA0B20FA
:401340000321FFF7DDFA0B201649FFF7C7FA164B1C60164B1C60164B1C601422FF32154B1A60154B1C60154B1C60043AFF3A144B1A70144B1C80144B1C60144B1C6010BDCD
:40138000000027407708008060002740070100800003274004032740100327400002274004022740A5200000C80E2740880E2740480F2740080F2740C80F2740880F2740D9
:4013C000AC010020B4010020B0010020CC01002010B50B20FFF776FA074B1B889BB21C1C064A1278920601D504241C430B20FFF75FFA201C10BDC046B4010020AC010020C3
:40140000054B1B682022134000D0082301221343024A13607047C0466400274068002740F0B583B001900C1C171C1D1C002919D0284B1B78102B0AD10B20FFF743FA264BC0
:401440001B68DB0701D508260FE000260DE0214B1B78602B08D1214A138808218B431380002602E0042600E00426002E2BD12822184B1A7000231A4A13601A4A13601A4B3B
:401480001F601A4B1C60EAB2194B1A70019B5C00FF231C40114A138802218B431380154A154B1A604023154A1360154A1360EB0704D5FFF7A5FF134B1C6004E0114B1C6017
:4014C0000222114B1A600B20FFF7F2F9301C03B0F0BDC046AC01002064002740B4010020C0010020CC010020B8010020C8010020D001002017030000000F2740800F2740C0
:40150000880F27404002274068002740F0B583B001900C1C171C1D1C002919D02D4B1B78102B0AD10B20FFF7CDF92B4B1B68DB0701D508260FE000260DE0264B1B78602BAE
:4015400008D1264A138808218B431380002602E0042600E00426002E35D129221D4B1A7000221F4B1A601F4A17601F4B1C60EBB21E490B70019B5C00FF231C400120044327
:4015800016490B8883430B8019491A4B19601368072B03D80422184B1A6008E0174A1368802149000B4313600822134B1A60EB0704D5FFF725FF124B1C6004E0104B1C6033
:4015C0000222104B1A600B20FFF772F9301C03B0F0BDC046AC01002064002740B4010020B0010020BC010020C4010020D001002017030000000F2740C80F2740600027402E
:40160000400227406800274008B50820FFF750F908BDC04608B500F01DF808BD08B5044A1368802109060B431360FFF7EDFF08BD0000244008B5064B1B78002B04D1FFF723
:40164000E9FF0122024B1A70FFF7E8FF08BDC0465801002010B50024194B1C60194A1A4B1A601A4B1A4A13601A4A14601A4A14601A4A13601A4B1C600820FFF723F9082056
:401680000321FFF73DF908201649FFF727F9164B1C60164B1C60164B1C601422FF32154B1A60154B1C60154B1C60043AFF3A144B1A70144B1C80144B1C60144B1C6010BDCF
:4016C00000002440770800806000244007010080000324400403244010032440000224400402244019240000C80E2440880E2440480F2440080F2440C80F2440880F244045
:40170000D1010020DC010020E8010020E401002010B50820FFF7D6F8074B1B889BB21C1C064A1278920601D504241C430820FFF7BFF8201C10BDC046DC010020D1010020DF
:40174000054B1B682022134000D0082301221343024A13607047C0466400244068002440F0B583B001900C1C171C1D1C002919D0284B1B78102B0AD10820FFF7A3F8264B28
:401780001B68DB0701D508260FE000260DE0214B1B78602B08D1214A138808218B431380002602E0042600E00426002E2BD12822184B1A7000231A4A13601A4A13601A4BF8
:4017C0001F601A4B1C60EAB2194B1A70019B5C00FF231C40114A138802218B431380154A154B1A604023154A1360154A1360EB0704D5FFF7A5FF134B1C6004E0114B1C60D4
:401800000222114B1A600820FFF752F8301C03B0F0BDC046D101002064002440DC010020EC010020E4010020D8010020F4010020D401002017030000000F2440800F244048
:40184000880F24404002244068002440F0B583B001900C1C171C1D1C002919D02D4B1B78102B0AD10820FFF72DF82B4B1B68DB0701D508260FE000260DE0264B1B78602B18
:4018800008D1264A138808218B431380002602E0042600E00426002E35D129221D4B1A7000221F4B1A601F4A17601F4B1C60EBB21E490B70019B5C00FF231C4001200443E4
:4018C00016490B8883430B8019491A4B19601368072B03D80422184B1A6008E0174A1368802149000B4313600822134B1A60EB0704D5FFF725FF124B1C6004E0104B1C60F0
:401900000222104B1A600820FEF7D2FF301C03B0F0BDC046D101002064002440DC010020E8010020F0010020E0010020D401002017030000000F2440C80F244060002440BB
:4019400040022440680024400230800803D00138FDD1C046C046C0467047EFF3108072B6704780F31088704738B5041CFFF7F5FF051C102C05D8104A136803218B4313601A
:4019800016E0202C07D80C490B6803229343023A13430B600CE0302C07D807490B6803229343013A13430B6002E00020FEF794FF281CFFF7D6FF38BD3000104010B5B94B8E
:4019C0001B68002B00D09847B74B1B68DB0702D50022B64B1A60B64B1B789B0628D5B54B1B68DB0507D5B44A1188C0239B000B431380012300E00023AE4A1268D20706D5FB
:401A0000AD4A118890239B000B4313800123002B0FD0A74A1278D20701D5012200E00222A549088802430A800021A14A117000E000239F4A1278920600D417E19D4A126853
:401A4000D20611D510229D4B1A60994B1B78DB0701D5012300E00223974A11880B4313801022934B1A701BE1914A1278120720D5904A126892070AD50222904B1A608E4A3B
:401A8000118888239B000B431380012311E0884A1278D20703D52521854A117009E02421834A1170864A1268002A02D01439854A11607F4A1278520700D4AEE07C4A127801
:401AC000D20749D5804A1268120727D57F4A12687F4909681F240C407E4909686418141B082C09D8002C16D17B4A11687B4B0B401360012308340EE008240CE0754A116820
:401B000077480068411877480068C0B20870116801311160013C002CF0D119E06A4A1268520715D56B4A11686D48006841186D480068C0B208701168013111601168634A77
:401B40001268914203D20421674A116000E001236649674A116060E0564A1268920726D50222564B1A60634A13681F211940136880221202134000D00123CB185E4A1168BD
:401B8000CB1A136012685D4B1A604B4A118884239B000B4313805A4B1A68802149020A431A601968574A0A401A60012335E0564A1268D2061ED427E04F4A1168404A1268E6
:401BC00091421DD23E4A1268013A4B4909688A4204D140224D490A603A490A60464A11684B48006841180978C9B24A4801601168013111603F4A12681F210A40082ADBD11E
:401C00001021424A116008E03F4A1268520604D5394B1A68394B1A600123002B40D02E4A11682E4B0B40136000233B4A1360254A13603A4B1B789B070ED51D4B1B78DB0758
:401C400001D5092300E00A231B4A11880B4313806022174B1A7023E0314B1B689B0601D5182200E01022204B1A6019E0104B1B78DB0615D42B4A13685B005B08136010215B
:401C80000B4B1970144B186827490140196018682649014019601368802109060B43136010BDC046440100208C0E2540880E2540600100200C0F254074010020000F25406B
:401CC00068010020880F2540CC0F254080010020080325407C01002060002540FFFEFFFF700100204003254068002540ED0F0000C00F2540080225406C01002064010020FA
:401D000004022540FFFFFEFF8C0F2540800F25407801002040022540C80F2540840100206400254000002540FF5FFFFFFFFCFFFF10B5B94B1B68002B00D09847B74B1B68FA
:401D4000DB0702D50022B64B1A60B64B1B789B0628D5B54B1B68DB0507D5B44A1188C0239B000B431380012300E00023AE4A1268D20706D5AD4A118890239B000B4313809A
:401D80000123002B0FD0A74A1278D20701D5012200E00222A549088802430A800021A14A117000E000239F4A1278920600D417E19D4A1268D20611D510229D4B1A60994B59
:401DC0001B78DB0701D5012300E00223974A11880B4313801022934B1A701BE1914A1278120720D5904A126892070AD50222904B1A608E4A118888239B000B43138001230A
:401E000011E0884A1278D20703D52521854A117009E02421834A1170864A1268002A02D01439854A11607F4A1278520700D4AEE07C4A1278D20749D5804A1268120727D511
:401E40007F4A12687F4909681F240C407E4909686418141B082C09D8002C16D17B4A11687B4B0B401360012308340EE008240CE0754A116877480068411877480068C0B2D3
:401E80000870116801311160013C002CF0D119E06A4A1268520715D56B4A11686D48006841186D480068C0B208701168013111601168634A1268914203D20421674A1160A4
:401EC00000E001236649674A116060E0564A1268920726D50222564B1A60634A13681F211940136880221202134000D00123CB185E4A1168CB1A136012685D4B1A604B4A1A
:401F0000118884239B000B4313805A4B1A68802149020A431A601968574A0A401A60012335E0564A1268D2061ED427E04F4A1168404A126891421DD23E4A1268013A4B4958
:401F400009688A4204D140224D490A603A490A60464A11684B48006841180978C9B24A4801601168013111603F4A12681F210A40082ADBD11021424A116008E03F4A126814
:401F8000520604D5394B1A68394B1A600123002B40D02E4A11682E4B0B40136000233B4A1360254A13603A4B1B789B070ED51D4B1B78DB0701D5092300E00A231B4A1188E1
:401FC0000B4313806022174B1A7023E0314B1B689B0601D5182200E01022204B1A6019E0104B1B78DB0615D42B4A13685B005B08136010210B4B1970144B18682749014076
:40200000196018682649014019601368802109060B43136010BDC0464C0100208C0E2640880E2640850100200C0F264090010020000F264094010020880F2640CC0F264016
:402040009C01002008032640A401002060002640FFFEFFFFA00100204003264068002640ED0F0000C00F264008022640980100208C01002004022640FFFFFEFF8C0F264005
:40208000800F2640A801002040022640C80F2640880100206400264000002640FF5FFFFFFFFCFFFF10B5B94B1B68002B00D09847B74B1B68DB0702D50022B64B1A60B64B4D
:4020C0001B789B0628D5B54B1B68DB0507D5B44A1188C0239B000B431380012300E00023AE4A1268D20706D5AD4A118890239B000B4313800123002B0FD0A74A1278D207EC
:4021000001D5012200E00222A549088802430A800021A14A117000E000239F4A1278920600D417E19D4A1268D20611D510229D4B1A60994B1B78DB0701D5012300E00223E3
:40214000974A11880B4313801022934B1A701BE1914A1278120720D5904A126892070AD50222904B1A608E4A118888239B000B431380012311E0884A1278D20703D52521B6
:40218000854A117009E02421834A1170864A1268002A02D01439854A11607F4A1278520700D4AEE07C4A1278D20749D5804A1268120727D57F4A12687F4909681F240C40C7
:4021C0007E4909686418141B082C09D8002C16D17B4A11687B4B0B401360012308340EE008240CE0754A116877480068411877480068C0B20870116801311160013C002C5E
:40220000F0D119E06A4A1268520715D56B4A11686D48006841186D480068C0B208701168013111601168634A1268914203D20421674A116000E001236649674A116060E008
:40224000564A1268920726D50222564B1A60634A13681F211940136880221202134000D00123CB185E4A1168CB1A136012685D4B1A604B4A118884239B000B4313805A4B4A
:402280001A68802149020A431A601968574A0A401A60012335E0564A1268D2061ED427E04F4A1168404A126891421DD23E4A1268013A4B4909688A4204D140224D490A60C2
:4022C0003A490A60464A11684B48006841180978C9B24A4801601168013111603F4A12681F210A40082ADBD11021424A116008E03F4A1268520604D5394B1A68394B1A60D0
:402300000123002B40D02E4A11682E4B0B40136000233B4A1360254A13603A4B1B789B070ED51D4B1B78DB0701D5092300E00A231B4A11880B4313806022174B1A7023E040
:40234000314B1B689B0601D5182200E01022204B1A6019E0104B1B78DB0615D42B4A13685B005B08136010210B4B1970144B186827490140196018682649014019601368A7
:40238000802109060B43136010BDC046540100208C0E2740880E2740AC0100200C0F2740B4010020000F2740B8010020880F2740CC0F2740BC01002008032740B001002093
:4023C00060002740FFFEFFFFC40100204003274068002740ED0F0000C00F274008022740C0010020CC01002004022740FFFFFEFF8C0F2740800F2740C8010020400227405A
:40240000C80F2740D00100206400274000002740FF5FFFFFFFFCFFFF10B5B94B1B68002B00D09847B74B1B68DB0702D50022B64B1A60B64B1B789B0628D5B54B1B68DB0550
:4024400007D5B44A1188C0239B000B431380012300E00023AE4A1268D20706D5AD4A118890239B000B4313800123002B0FD0A74A1278D20701D5012200E00222A549088881
:4024800002430A800021A14A117000E000239F4A1278920600D417E19D4A1268D20611D510229D4B1A60994B1B78DB0701D5012300E00223974A11880B4313801022934B70
:4024C0001A701BE1914A1278120720D5904A126892070AD50222904B1A608E4A118888239B000B431380012311E0884A1278D20703D52521854A117009E02421834A1170D2
:40250000864A1268002A02D01439854A11607F4A1278520700D4AEE07C4A1278D20749D5804A1268120727D57F4A12687F4909681F240C407E4909686418141B082C09D817
:40254000002C16D17B4A11687B4B0B401360012308340EE008240CE0754A116877480068411877480068C0B20870116801311160013C002CF0D119E06A4A1268520715D5A7
:402580006B4A11686D48006841186D480068C0B208701168013111601168634A1268914203D20421674A116000E001236649674A116060E0564A1268920726D50222564B3D
:4025C0001A60634A13681F211940136880221202134000D00123CB185E4A1168CB1A136012685D4B1A604B4A118884239B000B4313805A4B1A68802149020A431A60196884
:40260000574A0A401A60012335E0564A1268D2061ED427E04F4A1168404A126891421DD23E4A1268013A4B4909688A4204D140224D490A603A490A60464A11684B48006803
:4026400041180978C9B24A4801601168013111603F4A12681F210A40082ADBD11021424A116008E03F4A1268520604D5394B1A68394B1A600123002B40D02E4A11682E4B74
:402680000B40136000233B4A1360254A13603A4B1B789B070ED51D4B1B78DB0701D5092300E00A231B4A11880B4313806022174B1A7023E0314B1B689B0601D5182200E0F6
:4026C0001022204B1A6019E0104B1B78DB0615D42B4A13685B005B08136010210B4B1970144B186827490140196018682649014019601368802109060B43136010BDC04670
:402700005C0100208C0E2440880E2440D10100200C0F2440DC010020000F2440D8010020880F2440CC0F2440F001002008032440E801002060002440FFFEFFFFE0010020C7
:402740004003244068002440ED0F0000C00F244008022440EC010020E401002004022440FFFFFEFF8C0F2440800F2440F401002040022440C80F2440D4010020640024402D
:4027800000002440FF5FFFFFFFFCFFFF0E4B70B500251E1C0D4CE41AA410A54204D0AB00F35898470135F8E700F04AF8084B00251E1C084CE41AA410A54204D0AB00F35838
:4027C00098470135F8E770BD4C2800004C2800004C28000054280000031C8218934202D019700133FAE770470000000000300F40000400400F400004030405060708090AE1
:402800000B0C0E0F101112131415161718191B1C1D1E1F2021222325262728292A2B2E2F3031323334350000EEDBC9B9AA9B8E82766B60564D443B332C241D17100A040004
:40284000F8B5C046F8BC08BC9E4670470D020000A9070000F8B5C046F8BC08BC9E467047E501000078280000C8000020200000001001000000000000000000000000C05D51
:4028800080BB000030000000006CDC02F000000004040400000000000000000000000000000000000000000000000000000000000000000000000000000000000000000067
:4028C00000000000000000000000000000000000000000000000000000000000000000000000000000000000000000000000000000000000000000000000000000000000D8
:402900000000000000000000000000000000000000000000000000000000000000000000000000000000000000000000000000000000000000000000000000000000000097
:402940000000000000000000000000000000000000000000000000000000000000000000000000000000000000000000000000000000000000000000000000000000000057
:402980000000000000000000000000000000000000000000000000000000000000000000000000000000000000000000000000000000000000000000000000000000000017
:020000040001F9
:0200000490303A
:0200000076D2B6
:0200000490402A
:4000000000000000000000000000000000000000000000000000000000000000000000000000000000000000000000000000000000000000000000000000000000000000C0
:400040000000000000000000000000000000000000000000000000000000000000000000000000000000000000000000000000000000000000000000000000000000000080
:0200000490501A
:0C0000000002112D11A1000111398873BC
:0200000490600A
:0100000001FE
:00000001FF