:400000000040002011000000D5080000D508000010B500F061FCC04670B51E4C1223236000F0ECFD1C4801F083FC182000F09CFD00F022FD194A1A4B1A601A4D8026F6056F
:400040002E600022184B1A60184B19491960194819490860194919609C204002184908601849196080210906174B1960174B1A604232174B1A60013A164B1A6016490720BB
:4000800000F0AAFC072000F091FC2E601123236070BDC04630001040001BB7000600008004010B400C020B40000301400000014040FF008000BF5D000803014042FF0080A0
:4000C0000403014041FF008008010B4000010B405801014050010140E90C000070B572B60122394B1A7000240FE038486200131959000B00411889881A5AC3185888000497
:40010000104300F0DDFB0134E4B2022CEDD9002411E02E4EA2001319590071188D8AC88A000428430A8B498B09041143802200F0CDFB0134E4B2002CEBD0244920312448CC
:40014000743000F093FBA0221201224B1A800121214B1970EE221202204B1A60AA22204B1A60204A204B1A60802292021F4B1A60992212041E4B1A6007231E4A13601E4A26
:4001800013601E4803783C22934314221343DBB203701B4A107816230343DBB21370194B1960D8221201184B1A600222174B1A602F32174B1A60C0229202164B1A60FFF764
:4001C0002BFF00F06DFB70BD1C700F40842700000429000000600F4002600F4000030240000402400400990020500F4024500F4030500F402000104000800F4001700F40C5
:4002000000700F40080204400803044000040440080404400806044010B5064C2378002B07D1054B002B02D0044800E000BF0123237010BDE8000020000000008027000058
:40024000084B10B5002B03D00749084800E000BF07480368002B00D110BD064B002BFBD09847F9E700000000EC00002080270000C00000200000000010B501F097FA014B7A
:40028000187010BD0401002010B50A12074B7F241C705870022098700130D8701A71597101F03AF8192000F0CFFB10BD8001002010B5094B80221A70C9B259709970653AED
:4002C000DA7000221A715A719A71D97101F024F8322000F0B9FB10BD80010020F0B585B00190029103921F00274901F013FF4000400802F023F806002349029801F00AFFB6
:400300004000400802F01AF805001F49039801F001FF4000400802F011F804001B4B81221A705F70F7B23612F6B20021019801F089FB002801D0803EF6B2144B9F70DE706C
:40034000EEB22D12EDB20021029801F07BFB002801D0803DEDB20D4B1E715D71E5B22412E4B20021039801F06DFB002801D0803CE4B2064B9D71DC7101F022F8192000F030
:4003800063FB05B0F0BDC04600401C467001002070B5002501240CE00A4B187801F0F0FF011C281C01F076FB051C322000F04CFB0134092CF0DD0449281C01F0E1FC02F02F
:4003C00035F970BD0401002000002041084B1B787F2B0BD1064B9B78022B07D1044BDB782B2B03D1024B1A79024B5A607047C04690010020040100203B4B1B78822B72D1F8
:40040000394B5B78002B0AD1374A9278002A06D1354AD278002A02D1344B9A6063E0002B0AD1314A9278002A06D12F4AD278012A02D12E4B9A6056E0002B0BD12A4A9278D6
:40044000012A07D1284AD278002A03D10232274B9A6048E0002B0BD1234A9278012A07D1214AD278012A03D10232204B9A603AE0012B0BD11C4A9278002A07D11A4AD278E7
:40048000002A03D10432194B9A602CE0012B0BD1154A9278002A07D1134AD278012A03D10432124B9A601EE0012B0BD10E4A9278012A07D10C4AD278002A03D106320B4B61
:4004C0009A6010E0012B0BD1074B9B78012B07D1054BDB78012B03D10722044B9A6002E00022024B9A607047880100200401002010B500F099FC00F0C9FEFFF767FFFFF769
:400500007BFF00F05FFC10BD70B5C8210020FFF7CFFE002405E0802189002000FFF7B4FE0134304B5B689C42F5DBFA24E400200000F08AFA2B4B58682B49FFF7A5FE200023
:4005400000F082FA002635E028492000FFF79CFE601C2749FFF798FE043400E00224214B58688442F0DB80218900FFF78DFEFA24E400200000F068FAAF2149000020FFF7F2
:4005800083FE200000F060FA02240AE08025AD0029002000FFF778FE601C2900FFF774FE0434104B5B689C42F0DBFA20C00000F04BFA0136002ED1DD002405E080218900D8
:4005C0002000FFF761FE0134064B5B689C42F5DBFA20C00000F038FA00210020FFF768FE70BDC04604010020A30200008A020000EE02000070B5C8210020FFF759FE0024DE
:4006000005E0802189002000FFF73EFE0134314B5B689C42F5DBFA24E400200000F014FA2C4B58682C49FFF72FFE200000F00CFA002637E0BB2149002000FFF725FE601C1B
:4006400089214900FFF720FE043400E00224214B58688442EEDB80218900FFF715FEFA24E400200000F0F0F9AF2149000020FFF70BFE200000F0E8F902240AE08025AD00C1
:4006800029002000FFF700FE601C2900FFF7FCFD0434104B5B689C42F0DBFA20C00000F0D3F90136002ED1DD002405E0802189002000FFF7E9FD0134064B5B689C42F5DB9B
:4006C000FA20C00000F0C0F900210020FFF7F0FD70BDC04604010020A3020000D0B582B0C8210020FFF7E4FD002405E0802189002000FFF7C9FD0134174B5B689C42F5DBA8
:40070000FA20C00000F0A0F914490220FFF7BCFDFA242401200000F097F9FFF739FE06000F00BB2149000220FFF7AEFDFFF730FE00900191200000F087F9009A019B3000DF
:40074000390001F045F9002802D0FFF7DDFE01E0FFF750FF02B0D0BD040100208A02000070B52D4A938901331BB293812B4A126893424DD1012000F0F9F8274B9B68022BDD
:4007800006D1254A1278132A02D8FFF7A7FF3BE0032B02D1FFF7B8FE36E0062B02D1FFF729FF31E0072B19D11B4C1D4820611B4D1C4A6A60FC21890561611A33FFF78EFD69
:4007C000FA20800000F040F96A68616920230020FFF784FD144800F037F915E00E4C104820610E4D0F4A6A60BF21090661612123FFF774FDFA20800000F026F96A686169FD
:4008000020230020FFF76AFD0022034B9A8102E0002000F0ABF870BD04010020C4000020CDCC4C3F7D3F553F983A000010B500F00FFD00F01FFF00F053FF00F0A7FF084865
:4008400000F0BEFE00F0BEFA064801F063F8064800F054FF002000F089F862B6FEE7C046F10400007902000061070000F0B50025002711E0BB00C658F3B2FF22964308E04B
:400880006A008A181478A419527822700135013BDBB2002BF4D10137092FEBD9F0BDC0460323044A1360044A13600022034B1A607047C0463000304030003140000E3F4094
:4008C00010B50A00002101F052FF10BD10B501F045FF10BDFEE7C04670B50F4E0F4D13E029686B68AC68002202E001C901C30432A242FAD1E868002202E0002102C3043217
:400900008242FAD11035013E002EE9D101F000FFFFF78CFFFEE7C04601000000AC2C000010B50E4A136801218B43136000230AE0032B03D89A000A49505800E00948990017
:40094000094A885001332F2BF2D9FFF7C7FB034A116801230B43136010BDC0460000104000000000D50800000000002004490A68D2B220239A434001184010430860704702
:4009800000060440024A1168024B0B401360704700002240FFFFFFBF034B18688023DB05184000D001207047000022401F2318401E3B8340014A13607047C04600E100E0A3
:4009C0001F2318401E3B8340014A13607047C04680E100E001BE704770B504000D001F2802D90020FFF7F6FF1034A40080239B059C4664442068256070BDC04670B504008E
:400A00000E00032902D90020FFF7E4FF1F2C02D90020FFF7DFFF03252540ED00063500F090FFA408A400074B9C46644421680323AB4099430B003100A9401943216000F0C6
:400A400084FF70BD00E400E010B5040006E0084B186800F06DFF074B9C46644480231B029C42F4D8024B5868604300F061FF10BDD00000200080FFFF30B583B000F0DEF8C5
:400A800000285AD000F05DFF040000230AE02C4A12683F210A402B49C95C8A4201D1033303E001332D2BF2D90323274A1268D20606D1254802681F218A4313390A430260A7
:400AC000224A1168224A0A40224959438020C00184466144C90B01394905490D0A43A021490311430800192B02D81B4B1A430EE01A4A9A1812781A3B1249C9183023CB5CA2
:400B0000D318FF2B00D9FF239B0502001A430F4B1A60134D2B680193302000F019FF114A13688021C9050B4313601420FFF78CFF019B2B60200000F008FF03B030BDC04654
:400B40002CFF0B40202A000034FF0B400800224000F800C040420F000000D43FCDF1FF0F300010400000224030B587B0040000F0E8FE0500FFF710FF002803D0FFF702FFD1
:400B8000012100E00021104B1B6800930F4B1B680193033C0E4B1B5D02930E4B1B68039304AA0D4B04936B4605930C4B1A600C480C4A10601B68012901D1FFF75DFF28004F
:400BC00000F0C3FE07B030BD08010B4000010B40202A000030001040B6EA0000080010401700008004001040034B1868C0231B02184000D00120704700010B4010B50D4B1C
:400C00001A6801218A431A601A68022082431A60094A10683024A043203C204310601068093CA043014311601A68802109060A431A6010BD00002240000F2240034B1B68F6
:400C4000002B01DA012000E0002070470000224010B500F076FE044A1368C02109020B43136000F072FE10BD00010B4010B500F068FE08490A68084B1A408024E4012243A3
:400C80000A600A6813408022120213430B6000F05CFE10BD00010B40FF3FFFFF70B5050000F04FFE0400FFF79FFF002803D0FFF7DDFF012100E0002108482840084A156879
:400CC000084B2B40184310601368012901D1FFF7BFFF200000F039FE70BDC0460404040010020B40FBFBFBFF10B5244B1B685B0715D5234B5B685B070ED5224B596A0420A0
:400D000001401F4C62688A4362605A6A82435A629B69002B00D098470420FFF7BFFF174B1B685B0518D5164B5B685B0510D5154B596A8022D2001140114842688A434260BE
:400D4000596A114A0A405A62DB69002B00D098478020C000FFF7A2FF084B1B685B030CD5074B5B685B0304D5064B1B6A002B00D098478020C002FFF791FF10BD10020B4017
:400D8000E000002040010020FFFBFFFF10B50C4A136801218B431360F0231B0100E0013B002B03D0064A1268D207F8D4002B04D01B20FFF705FE002000E0012010BDC04602
:400DC00010002E40054B1A6801210A431A601B68194201D1012000E00020704704002E4010B50E4A0E4B1A60FFF7ECFF1B20FFF7DDFD0C4A116801230B43136090235B0022
:400E000000E0013B002B03D0064A1268D207F8D5002B01D1012000E0002010BD0112000000002E4010002E40054B1A6801218A431A601B68194201D0012000E0002070477C
:400E400004002E4003B2002B0DDB094A1168094B0B400004034313601268074B1340984203D0012002E0022000E000207047C04614002E40FFFF00800000FF7F002809D1E2
:400E80000C4B19680C4A0A401A601B68DB040CD501300DE0074B1A68802149010A431A601B680B4203D1012002E0002000E000207047C04614002E40FFEFFFFF70B5841EA0
:400EC000E4B20D2C35D88C1EE4B2052C03D9002B31D1012931D1032A31D8904231D3914231D31C4D2C68240AE4B20F26B44320432E68194C3440000204432C602C686040C5
:400F0000F0242401204220D1002B00D002234901C9B29200D2B2114319430E4A1368EE2083430B4313601368034099420FD0ED380EE002200CE002200AE0022008E0022041
:400F400006E0022004E0022002E0012000E0002070BDC04614002E40FFF0FFFF002809D10B4B1A6810218A431A601B6819420BD001300CE0064B1A6810210A431A601B6848
:400F8000194203D1012002E0002000E00020704714002E40002809D10B4B1A6801218A431A601B6819420BD001300CE0064B1A6801210A431A601B68194203D1012002E01C
:400FC000002000E00020704714002E40054B18601B681B041B0C984201D0012000E000207047C04604002E4010B503785B01204A944663441F4A41680A431A6003785B01D5
:40100000634419681C4A11401C4A44682240914224D182681A6103785B0163441A6981688A421DD1C2685A6103785B0163445A69C1688A4216D1012252429A6103785B0101
:4010400063449A6901320FD10022DA6103785B016344DB69002B09D0012008E0012006E0012004E0012002E0012000E0002010BDA0002E40800080007F007F007FFF7FFF82
:4010800010B503781B01104A944663440F4A41680A431A6003781B01634419680C4A11400C4A4468224091420AD182685A6003781B0163445A6883689A4203D0012002E077
:4010C000012000E0002010BD20002E4008008000F7007F00F7FF7FFF70B500240AE063001B199800104B1818FFF7CAFF002805D10134E4B2072CF2D9002500E00125002D37
:401100000BD00FE0230108486030C018FFF76CFF002806D10134E4B200E000240F2CF1D900E00125280070BD682A0000002809D10C4B19680C4A0A401A601B689B040CD5F1
:4011400001300DE0074B1A68802189010A431A601B680B4203D1012002E0002000E000207047C04614002E40FFDFFFFF10B580221206334B1A60334A136801218B431360D7
:40118000F0231B0100E0013B002B03D02D4A1268D207F8D4002B49D01B20FFF711FC2A491B20FFF719FC03211B20FFF727FC0120FFF748FE002819D1FFF760FE002817D1CA
:4011C000FFF7B4FF002815D10023012201210830FFF774FE00280FD1FFF7C0FE00280DD1FFF7D8FE00280BD001230AE0012308E0012306E0012304E0012302E0012300E069
:401200000023002B14D1FFF767FF002812D10F48FFF7DCFE00280FD10A4B1A6807218A431A601B68194209D0013008E0012006E0012004E0012002E0012000E0002010BDD2
:4012400000042E4010002E40F91200000112000010B5084B1B78002B02D1FFF787FF00E00020002804D10122024B1A70FFF7B8FD10BDC0466801002010B580229200024BF7
:401280001A60FFF783FD10BD00002E4070B580225201164B1A600125002423E0144B1B682B421BD06301134A944663441B689B0614D56B070FD0012C07D0002C02D0022CB7
:4012C00006D00BE000F0DEF808E000F003F905E000F028F902E0200000F0C6F86D00ADB20134E4B20F2CD9D970BDC04600002E4008002E40A0002E4010B5064B1B689B050B
:4013000001D5FFF7B9FF034B1B68DB0401D5FFF7BDFF10BD00002E4070B5234B1B68DB073FD4224B19680902090A214A107800060143196019681F4801400C0051780904DE
:40134000214319601C681C490C402500947824022C431C601C68FF26B443D5782C431C60164B1C682402240A15792D062C431C601C682040547924042043186018680140E7
:4013800090790002014319601868B043D17902000A431A60044A116801230B431360002000E0012070BDC04620002E4028002E4080010020FFFF00FFFF00FFFF2C002E4086
:4013C00070B5234B1B68DB073FD4224B19680902090A214A107800060143196019681F4801400C0051780904214319601C681C490C402500947824022C431C601C68FF2618
:40140000B443D5782C431C60164B1C682402240A15792D062C431C601C68204054792404204318601868014090790002014319601868B043D17902000A431A60044A11680E
:4014400001230B431360002000E0012070BDC04630002E4038002E4070010020FFFF00FFFF00FFFF3C002E404001054B9C4660440368DB0703D50268012313430360704780
:40148000A0002E400F4A1168090E0F4B19701168090C59701168090A99701268DA700B4A1168090E19711168090C59711168090A99711268DA71064A116801230B431360D2
:4014C0007047C046A8002E4090010020AC002E40A0002E400F4A1168090E0F4B19701168090C59701168090A99701268DA700B4A1168090E19711168090C59711168090A71
:4015000099711268DA71064A116801230B4313607047C046C8002E4078010020CC002E40C0002E400F4A1168090E0F4B19701168090C59701168090A99701268DA700B4A69
:401540001168090E19711168090C59711168090A99711268DA71064A116801230B4313607047C046E8002E4088010020EC002E40E0002E40AC23014AD0507047000000207B
:4015800010B5040000F0DDF9044A13689B009B08A4071C43146000F0D8F910BD18E400E080221205014B1A607047C04600E100E080221205014B1A607047C04680E100E033
:4015C00010B50400FFF7F4FF2000FFF7D3FF0320FFF7D6FFFFF7E4FF10BDC046034A117880235B420B43DBB21370704773000F40014B18707047C04683000F40014B18788B
:40160000C0B2704763000F40014B18707047C04623000F40014B1878C0B2704743000F40014B18707047C04603000F4010B501E0FFF7F0FFFFF7E2FF0307F9D410BDC04646
:4016400010B5FF20FFF7E0FFFF20FFF7E9FF00F078F9074A117810230B43DBB2137000F074F9FFF7E3FF0020FFF7C2FF10BDC04693000F4010B5064B1B78002B04D1FFF788
:40168000DFFF0122024B1A70FFF7A8FF10BDC046690100207047C046014B58647047C0460000002010B5040000F04BF9044A1168044B0B40A4031C43146000F046F910BDE2
:4016C00000E400E0FF3FFFFF0222014B1A60704700E100E00222014B1A60704780E100E010B5FFF7F7FF0448FFF7D6FF0320FFF7D9FFFFF7E9FF10BD9516000010B50400CE
:40170000FFF7E8FF2000FFF7C7FF0320FFF7CAFFFFF7DAFF10BDC04610B509490220FFF75BF903210220FFF769F90022054B1A707232054B1A70523A044B1A7010BDC04699
:40174000251800006A01002081000F4082000F4010B500F0F6F804000A4A117820230B43DBB21370084A117810230B43DBB213700220FFF71BF9FF2000F09CF8200000F090
:40178000E4F810BD91000F4092000F4010B5064B5B78002B04D1FFF7BFFF0122024B5A70FFF7D6FF10BDC0466A01002010B50220FFF706F9174A9378DBB2D178C9B212799B
:4017C000002A01D18B4210D0134AD45CE4B20133DBB2072B00D900230E4A93701379002B12D000220B4B1A710EE00C4B1B78DBB29A0606D50A4A1478E4B21E221A4202D172
:4018000002E0002400E000240220FFF7CFF8200010BDC0466A0100209801002062000F4042000F401B4B1B78DBB21E221A4204D019481A4001780A4302702022134025D0D3
:40184000164A1178C9B2164A1278D2B215488154154A1278002A02D00121144A117010490A780132D2B20A700A78D2B2072A02D900210B4A11700A4A1178C9B20C4A127831
:40188000D2B2914202D10121074A1170002BC9D17047C04662000F406A01002042000F406D010020980100206E0100206F0100206C010020044B1B68002BFBDB0002034BA5
:4018C0001843014B186070470000014041000080014B18647047C0460000002010B5040000F02FF8044A1368C0218B43A4011C43146000F02AF810BD00E400E00122014B89
:401900001A60704700E100E00122014B1A60704780E100E010B50400FFF7F6FF2000FFF7D7FF0320FFF7DAFFFFF7E8FF10BDC0460230800803D00138FDD1C046C046C046EC
:401940007047EFF3108072B6704780F31088704770B50400FFF7F5FF0500102C05D8104A136803218B43136016E0202C07D80C490B6803229343023A13430B600CE0302C09
:4019800007D807490B6803229343013A13430B6002E00020FFF71EF82800FFF7D6FF70BD300010408446101C62468C46191C634600E0C0461FB500F0CFFD002801D40021FE
:4019C000C8421FBD10B500F023FD4042013010BD10B500F0C1FD002801DB002010BD012010BDC04610B500F0B7FD002801DD002010BD012010BDC04610B500F049FD0028E1
:401A000001DC002010BD012010BDC04610B500F03FFD002801DA002010BD012010BDC0468446081C6146FFE71FB500F02FFB002801D40021C8421FBD10B500F0BBFA4042BA
:401A4000013010BD10B500F021FB002801DB002010BD012010BDC04610B500F017FB002801DD002010BD012010BDC04610B500F0C9FA002801DC002010BD012010BDC046A6
:401A800010B500F0BFFA002801DA002010BD012010BDC046F8B54A02430244004E00C50F240E28009B09360EC90F92098D4259D0A01B002800DC8DE0002E1AD1002A00D044
:401AC00079E05A0704D00F221A40042A00D004335A0138D50134FF2C00D189E028009B015B0AE4B25B02E4055B0A2343C0071843F8BDFF2CE5D08021C9040A431B2800DD34
:401B000089E016002021C640081A8240511E8A4132439B1A5A0114D59B019E09300000F0D9FD05388640844265DC041B330020200134E340041BA640721E96410024334320
:401B4000BFE75A07BFD1DF082800FF2C2FD1002F00D187E08022D20313003B435B025B0AFF24BFE7A11B002949DD002E29D0FF2CA7D08026F60432431B2900DD8DE017000C
:401B80002026CF40711A8A40511E8A413A439B185A01D6D50134FF2C64D0012276491A405B080B4013438CE7031ECAD100207B025B0AE4B296E701380028AAD0FF2C9DD17F
:401BC0007FE7002A00D17CE701390029DFD0FF2CD2D176E7002820D1601CC0B2012853DD80279E1AFF0437402FD0D61A0D0095E72800002376E7614B241A334061E70029BD
:401C00004DD1611CCEB2012E2FDDFF292AD09B185B080C0055E701227BE7002C1BD1002B5BD0C04300280CD0FF2E7ED01B2800DD92E01D002024C540201A8340581E83412A
:401C40002B43D31A34000D0064E7002E00D065E700200024ABE7FF2E67D08024E40440422343E3E7FF2400233CE7002C61D1002B7ED0002A00D124E79B185A0100D460E74C
:401C80003E4A0C0013401CE7002C1ED1002B2FD1002A66D013000D0013E7012277E7002C1FD1002B5AD0C94300290BD0FF2E50D01B295FDC1F002024CF40611A8B40591E7D
:401CC0008B413B439B18340062E7002B1CD1002A4AD013000D00FF24F3E6130034000D00EFE6FF2E35D08024E40449422343DFE7002A00D1E5E68027981AFF04074000D11A
:401D000052E7D31A0D00DCE6FF24002A00D1D8E68020DB08C003034204D0D208024201D113000D00DB00FF24CBE61300FF240D00C7E6002B0DD0FF24002A00D1C1E6802156
:401D4000DB08C9030B42EDD0D2080A42EAD11300E8E71300FF24B4E6012372E713003400AFE60027002022E780270020FF03F1E61300A6E60123A5E7FFFFFF7DFFFFFFFB0D
:401D8000F0B5564644465F464D46F0B444024600C70F83B08846650A360EBA463DD0FF2E22D00023EC00802599469B46ED0425437F3E43465C025800DB0F640A000E98462D
:401DC00036D0FF2830D080230021E400DB041C437F38301A0190484642460843724E800030587A4013008746002D44D108239946063B9B46DDE70122FF2000241A40640223
:401E0000C305640AD2071C431443200003B03CBC90469946A246AB46F0BD002D20D104239946033B9B46C4E7002C17D1022102E0002C0AD10121321A01924A4643460A4362
:401E40005A48920082587B409746200000F042FC431F76309C4040420021BAE70321B8E7280000F037FC431F9D4000237630464299469B469DE70C239946093B9B4698E7B2
:401E800080240022E403FF20B9E70024C2468B465A465346022AAED0032A7DD0012A31D1012200201A400024A9E70122101A1B2856DD1A4000200024A1E78023DB031D4215
:401EC0004BD18023DB032B435C02640A3A00FF2095E76D016001854230D2019A0024013A01921B220127290064006D00002901DBA84201D82D1A3C43013A002AF3D16A1E73
:401F000095412C4301987F300028CEDD620704D00F222240042A00D00434220103D5244A019814408030FE2800DD64E70122A401640AC0B21A4062E72C00A9E72D1A1A225D
:401F40000124CFE76B02BCD500248023DB031C436402640A4246FF2051E71C42B3D1F4E721002022C140101A8440621E94410C43620704D00F222240042A00D004346201B5
:401F800004D5012201201A40002438E70122A401640A1A40002032E78023DB031C436402640A5246FF202AE7C82B0000082C0000FFFFFFF7430270B542004C005D0AC30FD6
:401FC0004802120E460A240EC90FFF2A0FD0FF2C11D00120A24200D070BDB542FCD18B420DD0002AF8D12800431E9841F4E70120002DF1D1EBE70120002EEDD1E9E700208A
:40200000EAE7C0464302F0B542005D0AC30F4802440A4800120E000EC90FFF2A1FD0FF2822D0002A09D16E426E4100280FD1002C0DD10020002D09D005E0002801D1002CA7
:4020400001D08B4213D0584201231843F0BD002EF7D048424141012049420843F6E7002DDDD002204042F1E7002CDAD0F9E78242E9DC04DBA542E6D80020A542E6D25842D2
:40208000434101205B421843E0E7C0464302F0B542004C005E0AC30F4802120E450A240EC90FFF2A17D0FF2C19D0002A0BD170427041002C17D0002807D048424141012075
:4020C00049420843F0BD002C13D08B4214D0584201231843F6E70220002EF3D1E3E70220002DEFD1E1E7002DE5D10020002EE9D0EDE7002DE9D1EAE7A242E8DC04DBAE4205
:40210000E5D80020AE42DDD25842434101205B421843D7E7F0B557464E4645464300E0B446028846760A1F0EC40F002F47D0FF2F25D0002380259A469946F600ED042E4318
:402140007F3F434642465D02D20F5B006D0A1B0E904640D0FF2B39D080220020ED00D20415437F3BFB1842465746591C62408C4607430F2F5CD86F49BF00C9598F46002E2C
:4021800045D108239A46063B9946DAE7424602282DD0032800D1C3E0012800D0A2E0002500260240D4B27602ED05760A2E43E407264330001CBC90469946A246F0BD002E12
:4021C0001AD104239A46033B9946BAE72A00511E8A41901CC6E70120002DC3D0280000F079FA431F76309D4043420020BAE70124FF2514400026D6E7300000F06BFA431F74
:402200009E400023763047429A46994699E70C239A46093B994694E780260024F603FF25C1E735004846B2E7350022004846AEE72904090C0800370C3604360C2C0C794320
:40224000704367437443060C64183619B14203D980214902884647440004000C310409188D01681E8541890E2943350CED19AD010D43290104D5012369081D4063460D43E3
:4022800019007F31002925DD680704D00F202840042800D00435280103D5274980330D401900FE29A3DC0124AD016E0A1440CDB279E78020C003064207D0054205D1284363
:4022C0004602760A4446FF256DE706437602760AFF2568E70124611A1B2905DD14400025002660E76346CBE72E002023CE40591A8D406B1E9D412E43730704D00F233340CF
:40230000042B00D00436730104D5012401251440002648E70124B601760A1440002542E780260124F6032E437602760A1440FF2539E7C046482C0000FFFFFFF74302590A4A
:402340004300C20F1B0E00207E2B0EDD9D2B0DDC802000040143952B0BDC9620C31AD9400B005842002A00D118007047034BD018FBE7963B99400B00F3E7C046FFFFFF7FE8
:4023800070B5002830D0C317C5185D40C40F280000F0A0F99E231B1A962B0DDC9622D21A95406A02520AD8B25202C005520AE40702432243100070BD992B19DC9922D21AE6
:4023C0009540124A2A40690704D00F210D40042D00D00432510103D50C4B1A409F231B1A9201520AD8B2DFE7002400200022DBE705222E00121AB921D6402A00C91A8A40C9
:40240000551EAA4135001543DBE7C046FFFFFFFBF0B55F4656464D464446F0B41F035C00DB0F9A46194B0E034D00C90F8046360B6D0D8B4691463F0B640D9D4219D0134B5E
:402440009C421BD00123A54206D018003CBC90469946A246AB46F0BDBE42F6D1C845F4D1D34510D0002DF0D1304303005A1E9341EBE7310001230143E7D1E0E73A4301239B
:40248000002AE2D1DEE70023DFE7C046FF070000F0B55F46444656464D46F0B41F033C0B2C4F0E034D00A3465C008446360B6D0DC90F9046640DDB0FBD422BD0254FBC425D
:4024C0002ED0002D0ED130430700814678427841002C17D15F463A4314D14B460020002B0AD006E0002C02D15846024301D099421AD00123484218433CBC90469946A24651
:40250000AB46F0BD0028F2D058425841012240421043F1E737000743D0D002204042EBE75F461743CDD0F8E7A542E2DC05DB5E45DFD808D000205E45DED24842484101239D
:4025400040421843D8E7C445D3D80020C445F4D3D2E7C046FF070000F0B55F464D4644465646F0B41C03240BA4462F4C0F034D005E00C90F80463F0B6D0D8B469146760DB2
:40258000DB0FA54220D0284CA64222D0002D12D1384344424441002E20D0002C0DD05C42634101245B421C4320003CBC90469946A246AB46F0BD002E17D05B4519D05B465A
:4025C0005C4201231C43EFE7390002240143EBD1D9E7614602241143E6D1D7E761460A43DBD100240028DFD0E9E761460A43E4D1E5E7B54203DD01225C421443D4E7B542AE
:40260000CDDB6745DBD809D000246745CCD259464C426141012449420C43C5E7C845CED80024C845F3D3BFE7FF0700004200120E511C4302C9B270B55D0AC40F012915DD72
:40264000E02189008C466D071B0B6244002128000D0D2D052B431C4D52052B40520813435B00E4075B082343190070BD002A15D1002D1FD0280000F02DF80A281DDC0B23C9
:402680002A001B1ADA4013000200153295400F4A1B03121A52051B0B520DD7E7002D06D080221B0B120313436D07094ACEE7084A0023CBE700220023C8E703000B3B9D4040
:4026C0002B000025E3E7C046FFFF0F8089030000FF0700001C2101231B04984201D3000C10391B0A984201D3000A08391B09984201D30009043902A2105C40187047C046BD
:40270000040302020101010100000000000000000E4B70B500251E000D4CE41AA410A54204D0AB00F35898470135F8E700F0ACFA084B00251E00084CE41AA410A54204D02C
:40274000AB00F35898470135F8E770BD942C0000942C0000942C00009C2C0000002310B59A4203D0CC5CC4540133F9E710BD03008218934202D019700133FAE770470000E9
:402780000000000000300F40000280320F40800100400F400004000000320F40A02900008000000081728238830D0001010603010502080109060B010C010D010F06130101
:4027C0002104280129062D07360137073B883E40580459045C105F01801F8318841885E7880889E78C078D188E1891809204941C95199602970698049A209C1C9E019F182F
:40280000A010A12AA341A554A721AB18AD18AE03B020B180B21FB360B507B718BA08D602D710D804D904DB04DC11DD10DF010052044006D40E5912081440174019801C109B
:402840001E501F0820022208240125012602275428402A522D022E842F0832023745385039013A043C423D293E01420443105D806D286F017616C0FBC2F0C492CAFDCCD18C
:40288000CEFFD6108A019A02A202AE01B002B201B401BE05C053C5ECC702C813C9FFCAFFCBFFCF01D018D280D401D804DA04DB04DC03DD33DF01E040E240E440E540E68013
:4028C000E880EA80EC80EE8003080440065409200E180F021086132016021715181019201A401C401DA01F02268027202C202F0236883C023E103F0242C0430845A14701B1
:40290000480249054C804E084F405308542059055B405C415F406404668067807002852087408A488C108F409001921094409A169B149E40A001A101A20CB502B604C0F2A2
:40294000C2E2C4F9CA50CC50CEA0D0B2D238D68BD8B068806B086F087308DAC0DC2084808708A480A708E210E6400108C008B508EA02100A1101000003000F4042300F40C3
:402980002B310F4022320F4045330F4006400F4006410F4002420F4002430F4002600F401F0000010C0000000400000113000C00000000001C010300010040000F0010022D
:4029C000000013000300200202004000080100000F0000021C00600100800200000040045406020001C0E0000AFFFFFF62A0F0410C0000001800040004040404111100016E
:402A00000000000000004002001030100010101200000000000000000000000000000000030405060708090A0B0C0E0F101112131415161718191B1C1D1E1F202122232561
:402A4000262728292A2B2E2F3031323334350000EEDBC9B9AA9B8E82766B60564D443B332C241D17100A04000000000000000800000020000100000000000800000040008E
:402A800002000000000000000000000003000000000000000000000004000000000000000000000005000000000000000000000006000000000000000000000007000000FB
:402AC00000000000000000000000000028000000F9FF1F00000020000100000028000000F9FF1F00000040000200000028000000F9FF1F0000006000030000000000000053
:402B0000000000000000000004000000000000000000000000000000050000000000000000000000000000000600000000000000000000000000000007000000000000007F
:402B4000000000000000000008000000000000000000000000000000090000000000000000000000000000000A0000000000000000000000000000000B000000000000002F
:402B800000000000000000000C0000000000000000000000000000000D0000000000000000000000000000000E0000000000000000000000000000000F00000000000000DF
:402BC0000000000000000000D21E0000F61D0000B41E00008C1E0000B41E0000801E0000B41E00008C1E0000F61D0000F61D0000801E00008C1E0000381F0000381F00004E
:402C0000381F0000BA1E0000F61D0000F61D0000A01E00008A1E0000A01E0000801E0000A01E00008A1E0000F61D0000F61D0000801E00008A1E0000381F0000381F0000FD
:402C4000381F0000441F0000302200008E2100008E2100008C2100002222000022220000182200008C2100002222000018220000222200008C2100002822000028220000CB
:402C800028220000B2220000F8B5C046F8BC08BC9E4670474102000021090000F8B5C046F8BC08BC9E46704719020000C02C0000C000002028000000B80000000000000036
:402CC00000000000050000007D3F553F7D3F553F0000E02EC05D00001800000000366E01F0000000040404000000000000000000000000000000000000000000000000004B
:402D00000000000000000000000000000000000000000000000000000000000000000000000000000000000000000000000000000000000000000000000000000000000093
:402D40000000000000000000000000000000000000000000000000000000000000000000000000000000000000000000000000000000000000000000000000000000000053
:402D80000000000000000000000000000000000000000000000000000000000000000000000000000000000000000000000000000000000000000000000000000000000013
:402DC00000000000000000000000000000000000000000000000000000000000000000000000000000000000000000000000000000000000000000000000000000000000D3
:020000040001F9
:0200000490303A
:0200000069E1B4
:0200000490402A
:4000000000000000000000000000000000000000000000000000000000000000000000000000000000000000000000000000000000000000000000000000000000000000C0
:400040000000000000000000000000000000000000000000000000000000000000000000000000000000000000000000000000000000000000000000000000000000000080
:0200000490501A
:0C0000000002112D11A10001113B7B82B8
:0200000490600A
:0100000001FE
:00000001FF