:400000000040002011000000490300004903000010B500F0B5F9C04670B51E4C1223236000F04AFB1C4801F017F9182000F0F0FA00F076FA194A1A4B1A601A4D8026F605B1
:400040002E600022184B1A60184B194919601948194908601949196080208000184908601849196082210906174B1960174B1A604232174B1A60013A164B1A601649FA388C
:40008000FF3800F0FDF9072000F0E4F92E601123236070BD30001040001BB7000600008004010B400C020B40000301400000014040FF008000BF5D000803014042FF0080CF
:4000C0000403014041FF008008010B4000010B404C01014028010140A507000010B572B601222A4B1A7000240FE029486200131959000B00411889881A5AC3185888000492
:40010000104300F0E9F80134E4B2012CEDD9204801000C31783000F0C5F8EE2212021D4B1A60AA221C4B1A6099231B041B4A13601B4A136001231B4A13601B4A13601B496C
:400140000B783C22934314221343DBB20B70184A117816230B43DBB213704323154A1360154A1360D8221201144B1A600222144B1A602F32134B1A60C0229202124B1A603F
:40018000FFF74AFF00F0BEF810BDC0461C700F40284D0000000302400004024020500F4030500F402000104000800F4001700F4000700F400002044018020440080304406D
:4001C00000040440080404400806044010B5064C2378002B07D1054B002B02D0044800E000BF0123237010BD8001002000000000204D0000084B10B5002B03D007490848E0
:4002000000E000BF07480368002B00D110BD064B002BFBD09847F9E70000000084010020204D0000C00000200000000010B5012000F0F0F800F056FB00F086FD00F020FB27
:40024000002000F0E7F810BD10B5002000F0E2F800F0D4FF00F05AFD0F4800F0E7FE00F00FFB62B6002000F0D5F8002000F0D6FF0A4C2070012000F0D1FF2070022000F0A0
:40028000CDFF207000F0AAFD054800F031F9012000F0C0F8E6E7C0462D020000D8010020B80B0000F0B50025002711E0BB00C658F3B2FF22964308E06A008A181478A419C6
:4002C000527822700135013BDBB2002BF4D10137042FEBD9F0BDC04610B50A00002101F0BEF910BD064B1B68002803D080221206134301E05B005B08014A13607047C04673
:4003000080033A4010B50323094A1360094A136080221206084B1A604323084A1360084A13600022074B1A600120FFF7DBFF10BD300030403000314000003A4000033A40EE
:4003400040033A40000E3F40FEE7C04610B50300094A1068C318094A9A1A8021C9008A4202DC054A136005E001F044F90C2303600120404210BDC046C400002028020020B4
:4003800070B50F4E0F4D13E029686B68AC68002202E001C901C30432A242FAD1E868002202E0002102C304328242FAD11035013E002EE9D101F024F9FFF746FFFEE7C046DE
:4003C000010000003C51000010B50E4A136801218B43136000230AE0032B03D89A000A49505800E009489900094A885001332F2BF2D9FFF773FE034A116801230B43136069
:4004000010BDC0460000104000000000490300000000002004490A68D2B220239A434001184010430860704700060440024A1168024B0B401360704700002240FFFFFFBFD0
:40044000034B18688023DB05184000D001207047000022401F2318401E3B8340014A13607047C04600E100E01F2318401E3B8340014A13607047C04680E100E001BE7047EF
:4004800070B504000D001F2802D90020FFF7F6FF1034A40080239B059C4664442068256070BDC04670B504000E00032902D90020FFF7E4FF1F2C02D90020FFF7DFFF03256B
:4004C0002540ED00063500F0D0FEA408A400074B9C46644421680323AB4099430B003100A9401943216000F0C4FE70BD00E400E010B5040006E0084B186800F0ADFE074BFB
:400500009C46644480231B029C42F4D8024B5868604300F0A1FE10BDC80000200080FFFF30B583B000F0E8F800285AD000F09DFE040000230AE02C4A12683F210A402B4971
:40054000C95C8A4201D1033303E001332D2BF2D90323274A1268D20606D1254802681F218A4313390A430260224A1168224A0A40224959438020C00184466144C90B013929
:400580004905490D0A43A021490311430800192B02D81B4B1A430EE01A4A9A1812781A3B1249C9183023CB5CD318FF2B00D9FF239B0502001A430F4B1A60134D2B680193FD
:4005C000302000F059FE114A13688021C9050B4313601420FFF78CFF019B2B60200000F048FE03B030BDC0462CFF0B40B44D000034FF0B400800224000F800C040420F00DE
:400600000000D43FCDF1FF0F300010400000224030B587B0040000F028FE0500FFF710FF002803D0FFF702FF012100E00021104B1B6800930F4B1B680193033C0E4B1B5DB2
:4006400002930E4B1B68039304AA0D4B04936B4605930C4B1A600C480C4A10601B68012901D1FFF75DFF280000F003FE07B030BD08010B4000010B40B44D000030001040F3
:40068000B6EA000008001040170000800400104010B5034B1B7A584300F0DEFD10BDC046C8000020034B1868C0231B02184000D00120704700010B4010B50D4B1A680121B3
:4006C0008A431A601A68022082431A60094A10683024A043203C204310601068093CA043014311601A68802109060A431A6010BD00002240000F2240034B1B68002B01DADA
:40070000012000E0002070470000224010B500F0ACFD044A1368C02109020B43136000F0A8FD10BD00010B4010B500F09EFD08490A68084B1A408024E40122430A600A6873
:4007400013408022120213430B6000F092FD10BD00010B40FF3FFFFF70B5050000F085FD0400FFF79FFF002803D0FFF7DDFF012100E0002108482840084A1568084B2B4072
:40078000184310601368012901D1FFF7BFFF200000F06FFD70BDC0460404040010020B40FBFBFBFF10B5244B1B685B0715D5234B5B685B070ED5224B596A042001401F4CC2
:4007C00062688A4362605A6A82435A629B69002B00D098470420FFF7BFFF174B1B685B0518D5164B5B685B0510D5154B596A8022D2001140114842688A434260596A114A92
:400800000A405A62DB69002B00D098478020C000FFF7A2FF084B1B685B030CD5074B5B685B0304D5064B1B6A002B00D098478020C002FFF791FF10BD10020B40D800002082
:400840009C010020FFFBFFFF10B50C4A136801218B431360F0231B0100E0013B002B03D0064A1268D207F8D4002B04D01B20FFF7FBFD002000E0012010BDC04610002E4078
:40088000054B1A6801210A431A601B68194201D1012000E00020704704002E4010B50E4A0E4B1A60FFF7ECFF1B20FFF7D3FD0C4A116801230B43136090235B0000E0013BD3
:4008C000002B03D0064A1268D207F8D5002B01D1012000E0002010BD0112000000002E4010002E40054B1A6801218A431A601B68194201D0012000E00020704704002E406C
:4009000003B2002B0DDB094A1168094B0B400004034313601268074B1340984203D0012002E0022000E000207047C04614002E40FFFF00800000FF7F002809D10C4B1968C1
:400940000C4A0A401A601B68DB040CD501300DE0074B1A68802149010A431A601B680B4203D1012002E0002000E000207047C04614002E40FFEFFFFF70B5841EE4B20D2CEE
:4009800035D88C1EE4B2052C03D9002B31D1012931D1032A31D8904231D3914231D31C4D2C68240AE4B20F26B44320432E68194C3440000204432C602C686040F0242401A0
:4009C000204220D1002B00D002234901C9B29200D2B2114319430E4A1368EE2083430B4313601368034099420FD0ED380EE002200CE002200AE0022008E0022006E00220B8
:400A000004E0022002E0012000E0002070BDC04614002E40FFF0FFFF002809D10B4B1A6810218A431A601B6819420BD001300CE0064B1A6810210A431A601B68194203D166
:400A4000012002E0002000E00020704714002E40002809D10B4B1A6801218A431A601B6819420BD001300CE0064B1A6801210A431A601B68194203D1012002E0002000E090
:400A80000020704714002E40054B18601B681B041B0C984201D0012000E000207047C04604002E4010B503785B01204A944663441F4A41680A431A6003785B0163441968F2
:400AC0001C4A11401C4A44682240914224D182681A6103785B0163441A6981688A421DD1C2685A6103785B0163445A69C1688A4216D1012252429A6103785B0163449A69C5
:400B000001320FD10022DA6103785B016344DB69002B09D0012008E0012006E0012004E0012002E0012000E0002010BDA0002E40800080007F007F007FFF7FFF10B5037831
:400B40001B01104A944663440F4A41680A431A6003781B01634419680C4A11400C4A4468224091420AD182685A6003781B0163445A6883689A4203D0012002E0012000E0FB
:400B8000002010BD20002E4008008000F7007F00F7FF7FFF70B500240AE063001B199800104B1818FFF7CAFF002805D10134E4B2072CF2D9002500E00125002D0BD00FE0B3
:400BC000230108486030C018FFF76CFF002806D10134E4B200E000240F2CF1D900E00125280070BDFC4D0000002809D10C4B19680C4A0A401A601B689B040CD501300DE02C
:400C0000074B1A68802189010A431A601B680B4203D1012002E0002000E000207047C04614002E40FFDFFFFF10B580221206334B1A60334A136801218B431360F0231B010B
:400C400000E0013B002B03D02D4A1268D207F8D4002B49D01B20FFF707FC2A491B20FFF70FFC03211B20FFF71DFC0120FFF748FE002819D1FFF760FE002817D1FFF7B4FFB3
:400C8000002815D10023012201210830FFF774FE00280FD1FFF7C0FE00280DD1FFF7D8FE00280BD001230AE0012308E0012306E0012304E0012302E0012300E00023002B09
:400CC00014D1FFF767FF002812D10F48FFF7DCFE00280FD10A4B1A6807218A431A601B68194209D0013008E0012006E0012004E0012002E0012000E0002010BD00042E40F4
:400D000010002E40BD0D00000112000010B5084B1B78002B02D1FFF787FF00E00020002804D10122024B1A70FFF7B8FD10BDC046C401002010B580229200024B1A60FFF723
:400D400083FD10BD00002E4070B580225201184B1A600125002428E0164B1B682B4220D06301154A944663441B689B0619D52B0714D0012C09D0002C04D0022C08D0032C87
:400D800009D00EE000F08CF80BE000F0B1F808E000F0D6F805E000F0FBF802E0200000F071F86D00ADB20134E4B20F2CD4D970BD00002E4008002E40A0002E4010B5064BF7
:400DC0001B689B0501D5FFF7B5FF034B1B68DB0401D5FFF7B9FF10BD00002E4070B5234B1B68DB073FD4224B19680902090A214A107800060143196019681F4801400C00DF
:400E000051780904214319601C681C490C402500947824022C431C601C68FF26B443D5782C431C60164B1C682402240A15792D062C431C601C682040547924042043186017
:400E40001868014090790002014319601868B043D17902000A431A60044A116801230B431360002000E0012070BDC04660002E4068002E40D8010020FFFF00FFFF00FFFFCC
:400E80006C002E404001054B9C4660440368DB0703D502680123134303607047A0002E400F4A1168090E0F4B19701168090C59701168090A99701268DA700B4A1168090EAF
:400EC00019711168090C59711168090A99711268DA71064A116801230B4313607047C046A8002E4004020020AC002E40A0002E400F4A1168090E0F4B19701168090C5970C3
:400F00001168090A99701268DA700B4A1168090E19711168090C59711168090A99711268DA71064A116801230B4313607047C046C8002E40EC010020CC002E40C0002E4020
:400F40000F4A1168090E0F4B19701168090C59701168090A99701268DA700B4A1168090E19711168090C59711168090A99711268DA71064A116801230B4313607047C04668
:400F8000E8002E40FC010020EC002E40E0002E400F4A1168090E0F4B19701168090C59701168090A99701268DA700B4A1168090E19711168090C59711168090A99711268C3
:400FC000DA71064A116801230B4313607047C04608012E40E00100200C012E4000012E40AC23014AD05070470000002010B5040000F03BF9044A13689B009B08A4071C43CA
:40100000146000F036F910BD18E400E080221205014B1A607047C04600E100E080221205014B1A607047C04680E100E010B50400FFF7F4FF2000FFF7D3FF0320FFF7D6FF72
:40104000FFF7E4FF10BDC04610B503211020FFF729FA42491020FFF713FA0722404B1A60404B1B68002B01DA3F4900E03F49404A13680B4313603F4A3F4B1A603F4A404B3B
:401080001A6000233F4A13603F4A40490A6040490A60404A116880204002014311603E490A6802430A603D4A13603D4A136001223C4B1A603C4A11683C4B0B4080218905CE
:4010C0000B431360002445E03949A2005058DC239B0103400919097B0B4336498C4662441360C30707D52D490A680123A3401B041B0C13430B60A3002D4A9B589B0707D5B7
:4011000027490A680123A3401B041B0C13430B60A300274A9B589A0502D58020400001E080204001DB0504D463000021224A995203E04208630020495A52204B5843204BF7
:401140009C4660441F4900F04BF900B2A2001E4BD0500134022CB7D910BDC0464912000020003A4080033A40702010107020001000003A408400008004003A400000FF0766
:4011800018003A401C003A400400040010003A4014003A4000033A4040033A4028023A4038023A4018023A4030003A40FEFFFFDF5C4F000080003A40180200201027000026
:4011C000E40C0000C81900000C02002010B5094B1B68002B0CDB084B1B68002BFBDB054A1368802109060B4313600A20FFF750FA10BDC04600003A4008023A4010B5064BDF
:401200001B78002B04D1FFF71FFF0122024B1A70FFF7DCFF10BDC046C501002010B50400022802D90020FFF729F9022C07D8A400044B9C46644420680004000C00E000205B
:4012400000B210BD80013A40014B1A681A60704710023A40000000000230800803D00138FDD1C046C046C0467047EFF3108072B6704780F31088704770B50400FFF7F5FFE6
:401280000500102C05D8104A136803218B43136016E0202C07D80C490B6803229343023A13430B600CE0302C07D807490B6803229343013A13430B6002E00020FFF7DEF846
:4012C0002800FFF7D6FF70BD30001040002243088B4274D303098B425FD3030A8B4244D3030B8B4228D3030C8B420DD3FF22090212BA030C8B4202D31212090265D0030B24
:401300008B4219D300E0090AC30B8B4201D3CB03C01A5241830B8B4201D38B03C01A5241430B8B4201D34B03C01A5241030B8B4201D30B03C01A5241C30A8B4201D3CB021E
:40134000C01A5241830A8B4201D38B02C01A5241430A8B4201D34B02C01A5241030A8B4201D30B02C01A5241CDD2C3098B4201D3CB01C01A524183098B4201D38B01C01A30
:40138000524143098B4201D34B01C01A524103098B4201D30B01C01A5241C3088B4201D3CB00C01A524183088B4201D38B00C01A524143088B4201D34B00C01A5241411A07
:4013C00000D20146524110467047FFE701B5002000F0F0F802BDC0460029F7D076E7704703460B437FD4002243088B4274D303098B425FD3030A8B4244D3030B8B4228D39A
:40140000030C8B420DD3FF22090212BA030C8B4202D31212090265D0030B8B4219D300E0090AC30B8B4201D3CB03C01A5241830B8B4201D38B03C01A5241430B8B4201D366
:401440004B03C01A5241030B8B4201D30B03C01A5241C30A8B4201D3CB02C01A5241830A8B4201D38B02C01A5241430A8B4201D34B02C01A5241030A8B4201D30B02C01A7A
:401480005241CDD2C3098B4201D3CB01C01A524183098B4201D38B01C01A524143098B4201D34B01C01A524103098B4201D30B01C01A5241C3088B4201D3CB00C01A5241BE
:4014C00083088B4201D38B00C01A524143088B4201D34B00C01A5241411A00D201465241104670475DE0CA0F00D04942031000D34042534000229C4603098B422DD3030ABA
:401500008B4212D3FC22890112BA030A8B420CD3890192118B4208D3890192118B4204D389013AD0921100E08909C3098B4201D3CB01C01A524183098B4201D38B01C01A44
:40154000524143098B4201D34B01C01A524103098B4201D30B01C01A5241C3088B4201D3CB00C01A524183088B4201D38B00C01A5241D9D243088B4201D34B00C01A5241F5
:40158000411A00D20146634652415B10104601D34042002B00D54942704763465B1000D3404201B5002000F005F802BD0029F8D016E770477047C0461C2101231B0498427B
:4015C00001D3000C10391B0A984201D3000A08391B09984201D30009043902A2105C40187047C04604030202010101010000000000000000014B18687047C046400100206E
:401600000E4B70B500251E000D4CE41AA410A54204D0AB00F35898470135F8E703F07CFD084B00251E00084CE41AA410A54204D0AB00F35898470135F8E770BD24510000EA
:4016400024510000245100002C510000002310B59A4203D0CC5CC4540133F9E710BD03008218934202D019700133FAE77047F0B58BB014001D1E129906DA802424061B19F6
:401680001D0014002D2300E000230B702023149E03229E43462E07D03300453B59424B411099013ACB18109309AB049308AB0393139B00920293109B220001932B0000F0BC
:4016C000B9FB0700472E02D1119BDB072DD5109BFB180793462E14D13B78302B0CD1002200232000290001F0FFFC002804D10123109A9B1A139A1360139B079A1B68D318E4
:401700000793002200232000290001F0EDFC3022002802D0079B099307E0099B0799994203D9591C09911A70F7E73800099B159ADB1B13600BB0F0BDF7B52B2307000C005B
:401740000270861C002901DA2D234C427B70092C1CDD6B46DD1D20000A21FFF727FF013D3031297020000A21FFF73AFE04000928F1DC013D30342C706B4607333000AB424F
:4017800009D92B78013533700136F5E73023E4183370B01C7470C01BFEBD0000F0B595B00C000A920B931A9D099001F009F9036818000D9300F0B0FA0023129323680E905F
:4017C0000C930C99277E2B680722C90501D59B1800E0073393431A0008322A601A685B68A264E3640122E56CA66C6B005B080F935242C04B30000F9903F0C2F9002819D160
:401800000122BC4B524230000F9901F07DFC002810D1002200233000290001F06BFC002803D023002D2243331A70B34D472F0ED8B24D0CE032002B003000290003F0A0F9B3
:40184000002800D19AE1AE4D472F00D8AD4D03230C9A236101339A432260002642E0672F00D193E1472F00D190E10C9A0021134312AA059211AA0392232223600691019340
:4018800008A9636852180292009332002B0004970998FFF7ECFE20233A0005009A43472A00D18EE11199652F00D996E1200001393A0050301191FFF73FFF129A06008318CD
:4018C0002361012A00DD85E12268D20700D581E1232308AA9B181B78002B03D023002D2243331A700B9B13AA009321000A9B099800F0A4F9431C02D1012040429BE12268E9
:40190000530501D4236964E0652F00D8CCE0A06CE16C0022002301F0E7FB00282CD00123794A0A9909980B9DA847431CE4D0119B129A934208DB2368DB0705D42368002522
:401940009B0700D50FE113E10B9D0E9B0D9A0A990998A8470025431CCED0129B013B9D42ECDA220001231A320A9909980B9EB047431CC1D00135F0E7119B002B2BDC0123BC
:40198000614A0A9909980B9EB047431CB4D0119B002B05D1129B002B02D12368DB07CDD50B9E0E9B0D9A0A990998B0470026431CA2D0119B5B429E420ADA220001231A3284
:4019C0000A9909980B9FB847431C95D00136F0E7129B2A00ACE0A36D129E9E4200DD1E00002E05DC00230C93F343DB170F9315E033002A000A9909980B9FB847431CF1D12F
:401A00007AE7220001231A320A9909980B9FB847431C00D170E70C9B01330C930F9BA26D0C993340D31A9942EBDBAE18119B129A93420DDB2368DB070AD4129B119AED18E3
:401A4000AD1B9B1A9D4200DD1D00002D09DC11E00E9B0D9A0A9909980B9FB847431CECD14AE72B0032000A9909980B9EB047431C00D141E7EF43FB1700260C930AE02200D5
:401A800001231A320A9909980B9FB847431C00D132E70136119A129B0C999B1A2A000A409B1A9E42EBDB49E7129B012B02DC01231A4245D001232A000A9909980B9FB84711
:401AC000431C00D118E70E9B0D9A0A9909980B9FB847431C00D10FE7A06CE16C0022002301F002FB002801D000251AE0129B6A1C013B26E0FFFFEF7F714F00006D4F000053
:401B0000794F0000754F00007D4F0000220001231A320A9909980B9FB847431C00D1EBE60135129B013B9D42F0DB2200330050320A9909980B9DA847431C00D0FEE6DBE67E
:401B40002A000A9909980B9DA847431CEDD1D3E62200012319320A9909980B9EB047431C00D1C9E60135E368139A9B1A9D42EFDB139BE06898425EDA18005CE080236268E1
:401B8000DB00511C00D06AE6073202E0002A02D10122626069E60C9908A80B430021069112A9059111A90391232109182360019300922B000497029132000998FFF757FDF3
:401BC0000500119BDA1C02DB626893421CDD023FFFB267E6013323617AE6662F15D16368002909DD2161002B02D12268D2071ED50133591821611AE0002B03D1012221687B
:401C0000114213D09A1C11E06727119B129A934206DB22682361D20709D50133236106E00121002B01DC4918C91A8A182261119B0026A3654CE615B0F0BDC046F7B51700EE
:401C400001938A680B6900900C00934200DA130022003B6043321278002A01D001333B6023689B0602D53B6802333B60062523681D401ED0230043331B785A1E934122680D
:401C800092061CD53020E1184331087021005A1C45310978A2184332023311700FE022000123193201990098089EB047431C0ED00135E3683A689B1A9D42F0DBDAE7220002
:401CC000019943320098089DA847431C02D10120404220E006232068E1683A6803400025042B03D18D1AEB43DB171D40A3682269934201DD9B1AED180027BD420AD0220084
:401D000001231A3201990098089EB047431CDED00137F2E70020FEBD0023C25C0133002AFBD1581E7047F0B503690C6989B00700059100269C4279DC0B00013C1433A500EA
:401D400003935B1904930300143302935D19049B28681B68591C0193FFF7B8FA0190B04233D0039B02989C460696634604CB9C46019B91B25943120C5A4389190B0CD3189A
:401D80000793069A1E0C038889B29B1802685B1A110C6A46928B8A1A1914521811149BB21204134308C0049B06916345DDD22B68002B0AD1029B043DAB4201D33C6104E056
:401DC0002B68002BFAD1013CF4E70599380001F015F8002829DB0020019B02990133039A019340CA0B881818B3B2C31A0868360C000C801B1D14451928149BB22D042B4367
:401E000008C1049B9342ECD2029AA300D3181A68002A0AD1029A043B9A4201D33C6104E01A68002AFAD1013CF4E7019E300009B0F0BD0000F0B516001F00446A9DB00490BD
:401E4000259D06960797002C08D1102000F0BCFD049B5862446084600460C460049B5B6A196800290BD05A68012393404A608B60049800F0EBFD0022049B5B6A1A60079BD2
:401E8000002B05DA01232B607B005B08079301E000232B60079CC84B220019931A409A4219D1C64B249A1360069AC54B002A02D1240300D1C34B269A1800002A01D100F005
:401EC0007DFDD978DA1C002900D00532269918000A6000F073FD069E079F002200233000390001F001F9051E0ED00123249A1360B54B269A1800002A01D100F05FFDB34AFA
:401F000026990A6000F05AFD1AAB01931BAB009332003B00049800F0F7FF630005905B0D09D03A03AA4C120B1443AA4A300021009E1817951AE01A9B1B9A9E18A64BF318F3
:401F4000202B08DDA54A0698B218D0404022D31A9C40204303E020220698D31A984002F0A7FE01239E4C013E0919179300229D4B02F0B2FA9C4A9D4B02F034F89C4A9D4BA2
:401F800001F0E0F8040030000D0002F04FFE9A4A9A4B02F027F802000B002000290001F0D1F804000D0002F00BFE0022039000232000290001F09EF800280DD0039802F0A8
:401FC00035FE02000B002000290001F08DF843424341039AD31A039301231693039B162B11D88749DB00C91808684968069A079B01F094F8002805D0039B013B0393002328
:40200000169300E016901A9B9E1B00230B93013E0C9604D50C9B5B420B9300230C93039B002B08DB039A0C9B944663440C9300231192089307E00B9B039A9B1A0B93534261
:40204000089300231193229B0125092B25D8052B02DD0025043B2293229B981E032824D801F028F8060E0204012302E0012308E000231093239B002B20DD1F000A9321E082
:402080000023239A1093039B9F187B1C0A930123FA18002A16DD130014E0012700237F42229310950A97123305E0012701237F4210930A9711330022239203E001273B00D7
:4020C0000A972397049A546A00226260043211001431994204D86168520001316160F6E76168049800F07AFC049B20605B6A1B680D930A9B0E2B00D981E1002D00D17EE1CF
:40210000069B079C14931594039B002B31DD0F223B491340DB00CB185C681B680E930F94039B02241D11EB060AD514981599354B15401A6A5B6A01F031FB06900791013429
:40214000304E002D0ED001231D4208D00E980F99E4183268736801F045FF0E900F916D100836EEE70E9A0F9B0698079901F016FB4CE0039B02245D42002D49D014981599F8
:402180000F231F4A2B40DB00D3181A685B6801F029FF0023069007911A4E2D11002D33D00122154205D0A4183268736801F01AFF01236D100836F1E70000F07F0F270000E8
:4021C000884F00007F4F00007D4F00007E4F00000000F03F01FCFFFF3204000012040000000010FE0000F83F61436F63A787D23FB3C8608B288AC63FFB799F501344D33F48
:40220000984F000070500000002B01D006900791169B002B1DD0069D079E0022C74B2800310000F067FF002813D00A9B002B10D0002F00DCDFE0039B3100013B0E93002286
:40224000BF4B280001F0CEFE0134069007913E0002E0039B0A9E0E93200002F0E7FC069A079B01F0BFFE0022B64B00F06BFFB64A12901391129C139D9446139B6344189325
:402280001D00002E1CD1069807990022AF4B02F023F92200189B0690079100F03FFF002800D054E2AA481399844661440B0006980799220000F01EFF002800D03DE29AE009
:4022C000109A731EA349DB00002A49D0CB181A685B680020A04901F061FA2B00220002F0FBF8129013910D9D0698079902F068FC040002F09BFC02000B000698079902F09C
:40230000EBF801356B1E30341C70129A139B0690079100F0EFFE002800D02EE3069A079B0020864902F0D8F8129A139B00F0E2FE002800D0C7E00D9BEB1AB3425BDA129860
:40234000139900227E4B01F04DFE002212901391069807997A4B01F045FE06900791C3E7C9182200086849682B0001F03BFE0D9C12901391A5190698079902F021FC06009A
:4023800002F054FC02000B000698079902F0A4F8303626700134069007910022A54222D16D4B1298139900F0CDFE02000B000698079900F0B3FE002800D084E0129A139B3C
:4023C0000020654902F088F802000B000698079900F090FE00280ED06B1E1A78302A00D0CBE21D00F8E706980799554B01F0FAFD06900791BFE7149B159C069307941B9BFC
:40240000002B00DA81E0039A0E2A00DD7DE0D300504AD3185C681B6808930994239B002B15DA0A9B002B12DC00D088E1089809990022464B01F0D6FD069A079B00F078FE20
:402440000A9B08931E00002800D07BE182E10D9D069E079F089A099B3000390001F09EF902F0AEFB040002F0E1FB089A099B01F0B9FD02000B003000390002F02DF8220013
:4024800001356B1E30321A700D9B0A9AEB1A9A422ED102000B0000F055FE06000F0002000B000898099900F025FE00280FD10898099932003B0000F017FE002800D15EE289
:4024C000E30704D45BE20E9B039300E01D006B1E1A78392A08D10D9A9A42F7D1039A0D990132039230220A701A7801321A7046E20022134B01F076FD0022002306000F0073
:4025000000F0F2FD0028A5D039E2109A002A44D0229A012A0BDC179A002A02D00F4A9B1802E036231A9A9B1A089D0B9C29E00A9B5D1E089BAB4213DB5D1B18E00000F03F5F
:402540000000244000001C400000C0FC000014400000C07C984F00000000E03F33040000089B0895EA1A0025119B9B1811930A9B002B04DA0B9B0A9A9C1A002301E00B9C4D
:402580000A9B0B9A0121D2180B920C9A0498D3180C9300F0FBFA060002E0089D0B9C109E002C0ED00C9B002B0BDD0C9A2300944200DD13000B9AE41AD21A0B920C9AD31A83
:4025C0000C93089B002B20DD109B002B17D0002D11D031002A00049800F06AFB059A01000600049800F0DBFA05990E90049800F02DFA0E9B0593089B5A1B06D000E0089AB3
:402600000599049800F054FB05900121049800F0BDFA119B0890002B00D1C0E11A000100049800F045FB229B0890012B17DC0025069BAB420ED1079B1B03AB420AD1199B1D
:40264000079A134206D00B9B013501330B930C9B01330C93119B0120002B0DD000E00025089B089A1B690E9303339B00D318586800F042FA2023181A0C9BC0181F231840EC
:4026800009D001331B1A042B02DD1C23181A03E0042B08D018001C300B9B24181B180B930C9B1B180C930B9B002B05DD1A000599049800F051FB05900C9B002B05DD1A0039
:4026C0000899049800F048FB0890169B002B1DD00899059800F092FB002817DA039B0A22013B039305990023049800F0C8F9109B0590002B00D159E1310000230A220498F9
:4027000000F0BDF90600002F37DC33E00A9B0A9F002B2ADC229B022B27DD002F12D108993B000522049800F0AAF908900100059800F064FB00280DDC04E0089602E00023CA
:402740001E000893239B0D9DDB4303930AE00E9B089603930D9B0D9A5D1C31231370039B013303930A960026F3E0109B002B04D10D9DB5E0229B022BCFDC002C05DD31005F
:402780002200049800F0E8FA06000A96002D12D07168049800F022F93100040033690C319A1C92000C30FEF751FF01222100049800F0D2FA0A900D9B7D1E0B935B190E9351
:4027C00008990598FFF7AFFA310010900400059800F014FB0A9A05000899049800F029FB01230C93C36830340700002B04D10100059800F003FB0C903900049800F026F92C
:402800000C9B229A134308D1069A0133134204D1392C2AD0002D1CDC1DE0002D06DB229B1D431BD10123069A134217D10C9B002B11DD05990122049800F08EFA08990590A4
:4028400000F0DCFA002802DC05D1E30703D5392C0BD0109C31340B9B5D1C0FE00B9B5F1C0C9B002B0CDD392C05D10B9B0B9A5D1C3923137057E03D000B9B01341C7068E0B8
:402880000B9B0E9A3D001C7093423CD000230A220599049800F0F3F80A9B05909E4208D1310000230A22049800F0E9F806000A900DE0310000230A22049800F0E0F8002348
:4028C00006000A220A99049800F0D9F80A900B9776E700230A220599049800F0D0F8059008990598FFF71FFA0D9B3030287001350400EB1ABB42ECDB3D1E00DC01250A964A
:4029000000260D9B5D1905990122049800F024FA0899059000F072FA002804DC13D1E30701D410E01D006B1E1A78392A08D10D9A9A42F7D1039B013303933123137008E0D5
:4029400001321A7005E06B1E1A78302A01D11D00F9E70899049800F079F80A9B002B0ED0002E05D09E4203D03100049800F06EF80A99049800F06AF801E00E9B03930498FF
:40298000059900F063F800232B70039B249A01331360269B0D98002B10D01D600EE0229B012B00DC43E6119D012065E6002F00DDDEE6229B022B00DCDAE6AEE61DB0F0BD25
:4029C000004870474401002010B5034B0100186800F0FCFA10BDC0464001002070B5466A04000D00002E07D11020FFF7EDFF6062466086600660C660666AF368002B09D0BE
:402A0000636AAA00DB689B18186800280ED002681A6017E021220421200000F0C9FA636AF060DB68002BEBD100200EE001210E00AE40721D9200200000F0BAFA0028F3D04A
:402A40004560866000230361C36070BD70B5456A06000C00002D07D11020FFF7B5FF7062456085600560C560002C07D0726A6368D2689B00D3181A6822601C6070BDF7B586
:402A8000070008000C000D691E00002101921430019A0388013153439B190668360C56431A0C9446B4446246160C120494469BB2634408C08D42EBDC002E1BD0A3689D427D
:402AC00012DB63683800591CFFF788FF2100236901909A1C92000C310C30FEF7B7FD21003800FFF7B3FF019C2B1D9B00E31801355E6025612000FEBD00220300010C914276
:402B000001D103041032190E01D108321B02190F01D104321B01990F01D102329B001000002B03DB20205B0000D5501C70470722036810B501001A400CD0012400202342AF
:402B400023D10222134203D0E34020000B601CE09B0818E098B2002801D110221B0CD8B2002801D108321B0A180701D104321B09980701D102329B08D80704D45B08202063
:402B8000002B02D0013210000B6010BD10B50C000121FFF723FF01234461036110BDF0B50B691400126989B00D00934201DA25000C002F692669AA68BB1969680193934282
:402BC00000DD0131FFF70AFF0200BB1914329B00D3189C46002113000290634501D202C3FBE71435BF00EB191434B6000593A31903950793079B9C4251D2208800281ED06A
:402C000015000026039F08CF069504936B461B8A434319002B88CB1804999B19090C41432E68360C89191E0C89190E0C9BB209040B4308C5059BBB42E5D8069B5E60236820
:402C40001D0C1FD0002110001368039F04913E8801686E43090C7118049E9BB289190E043343036008CF86881B0C6B43090C9B195B18190C0491059906900430B942E6D88E
:402C800006994B6004340432B4E704235B429C4463461B68002B05D1019B013B0193019B002BF2DC029B019A18001A6109B0F0BD0323F7B5134005000E001400002B08D06F
:402CC0002349013B9A00525800233100FFF7D7FE0600A310019338D06C6A002C07D11020FFF772FE6862446084600460C4606F6ABC68002C10D117492800FFF747FF002339
:402D0000B8600400036007E0019B5B1001931CD02068002810D004000122019B1342F3D0310022002800FFF73AFF070031002800FFF78CFE3E00E7E7220021002800FFF744
:402D40002EFF002320600360E5E73000FEBDC0466050000071020000F0B50C0017002369551185B0EB180193013300934968A3680290009A934202DA01315B00F9E7029853
:402D8000FFF72CFE00230200060019001432AB4203DA980011500133F9E7EB43DB171D402300AD0055192269143392009A1894461F22174014D00132D21B03920022196813
:402DC0002800B9400A4304C504CB0399CA409C45F5D84260002A07D0019B0233009303E004CB04C59C45FBD8009B0298013B33612100FFF72BFE300005B0F0BD03690A698D
:402E000010B59B1A0400181E12D1930014341431E218C918043A043913680868834204D083429B410120184302E09442F2D3002010BDF0B50C0085B0070011002000150047
:402E4000FFF7DCFF061E07D101003800FFF7C6FD01234661036155E000230193984204DA23002C001D000123019361683800FFF7B5FD019B26692F00C3601434B300E31880
:402E8000020002932B69002514379B00FB180393143208CC69469C4608CF0432009363468B808B885D19009B9BB2EB1A65460193009B2D0C190C019B691A1D14131F9C4622
:402EC0006B4649199B880D1409040B4361460B60039BBB42DDD8029913008C420BD202CC8BB25B191D14090C49190D149BB209040B4308C2EFE7043B1A68002A01D1013ED9
:402F0000F9E7066105B0F0BDF7B51D000121089F1400FFF763FD2B036D0006001B0B6D0D02D08022520313430193002C18D068460094FFF7FCFD009C002809D0019B202139
:402F40001A00091A8A40C34022437261019300E07461019CB461631E9C410134346107E001A8FFF7E4FD0124019B346173612030002D06D00B4BED1835232D183D60181A41
:402F80000BE0094BC018094B3860E3189B00F3185869FFF7B1FD6401201A099B18603000FEBDC046CDFBFFFFCEFBFFFFFFFFFF3F4A4370B51100140000F008F8051E03D0D6
:402FC00022000021FEF74BFB280070BD032370B5CD1C9D43083506000C2D01D20C2501E0002D01DBA94202D90C23336048E0300000F05EF8234B1C681A002100002913D021
:403000000B685B1B0DD40B2B02D90B60CC181EE08C4202D1636813601AE04B6863600C0016E00C004968E9E7174C2368002B03D1300000F02BF820602900300000F026F873
:40304000431C18D00323C41C9C43A0420DD12560300000F02EF8200007220B30231D9043C31A0ED05A42E2500BE0211A300000F00DF8431CEBD10C233000336000F019F820
:40308000002070BDCC010020C8010020002370B5064C050008002360FDF758F9431C03D12368002B00D02B6070BDC046200200207047704702B4714649084900095C4900A2
:4030C0008E4402BC7047C0468446101C62468C46191C634600E0C0461FB500F019FF002801D40021C8421FBD10B500F06DFE4042013010BD10B500F00BFF002801DB0020EC
:4031000010BD012010BDC04610B500F001FF002801DD002010BD012010BDC04610B500F093FE002801DC002010BD012010BDC04610B500F089FE002801DA002010BD0120B9
:4031400010BDC046F8B556465F464D464446F0B40F00FD0FAA4609037C002E005F00450F490A7F0D2943C5001803BC46400A570F640DDB0F3843D2009A4500D1AAE06646EE
:40318000A61B002E00DCFFE06346002B39D10300134300D0D9E06B0709D00F232B40042B05D02B1DAB42AD416D4249191D000B0200D482E0CA4B01349C4200D1FEE00A0044
:4031C0005646C84BED081A405007640552020543120B640D002112030B0D1B056405120B1A436308C04CF60714401C43640064083443280021003CBC90469946A246AB4659
:40320000F8BDB74B9C42C6D080231B041843382E00DDEBE01F2E00DD1EE120239B1B9C4603006746BB40984613004746F3403B436746BA40571EBA4113430200F240EB1AB4
:403240009D42B6411D008A1A7642911B0B0231D54A02560A002E00D1B4E03000FEF7ACF90300083B1F2B00DDB5E020222900D21AD1409E400A009D4032439C4200DDB1E047
:403280001C1B631C1F2B00DDD5E0202114002800C91A8C40D8408D400443DA40681E854111002543002476E74146314300D134E2310045466B0700D06FE756464807ED08AE
:4032C000C9080543864B9C4235D00A036405120B640D7FE76346E31A9B46002B00DC8BE06746002F3CD07E4FBC4200D153E780273F0438435B46382B00DCF7E00243501E11
:4033000082410020D2B253194218AB4289411D00494289180B02CDD5714B01349C4200D13DE101206F4A6B080A4028401843D507054351082FE72B000B4300D1CBE180236D
:403340001B030B431A03120B44E7013E002E6DD1AE1AB5429B41091A5B42C91A350075E70700174300D116E701235B429C46E3445B46002B00D0E0E0AA18AA429B41091802
:403380005B4259181500C5E7002E75D1661C7605760D012E00DCF3E0AE1AB0464545BF410E1A7F42F61B370200D48FE0551BAA42B641411A76428E1B9A464BE756460022CF
:4033C000002507E72800FEF7F7F820300300083B1F2B00DC49E72A002838824000259C4200DC4DE73F49E41A1140D4E60243501E8241D3B2002222E7002B00D0F3E0631C5F
:403400009C465B055B0D012B00DC9FE0344B9C4500D1C3E0AA180918AA42804140424118CD075208154349086446B4E62C4B9C4200D0ECE6AFE611001F3CE1400C00202B91
:4034400000D17FE04021CB1A9A4015436A1E95410021254300242DE733000700203BDF403B00202E70D04027BE1BB0400243501E824113430022E2E6002C4FD0184CA4458A
:4034800000D1ABE08024240476422143382E00DDDFE01F2E00DD43E12027BC1BA1460C004F46BC40A0462C004746F4403C434F46BD406F1EBD41F1402C43151BAA429241D8
:4034C000411A5242891A64469A46BFE641464546314300D0BEE6002600240025F2E6C046FF070000FFFF7FFFFFFF0F801F2B59DC2027FF1ABC46070063469F405B46B946A5
:403500001700DF40B8464F4643461F4363469A40531E9A415B463A43D840F4E60C002C435CD0F643002E55D1551BAA42A441411A6442091B9A46644688E6964FBC4200D0B3
:40354000D8E628E6002280E700208FE70B002B43002C00D0C2E0002B00D101E10300134300D118E6AB18AB42B6410918764271180A0200D409E1884A1D00114064460AE696
:40358000002C5BD10E002E4300D08AE00100114300D1C2E0010015009A46FCE56446002100258FE620235B429C46DC4463460700DF405B46BC46202B00D1ACE040235F46F2
:4035C000DB1B98400243501E8241634613431A00002098E66F4CA44500D057E70100150064469A46D7E5002C39D10C002C436ED0DB43002B1AD0674CA44568D0382B00DD8C
:40360000A4E01F2B00DDAEE020240F00E41AA740B9462F00DF40B846A3464F46444627435C46A5406C1EA541D9403D43AD1895429B4109185B42591864466BE60C002C43AF
:4036400015D1010011437BD0010015009A46514CA1E50D43691E8D410021ECB22DE74D4CA44534D0802424045B422143C6E7040014434ED0ED084C072C438025C9082D035D
:40368000294208D0C6082E4205D1D208410711430C009A463100620FC900E50011433D4C79E50600164300D175E5AE1AB0464545BF410E1A7F42F61B370200D4F4E5551BA4
:4036C000AA42B641411A7642891B9A4663E50100150064465FE5002200257BE5002B3BD00300134315D0ED084B072B438025C9082D03294207D0C4082C4204D141070B00EA
:403700002100D2081343C9005A0F1143DD00214C41E5204C3FE5002054E700260025D1E534000F00203CE7403C00202E2BD04027BE1BB1400D43691E8D4100212C43BCE603
:40374000802100260903134C0025BBE50D43691E8D410021EDB269E7010015000D4C1AE50100150017E51C000F00203CE7403C00202B0CD04027FB1A99400D43691E8D4112
:403780000021254352E70021D4E71D0092E50021F3E7C046FF070000FFFF7FFFF0B556464D4644465F46F0B41D000E034C00CB0F87B0070092468146360B640D98466AD0B2
:4037C0006D4B9C4235D08022430F12041343F6001E43C3009946694B00279C460023644402932B0368001B0BED0F51469B46400D009500D178E0604B98426CD05B46DA0041
:403800004B0F802109040B4313439B465346D9005A4B9C46002360444246201A6A40924601901F430F2F00D9B0E05548BF00C0598746374300D088E0002399460233082703
:4038400000260293CDE74346B34649460093029B009A9246022B00D0BFE1002153460122002689461A40444B002136030C0D2405360B2643434C1B0526401E437600D207C3
:40388000760816434846310007B03CBC90469946A246AB46F0BD330003434FD0002E00D1BCE13000FDF788FE03000B3B1C2B00DDADE11D220100D31A08393A008F408E406A
:4038C000DA40B9461643304B00279C46002360444442029385E753465A4613432CD1002300219B46023397E70B4320D05B46002B00D19EE15846FDF75FFE03000B3B1C2B47
:4039000000DD8FE102005946083A91408B461D21CB1A5146D9400B0059460B4351469B469140194B9C4660444042002374E7002300219B4601336FE703236DE7002399468C
:4039400001330427002602934BE703230C27029347E70122D51A382D00DCB0E153461A4000210023002689467EE700238026994600223603004B77E7FF07000001FCFFFFBD
:4039800098500000FFFF0F80F30300005E4500D972E100D16DE1019B4D46013B01930023340002935B461E020B0E1E430B020393330C994633041B0C494620000093FDF733
:4039C00085FC009B370043430600494620009846FDF702FD2C0C09040C43A04509D9E419731EA74200D95CE1A04500D859E1023EE4194346E41A49462000FDF767FC0300BC
:403A0000009A80465343494620009B46FDF7E4FC2A040904120C0A4393450DD94346D219013B974200D93AE1934500D837E102235B429C46D219E0445B46D21A4346360480
:403A400033439B460399180C0B0C1D00059309045B46090C0C001B041B0C4443049159436B4368431B190D0CEB189C4203D980246402A44660441C0C09041B04090C2018FA
:403A80005D18824200D2DEE000D1D7E0161A029B9C465D1BAC459B415B42F61AB74200D106E149463000FDF711FC009B04004343494630009846FDF78FFC2E0C09040E43CA
:403AC000B04509D9F619631EB74200D9F3E0B04500D8F0E0023CF6194346F31A494618000293FDF7F3FB009B06004343494602989846FDF771FC2D0409042D0C0D43A845D9
:403B000009D9ED19731EAF4200D9D6E0A84500D8D3E0023EED192404210043463143049E059A3000ED1A0B040C0C1B0C58436643534354439A19030C9B189E4203D980227E
:403B40005202944664441A0C00041B04000C14191B18A54250D34DD001231943964A019B94466344002B00DCF3E64A0709D00F220A40042A05D00A1D8A42894149428B4477
:403B800011005A46D20108D55A468C4B1A4093468022D2009446019B6344894A934200DD5BE65A46C908500708435602514601225B058146360B5B0D0A4055E680231B0368
:403BC0001E4211D05A461A420ED15E461E433603360B2A0089467B4B46E6032B00D1E1E0012BBBD11A40BBE61E433603360B4246744B39E6002BB1D07D194A1EAF4252D9C5
:403C00001100A542A8D1039A9A42A5D1A6E703003E00283B9E400023994654E6FDF7CCFC203041E603005246283B9A400021934677E65046FDF7C0FC20305EE6029B0026DA
:403C4000AB4200D323E7039E0299B44661448846B045B6415B467642F619B218013B0291974213D290424FD800D18EE0161A9B460DE7894500D28EE674084B46F607350096
:403C80005B081D434B46DB0702938BE69742EDD10399029CA142E5D93E1A9B46F7E69846CAE61E00A5E6AC423ED874D0110053E70121494252E71C000EE71E002BE71F2D03
:403CC0003CDC20230A0058465B1B9840EA4099400243481E81415E461143EE404B0709D00F230B40042B05D00B00191D99429B415B42F61833023CD55346012200211A4011
:403D0000002601238946AFE502235B429C46039CE344A446029B63449846A045B6417642F6190293B218B1E603988A1E41008142B6417642F619AD19039161E71F2252424B
:403D4000D31A5A46DA401300202D29D040225846551BA8400143481E814107200B4318400026002809D00F2200261A401900042ABBD10B0070077602360BDB0803439946C4
:403D8000012253461A4000236EE502998D42BBD89B4600267BE603989842C5D3110032E70020D7E780265B4636031E433603360B009A8946034B57E5FF030000FFFFFFFEB2
:403DC000FE070000FF070000F0B55F4656464D464446F0B41F035C00DB0F9A46194B0E034D00C90F8046360B6D0D8B4691463F0B640D9D4219D0134B9C421BD00123A54251
:403E000006D018003CBC90469946A246AB46F0BDBE42F6D1C845F4D1D34510D0002DF0D1304303005A1E9341EBE7310001230143E7D1E0E73A430123002AE2D1DEE70023D0
:403E4000DFE7C046FF070000F0B55F46444656464D46F0B41F033C0B2C4F0E034D00A3465C008446360B6D0DC90F9046640DDB0FBD422BD0254FBC422ED0002D0ED13043CB
:403E80000700814678427841002C17D15F463A4314D14B460020002B0AD006E0002C02D15846024301D099421AD00123484218433CBC90469946A246AB46F0BD0028F2D06C
:403EC00058425841012240421043F1E737000743D0D002204042EBE75F461743CDD0F8E7A542E2DC05DB5E45DFD808D000205E45DED248424841012340421843D8E7C445A7
:403F0000D3D80020C445F4D3D2E7C046FF070000F0B55F464D4644465646F0B41C03240BA4462F4C0F034D005E00C90F80463F0B6D0D8B469146760DDB0FA54220D0284C48
:403F4000A64222D0002D12D1384344424441002E20D0002C0DD05C42634101245B421C4320003CBC90469946A246AB46F0BD002E17D05B4519D05B465C4201231C43EFE7BE
:403F8000390002240143EBD1D9E7614602241143E6D1D7E761460A43DBD100240028DFD0E9E761460A43E4D1E5E7B54203DD01225C421443D4E7B542CDDB6745DBD809D0EB
:403FC00000246745CCD259464C426141012449420C43C5E7C845CED80024C845F3D3BFE7FF070000F0B55F4656464D464446F0B40D0399464E002B0B87B00700924680468D
:404000009B46760DCC0F002E69D06D4B9E4235D05B468022DD001204430F13432B439B46C3009846674B00279C460023664401934A4615035000D20F53462D0B400D914685
:4040400000D176E05E4A90426CD080225B0F120413435C4AED0094461D4353460022DB00604449463618701C6140029017430F2F00D9AFE05448BF00C759BF465B461F43C5
:4040800000D088E000239B469846023308270193CEE74946022A6AD0032A00D109E2012A00D0BBE111400022002300259046CCB200212D030A0D12052D0B1543434A1B05F9
:4040C00015401D436D00E4076D0825434046290007B03CBC90469946A246AB46F0BD034352D05B46002B00D18AE15846FDF764FA03000B3B1C2B00DD7BE11D22D31A3A00AE
:4041000001005D46DA4008398D4013008F402B439B46B8462E4B00279C46002360444642019385E752462A432CD100250023022297E752462A4321D0002D00D154E1280076
:40414000FDF73AFA03000B3B1C2B00DD46E11D21CB1A51460200D9405346083A954093400D431B4A944660444042002279E7012400220C40124B0025904699E70025002341
:4041800001226EE703226CE700239B4698460133042701934CE703230C27019348E700238025984600242D03054B81E75D464346019A6FE75D4643462100019A6AE7C046DD
:4041C000FF07000001FCFFFFD8500000FFFF0F80F30300004246120C91461A0C9446424617044A461B041B0C5A43604690464A4642431000039262461C003F0C7A437C43BF
:4042000042440192220C9246019A5244904506D98246802040028046C24450460390100C049048462404240C1204121905922A0C2D042D0C68432C00824648467C4350434E
:404240008146200C8046574357444744BA4503D9802040028046C144380C3F04B84648442404240C01900498A044404404905846000C814658460404200C8246070048460B
:404280005F434C464343604660436446834650464443380C8446E4186444A34203D980235B029C46E34448463F04230C3F0C2404E419574668436F4384464D4650465543FA
:4042C0004243380C814662444A445B44944503D9802040028446654403983F04834604983F0C8446E344C345804140428246100484460198674484466744A344BC46A34557
:40430000A4419946D44464428742BF41D4458041E144A04699459B417F424042C8440743120CBA18A045A4415F423B0064422343D71843467D19DB0D6D021D435B465A0296
:40434000059B1A43531E9A415B46DB0D1A4343465B021343EA0107D501225C0813402343EA07029E13436D08574AB218002A4BDD580709D00F201840042805D0181D9842E3
:404380009B415B42ED180300E80104D54F4A15408022D200B2184E48824200DDE7E60124DB08680718436D02530580462D0B5B0D0C407DE6802259461203114208D0154204
:4043C00006D115432D0398462D0B4C46414B6FE65D4615432D032D0B3E4B69E603005546283B9D400023BCE65046FDF7E5F82030A8E60300283B9F400023BB46984689E6FC
:40440000FDF7DAF8203073E60124A61A382E07DD00220C4000230025904649E6029EA3E71F2E20DC20222C001800921BF040944093400443581E83411C43F540630709D04E
:404440000F232340042B05D023001C1D9C4292415242AD182B021FD5012400220C4001230025904624E61F202C004042821AD440202E1CD04022961BB5402B43581E8341D9
:404480000720234318400025002809D00F2200251A401C00042AD8D1230068076D022D0B0124DB08034398460C40002300E60025E3E780220124120315432D0398462D0B2B
:4044C0000C40044BF4E5C046FF030000FFFFFFFEFE070000FF070000F0B557464E464546E0B40E001100F20F9246C500420F180337037400400A4E0F7F0A3043CF4E174354
:404500005A00640D520DDB0FC900B24200D1E5E001267340A61AB446534500D1AFE0002E00DC0DE1002A3AD103000B4300D0E4E06B0709D00F232B40042B05D02B1DAB4255
:40454000AD416D427F191D003B0200D488E0BB4B01349C4200D110E13A00B94B51461A4001235007ED08520264050543120B640D0B400021280012030D0D120B64052D05E8
:4045800015436208AF4CDB072C401443640064081C4321001CBC90469946A246F0BDA74B9C42C5D080231B0418436346382B00DDFDE01F2B00DD30E1624620239B1A020005
:4045C0009A40664690460A009940F24046464B1E99413243114363460200DA40691A8D429B410D00BA1A5B42D71A3B0235D57A02530A98464346002B00D1C4E04046FCF7B0
:40460000DBFF0300083B1F2B00DDC5E020222900D21A4746D1409F400A009D403A439C4200DDC0E01C1B631C1F2B00DDE4E0202114002800C91AD8408C408D400443DA40E8
:40464000681E854117002543002471E7424663461A4300D14CE2674645466B0700D069E7012351467807ED08FA080B40054373498C4238D012036405120B640D79E7002EAC
:4046800000DC9AE0002A47D06C4A944200D14FE78022120410436246382A00DC08E10143481E81410022C9B24919D219A942BF410D007F42BF183A0200D442E15F4A0134FF
:4046C000944200D14EE101205D4A69083A4028400843D507054357089A4629E706000E4300D017E714E72900114300D1F9E1802109030A431203120B3BE701235B429846D6
:40470000C4446346002B72D1691A8D429B413F1A5B42FF1A0D0068E702000A4300D107E7012252429046C4446246002A00D0E6E06918A942B6413F187642F7190D00BAE786
:40474000002E00D080E0621C5205520D012A00DCF9E06A1A91464D45B6413A1A7642921B9046120200D499E04D1BA9428941C71B49427A1A90469A463CE75246012300251B
:4047800013400022F5E62800FCF716FF20300300083B1F2B00DC39E72A002838824000259C4200DC3EE7264FE41A1740C0E60143481E81410022C9B210E7002E00D0F1E00E
:4047C000621C94465205520D012A00DCA0E01B4A944500D1C5E06918A94292413F185242D2194908D5070D4357086446A0E6134B9C4200D0D9E69BE611001F3CE1400C006A
:40480000202B00D180E04021CB1A9A4015436A1E95410027254300241FE763460200203BDA406346202B71D0402366469B1B98400143481E814111430022CFE6FF070000DE
:40484000FFFF7FFFFFFF0F80002C48D0CA4CA24200D1A2E07442A1468024240427434C46382C00DDDBE01F2C00DD44E14E462024A41B3E00A640A246B0464C462E00E64071
:40488000B4464646644626435446A5406C1EA54134002C434D46EF400D1B28E04A4643464D461A4300D0A5E6002300240025DEE61F2A5ADC66462022921B0600964091467A
:4048C000B04662460E00D640424616434A4691404A1E9141020060463143C240E4E63C002C435AD0F443A146002C52D14D1BA9428941C71B49427F1A14009A4675E69E4AF6
:40490000944200D0C7E613E600227FE700208FE7002C00D0C8E03B002B4300D10FE103000B4300D104E66918A9429B413F185B42DF193B0200D41AE1904B0D001F406446C2
:40494000F6E59A4689E63A002A43002C5CD1002A75D102000A4300D1CAE007000D009A46E6E564460022002581E662460600203AD6406246B046202A00D1B7E04022664640
:40498000921B904001434246481E8141114300228AE6794CA24200D061E707000D0014009A46C5E5002C41D13C002C4378D0F443A146002C20D0704CA24271D04C46382CEB
:4049C00000DDB2E01F2C00DDBCE02026341BA2463C005646B4404E46A0462C00F440A446444666463443A4465446A54064466E1EB54125434C46E7406D188D4289413F189F
:404A00004942CF19140056E6002A2FD102000A4300D184E007000D009A46574C88E53D436F1EBD41ECB200270D1B60E7524CA24236D0744280263604A1463743BEE702009C
:404A40000A4300D174E56A1A90464545B6413A1A7642921B9446120200D4F7E54D1BA9428941C71B49427F1A9A4661E502000A433AD0ED087C072C438025FA082D032A42C1
:404A800008D0C7082F4205D145072C003A009A46C9080C43670FD200E5001743364C47E507000D00140043E53A002A4343D002000A4319D0ED087C072C438025FA082D0321
:404AC0002A4207D0C6082E4204D147073C003200C9080C43D700620FE50017439A46264C26E50022002544E5234C21E5002049E700230025BBE54C463E00203CE6404C469F
:404B0000B446202C31D040244E46A61BB7403D436C1EA54164462C4300270D1BE7E6802200231203144C0025A1E53D436F1EBD410027EDB260E707000D000F4CF8E407000A
:404B40000D00F5E44E463C00203EF440A0464C46202C0ED040244E46A41BA7403D436F1EBD4144460027254346E70027CFE70D0073E50027F2E7C046FF070000FFFF7FFF92
:404B800070B50E4E0C031D0349005B00240B490D2D0B5B0DB14204D0084900208B4208D070BD04430120002CFAD1044900208B42F6D115432800451EA841F1E7FF07000068
:404BC0000B0330B5134D1A0B4B005B0DC90F0024AB4211DD104CA34210DC8024640322430E4CE41A1F2C0CDD0D48C31ADA4013005C42002900D11C00200030BD094BCC1832
:404C0000FAE7E040084CA44663449A4013000343EEE7C046FE0300001D0400003304000013040000FFFFFF7FEDFBFFFF70B5002830D0C317C4185C40C50F2000FCF7BCFC70
:404C4000174B184A1B1AD21A1F2A18DD164AD21A9440002224035B05240B5B0D0021100024030A0D1205240B1443104A1B0514401C436400ED0764082C43210070BD2100D6
:404C800091400A000B21081AC4405B052403240B5B0DE3E70025002300240022DEE7C0461E0400003304000013040000FFFF0F8070B5051E28D0FCF77FFC154B154A1B1AE7
:404CC000D21A1F2A16DD2C00134A0025D21A94405A052403240B520D002124030B0D240B1B0523430D4C1205234013435B002800590870BD0B212C00081AC4409540240341
:404D00005A05240B520DE7E700220024E4E7C0461E0400003304000013040000FFFF0F80000000000000000000300F40000400400F400004800D12012E01320136013E40D7
:404D4000404545EC4720482349FF4AFF4BFF4F0150185280540158045A045B045F016040624064406540668068806A806C806E800902134019401A1042404802490550020E
:404D800051025945724073408210C208C401D001D208D60B6B208320DA40E2800101100101000F401D300F4012310F4004400F4002600F40030405060708090A0B0C0E0F09
:404DC000101112131415161718191B1C1D1E1F2021222325262728292A2B2E2F3031323334350000EEDBC9B9AA9B8E82766B60564D443B332C241D17100A04000000000053
:404E0000000008000000200001000000000008000000400002000000000000000000000003000000000000000000000004000000000008000000A00005000000000000004B
:404E4000000000000600000000000000000000000700000000000000000000000000000028000000F9FF1F00000020000100000028000000F9FF1F00000040000200000044
:404E800028000000F9FF1F00000060000300000028000000F9FF1F000000800004000000000000000000000000000000050000000000000000000000000000000600000082
:404EC0000000000000000000000000000700000000000000000000000000000008000000000000000000000000000000090000000000000000000000000000000A00000090
:404F00000000000000000000000000000B0000000000000000000000000000000C0000000000000000000000000000000D0000000000000000000000000000000E0000003F
:404F40000000000000000000000000000F0000000000000000000000000000000000000000000000000000000001064300494E4600696E66004E414E006E616E003000492B
:404F80006E66696E697479004E614E00504F534958002E0000000000000000000000F03F000000000000244000000000000059400000000000408F40000000000088C3406C
:404FC00000000000006AF8400000000080842E4100000000D01263410000000084D797410000000065CDCD41000000205FA00242000000E876483742000000A2941A6D4222
:40500000000040E59C30A2420000901EC4BCD64200003426F56B0C430080E03779C3414300A0D8855734764300C84E676DC1AB43003D9160E458E143408CB5781DAF15446F
:4050400050EFE2D6E41A4B4492D54D06CFF08044F64AE1C7022DB544B49DD9794378EA4405000000190000007D000000000000000080E03779C34143176E05B5B5B893465C
:40508000F5F93FE9034F384D321D30F94877825A3CBF737FDD4F15758C3900005A3800006039000050380000603900006A39000060390000503800005A3800005A38000054
:4050C0006A39000050380000463800004638000046380000BC3B0000D4410000944000009440000092400000AC410000AC4100009E41000092400000AC4100009E4100002E
:40510000AC41000092400000B4410000B4410000B4410000B4430000F8B5C046F8BC08BC9E467047F5010000C9030000F8B5C046F8BC08BC9E467047CD010000505100001D
:40514000C0000020C0000000A80000000000000000000000280200200000E02EC05D00001800000000366E01F00000000404040000000000000000000000000000000000B9
:40518000000000000000000000000000000000006B4F0000000000000000000000000000000000000000000000000000000000000000000000000000000000000000000035
:4051C00000000000000000000000000000000000E0000020924F0000934F0000934F0000934F0000934F0000934F0000934F0000934F0000934F0000934F0000FFFFFFFFE0
:40520000FFFFFFFFFFFFFFFFFFFF00000000000000000000000000000000000000000000000000000000000000000000000000000000000000000000000000000000000078
:40524000000000000000000000000000000000000000000000000000000000000000000000000000000000000000000000000000000000000000000000000000000000002E
:4052800000000000000000000000000000000000000000000000000000000000000000000000000000000000000000000000000000000000000000000000000000000000EE
:4052C00000000000000000000000000000000000000000000000000000000000000000000000000000000000000000000000000000000000000000000000000000000000AE
:40530000000000000000000000000000000000000000000000000000000000000000000000000000000000000000000000000000000000000000000000000000000000006D
:020000040001F9
:0200000490303A
:02000000EA080C
:0200000490402A
:4000000000000000000000000000000000000000000000000000000000000000000000000000000000000000000000000000000000000000000000000000000000000000C0
:400040000000000000000000000000000000000000000000000000000000000000000000000000000000000000000000000000000000000000000000000000000000000080
:0200000490501A
:0C0000000002112D11A100011146FBA906
:0200000490600A
:0100000001FE
:00000001FF