:400000000040002011000000D9110000D911000008B501F0E3F8C04670B52C4C1223236001F0D0FA2A4802F00FFE182001F076FA01F000FA274A284B1A60284D8026F60573
:400040002E600021264B1960264B274A1A609C225202264802602648186026480260264A1A60E022120125480260254818602548026025481860254802602548186025486B
:400080000260254A1A6080221206244B1A60244B19604622234B1A60013A234B1A60013A224B1A60033A224B1A600232214B1A60013A214B1A600720204901F06BF907206A
:4000C00001F052F92E601123236070BD30001040001BB7000600008004010B400C020B40000301400000014040FF00801803014046FF00801403014045FF008010030140FC
:4001000044FF00800403014041FF00800C03014043FF00800803014042FF008008010B4000010B40580101405001014014010140100101400C01014008010140B116000002
:4001400038B572B601224A4B1A70002410E0494863001A195200821891881B195B001A5AC31858880004104301F0B0F80134E4B2022CECD9002412E03E4DA3001A195200B3
:40018000AA18918AD08A00040843131C128B598B09041143802201F09FF80134E4B2002CEAD03449081C2030483101F065F8A0221201314B1A800123304A1370EE22304980
:4001C0000A60304830490860EE2000022F490860AA202F4908602F490A602F490A60992212042E490A602E482E490860802080052D4908608020C0052C4908602C490A60B3
:400200002C4A13602C4A13602C4B197802220A431A702B4802783C218A4328390A430270197816220A431A700322264B1A60242325490B60C32025490860254825490860E6
:40024000D8200001244908602449022008600F302349086023490A6023490B6023490A60234A1360FFF7D8FE01F020F838BDC0461C700F40146F000000600F4002600F40B5
:4002800000010240EE000030000202400003024000040240000502400006024010500F400400990020500F4024500F4028500F4030500F402000104000800F4000700F401D
:4002C00001700F40000104400801044000020440A46D4700080204400803044000040440080404400005044008050440000604400806044010B5064C2378002B07D1054B9E
:40030000002B02D0044800E000BF0123237010BDE800002000000000E06E000008B5084B002B03D00748084900E000BF07480368002B00D108BD064B002BFBD09847F9E72D
:4003400000000000E06E0000EC000020C80000200000000000B583B001AB187059701320191C0222002301F0B5FF01F08BFF8307FBD503B000BDC04600B583B001A90870AD
:4003800000236A46137013200122023301F0A2FF01F078FF8307FBD5132069460122012302F00EF801F06EFFC307FBD56B46187803B000BD10B58120FFF7DEFF21280ED0DE
:4003C000012000F08DFFFA246400201C01F01AF8002000F085FF201C01F014F81DE0002000F07EFF0122154B1A600FE0012000F077FFC82001F006F8002000F071FFC82096
:4004000001F000F80D4A1368013313600B4B1B68042BEBDD002000F063FF84200F21FFF799FF83203221FFF795FF89200021FFF791FF8A208121FFF78DFF10BD0401002026
:4004400010B58020FFF798FF0823011C19438020FFF780FF8020FFF78FFF8306FAD58720FFF78AFF04028820FFF786FF204310BD00B583B001AB187059701320191C022265
:40048000002302F0C7F802F09DF88307FBD503B000BDC04600B583B001A9087000236A46137013200122023302F0B4F802F08AF88307FBD5132069460122012302F020F986
:4004C00002F080F8C307FBD56B46187803B000BD10B58120FFF7DEFF21280ED0012000F00BFFFA246400201C00F08CFF002000F003FF201C00F086FF1DE0002000F0FCFEC9
:400500000122154B5A600FE0012000F0F5FEC82000F078FF002000F0EFFEC82000F072FF0D4A5368013353600B4B5B68042BEBDD002000F0E1FE84200F21FFF799FF8320F9
:400540003221FFF795FF89200021FFF791FF8A208121FFF78DFF10BD0401002010B58020FFF798FF0823011C19438020FFF780FF8020FFF78FFF8306FAD58720FFF78AFF41
:4005800004028820FFF786FF204310BD10B58020FFF780FF1023011C19438020FFF768FF8020FFF777FF4306FAD58520FFF772FF04028620FFF76EFF204310BD00B583B008
:4005C00001AB187059701320191C0222002302F0C1F902F097F98307FBD503B000BDC04600B583B001A9087000236A46137013200122023302F0AEF902F084F98307FBD504
:40060000132069460122012302F01AFA02F07AF9C307FBD56B46187803B000BD10B58120FFF7DEFF21280ED0012000F071FEFA246400201C00F0E6FE002000F069FE201CB6
:4006400000F0E0FE1DE0002000F062FE0122154B9A600FE0012000F05BFEC82000F0D2FE002000F055FEC82000F0CCFE0D4A9368013393600B4B9B68042BEBDD002000F0E3
:400680003BFE84200F21FFF799FF83203221FFF795FF89200021FFF791FF8A208121FFF78DFF10BD0401002010B58020FFF798FF0823011C19438020FFF780FF8020FFF7CE
:4006C0008FFF8306FAD58720FFF78AFF04028820FFF786FF204310BD10B50022224B1A60142000F08FFE06E001321F4B1A60FA20800000F053FF01F0A1FC1B4B1A680023A4
:40070000052181425B41111C0A39484241411942EAD121E001F056FC144C207001F052FC134B18702378FF3B5A425341FF3842425041184210D001F045FC01F043FC01F06B
:4007400041FC0C4C207001F03DFC01F0A3FC0A2000F058FE207805E001F070FC0028D9D1044B187810BDC046B8010020900100208001002091010020F0B5474680B482B057
:400780000B12DBB29846CEB21712FFB2D4B21E4D019083194344E318FB182833DB432B70022001F093FBFF2001F006F8FF2001F003F8019801F000F8072000F0FDFF03201E
:4007C00000F0FAFF1E2000F0F7FF301C00F0F4FF404600F0F1FF201C00F0EEFF381C00F0EBFF287800F0E8FFC820400000F0D6FE052000F007FE012001F068FBFFF76CFFBD
:4008000002B004BC9046F0BD7501002070B5051C01F040FC3F4E2B1C2C33DB433370022001F054FBFF2000F0C7FFFF2000F0C4FF281C00F0C1FF042000F0BEFF022000F0E6
:40084000BBFF242000F0B8FF022000F0B5FF307800F0B2FFC820400000F0A0FE052000F0D1FD012001F032FBFF222B4B1A7000222A4B1A60142000F0C5FD06E00131274B4A
:400880001960FA20800000F089FE01F0D7FB234B1968002306221D1C82425D412A1CCD0F092088426B411340DBB2002BE6D12BE001F05AFB1A4D287001F056FB194B187015
:4008C0002B78FF3B5A425341FF384242504118421AD001F049FB01F047FB01F045FB124B187001F041FB114D287001F03DFB104C207001F039FB247824022B781C1901F0F5
:40090000C9FB0A2000F07EFD01F098FB0028CFD1201C70BD75010020AC010020B8010020900100208001002091010020740100209301002008B5094B7F221A707B325A706D
:40094000F83A9A700832DA70054A12781A7101F0FFF9192000F056FD002008BDA00100208801002010B5074B7F241C70597002219970DA70187101F0EBF9192000F042FD54
:40098000002010BDA001002010B5FFF7E7FD434B1860434B1B78FA2B7DD101F045F8414B18600028F1D13D4B1A683F4B9A4219DDFFF7ECFD3D4C2060012000F0A9FCFFF73A
:4009C000E5FD2060042000F01DFD002000F0A0FCFFF7DCFD2060042000F014FDFFF7D6FD2060D2E7C8222E4B1A70012000F084FC012000F099FCFA20C00000F003FD2C4AE1
:400A0000137801332B490B7000231370FFF792FF22E04B2000F0F6FC274B1B680A2B18D1002000F081FC234C21780139C9B2217000200E22FFF796FF2378204C013B2360FD
:400A4000052000F0DFFC216800200E22FFF78AFF21E00133184A1360154B1978154B1B789942D6D10022144B1A6001200E32FFF779FF0F4B1B78012B09D90E4B19780139D5
:400A80000E4B196000200E22FFF76CFFB3E7002000F04AFCAFE7002010BDC046B0010020CC0000209C010020B70B00006C010020C4010020880100206401002068010020D5
:400AC00008B5554A137851787F3B5A425341534A1278521A51424A411A4200D199E04E4B9B78022B1CD0282B00D18EE0012B00D08FE0494BDB78032B00D08AE00120FFF7DD
:400B000085FE474B18600212464B7F21197049315970C5399970DA70187101F019F978E03D4BDB78033BDAB20B2A72D893003E4AD3589F46642000F065FC012000F0D0FBE2
:400B4000642000F05FFC002000F0CAFB374B1A68374B9A425DD9304B1A79304B1A70314B7F21197049315970A0399970DA7000221A715A7101F0ECF8012000F0B1FB48E0E0
:400B8000254B197909025B79C9182A4B1960234B58786422FFF7F0FD3BE01F4B1B79002B05D0012B35D1012000F09AFB31E0002000F096FB2DE0184B1B79002B05D0012B0B
:400BC00027D1012000F098FB23E0002000F094FB1FE0114B1B79002B05D0012B19D1012000F096FB15E0002000F092FB11E00A4B1B79002B05D0012B0BD1012000F094FBFC
:400C000007E0002000F090FB03E0034BDA780A4B1A70002008BDC046CC010020CC00002078010020A0010020E46E00006C010020871300007C010020C401002008B501F009
:400C40004DF8FFF73DFF08BD10B50B12DAB2CCB2002804D101306422FFF78EFD0EE0084B7F21197058707D3999700131D9701A715C7101F06DF8192000F0C4FB002010BD28
:400C8000A0010020F0B55F4656464D464446F0B483B000AF3A4B1B78C82B68D1EB46394B1C78A51E013CAB000A33DB08DB006A46D21A9546E846D21A9546EA46D31A9D464B
:400CC000E94605F097FF304A304B05F0F9FC00222F4B05F0D1F906F01DF87860201C05F089FF021C0B1C28482A4905F0C5F906F011F8294B1860002436E0201C04F04CFEEA
:400D0000254B196804F078FB796804F007F8A6004B46F05002F0D6FF4346F05002F0B6FE5346F05005F0A2FF1C4A1D4B04F07CFE05F0F0FF1B4904F05FFB05F097FF174AAD
:400D4000194B05F099F905F0E5FF04F005FE011C022C03D0032C03D0201C02E0042000E00520FFF771FF0134AC42C6DDDD460020BD4603B03CBC90469946A246AB46F0BDF9
:400D8000CC00002088010020182D4454FB21094000806640FB211940840100208479B248A1F1044000C07F44A1F11440F0B5474680B462B6002000F093FA002000F09CFA25
:400DC000002000F0A5FA002000F0AEFA01F0ECF901F0DEF901F088FB01F07AFB01F024FD01F016FD01F0C0FE01F0B2FE642000F009FBFFF7DFFAFFF76BFBFFF70FFC00F01A
:400E00004FFFE84801F054F80122E74B5A7001F09BF800F0C1FC032001F058F800F002FD8024A4000120211C6422FFF7A5FCFFF7ABFD0120211C6422FFF79EFC0120211C21
:400E4000FFF702FF0220211CFFF7FEFE0320211CFFF7FAFE0420211CFFF7F6FE0520211CFFF7F2FEFFF7ECFA051CFFF71DFC071CFFF774FB8046002000F03EFACA4B1B78FF
:400E8000C82B00D09EE10120FFF7C0FCFA235B0098420EDC012000F02FFAFFF7D1FA051CFFF702FC071CFFF759FB8046002000F023FABE4B9D4205DDBD4B9F4202DDBD4BD7
:400EC000984506DCBC4B984505DDAF4205DC022304E0052302E0012300E00323022B13D002DC012B06D045E1032B55D0052B00D1ACE03FE1301CFFF7C5FEB4235B009E4231
:400F000000D136E11E3635E18024A4000120211C6422FFF731FC0120211CFFF795FE0220211CFFF791FE0320211CFFF78DFE0420211CFFF789FE0520A049FFF785FEFA20E5
:400F4000C00000F05FFA0220AF218900FFF77CFE032096218900FFF777FEFA20C00000F051FA0520211CFFF76FFE0120AF2149006422FFF701FCFA20C00000F043FA0220F9
:400F8000211CFFF761FE0320211CFFF75DFEFA20C00000F037FAEDE08024A4000120211C6422FFF7E9FB0120211CFFF74DFE0220211CFFF749FE0320211CFFF745FE042028
:400FC000211CFFF741FE05207C49FFF73DFEFA20C00000F017FA0220A2214900FFF734FE0320D4214900FFF72FFEFA20C00000F009FA0520211CFFF727FE0120AF2149002B
:401000006422FFF7B9FBFA20C00000F0FBF90220211CFFF719FE0320211CFFF715FEFA20C00000F0EFF9A5E0301CFFF72BFE002E01D01E3E01E0B4267600642000F0E2F970
:40104000FFF7FEF9051CFFF72FFB071C574B9D4202DD574B9F42E7DC8024A4000120211C6422FFF789FB0120211CFFF7EDFD0220211CFFF7E9FD0320211CFFF7E5FD0420FE
:40108000211CFFF7E1FD05204C49FFF7DDFDFA20C00000F0B7F90220A2214900FFF7D4FD0320D4214900FFF7CFFDFA20C00000F0A9F90520211CFFF7C7FD0120AF21490041
:4010C0006422FFF759FBFA20C00000F09BF90220211CFFF7B9FD0320211CFFF7B5FDFA20C00000F08FF90120211C6422FFF744FB0120211CFFF7A8FD0220211CFFF7A4FD55
:401100000320211CFFF7A0FD0420211CFFF79CFD05202A49FFF798FDFA20C00000F072F90220A2214900FFF78FFD0320D4214900FFF78AFDFA20C00000F064F90520211C5D
:40114000FFF782FD0120AF2149006422FFF714FBFA20C00000F056F90220211CFFF774FD0320211CFFF770FDFA20C00000F04AF900E00026012000F0B3F8114C21780020AE
:401180000E22FFF7EFFB642000F03CF9002000F0A7F8217801200E22FFF7E4FB642000F031F96BE63D0C0000CC000020C3090000850B0000530B0000540B0000A202000027
:4011C00088010020FA24A400201C00F01BF9201C00F018F952E6C046FEE7C04670B50F4E0F4D13E029686B68AC68002202E001C901C30432A242FAD1E868002202E00021A9
:4012000002C304328242FAD11035013E002EE9D105F02EFEFFF7CAFDFEE7C04601000000E078000008B50F4A136801218B43136000230AE0032B03D89A000B49505800E016
:401240000A4899000A4A885001332F2BF2D9FEF777FF0022074B1A60024A116801230B43136008BD0000104000000000D911000000000020C0000020F0B50025002711E01A
:40128000BB00C658F3B2FF22964308E06A008A181478A419527822700135013BDBB2002BF4D10137092FEBD9F0BDC0460323044A1360044A13600022034B1A607047C046F8
:4012C0003000304030003140000E3F4008B50A1C002105F0FCFD08BD08B505F0EFFD08BD04490A68FB231A408000F73B18401043086070470002044004490A68F7231A40DA
:40130000C000EF3B18401043086070470002044004490A68EF231A400001DF3B18401043086070470002044004490A68DF231A404001BF3B184010430860704700020440F7
:40134000024A1168024B0B401360704700002240FFFFFFBF034B18688023DB05184000D001207047000022401F2318401E3B8340181C014B1860704700E100E01F23184055
:401380001E3B8340181C014B1860704780E100E001BE704738B5041C0D1C1F2802D90020FFF7F6FFA400034B9C4664442068256038BDC0464000002070B5041C0E1E032EC2
:4013C00002D90020FFF7E4FF1F2C02D90020FFF7DFFF03252540ED00063501F03EFCA408A400074B9C46644423680322AA409343AE40351C1D43256001F033FC70BDC0460C
:4014000000E400E010B5041C06E0084B186801F01BFC074B9C46644480231B029C42F4D8024B5868604301F00FFC10BDD00000200080FFFF30B583B000F0E4F8002856D0E3
:4014400001F00BFC041C00230AE02A4A11683F220A402949C95C8A4201D1033303E001332D2BF2D90323254A1268D20606D1234802681F218A4313390A430260204A11688C
:40148000204A1140204A5A438020C00184466244D20B013A5205520D0A43A02149031143192B02D819490A430BE0194A9A1812781148C3189B7DD218FF2A00D9FF229205D6
:4014C0000A430F4B1A60134D2B680193302001F0CBFB114A13688021C9050B4313601420FFF790FF019B2B60201C01F0BAFB03B030BDC0462CFF0B40E471000034FF0B4086
:401500000800224000F800C040420F000000D43FCDF1FF0F300010400000224030B587B0041C01F09AFB051CFFF714FF002803D0FFF706FF012100E00021104B1B680093C1
:401540000F4B1B680193033C0E4B1B5D02930E4B1B68039304AA0D4B04936B4605930C4B1A600C480C4A10601B68012901D1FFF761FF281C01F075FB07B030BD08010B40A0
:4015800000010B40E471000030001040B6EA000008001040170000800400104008B5034B1B7A584301F050FB08BDC046D0000020034B1868C0231B02184000D00120704727
:4015C00000010B4010B50D4B1A6801218A431A601A68022082431A60094A10683024A043203C204310601068093CA043014311601A68802109060A431A6010BD0000224006
:40160000000F2240034B1B68002B01DA012000E0002070470000224008B501F01EFB044A1368C02109020B43136001F01AFB08BD00010B4010B501F010FB08490A68084BFD
:401640001A408024E40122430A600A6813408022120213430B6001F004FB10BD00010B40FF3FFFFF70B5061C01F0F7FA041CFFF79FFF002803D0FFF7DDFF012500E0002562
:401680000848331C0340084A106808490840184310601368012D01D1FFF7BEFF201C01F0E0FA70BD0404040010020B40FBFBFBFF10B5244B1B685B0715D5234B5B685B07C9
:4016C0000ED5224B596A042001401F4C62688A4362605A6A82435A629B69002B00D098470420FFF7BFFF174B1B685B0518D5164B5B685B0510D5154B596A8022D200114030
:40170000114842688A434260596A114A0A405A62DB69002B00D098478020C000FFF7A2FF084B1B685B030CD5074B5B685B0304D5064B1B6A002B00D098478020C002FFF795
:4017400091FF10BD10020B40E000002010010020FFFBFFFF0622044B1A704132034B1A70453A034B1A70704720000F4030000F4081000F4010B501F070FA041C054A117856
:4017800010230B431370FF2000F022F8201C01F068FA10BD91000F4008B5064B1B78002B04D1FFF7D7FF0122024B1A70FFF7E2FF08BDC04638010020034B1B785B07FBD44C
:4017C000024B18707047C04661000F4041000F40044B1B68002BFBDB0002034B1843014B18607047000001404600008008B50C4A136801218B431360F023DB0100E0013B1B
:40180000002B03D0064A1268D207F8D4002B04D01B20FFF7B3FD002000E0012008BDC04610002E40054B1A6801210A431A601B68194201D1012000E00020704704002E403C
:4018400008B50E4A0E4B1A60FFF7ECFF1B20FFF78BFD0C4A116801230B43136090231B0100E0013B002B03D0064A1268D207F8D5002B01D1012000E0002008BD01120000E3
:4018800000002E4010002E4003B2002B0DDB094A1168094B0B400004034313601268074B1340984203D0012002E0022000E000207047C04614002E40FFFF00800000FF7F20
:4018C000002809D10C4B19680C4A0A401A601B68DB040CD501300DE0074B1A68802149010A431A601B680B4203D1012002E0002000E000207047C04614002E40FFEFFFFF1B
:4019000070B5841E0D2C36D88C1E052C03D9002B33D1012933D1032A33D8824233D88A4233D81D4E3468250AF0242C40204335681A4C254004022C4334603568F024240147
:401940002C400F2528400002844220D1002B00D002234901C9B29200D2B2114319430E4A1368EE2083430B4313601368034099420FD0ED380EE002200CE002200AE00220CC
:4019800008E0022006E0022004E0022002E0012000E0002070BDC04614002E40FFF0FFFF002809D10B4B1A6810218A431A601B6819420BD001300CE0064B1A6810210A43F1
:4019C0001A601B68194203D1012002E0002000E00020704714002E40002809D10B4B1A6801218A431A601B6819420BD001300CE0064B1A6801210A431A601B68194203D1D8
:401A0000012002E0002000E00020704714002E40044B18601B689BB2834201D0012000E00020704704002E40024B18688003800F7047C0460C002E4010B503785B01204AB7
:401A4000944663441F4A41680A431A6003785B01634419681C4A11401C4A44682240914224D182681A6103785B0163441A6981688A421DD1C2685A6103785B0163445A69EB
:401A8000C1688A4216D1012252429A6103785B0163449A6901320FD10022DA6103785B016344DB69002B09D0012008E0012006E0012004E0012002E0012000E0002010BDDB
:401AC000A0002E40800080007F007F007FFF7FFF10B503781B01104A944663440F4A41680A431A6003781B01634419680C4A11400C4A4468224091420AD182685A60037847
:401B00001B0163445A6883689A4203D0012002E0012000E0002010BD20002E4008008000F7007F00F7FF7FFF38B500240AE063001B199B001048C018FFF7CAFF002805D17B
:401B40000134E4B2072CF2D9002500E00125002D0BD00FE0230108486030C018FFF76CFF002806D10134E4B200E000240F2CF1D900E00125281C38BD2C720000002809D18B
:401B80000C4B19680C4A0A401A601B689B040CD501300DE0074B1A68802189010A431A601B680B4203D1012002E0002000E000207047C04614002E40FFDFFFFF08B580220B
:401BC0001206334B1A60334A136801218B431360F023DB0100E0013B002B03D02D4A1268D207F8D4002B49D01B20FFF7C7FB1B202949FFF7CFFB1B200321FFF7DDFB0B20DF
:401C0000FFF742FE002819D1FFF75AFE002817D1FFF7B4FF002815D10B30022102220023FFF76EFE00280FD1FFF7BAFE00280DD1FFF7D2FE00280BD001230AE0012308E0A1
:401C4000012306E0012304E0012302E0012300E00023002B14D1FFF767FF002812D10F48FFF7D6FE00280FD10A4B1A6807218A431A601B68194209D0013008E0012006E068
:401C8000012004E0012002E0012000E0002008BD00042E4010002E40311D00000112000008B5084B1B78002B02D1FFF787FF00E00020002804D10122024B1A70FFF7C0FD1E
:401CC00008BDC0463A01002008B580229200024B1A60FFF78BFD08BD00002E4038B580225201104B1A600125002418E00E4B1B681D4210D063010D4A944663441B689B06E1
:401D000009D5EB0704D5002C05D100F083F802E0201C00F071F86D00ADB20134E4B20F2CE4D938BD00002E4008002E40A0002E4008B5064B1B689B0501D5FFF7C5FF034B91
:401D40001B68DB0401D5FFF7C9FF08BD00002E4070B5234B1B68DB073FD4224B19680902090A214A107800060143196019681F4801400C1C51780904214319601C681C4980
:401D80000C40251C947824022C431C601C68FF26B443D5782C431C60164B1C682402240A15792D062C431C601C68204054792404204318601868014090790002014319607F
:401DC0001868B043D179021C0A431A60044A116801230B431360002000E0012070BDC04620002E4028002E40A0010020FFFF00FFFF00FFFF2C002E404001054B9C466044B1
:401E00000368DB0703D502680123134303607047A0002E400F4A1168090E0F4B19701168090C59701168090A99701268DA700B4A1168090E19711168090C59711168090AA2
:401E400099711268DA71064A116801230B4313607047C046A8002E40CC010020AC002E40A0002E40AC23014AD05070470000002010B5041C00F0F1FE044A13689B009B0821
:401E8000A4071C43146000F0ECFE10BD18E400E080221205014B1A607047C04600E100E080221205014B1A607047C04680E100E010B5041CFFF7F4FF201CFFF7D3FF0320B2
:401EC000FFF7D6FFFFF7E4FF10BDC046014B18707047C04671000F4008B500200849FFF759FA00200321FFF767FA0022054B1A707132054B1A70513A044B1A7008BDC04660
:401F0000D52000003B01002082000F4083000F4010B500F0A2FE041C094A117820230B431370084A117810230B4313700020FFF71BFAFF2000F014F9201C00F092FE10BD99
:401F400092000F4093000F4008B5064B5B78002B04D1FFF7C1FF0122024B5A70FFF7D8FF08BDC0463B01002010B50020FFF706FA114A9378DBB2D178C9B21279002A01D1C0
:401F80008B4210D00D4AD45CE4B20133DBB20F2B00D90023084A93701379002B06D00022054B1A7102E0064B1C78E4B20020FFF7DBF9201C10BDC0463B010020D8010020D6
:401FC00042000F4010B50020FFF7D8F9174A9378DBB2D178C9B21279002A01D18B4210D0134AD45CE4B20133DBB20F2B00D900230E4A93701379002B12D000220B4B1A71A2
:402000000EE00C4B1B78DBB29A0606D50A4A1478E4B21E221A4202D102E0002400E000240020FFF7A1F9201C10BDC0463B010020D801002063000F4042000F4010B5002095
:40204000FFF79CF9124A9378D278DBB2934205D10F4B1B79002B14D0102413E00C4A9378D278DBB2934205D2094AD37894781C1BE4B207E0064AD37894781C1B1034E4B2CE
:4020800000E000240020FFF76FF9201C10BDC0463B01002008B500F0E0FD0C4B197801220A431A701A7801218A431A7000F0D9FD0020FFF763F9064B00229A70DA701A7132
:4020C0005A710020FFF750F908BDC04692000F403B0100201A4B1B78DBB21E221A4204D018481A4001780A4302702022134024D0154A1178C9B2154A1278D2B2144881543D
:40210000144A1278002A02D00121134A11700F490A780132D2B20A700A78D2B20F2A02D900210A4A1170094A12780C490978D2B28A4202D10121074A1170002BCAD1704759
:4021400063000F403B01002042000F403E010020D80100203F010020400100203D010020044B1B68002BFBDB0002034B1843014B18607047000001404500008008B5092064
:40218000FFF7F2F808BDC04608B500F01DF808BD08B5044A1368802109060B431360FFF7EDFF08BD0000254008B5064B1B78002B04D1FFF7E9FF0122024B1A70FFF7E8FF94
:4021C00008BDC0464401002010B50024194B1C60194A1A4B1A601A4B1A4A13601A4A14601A4A14601A4A13601A4B1C600920FFF7C5F809200321FFF7DFF809201649FFF78C
:40220000C9F8164B1C60164B1C60164B1C601422FF32154B1A60154B1C60154B1C60043AFF3A144B1A70144B1C80144B1C60144B1C6010BD00002540770800806000254046
:40224000070100800003254004032540100325400002254004022540BD2C0000C80E2540880E2540480F2540080F2540C80F2540880F2540E8010020FC01002004020020DD
:40228000EC01002010B50920FFF778F8074B1B889BB21C1C064A1278920601D504241C430920FFF761F8201C10BDC046FC010020E8010020054B1B682022134000D0082364
:4022C00001221343024A13607047C0466400254068002540F0B583B001900C1C171C1D1C002919D0284B1B78102B0AD10920FFF745F8264B1B68DB0701D508260FE00026DD
:402300000DE0214B1B78602B08D1214A138808218B431380002602E0042600E00426002E2BD12822184B1A7000231A4A13601A4A13601A4B1F601A4B1C60EAB2194B1A7000
:40234000019B5C00FF231C40114A138802218B431380154A154B1A604023154A1360154A1360EB0704D5FFF7A5FF134B1C6004E0114B1C600222114B1A600920FEF7F4FF27
:40238000301C03B0F0BDC046E801002064002540FC010020F4010020EC010020F0010020000200200C02002017030000000F2540800F2540880F2540400225406800254007
:4023C000F0B583B001900C1C171C1D1C002919D02D4B1B78102B0AD10920FEF7CFFF2B4B1B68DB0701D508260FE000260DE0264B1B78602B08D1264A138808218B431380E3
:40240000002602E0042600E00426002E35D129221D4B1A7000221F4B1A601F4A17601F4B1C60EBB21E490B70019B5C00FF231C400120044316490B8883430B8019491A4BBC
:4024400019601368072B03D80422184B1A6008E0174A1368802149000B4313600822134B1A60EB0704D5FFF725FF124B1C6004E0104B1C600222104B1A600920FEF774FFE4
:40248000301C03B0F0BDC046E801002064002540FC0100200402002008020020F80100200C02002017030000000F2540C80F254060002540400225406800254008B50A20FA
:4024C000FEF752FF08BDC04608B500F01DF808BD08B5044A1368802109060B431360FFF7EDFF08BD0000264008B5064B1B78002B04D1FFF7E9FF0122024B1A70FFF7E8FFEA
:4025000008BDC0464C01002010B50024194B1C60194A1A4B1A601A4B1A4A13601A4A14601A4A14601A4A13601A4B1C600A20FEF725FF0A200321FEF73FFF0A201649FEF772
:4025400029FF164B1C60164B1C60164B1C601422FF32154B1A60154B1C60154B1C60043AFF3A144B1A70144B1C80144B1C60144B1C6010BD0000264077080080600026409A
:4025800007010080000326400403264010032640000226400402264031300000C80E2640880E2640480F2640080F2640C80F2640880F26400D020020180200202C020020AC
:4025C0001402002010B50A20FEF7D8FE074B1B889BB21C1C064A1278920601D504241C430A20FEF7C1FE201C10BDC046180200200D020020054B1B682022134000D00823E9
:4026000001221343024A13607047C0466400264068002640F0B583B001900C1C171C1D1C002919D0284B1B78102B0AD10A20FEF7A5FE264B1B68DB0701D508260FE0002631
:402640000DE0214B1B78602B08D1214A138808218B431380002602E0042600E00426002E2BD12822184B1A7000231A4A13601A4A13601A4B1F601A4B1C60EAB2194B1A70BD
:40268000019B5C00FF231C40114A138802218B431380154A154B1A604023154A1360154A1360EB0704D5FFF7A5FF134B1C6004E0114B1C600222114B1A600A20FEF754FE84
:4026C000301C03B0F0BDC0460D020020640026401802002020020020140200201C020020300200201002002017030000000F2640800F2640880F26404002264068002640C4
:40270000F0B583B001900C1C171C1D1C002919D02D4B1B78102B0AD10A20FEF72FFE2B4B1B68DB0701D508260FE000260DE0264B1B78602B08D1264A138808218B4313803F
:40274000002602E0042600E00426002E35D129221D4B1A7000221F4B1A601F4A17601F4B1C60EBB21E490B70019B5C00FF231C400120044316490B8883430B8019491A4B79
:4027800019601368072B03D80422184B1A6008E0174A1368802149000B4313600822134B1A60EB0704D5FFF725FF124B1C6004E0104B1C600222104B1A600A20FEF7D4FD42
:4027C000301C03B0F0BDC0460D02002064002640180200202C02002024020020280200201002002017030000000F2640C80F264060002640400226406800264008B50B20F4
:40280000FEF7B2FD08BDC04608B500F01DF808BD08B5044A1368802109060B431360FFF7EDFF08BD0000274008B5064B1B78002B04D1FFF7E9FF0122024B1A70FFF7E8FF47
:4028400008BDC0465401002010B50024194B1C60194A1A4B1A601A4B1A4A13601A4A14601A4A14601A4A13601A4B1C600B20FEF785FD0B200321FEF79FFD0B201649FEF768
:4028800089FD164B1C60164B1C60164B1C601422FF32154B1A60154B1C60154B1C60043AFF3A144B1A70144B1C80144B1C60144B1C6010BD000027407708008060002740F7
:4028C000070100800003274004032740100327400002274004022740A5330000C80E2740880E2740480F2740080F2740C80F2740880F2740340200203C0200203802002090
:402900005402002010B50B20FEF738FD074B1B889BB21C1C064A1278920601D504241C430B20FEF721FD201C10BDC0463C02002034020020054B1B682022134000D008235A
:4029400001221343024A13607047C0466400274068002740F0B583B001900C1C171C1D1C002919D0284B1B78102B0AD10B20FEF705FD264B1B68DB0701D508260FE000268C
:402980000DE0214B1B78602B08D1214A138808218B431380002602E0042600E00426002E2BD12822184B1A7000231A4A13601A4A13601A4B1F601A4B1C60EAB2194B1A707A
:4029C000019B5C00FF231C40114A138802218B431380154A154B1A604023154A1360154A1360EB0704D5FFF7A5FF134B1C6004E0114B1C600222114B1A600B20FEF7B4FCE2
:402A0000301C03B0F0BDC04634020020640027403C020020480200205402002040020020500200205802002017030000000F2740800F2740880F274040022740680027403B
:402A4000F0B583B001900C1C171C1D1C002919D02D4B1B78102B0AD10B20FEF78FFC2B4B1B68DB0701D508260FE000260DE0264B1B78602B08D1264A138808218B4313809D
:402A8000002602E0042600E00426002E35D129221D4B1A7000221F4B1A601F4A17601F4B1C60EBB21E490B70019B5C00FF231C400120044316490B8883430B8019491A4B36
:402AC00019601368072B03D80422184B1A6008E0174A1368802149000B4313600822134B1A60EB0704D5FFF725FF124B1C6004E0104B1C600222104B1A600B20FEF734FC9F
:402B0000301C03B0F0BDC04634020020640027403C02002038020020440200204C0200205802002017030000000F2740C80F274060002740400227406800274008B50820CA
:402B4000FEF712FC08BDC04608B500F01DF808BD08B5044A1368802109060B431360FFF7EDFF08BD0000244008B5064B1B78002B04D1FFF7E9FF0122024B1A70FFF7E8FFA8
:402B800008BDC0465C01002010B50024194B1C60194A1A4B1A601A4B1A4A13601A4A14601A4A14601A4A13601A4B1C600820FEF7E5FB08200321FEF7FFFB08201649FEF76A
:402BC000E9FB164B1C60164B1C60164B1C601422FF32154B1A60154B1C60154B1C60043AFF3A144B1A70144B1C80144B1C60144B1C6010BD0000244077080080600024405C
:402C000007010080000324400403244010032440000224400402244019370000C80E2440880E2440480F2440080F2440C80F2440880F244059020020640200207002002070
:402C40006C020020000000000230800803D00138FDD1C046C046C0467047EFF3108072B6704780F31088704738B5041CFFF7F5FF051C102C05D8104A136803218B431360EB
:402C800016E0202C07D80C490B6803229343023A13430B600CE0302C07D807490B6803229343013A13430B6002E00020FEF770FB281CFFF7D6FF38BD3000104010B5B94BA3
:402CC0001B68002B00D09847B74B1B68DB0702D50022B64B1A60B64B1B789B0628D5B54B1B68DB0507D5B44A1188C0239B000B431380012300E00023AE4A1268D20706D5E8
:402D0000AD4A118890239B000B4313800123002B0FD0A74A1278D20701D5012200E00222A549088802430A800021A14A117000E000239F4A1278920600D417E19D4A126840
:402D4000D20611D510229D4B1A60994B1B78DB0701D5012300E00223974A11880B4313801022934B1A701BE1914A1278120720D5904A126892070AD50222904B1A608E4A28
:402D8000118888239B000B431380012311E0884A1278D20703D52521854A117009E02421834A1170864A1268002A02D01439854A11607F4A1278520700D4AEE07C4A1278EE
:402DC000D20749D5804A1268120727D57F4A12687F4909681F240C407E4909686418141B082C09D8002C16D17B4A11687B4B0B401360012308340EE008240CE0754A11680D
:402E000077480068411877480068C0B20870116801311160013C002CF0D119E06A4A1268520715D56B4A11686D48006841186D480068C0B208701168013111601168634A64
:402E40001268914203D20421674A116000E001236649674A116060E0564A1268920726D50222564B1A60634A13681F211940136880221202134000D00123CB185E4A1168AA
:402E8000CB1A136012685D4B1A604B4A118884239B000B4313805A4B1A68802149020A431A601968574A0A401A60012335E0564A1268D2061ED427E04F4A1168404A1268D3
:402EC00091421DD23E4A1268013A4B4909688A4204D140224D490A603A490A60464A11684B48006841180978C9B24A4801601168013111603F4A12681F210A40082ADBD10B
:402F00001021424A116008E03F4A1268520604D5394B1A68394B1A600123002B40D02E4A11682E4B0B40136000233B4A1360254A13603A4B1B789B070ED51D4B1B78DB0745
:402F400001D5092300E00A231B4A11880B4313806022174B1A7023E0314B1B689B0601D5182200E01022204B1A6019E0104B1B78DB0615D42B4A13685B005B081360102148
:402F80000B4B1970144B186827490140196018682649014019601368802109060B43136010BDC046480100208C0E2540880E2540E80100200C0F2540FC010020000F254044
:402FC000F0010020880F2540CC0F254008020020080325400402002060002540FFFEFFFFF80100204003254068002540ED0F0000C00F254008022540F4010020EC010020B5
:4030000004022540FFFFFEFF8C0F2540800F25400002002040022540C80F25400C0200206400254000002540FF5FFFFFFFFCFFFF10B5B94B1B68002B00D09847B74B1B68D5
:40304000DB0702D50022B64B1A60B64B1B789B0628D5B54B1B68DB0507D5B44A1188C0239B000B431380012300E00023AE4A1268D20706D5AD4A118890239B000B43138087
:403080000123002B0FD0A74A1278D20701D5012200E00222A549088802430A800021A14A117000E000239F4A1278920600D417E19D4A1268D20611D510229D4B1A60994B46
:4030C0001B78DB0701D5012300E00223974A11880B4313801022934B1A701BE1914A1278120720D5904A126892070AD50222904B1A608E4A118888239B000B4313800123F7
:4031000011E0884A1278D20703D52521854A117009E02421834A1170864A1268002A02D01439854A11607F4A1278520700D4AEE07C4A1278D20749D5804A1268120727D5FE
:403140007F4A12687F4909681F240C407E4909686418141B082C09D8002C16D17B4A11687B4B0B401360012308340EE008240CE0754A116877480068411877480068C0B2C0
:403180000870116801311160013C002CF0D119E06A4A1268520715D56B4A11686D48006841186D480068C0B208701168013111601168634A1268914203D20421674A116091
:4031C00000E001236649674A116060E0564A1268920726D50222564B1A60634A13681F211940136880221202134000D00123CB185E4A1168CB1A136012685D4B1A604B4A07
:40320000118884239B000B4313805A4B1A68802149020A431A601968574A0A401A60012335E0564A1268D2061ED427E04F4A1168404A126891421DD23E4A1268013A4B4945
:4032400009688A4204D140224D490A603A490A60464A11684B48006841180978C9B24A4801601168013111603F4A12681F210A40082ADBD11021424A116008E03F4A126801
:40328000520604D5394B1A68394B1A600123002B40D02E4A11682E4B0B40136000233B4A1360254A13603A4B1B789B070ED51D4B1B78DB0701D5092300E00A231B4A1188CE
:4032C0000B4313806022174B1A7023E0314B1B689B0601D5182200E01022204B1A6019E0104B1B78DB0615D42B4A13685B005B08136010210B4B1970144B18682749014063
:40330000196018682649014019601368802109060B43136010BDC046500100208C0E2640880E26400D0200200C0F264018020020000F26401C020020880F2640CC0F264064
:4033400024020020080326402C02002060002640FFFEFFFF280200204003264068002640ED0F0000C00F264008022640200200201402002004022640FFFFFEFF8C0F264045
:40338000800F26403002002040022640C80F2640100200206400264000002640FF5FFFFFFFFCFFFF10B5B94B1B68002B00D09847B74B1B68DB0702D50022B64B1A60B64B28
:4033C0001B789B0628D5B54B1B68DB0507D5B44A1188C0239B000B431380012300E00023AE4A1268D20706D5AD4A118890239B000B4313800123002B0FD0A74A1278D207D9
:4034000001D5012200E00222A549088802430A800021A14A117000E000239F4A1278920600D417E19D4A1268D20611D510229D4B1A60994B1B78DB0701D5012300E00223D0
:40344000974A11880B4313801022934B1A701BE1914A1278120720D5904A126892070AD50222904B1A608E4A118888239B000B431380012311E0884A1278D20703D52521A3
:40348000854A117009E02421834A1170864A1268002A02D01439854A11607F4A1278520700D4AEE07C4A1278D20749D5804A1268120727D57F4A12687F4909681F240C40B4
:4034C0007E4909686418141B082C09D8002C16D17B4A11687B4B0B401360012308340EE008240CE0754A116877480068411877480068C0B20870116801311160013C002C4B
:40350000F0D119E06A4A1268520715D56B4A11686D48006841186D480068C0B208701168013111601168634A1268914203D20421674A116000E001236649674A116060E0F5
:40354000564A1268920726D50222564B1A60634A13681F211940136880221202134000D00123CB185E4A1168CB1A136012685D4B1A604B4A118884239B000B4313805A4B37
:403580001A68802149020A431A601968574A0A401A60012335E0564A1268D2061ED427E04F4A1168404A126891421DD23E4A1268013A4B4909688A4204D140224D490A60AF
:4035C0003A490A60464A11684B48006841180978C9B24A4801601168013111603F4A12681F210A40082ADBD11021424A116008E03F4A1268520604D5394B1A68394B1A60BD
:403600000123002B40D02E4A11682E4B0B40136000233B4A1360254A13603A4B1B789B070ED51D4B1B78DB0701D5092300E00A231B4A11880B4313806022174B1A7023E02D
:40364000314B1B689B0601D5182200E01022204B1A6019E0104B1B78DB0615D42B4A13685B005B08136010210B4B1970144B18682749014019601868264901401960136894
:40368000802109060B43136010BDC046580100208C0E2740880E2740340200200C0F27403C020020000F274040020020880F2740CC0F2740440200200803274038020020CF
:4036C00060002740FFFEFFFF4C0200204003274068002740ED0F0000C00F274008022740480200205402002004022740FFFFFEFF8C0F2740800F2740500200204002274023
:40370000C80F2740580200206400274000002740FF5FFFFFFFFCFFFF10B5B94B1B68002B00D09847B74B1B68DB0702D50022B64B1A60B64B1B789B0628D5B54B1B68DB05B4
:4037400007D5B44A1188C0239B000B431380012300E00023AE4A1268D20706D5AD4A118890239B000B4313800123002B0FD0A74A1278D20701D5012200E00222A54908886E
:4037800002430A800021A14A117000E000239F4A1278920600D417E19D4A1268D20611D510229D4B1A60994B1B78DB0701D5012300E00223974A11880B4313801022934B5D
:4037C0001A701BE1914A1278120720D5904A126892070AD50222904B1A608E4A118888239B000B431380012311E0884A1278D20703D52521854A117009E02421834A1170BF
:40380000864A1268002A02D01439854A11607F4A1278520700D4AEE07C4A1278D20749D5804A1268120727D57F4A12687F4909681F240C407E4909686418141B082C09D804
:40384000002C16D17B4A11687B4B0B401360012308340EE008240CE0754A116877480068411877480068C0B20870116801311160013C002CF0D119E06A4A1268520715D594
:403880006B4A11686D48006841186D480068C0B208701168013111601168634A1268914203D20421674A116000E001236649674A116060E0564A1268920726D50222564B2A
:4038C0001A60634A13681F211940136880221202134000D00123CB185E4A1168CB1A136012685D4B1A604B4A118884239B000B4313805A4B1A68802149020A431A60196871
:40390000574A0A401A60012335E0564A1268D2061ED427E04F4A1168404A126891421DD23E4A1268013A4B4909688A4204D140224D490A603A490A60464A11684B480068F0
:4039400041180978C9B24A4801601168013111603F4A12681F210A40082ADBD11021424A116008E03F4A1268520604D5394B1A68394B1A600123002B40D02E4A11682E4B61
:403980000B40136000233B4A1360254A13603A4B1B789B070ED51D4B1B78DB0701D5092300E00A231B4A11880B4313806022174B1A7023E0314B1B689B0601D5182200E0E3
:4039C0001022204B1A6019E0104B1B78DB0615D42B4A13685B005B08136010210B4B1970144B186827490140196018682649014019601368802109060B43136010BDC0465D
:403A0000600100208C0E2440880E2440590200200C0F244064020020000F244060020020880F2440CC0F244078020020080324407002002060002440FFFEFFFF680200207A
:403A40004003244068002440ED0F0000C00F244008022440740200206C02002004022440FFFFFEFF8C0F2440800F24407C02002040022440C80F24405C02002064002440F6
:403A800000002440FF5FFFFFFFFCFFFFF0B54746754B440080B4051C071C64089C420BDDFF23DB059C4200DD72E0002800DC9DE06E4804BC9046F0BD6D4B9C4279DC6D4B41
:403AC0009C4269DD01267642291C281C01F094FC8046414601F090FC6749041C01F08CFC664901F01BF9211C01F086FC644901F015F9211C01F080FC624901F00FF9211C0B
:403B000001F07AFC604901F009F9211C01F074FC5E4901F003F9414601F06EFC5C498046201C01F069FC5B4901F098FD211C01F063FC594901F092FD211C01F05DFC574971
:403B400001F08CFD211C01F057FC554901F086FD211C01F051FC011C731C49D0404601F0DDF8291C01F048FC4E4BB600F15801F075FD291C01F072FD4B4B011CF05801F0A6
:403B80006DFD002F95DA80231B069C46604490E7291C01F0C3F88CE7444901F0BFF8FE21890501F0A7F8031C281C002B00D080E788E700F0C7F83E4B051C9C4223DC3D4B74
:403BC0009C423FDC291C01F0A9F8FE21890501F045FD8021041CC905281C01F09FF8011C201C01F017FA0026051C6DE7324860E7404601F093F8291C01F0FEFB011C281C71
:403C000001F02CFD55E72D4B9C4214DCFF21890501F024FDFF21041C8905281C01F0ECFBFE21890501F07AF8011C201C01F0F2F90226051C48E7291C214801F0EBF90326D5
:403C4000051C41E7FE21890501F008FDFE21041C8905281C01F062F8011C201C01F0DAF90126051C30E7C046FFFF7F50DB0FC93FFFFFDF3EFFFFFF30D769853C59DA4B3DB7
:403C8000356B883D6E2EBA3D2549123EABAAAA3E21A215BD6BF16E3D95879D3D388EE33DCDCC4C3E8C7300009C730000CAF24971FFFF973FFFFF2F3FDB0FC9BFFFFF1B40E7
:403CC000000080BF00B51D4A430083B0011C5B08934217DD1A4A934203DD01F0BFFC03B000BD694600F032F803231840012816D002280BD000281CD000980199012200F0C1
:403D00000DFEECE7002100F0ABF9E8E70098019900F0A6F980231B069C466044DFE701990098012200F0FAFD80231B069C466044D5E70098019900F093F9D0E7D80F493F3A
:403D4000FFFF7F7F400040087047C046F0B55F46564644464D46F0B442005708B24A89B0031C0C1C061C97426FDDB04A97421BDCAF49002B00DC0BE101F070FC0F233A1C5D
:403D80009A43AC4B051C9A4200D170E0AA4901F065FC011C2060281C01F060FCA64901F05DFC6060012054E0A44A974200DC70E0A34A974254DC862252429146FB15994467
:403DC0004B46DD057D1B281C01F0C6FD01F0E4FD011C0590281C01F041FC8721C90501F00BFB804601F0B8FD01F0D6FD051C0690291C404601F032FC8721C90501F0FCFA2F
:403E00000021079000F05CFF002800D1D8E0281C002100F055FF0222431E9841131A02220092884A05A80192211C4A4600F0E2F9002E0EDA802212069446236840426344DC
:403E4000236063686344636003E00023206000204B6009B03CBC90469946A246AB46F0BD191C01F0FBFB606020600020F1E7764901F0F4FB7549051C01F0F0FB011C206002
:403E8000281C01F0EBFB714901F0E8FB60600120DFE7FFF757FF6E49804601F0ADFAFC21890500F03BFF01F057FD051C01F074FD5F49814601F0A0FA011C404601F0CEFB5D
:403EC0005D498046484601F097FA824640461F2D25DCFF233A1C5F499A436B1E9B005B589A421CD0514601F0B9FB83465B4623605946404601F0B2FB514601F0AFFB031CD2
:403F00006060281C002EA4DA802212065A44226080221206944663446360684299E7514601F09CFBFB15FF211A1C0293C30D0B408346D31A082BD9DD4349484601F05CFA9A
:403F4000071C391C404601F089FB031C191C03904046984601F082FB391C01F07FFB3B49071C484601F048FA391C01F077FB82464046514601F072FBFF22C30D1340029A12
:403F80008346D31A192B30DC039B20609846AFE700F0C4FE0F233A1C9A43264B051C9A4210D0254900F0BAFE011C2060281C01F055FB214900F0B2FE60600120404248E730
:403FC00003232CE7204900F0A9FE2049051C00F0A5FE011C2060281C01F040FB1B4900F09DFE60600120404233E71B49484601F003FA039B071C391C181C9A4601F02EFBCE
:4040000080465046414601F029FB391C01F026FB1249071C484601F0EFF9391C01F01EFB824640465EE7C046D80F493FE3CB1640800FC93FD00FC93F43443537800F494345
:40404000FFFF7F7F2C7400000044353708A3852E84F9223FAC73000000A3852E32318D24F8B54F464646584B4500C0B46D08061C0F1C9D4248DC01F06FFC002800D19FE06C
:40408000311C301C01F0B8F95049041C01F0B4F94F4900F043FE211C01F0AEF94D4901F0DDFA211C01F0A8F94B4900F037FE211C01F0A2F9494901F0D1FA211C01F09CF910
:4040C000474900F02BFE211C01F096F98046FC21201C890501F090F94146051C201C01F08BF9391C041C301C01F086F9011C201C01F0B4FA011C281C01F0B0FA011CFE207A
:40410000800501F0ABFA53E0311C01F075F92F49041C01F071F92E4900F000FE211C01F06BF92C4901F09AFA211C01F065F92A4900F0F4FD211C01F05FF9284901F08EFA51
:40414000211C01F059F9264900F0E8FD211C01F053F9244B80469D42B9DD234B9D422BDCFF231B069C46FE2065448005291C01F075FA8146FC21201C890501F03DF9291CD3
:4041800001F06CFA4146051C201C01F035F9391C041C301C01F030F9011C201C01F05EFA011C281C01F05AFA011C484601F056FA0CBC90469946F8BD0C4B0D4D9946D9E714
:4041C000FE208005F4E7C046FFFFFF314ED747ADF6740F317CF29334010DD037610BB63AABAA2A3D9999993E0000483F0000383F0000903EF0B5564644465F464D46F0B46C
:40420000DDB00190181C069166990893C04B8900C958031C013B181C0093D31E0C1C0591D917490FCB18DB10191CDB43DB171940CB43DB009B180A9104930E1A071919D4BE
:40424000679A01379046B300BF009844002520AC08E04346585901F09FFB605104350136BD4207D0002EF4DA0020605104350136BD42F7D1059B002B00DA3DE3059B0133AF
:404280009B009946089B9B009B460023984648AB9A465B46043B0293009B002B00DA31E2029B002543441C1C20AB9C464346019E1F1F64446744216801CE01F09DF8011C87
:4042C000281C00F02BFD043C051CBC42F3D1534642469D5004239C46E044C845DCD18D4A059D94462B1C63449B000CA91A1C8C46D14604336244634409920B93AB009A4652
:404300004B4652469E58002D27DD0CAB9846824BEC184346A8461D1CA4004C44EE21301C890501F069F801F017FB01F035FB8721C905071C01F060F8011C301C01F08EF9C1
:4043400001F00AFB216801C5381C00F0E7FC043C47AB061C9C42E1D14546049B301C191C984600F0A3FBF8218905041C01F044F800F04EFB8221C90501F03EF8011C201CB8
:4043800001F06CF9041C01F0E7FA071C01F004FB011C201C01F062F94446061C002C00DC92E108216A1E92000CAB9B58081B191C01417F1881405B1A0CA98B500722121B9C
:4043C00013410293029B002B34DD0137002D00DC90E2802252000CAB00210024FF20944609E0002A03D06446A21A01241A60013104338D4209DD1A68002CF2D0821A013118
:404400001A60012404338D42F5DC049B002B0EDD012B00D162E1022B09D16B1E9B000CAAD25803923F2203990A400CA9CA50029B022B73D0301C002100F042FC002800D1BA
:4044400086E0059B691E8B420FDC0CAA94460022314B0B98EB189B0063441C68043B22438342FAD1002A00D0AAE1059B0CAA013B9B00D358002B00D03AE20122099B043B2F
:40448000596801320029FAD0AA186B1C079293423ADC009AD718089BFF1A20AB9C46079BBF005B1B9B0003930A9B67449C466544AB00029300239846679A029B9446434433
:4044C0006344586801F068FA5B46F850009B002B1CDB5B460025019EFC18216801CE00F08BFF011C281C00F019FC043C051CBC42F3D1434653444B445D6004239C46039B75
:40450000E04404379845D7D1079DF7E60025F0E744770000FEFFFF3FFFFFFF3FFE20311C800501F09BF8061C002C00D182E7FE200499800500F0BAFA011C301C01F08EF828
:40454000061C301C002100F0BBFB002800D078E75346CA469946049B301C59420797009500F0A4FA8721C905041C00F0CDFB002800D1C7E1EE21201C890500F03DFF01F0FB
:40458000EBF901F009FA8721C905051C00F034FF011C201C01F062F801F0DEF94A460CAB9850009B049A01330832281C9C000093049201F0D1F90CAB1851FE200499800503
:4045C00000F074FA009A061C131E00DAB4E0013398469B005B420CA999468C4693001A1C019363441C1C131C53441F1C0025605901F0D2F9311C00F0FFFEEE2178518905DB
:40460000301C00F0F9FE043D061C4D45EFD134AB9B46C04BB9469A4643460393059B002798464346002B00DA84E0002F00DA81E03B1C00264F4600250024994602E0043573
:404640004C450CDC53467959585900F0D5FE011C301C00F063FB0134061CA045EFDA4B46B9461F1C5A46BB00D65004235B429C46039B0137E144BB42D3D1669B022B00DD8D
:40468000D9E0002B00DDBBE014D1019B00205B441C1C216800F042FB009B043C5A1E0092F7D2029B002B03D080231B069C466044069B18600720079B18405DB03CBC9046C8
:4046C0009946A246AB46F0BD049B002B11D16B1E9B000CAAD3581B12029373E66B1E9B000CAAD25803927F2203990A400CA9CA509DE6FC21890500F007FB00280DD1002351
:40470000029397E65346424600259D5004239C46E044C84500D0BFE5E1E5022301370293002D00DD55E6FE20311C800500F096FF061C7FE6002695E7669B022B27DC002B8F
:4047400003DC0020002BACD0B4E7029B0021002B66D08023069A1B06CB181360349800F07DFF009B002B0BDD012435AD02CD00F0D5FA009B0134A342F8DA029B002B03D082
:4047800080231B069C466044069B586092E734AB9B46669B032B00D08CE7029B0020002B00D19CE0802212069446349B069A634413605B465B68604463445360906079E7A7
:4047C00007970F1C049B0A1C083B00910493191C0CA8BB00C358CA46002B00D0EDE64E483B1C84460CA8634484469B006344043B5868013A08390028F9D000920491DCE6B0
:40480000019B00215B441C1C33AD081C2168043C00F084FAAC42F9D1029B011C002B98D1069B3498196000F019FF009B002B9BDC069B58603EE7669B032B00D03AE7009B3F
:40484000002BAADD5B46019A9E58334A009B944663441C1C9D0033AB9A46A0465D442C68301C211C00F05AFA071C391C201C00F0F5FE011C301C00F051FA043DA8606F60ED
:404880003E1C5545EBD1009B4446012B85DD5B46A400A046019A1D199E582C68311C201C00F03CFA071C391C201C00F0D7FE311C00F034FA043DA8606F603E1CAB45ECD15D
:4048C0004446002004345C4435AD2168043C00F025FAAC42F9D1029B002B00D062E7069B349A98601A605A46526800925A60E1E60122C9E5002488E5089B9B009B4648AB21
:404900009A46ECE4201C01F027F84A460CAB985053E6C04650770000FFFFFF3FF8B54F4646469046334A4300C0B4041C0F1C5B08934205DC01F010F8031C201C002B46D039
:40494000211C201C00F058FD211C051C00F054FD2949061C281C00F04FFD284900F07EFE291C00F049FD264900F0D8F9291C00F043FD244900F072FE291C00F03DFD224922
:4049800000F0CCF943468146002B24D0FC21381C890500F031FD49468046301C00F02CFD011C404600F05AFE291C00F025FD391C00F054FE1549051C301C00F01DFD011C31
:4049C000281C00F0ABF9011C201C00F047FE0CBC90469946F8BD4946281C00F00DFD0B4900F03CFE311C00F007FD211C00F096F9EDE7C046FFFFFF31D3C92E2F342FD7326A
:404A00001BEF3836010D50398988083CABAA2A3EF0B54746430080B45F081B0E7F3B051C1C1E162C18DC8046002B1EDB1B4F061C1F4107420CD01A4900F070F9002100F009
:404A400059F9002804D0002D1DDB4346BB431E1C301C04BC9046F0BD124B061C9F42F7D9291C00F05BF9061CF2E70D4900F056F9002100F03FF9002803D0002D09DB0026AF
:404A8000E6E72E1CE4E780231B0423419846A844DBE7002FF5D0044EDAE7C046FFFF7F00CAF24971FFFF7F7F000080BF430070B50D1C041C5E08011C002E10D027488642AE
:404AC0000FD827498E4211D9211C1B0E5B19FE2B29DC002B18DD234CDB0521401943081C70BD201C00F01AF9011CF8E79821201CC90500F081FC1C4B041C9D421CDB430015
:404B00001B0E011C193BE1E71A1C163219DA174B9D4208DC211C164800F02EF8144900F06BFC011CDBE7211C124800F025F8114900F062FC011CD2E70D4900F05DFC011C5B
:404B4000CDE7084819330140DA050A43CC21101C890500F051FC011CC1E7C046FFFF7F7FFFFF7F00FFFF7F80B03CFFFF50C300006042A20DCAF249714000C90FC90740085F
:404B800008437047002243088B4274D303098B425FD3030A8B4244D3030B8B4228D3030C8B420DD3FF22090212BA030C8B4202D31212090265D0030B8B4219D300E0090A1D
:404BC000C30B8B4201D3CB03C01A5241830B8B4201D38B03C01A5241430B8B4201D34B03C01A5241030B8B4201D30B03C01A5241C30A8B4201D3CB02C01A5241830A8B420B
:404C000001D38B02C01A5241430A8B4201D34B02C01A5241030A8B4201D30B02C01A5241CDD2C3098B4201D3CB01C01A524183098B4201D38B01C01A524143098B4201D37E
:404C40004B01C01A524103098B4201D30B01C01A5241C3088B4201D3CB00C01A524183088B4201D38B00C01A524143088B4201D34B00C01A5241411A00D20146524110468C
:404C80007047FFE701B5002000F00CF802BDC0460029F7D003B5FFF775FF0EBC4243891A1847C0467047C0468446081C6146FFE71FB500F05BFB002801D40021C8421FBD09
:404CC00010B500F0DFFA4042013010BD10B500F04DFB002801DB002010BD012010BDC04610B500F043FB002801DD002010BD012010BDC04610B500F0EFFA002801DC002027
:404D000010BD012010BDC04610B500F0E5FA002801DA002010BD012010BDC046F8B54A00430244004E02C50F240E281C9B09120EC90FB7098D4240D0A01A002800DC84E0C3
:404D4000002A1CD1002F5CD15A0704D00F221A40042A00D004338022D2041A40281C002A24D00134FF2C00D17BE09B015B0AE4B25B02E4055B0A2343C0071843F8BDFF2C61
:404D8000E2D08022D204174301261B2808DC391C20223E1CC140101A8640771EBE410E439B1B5A0133D4281C5A07CFD1DB08FF2C1ED05B025B0AE4B2DAE7A11A002957DDD0
:404DC000002A3AD0FF2CBFD08022D204174301261B2972DD9B195A01E5D50134FF2C00D187E001218A4A194013405B080B43ABE7002B36D08022D20313435B025B0AFF2410
:404E0000B6E7013800283FD1DB1B5A01CBD59B019E09301C02F00EF805388640844223DC001B1F24321C431C201ADA408640131C741EA6410024334386E7002F00D183E7E6
:404E40000139002950D1DB19C5E7002820D1621CD2B2012A5EDDDE1B720128D5FE1A0D1CD7E7FF24002383E7694B241A33406BE7002958D1621CD1B201293CDDFF2A37D0F8
:404E8000FB185B08141C5FE7FF2C00D07CE75BE7002C1ED0FF2A23D08024E404404223431B285BDD0123FB1A141C0D1CADE7002EAFD100230020002478E73A1CCA4094466D
:404EC00020223E1C511A8E406246771EBE41164380E7002B3ED0C0430028E4D0FF2ADFD13B1CFF240D1C2FE7FF2C00D06FE72BE7FF2400235AE7002C5AD1002B7FD0002F4D
:404F000000D121E7DB195A0100D44CE7404A0134134019E7002C15D1002B2FD1002F5DD03B1C0D1C10E7002C21D1002B53D0C943002904D0FF2A4BD01B2957DD0123DB19D7
:404F4000141C48E7002B22D1002F4AD03B1C0D1CFF24F9E63B1C141C0D1CF5E61D1C2024C540201A8340581E83412B439BE7FF2A2ED08024E40449422343DDE7002F00D14D
:404F8000E2E6DA1B50013CD5FB1A0D1CDCE6FF24002F00D1D8E68022DB08D203134204D0FE08164201D1331C0D1CDB00FF24CBE6002B0DD0FF24002F00D1C5E68022DB08BC
:404FC000D2031342F1D0FE081642EED1331CECE73B1CFF24B8E63B1C141CB5E6231C0020E4E6802300209B04FF24DFE61E1C2024CE40611A8B40591E8B4133439FE73B1C72
:40500000A2E6131E00D0CEE600230020CEE6C046FFFFFFFBF0B556464D465F464446F0B443024500C70F83B08A465C0A2E0EB94641D0FF2E26D080231B042343DC00002338
:4050400098469B467F3E53465B025D0A53465A00DB0F120E9A4639D0FF2A33D080231B042B43DD0000237F3A5146B21A46467940081C01921E430F2E00D976E07E4AB600B2
:405080009659B746002C30D108239846063B9B46D9E780230021DB03FF245B02E4055B0AC90723430B43181C03B03CBC90469946A246AB46F0BD002C28D104239846033B76
:4050C0009B46C0E7002D1FD1022302E0002D11D10123B21A50464646784001921E430F2E27D86649B60089598F460C239846093B9B46A8E7281C01F09DFE7622431F5242C0
:405100009D40121A0023AFE70323ADE7201C01F091FE431F9C4076235B421E1A002398469B4690E70025D1469B465B464846022B6FD10121FF2401400023AEE77E23019AFF
:405140005B429B1A1B2B6DDD01214B46194000240023A2E78023DB031C4249D18023DB0323435B025B0A391C96E763016D01AB4237D389461A2001215B1B01241E1C4900EB
:405180005B00002E01DBAB4201D35B1B214301380028F3D1581E83410B431D1C019C7F34002CCBDD6B0704D00F232B40042B00D004352B0104D5019A314B8032141C1D406F
:4051C000FE2C07DD4B460121FF241940002364E7251CAAE701214A46AB015B0AE4B211405BE7019A8946013A01921B200021C4E71D4207D023435B025B0A391C4CE70025FC
:405200006302ABD58023DB032B435B025B0A514642E7032B25D0012BC0D101210024014000233AE7291CD9402B1C019A9E3293405D1EAB410B435A0704D00F221A40042AE7
:4052400000D004335A0105D54B46012101241940002322E701214A469B015B0A114000241BE7802301214A46DB032B435B020A405B0A111C10E7C0467C770000BC7700006E
:40528000FFFFFFF7430270B542004C005D0AC30F4802120E460A240EC90FFF2A05D0FF2C08D00120A2420BD070BD0120002DFBD1FF2CF6D10120002EF6D10120A242F3D10C
:4052C000B542F1D18B4205D0002AEDD1281C431E9841E9E70020E7E7F0B543024D024A0044005E0A240EC30F6D0A120EC90FFF2C0DD0FF2A31D0002C0DD177427741002AB6
:4053000023D1002D21D10020002F0BD107E0002E28D1FF2A21D0002A05D08B4207D0584201231843F0BD002DF9D08B42F7D19442F5DC04DBAE42F2D80020AE42F2D2584265
:40534000434101205B421843ECE7002FE5D048424141012049420843E4E7002D02D1002CCBD0DAE702204042DCE7C0464302F0B542004C005E0AC30F4802120E450A240E79
:40538000C90FFF2A0FD0FF2C1AD0002A10D177427741002C29D0002F17D0484241410120494208430BE00220002E08D1FF2C07D0002C0AD1002D08D1584201231843F0BD55
:4053C0000220002DFBD1002AE1D08B42F4D1A242F2DC04DBAE42EFD80020AE42EFD25842434101205B421843E9E7002DD3D10020002FE4D1E0E7C046F0B55F4656464D46EA
:405400004446F0B445024600C40F83B00F1C6D0A360EA34645D0FF2E25D080231B041D4300239A46ED007F3E01937B025B0A98467800FB0F000E994640D0FF2838D0802331
:4054400042461B041343DB00984600237F384A46019F30186240411C1F430F2F69D87D4EBF00F659B746002D45D108230193063B9A46DAE793465346022B2FD15B46012425
:4054800000251C40FF236D02DB056D0AE4071D432543281C03B03CBC90469946A246AB46F0BD002D2CD104230193033B9A46BCE743465A4253410322D31AC8E742460123DA
:4054C000002AC4D0404601F0B5FC4246431F9A4076235B42181A90460023B8E7032B00D1ADE0012B00D08CE05B4654461C40E4B200230025C7E70C230193093B9A4694E789
:40550000281C01F097FC7626431F9D4000237642361A01939A4688E780250024ED03FF23B1E74546CB469A46A5E7454693469A46A1E743462C041B0C9C46230C44462604CE
:405540001C1C360C2F0C7443351C66467D4373437743EB18260C9E19B54203D980235B029C46674424043304240C1B199D016C1EA5419B0E360C2B43BD19AD011D432B010C
:4055800004D5012368081D400543081C031C7F33002B2CDD690704D00F212940042900D00435290103D52C4B1D40031C8033FE2B17DD0124FF231440002564E78020C0036A
:4055C000054209D04346034206D1454605436D026D0A4C46FF2356E705436D026D0AFF2351E70124AD016D0ADBB214404BE77E235B421B1A1B2B07DD0124002314400025F9
:4056000041E7081C5A46C1E79E30291C8540D940681E85410D436B0704D00F232B40042B00D004356B0104D5012401231440002529E70124AD016D0A1440002323E78023A9
:40564000DB031D4301245B466D0223401C1C6D0AFF2318E7FC770000FFFFFFF7F8B54A00430244004D02C00F240E061C9B09120EC90FAD09FF2A00D175E0012779408842DF
:4056800050D0A01A002800DC8FE0002A1ED1002D00D075E05A0704D00F221A40042A00D0043380220120D2041A403040002A32D00134FF2C00D184E09B015B0AE4B25B0225
:4056C000E4055B0A2343C0071843F8BDFF2CE1D08022D20415431B287ADD01255B1B5A015DD59B019F09381C01F0A4FB05388740844269DC001B1F243A1C431C201ADA4012
:405700008740131C7C1EA74100243B43C2E7131E45D100230020DB08FF2C28D05B025B0AE4B2CCE7A11A00295BDD002A2ED0FF2CB0D08022D20415431B2974DC2F1C20222B
:40574000CF40511A8D40691E8D413D435B195A0125D50134FF2C74D001217E4A194013405B080B4396E7002D00D088E785E7002B27D08022D20313435B025B0AFF249EE7AB
:4057800001380028AAD0FF2CA5D183E7002D00D180E701390029D9D0FF2CCDD17AE75A0700D079E701203040B5E7002825D1621CD2B2012A55DD5F1B7A012DD5EF1A0E1C03
:4057C00091E7FF2400237AE7624B241A3B4061E7291C2022C140101A8540681E85410D437CE7002946D1621CD1B201292BDDFF2A26D0EB185B08141C4CE7002C15D0FF2AD1
:405800001AD08024E404404223431B284DDD0123EB1A141C0E1C62E7002F00D063E700230020002477E7012590E7002B39D0C0430028EDD0FF2AE8D12B1CFF240E1C29E784
:40584000FF24002367E7002C5AD1002B7FD0002D00D11FE75B195A01A1D53E4A0134134018E7002C15D1002B2FD1002D5ED02B1C0E1C0FE7002C21D1002B54D0C9430029CA
:4058800004D0FF2A4CD01B2958DD01235B19141C5DE7002B23D1002D4BD02B1C0E1CFF24F8E62B1C141C0E1CF4E61E1C2024C640201A8340581E83413343A9E7FF2A2FD00D
:4058C0008024E40449422343DDE7002D00D1E1E65A1B500100D41AE7EB1A0E1CDAE6FF24002D00D1D6E68022DB08D203134204D0ED08154201D12B1C0E1CDB00FF24C9E67C
:40590000002B0DD0FF24002D00D1C3E68022DB08D2031342F1D0ED081542EED12B1CECE72B1CFF24B6E62B1C141CB3E6231C0020F1E6802300209B04FF24ECE61F1C2024DE
:40594000CF40611A8B40591E8B413B439EE72B1CA0E6C046FFFFFFFB4202510A4200C30F120E00207E2A0DDD9D2A0CDC802000040143952A0ADC9620821AD1400A1C5842DD
:405980004240D0187047034A9818FBE7963A91400A1CF4E7FFFFFF7F70B5041E39D0C50F00D04442201C01F045FA9E23261C1B1A962B07DC082801DD083884406402640A21
:4059C000D8B21EE0992B0ADD0522211C121AD1400A1C011C1B318E40711E8E411643052801DD421F96400F4C3440720704D00F221640042E00D0043462010ED4A401640A48
:405A0000D8B26402C005640AED0704432C43201C70BD002500200024F3E7024B1C409F231B1AEBE7FFFFFFFBF0B5454657464E4694464C000A03C90FE0B488460E1C19036F
:405A4000470FC500480A6146490F01436046520A1743C0005A00640D520DDB0F8446984500D1A7E0A01A002800DC01E1002A3DD163460B4300D0D4E06B0700D188E00F2317
:405A80002B40042B00D183E02A1DAA42AD4180236D427F191B043B404646151C002B00D17CE0CC4B01349C4200D1FDE03A1CCA4BED081A405007640552020543120B640DE2
:405AC000002112030B0D1B056405120B1A436308C24CF60714401C43640064083443281C211C1CBC90469946A246F0BDB94B9C42C2D080231B041943382800DDECE01F2860
:405B000000DD21E120220E1C6346121A9640C340334366469640321C561EB24113430A1CC240EB1A9D42B6411D1CBA1A7642971B3B0200D497E07A02560A002E00D1B6E0F6
:405B4000301C01F077F9031C083B1F2B00DDB7E09E40371C28262A1C361AF240161C9D403E439C4200DDB2E01C1B621C1F2A00DDD8E01F23291C1C1B331CA540A340D140BB
:405B80006C1EA541D64019430D43371C002473E780231B043B40464600D082E78D4BED0878070543FA089C4232D012036405120B640D85E7A31A002B00DC94E0002A3CD084
:405BC000844A944200D157E7802212041143382B00DC05E163461943481E81410022C8B24019A8429B41051CD2195B42D7183B0239D5784B01349C4200D14CE10120764A41
:405C00006B083A4028401843D5070543570833E72B1C134348D080231B031A431203120B4EE70138002878D16346EE1AB5429B417A1A5B42D71A351C7AE7021C0A4300D19F
:405C40001AE7013B002B00D0F2E04019A8429B41CA195B42D718051CC9E7131C334300D118E1171C351C46466B0700D007E795E700287AD1621C5205520D012A00DCFBE007
:405C80006246AA1A9542B6419146781A7242861A320200D493E06246551BAC458041CF1B40423E1A984648E70022002508E7281C01F0C0F82030031C083B1F2B00DC47E7AE
:405CC000283885402E1C00259C4200DC4CE7424AE41A1640371CCFE6634619434B1E99410022CBB21DE7002B00D0F2E0601C43055B0D012B00DCA4E0364B984200D121E19D
:405D000063465C19AC429B41CF195B42FA186408D50725435708041CAEE62E4B9C4200D0EAE6A9E6211C331C1F39CB40191C202A00D182E03F231C1BA64035436E1EB54181
:405D400000270D4300248EE7031C0E1C203BDE40202874D040231B1A99400B1C62461343591E8B4100223343DBE6002C50D0194CA24200D1A8E0802424044042274338288D
:405D800000DDD9E01F2800DD39E120243E1C241AA640B0462E1CA146C640444626434C46A5406C1EA541C74035436046451BCF1BAC45894149427F1A141C9846B8E64B46BB
:405DC0004D46334300D0B8E60026002700240025E4E6C046FF070000FFFF7FFFFFFF0F801F2B5BDC2022081CD21A9040814660469246D8404A4610438146524660469040FF
:405E0000021C501E8241484610430A1CDA40E7E63C1C2C4358D0C043002851D16046451BAC458041CF1B40423F1A141C98467FE68F4A944200D0CAE61EE600267DE7002319
:405E40008CE73B1C2B43002C00D0BDE0002B00D1F5E063460B4300D10EE663465B19AB428041CA19404217183A0200D4FCE0814A1D1C17400134FFE53A1C2A43002C51D1F4
:405E8000002A00D085E062460A4303D00F1C65469846F1E50026002700257FE6181C0A1C2038C240202B00D1A7E04020C01A8140081C63461843411E8841104300228FE6CE
:405EC0006B4CA24200D05AE70F1C6546141C9846D2E5002C3AD1381C284371D0DB43002B18D0634882426BD0382B00DD9DE01F2B00DDA7E020203C1CC01A8440A1462C1C79
:405F00008246DC404846044350468540681E8541DF402543654465459B417F185B42FF18141C64E6002A19D162460A4377D00F1C654698464E4C9FE53D436F1EBD41002732
:405F4000EDB232E7041C0027002527E64848824236D0802000045B420743C5E762460A4349D08024ED087807FA0824032843224209D0CE08264206D162464F07381CD20827
:405F800010439846321CD200470F1743C500384C72E562460A4300D16EE56246AE1AB5429241781A5242821A100200D455E66246551BAC458041CA1B4042171A98465BE58A
:405FC0000F1C6546141C57E5002B34D063460B4311D08024ED087807FA08240328432242D1D0CB082342CED162464F07381CD20810431A1CC7E71E4C3EE5002059E7041C60
:406000003E1C203CE640341C20282BD04026301A87403D436F1EBD4100272543C5E680270026FF03124C0025B8E53D436F1EBD410027EDB26EE70F1C65460D4C1CE50F1CC5
:40604000654619E51C1C381C203CE040041C202B0CD04020C31A9F403D436F1EBD410027254357E70027D4E71D1CFCE50027F3E7FF070000FFFF7FFFF0B55F4656464D463C
:406080004446F0B40F0387B098464D003B0BCC0F061C924681469B466D0D01946BD0664B9D4235D080275B467F031F43F3009946624BFF00400F9C4607430023BB4600262D
:4060C00065440093424617035000D20F53463F0B400D904600D172E0574A904267D080235B031F435346554A5B0FFF001F43944653460021DB0060444246624092462D1AFC
:406100000E430F2E00D9A1E04D48B600805987465B461E4300D076E000239B469946023308260093CEE799464346BB4601930091009B022B6BD1019B9A46002153460122E5
:40614000002789461A403C4B00213F030C0D24053F0B27433B4C1B0527401F437F00D2077F0817434846391C07B03CBC90469946A246AB46F0BD03433ED05B46002B00D188
:406180009CE1584600F056FE2823311C1B1A021C5F46D940083A97400B1C96403B439B46B1460023284D00262D1A00938AE7524603213A43A0D10027002302219CE7524630
:4061C0003A4315D0002F00D185E1381C00F032FE021C28215046891A131CC8405146083B99409F400B1C074317480021801A83E70027002301217FE700239B46994601331C
:40620000042600935EE703230C2600935AE7032B00D13CE2012B00D0BFE11A1C019B1A4000210023002789468EE700238027994600223F03004B87E7FF07000001FCFFFFD5
:406240003C780000FFFF0F800DFCFFFFBB4500D951E100D14CE14A46039200225C469046013D180E3F0238431B020193030C994603041B0C4946061C201C1F1C0093FEF771
:4062800081FC021C7A4302904946201C171CFEF7FFFC039B09041B0C19438F420CD9029B8919013B8E4200D952E18F4200D84FE1029B8919023B0293CC1B201C4946FEF73A
:4062C00061FC009F834647434946201CFEF7E0FC039A0B041404240C23439F420DD95A469B19013A9E4200D930E19F4200D82DE10222524294469B19E344029ADB1B170458
:406300005A463A439346019C170C220C101C04925A4611042204120C141C090C7C4305924A43414347436118100C09188C4203D980204002844667440C0C12040804120C79
:406340003C198118A34200D2E5E000D1DFE01F1B43465C1AA04592415242BF1AB74200D10EE1381C4946FEF70DFC009B029043434946381C9846FEF78BFC230C0F041F4397
:40638000B8450CD9029BBF19013BBE4200D9FBE0B84500D8F8E0029BBF19023B02934346FF1A4946381CFEF7EDFB009B039043434946381C9846FEF76BFC24040904240C0A
:4063C000214388450CD9039B8919013B8E4200D9DCE0884500D8D9E0039B8919023B03934346C91A029B039A1B04059C1A43100C13049146221C049F1B0C5A4344437B437E
:406400007843E318170CDB199C4203D980246402A44660441C0C12041B04120C00199B18814200D296E000D1FCE04A4601231A4391469B4BEB18002B00DC99E04A46520704
:406440000AD00F2249460A40042A05D00431494592418946524293445A46D20106D55A46904B1A4080239346DB00EB188E4A934200DD62E64A465946D208490711435A46C9
:4064800089465702514601225B053F0B5B0D0A405AE680205A460003024208D0074206D107433F0399463F0B4246804B4CE65F4607433F033F0B221C7C4B45E600F0BAFC54
:4064C000031C2030272800DC5EE6083B9E400023B346994665E6504600F0ACFC021C2032272A00DC75E657460838874000237BE6994500D2AFE65A46594654084A46C807CA
:406500005208024303924A46D2079046A9E60027884500D31CE7019F5A46BC46E044B845BF417F42BF19FF18013ABE4206D2BC425FD800D19FE03F1B934609E7B742FAD1FD
:40654000019B4345F3D9371B934601E79346D4E60293B1E64A468919013A8E4218D99146814200D061E7019A9A4200D05DE760E74F4F7F1B382F13DD012253461A404FE6CD
:4065800001235B42994654E7029308E7039327E788423CD874D0914647E7019B9A4648E71F2F44DC434B4A469C465B466544FA40AB4013434A46AA40151C6A1E95415A462A
:4065C000FA402B43171C5A0709D00F221A40042A05D01A1D9A429B415B42FF18131C3A023ED55346012200211A40002701238946AAE502235B429C46019AE3449446E04493
:4066000090459B415B429B19DF193F1BA0E6019F4A467C00BC42BF417F42BF19023AC91901949CE7002B95D1002201929BE75A46214B5B1BDA40202F27D0204B9C465B466F
:406640006544AB4049460B43591E8B411343072200271A4007D00F2200271A40042AB8D17A077F023F0BDB0813439946012253461A40002368E54145BBD89346002767E6D6
:40668000019C9C42C3D391466DE70023DAE780275B463F031F433F033F0B019A034B53E5FF030000FFFFFFFEFE070000FF07000002FCFFFF1E040000E2FBFFFF3E040000DE
:4066C000F0B55F4656464D464446F0B4051C061C080387B099464F00030BCC0F92469B467F0D019467D06C4B9F4236D080205B4640031843C0006B0F1843684B83469C46D6
:4067000000239846EE00674400934B4649461D03C90F5B0052462D0B5B0D894600D16EE05D498B4264D080205C4940038C4600210543ED00500F0543D20063444846FF1877
:406740007B1C9A46009B604002900B430F2B00D9ACE053489B00C3589F465B461D4300D082E00823009300239B46023300269846CBE7029B01934346022B59D10124002577
:406780000026019B1C40444B00212D030A0D12052D0B1543434A1B0515401D436D00E4076D082543301C291C07B03CBC90469946A246AB46F0BD2B434ED05B46002B00D1E2
:4067C00085E1584600F036FB021C2823291C9B1A161C5846D940083EB0400B1CB54003439B462E1C0023304F0093BF1A98468CE7514629432ED10025002202219EE751467E
:40680000294323D0002D00D154E1281C00F012FB031C28215046C91A1A1CC8405146083A914095400A1C05431F480021C31A85E7032B00D1C2E1012B00D06DE14446019B96
:4068400000251C40E4B2002300269DE700250022012173E7032171E70423009300239B4601330026984650E70C230093093B98464BE7802500242D030026074B84E74B4645
:40688000AB46161C0193884675E7029BAB46161C019388466FE7C046FF07000001FCFFFF7C780000FFFF0F800DFCFFFF330C3604360C9C46331C140C1204120C534398463C
:4068C000634653439946634663430193331C41466343090C4B445B18994505D9802040028146019949440191190C039141460904090C1B045B1804932B0C9846331C2D04C6
:40690000290C4B43604600934346654658435E43009B4D431B0C9946AE194E448446B54203D980235B029946CC44350C2B1C0398634484460593009B36041B041B0CF31883
:406940009C446046039058460504060C280C84465043351C81466046654344434846000C8346724314195C44A24203D98022520293465D44220CAD184A461204120C2404D3
:406980004046A41862464A437143464360460096464670438046100C84468844E044414505D9802149028C46009961440091019803998446614499429B415B4299460598A7
:4069C000434684461204120C1B049B1863449C46AB4683429B4140460A19CC44A2428941E344CC45B6415C46000C8046494276425B426418334398448C428941AB459B4107
:406A000049425B4219430D1C009B4544EE187602E50D2E43B346049B56021E43731E9E415B46D20D324366021643DB010AD50123334076081E435B46DB071E435B465B0814
:406A40009B465746634BFB18002B5ADD720709D00F223240042A05D0321DB242B6417642B344161C5A46D20106D55A465A4B1A4080239346DB00FB18584A934234DD01245E
:406A8000029B00251C400026554B7DE680205B460003034208D0054206D105432D032D0B4C46161C4E4B6FE65D4605432D032D0B4B4B69E6504600F0BDF9031C2033272B76
:406AC00000DCA6E65546083885400022ACE6281C00F0B0F9021C2032272A00DC75E6083885400026AB467DE65A46F608520716435A4601245502029A5B052D0B5B0D14402A
:406B000042E6384DED1B382D0ADD0124029B00251C400026002337E6019B5746029391E71F2D25DC304B321C9C466744BE405B46BB40371CEA407E1EB74113433B431E1C09
:406B40005B46EB401D1C730709D00F233340042B05D0331DB342B6417642AD191E1C2B0220D50124029B00251C40002601230BE65A461E4BDB1BDA40131C202D1CD01C4A99
:406B800094465A466744BA40171C3E43721E96411E4307230025334007D00F2300253340042BD6D16B076D022D0B0124F6081E43029B1C400023E7E50027E6E780255B4642
:406BC00001242D031D43019B2D0323401C1C2D0B034BD9E5FF030000FFFFFFFEFE070000FF07000002FCFFFF1E040000E2FBFFFF3E04000038B5041E16D0C50F00D04442D3
:406C0000201C00F017F9174B1B1A0A2821DC021C211C153291400A1C0B21081AC4405B052403240B5B0D03E000250023002400220021101C24030A0D1205240B14430A4A5C
:406C40001B0514401C436400ED0764082C43211C38BD0B3884405B052403240B5B0D0022E6E7C0461E040000FFFF0F804200120E511C38B5C9B243025D0AC40F012915DD41
:406C8000E02189008C466D071B0B62440021281C0D0D2D052B431C4D52052B40520813435B00E4075B082343191C38BD002A15D1002D1FD0281C00F0BDF80A281DDC0B2397
:406CC0002A1C1B1ADA40131C021C153295400F4A1B03121A52051B0B520DD7E7002D06D080221B0B120313436D07094ACEE7084A0023CBE700220023C8E7031C0B3B9D404A
:406D00002B1C0025E3E7C046FFFF0F8089030000FF07000070B50B034D00440F6D0D5B0A23436C1C6405C90FC200640D012C2ADD3B4C2C19FE2C1ADC002C35DD8001451EA2
:406D4000A841DB000343520F13435A0704D00F221A40042A00D004338022D2041A4027D00134FF2C03D09B015B0AE4B201E0FF2400235B02E4055B0A23435B00C9075B0804
:406D80000B43181C70BD002D06D113430ED100245B025B0AE4B2ECE71A43E8D08020DB0080040343FF24D0E717340CDA05230024DB08FF2CECD1002B2DD08022D20313432B
:406DC0005B025B0AD5E78024164824042343401B1F280DDC144CA4466544AB401C1C131CAB405D1EAB41C240234313430024ACE71E1C0E4C641BE640341C20280DD00C48EC
:406E000084466544AB401D1C2A43531E9A41131C2343002499E70023ABE70025F4E7C04680FCFFFF9E03000082FCFFFF7E030000A2FCFFFF1C2101231B04984201D3000C20
:406E400010391B0A984201D3000A08391B09984201D30009043902A2105C40187047C046040302020101010100000000000000000E4B70B500251E1C0D4CE41AA410A54290
:406E800004D0AB00F35898470135F8E700F016FD084B00251E1C084CE41AA410A54204D0AB00F35898470135F8E770BDC8780000C8780000C8780000D0780000002310B597
:406EC000934203D0CC5CC4540133F9E710BD031C8218934202D019700133FAE77047000000000000800B0000120C0000120C0000120C0000120C0000120C0000120C0000D5
:406F0000340B00009A0B0000B60B0000D20B0000EE0B000000300F40000280320F40800100400F400004000000320F40647100008000000003000F4064300F4037310F407E
:406F400012320F4045330F4002400F4002410F4004420F4004430F4002600F40810F8271833802030308058007130C0C0E710F0C100912D01410152C16AC174318DC1A226D
:406F80001C101E402171230E2414257127062A2030E031C0330F3530361F39223A023B083F104002454049FF4A074BFF4C404D204EF04F055008580459045A045C335D0386
:406FC0005F01604061A8624063208040861588408C138E049413960C9A209E20A003A214A501A80AA901AA14AD01AE08B010B101B20FB420B640B880BA08BE51C032C10117
:40700000C50BC60CC70EC815C9FFCAFFCBFFCEF0CF44D00CD401D804D904DA04DB04DC13DD33DF01E6C0EA40EB0200400380044805020704080109080A080B420D080E024E
:407040000F0810201204140116401720184019011B801C041D8C1E40211022042360250129052A012F2A320438083B424110450846054B024C2050045204540456405D0899
:407080005E405F126D506F04C0F9C2EFC4D6CA73CC02CE0BD074D6F08202840492019E01AC02B001B204B602B880BA20BE45D418D604D804DB04DC01DD10DF0100080380C9
:4070C0000502060607100A830C400D220F201140151016101702180A19181B111D221E011F15261127112F15351036043D12444045A14C044E4157045B015E206004634261
:407100006F2A761477028001860287048B409004915099029D08A004A181A204A380A601A72EAC04AF02B240B310B502B604C0FCC2F9C471CA70CC60CEA0D0B0D230D62114
:40714000D80DE220E4046804DA408804A40408206702C202D60183019702B420EA02100A11010000210000010000010008090000990064003900C200FF090000E707180017
:407180000000E6001000000018070000210400030004000358021F0838049801000A2A00000000102406050001C0000E12FFFFFF62A0F0410C000000000002110404040482
:4071C000111100010000000000004002001030100010101200000000000000000000000000000000030405060708090A0B0C0E0F101112131415161718191B1C1D1E1F20C2
:4072000021222325262728292A2B2E2F3031323334350000EEDBC9B9AA9B8E82766B60564D443B332C241D17100A0400000000000000080000002000010000000000000043
