:400000000040002011000000611500006115000010B501F0BFFAC04670B52C4C1223236001F078FC2A4803F05FF9182001F01EFC01F0A4FB274A284B1A60284D8026F60530
:400040002E600021264B1960264B274A1A609C225202264802602648186026480260264A1A60E022120125480260254818602548026025481860254802602548186025486B
:400080000260254A1A6080221206244B1A60244B19604622234B1A60013A234B1A60013A224B1A60033A224B1A600232214B1A60013A214B1A602149072001F00FFB0720C3
:4000C00001F0F6FA2E601123236070BD30001040001BB7000600008004010B400C020B40000301400000014040FF00801803014046FF00801403014045FF00801003014057
:4001000044FF00800403014041FF00800C03014043FF00800803014042FF008008010B4000010B40580101405001014014010140100101400C01014008010140011A0000AE
:4001400070B572B60122484B1A7000240FE047486200131959000B00411889881A5AC31858880004104301F0F1F90134E4B2022CEDD9002411E03D4EA20013195900711884
:400180008D8AC88A000428430A8B498B09041143802201F0E1F90134E4B2002CEBD0334920313348243001F0A7F9A0221201314B1A800123304A1370EE2230490A603048DA
:4001C00030490860EE2000022F490860AA202F4908602F490A602F490A60992212042E490A602E482E490860802080052D4908608020C0052C4908602C490A602C4A1360AC
:400200002C4A13602C490B783C22934314221343DBB20B70294A117816230B43DBB213700322274B1A60242326490B60C32026490860264826490860D82000012549086082
:400240000220254908600F302449086024490A6024490B6024490A60244A1360FFF7DCFE01F064F970BDC0461C700F404C8000004C82000000600F4002600F4000010240A2
:40028000EE000030000202400003024000040240000502400006024010500F400400990020500F4024500F4028500F4030500F402000104000800F4001700F4000700F40A0
:4002C000000104400801044000020440A46D4700080204400803044000040440080404400005044008050440000604400806044010B5064C2378002B07D1054B002B02D061
:40030000044800E000BF0123237010BD5801002000000000E07F0000084B10B5002B03D00749084800E000BF07480368002B00D110BD064B002BFBD09847F9E70000000098
:400340005C010020E07F0000C00000200000000010B582B001AC20706170002302222100132002F0EBF902F0C1F98307FBD502B010BDC04600B583B001A9087000236A46E3
:40038000137002330122132002F0D8F902F0AEF98307FBD5012301226946132002F044FA02F0A4F9C307FBD56B46187803B000BD10B58120FFF7DEFF21280ED0012001F0D4
:4003C00033F9FA246400200001F0C0F9002001F02BF9200001F0BAF91DE0002001F024F90122154B1A600FE0012001F01DF9C82001F0ACF9002001F017F9C82001F0A6F936
:400400000D4A1368013313600B4B1B68042BEBDD002001F009F90F218420FFF799FF64218320FFF795FF00218920FFF791FF81218A20FFF78DFF10BD7401002010B5802067
:40044000FFF798FF0823010019438020FFF780FF8020FFF78FFF8306FAD58720FFF78AFF04028820FFF786FF204310BD10B582B001AC20706170002302222100132002F0C5
:40048000FDFA02F0D3FA8307FBD502B010BDC04600B583B001A9087000236A46137002330122132002F0EAFA02F0C0FA8307FBD5012301226946132002F056FB02F0B6FAD2
:4004C000C307FBD56B46187803B000BD10B58120FFF7DEFF21280ED0012001F0B1F8FA246400200001F032F9002001F0A9F8200001F02CF91DE0002001F0A2F80122154BC5
:400500005A600FE0012001F09BF8C82001F01EF9002001F095F8C82001F018F90D4A5368013353600B4B5B68042BEBDD002001F087F80F218420FFF799FF64218320FFF7DC
:4005400095FF00218920FFF791FF81218A20FFF78DFF10BD7401002010B58020FFF798FF0823010019438020FFF780FF8020FFF78FFF8306FAD58720FFF78AFF0402882088
:40058000FFF786FF204310BD10B58020FFF780FF1023010019438020FFF768FF8020FFF777FF4306FAD58520FFF772FF04028620FFF76EFF204310BD10B582B001AC207086
:4005C0006170002302222100132002F0F7FB02F0CDFB8307FBD502B010BDC04600B583B001A9087000236A46137002330122132002F0E4FB02F0BAFB8307FBD5012301220E
:400600006946132002F050FC02F0B0FBC307FBD56B46187803B000BD10B58120FFF7DEFF21280ED0012001F017F8FA246400200001F08CF8002001F00FF8200001F086F873
:400640001DE0002001F008F80122154B9A600FE0012001F001F8C82001F078F8002000F0FBFFC82001F072F80D4A9368013393600B4B9B68042BEBDD002000F0E1FF0F2176
:400680008420FFF799FF64218320FFF795FF00218920FFF791FF81218A20FFF78DFF10BD7401002010B58020FFF798FF0823010019438020FFF780FF8020FFF78FFF83069A
:4006C000FAD58720FFF78AFF04028820FFF786FF204310BD10B582B001AC20706170002302222100132002F009FD02F0DFFC8307FBD502B010BDC04600B583B001A908705E
:4007000000236A46137002330122132002F0F6FC02F0CCFC8307FBD5012301226946132002F062FD02F0C2FCC307FBD56B46187803B000BD10B58120FFF7DEFF21280ED00B
:40074000012000F071FFFA246400200000F0FEFF002000F069FF200000F0F8FF1DE0002000F086FF0122154BDA600FE0012000F05BFFC82000F0EAFF002000F055FFC82034
:4007800000F0E4FF0D4AD3680133D3600B4BDB68042BEBDD002000F06BFF0F218420FFF799FF64218320FFF795FF00218920FFF791FF81218A20FFF78DFF10BD74010020CF
:4007C00010B50022224B1A60142000F0BFFF06E001321F4B1A60FA20800001F087F801F05DFE1B4B1A680023052181425B4111000A39484241411942EAD121E001F012FEEE
:40080000144C207001F00EFE134B18702378FF3B5A425341FF3842425041184210D001F001FE01F0FFFD01F0FDFD0C4C207001F0F9FD01F061FE0A2000F088FF207805E055
:4008400001F02CFE0028D9D1044B187810BDC046BC020020600200204802002061020020F0B5474680B482B00B12DBB29846CEB21712FFB2D4B21E4D019033184344E318C3
:40088000FB182833DB432B70022001F04DFDFF2001F03CF9FF2001F039F9019801F036F9072001F033F9032001F030F91E2001F02DF9300001F02AF9404601F027F92000A3
:4008C00001F024F9380001F021F9287801F01EF9C820400001F00AF8052000F037FF012001F022FDFFF76CFF02B004BC9046F0BD3102002070B5050001F0FEFD404C2B00F2
:400900002C33DB432370022001F00EFDFF2001F0FDF8FF2001F0FAF8280001F0F7F8042001F0F4F8022001F0F1F8242001F0EEF8022001F0EBF8207801F0E8F8C8204000DB
:4009400000F0D4FF052000F001FF012001F0ECFCFF222C4B1A7000222B4B1A60142000F0F5FE06E00131284B1960FA20800000F0BDFF01F093FD244B1968002306221C0038
:4009800082425C412200CC0F0920884263411340DBB2002BE6D100252BE001F015FD1B4C207001F011FD1A4B18702378FF3B5A425341FF384242504118421AD001F004FDE3
:4009C00001F002FD01F000FD124B187001F0FCFC114C207001F0F8FC104D287001F0F4FC2D782D022378ED1801F086FD0A2000F0ADFE01F053FD0028CFD1280070BDC04692
:400A000031020020B0020020BC020020600200204802002061020020300200207802002010B507F0F7F907F077F80022F8239B0506F06EFA10BDC046F0B585B0051C0F1C12
:400A4000161C1C1C4D4B1B69022B29D0032B4DD0012B00D088E04A4B1868011C04F0D6FE484905F049F8061C291C381C05F058F9211C05F055F907F091F803F09DFBA0220C
:400A80001206414B06F044FA04000D00301C07F085F822002B0005F0EBFA07F0D3F86BE0374B1868011C04F0B1FE364905F024F8071C291C301C05F033F9011C201C04F0E5
:400AC000A5FE07F06BF803F077FBA02212062E4B06F01EFA04000D00381C07F05FF822002B0005F0C5FA07F0ADF845E0244B1868011C04F08BFE234904F0FEFF0090291C03
:400B0000381C05F00DF9211C05F00AF907F046F803F052FBA02212061B4B06F0F9F902900391009807F03AF8029A039B05F0A0FA00900191291C301C05F0F2F8011C201CF9
:400B400004F064FE07F02AF803F036FBA02212060D4B06F0DDF902000B000098019905F087FA07F06FF807E0054B1868011C04F04DFE044904F0C0FF05B0F0BD74010020C7
:400B8000C4000020CDCCCC3E9999E93F10B5041C101C05F0C5F8054904F0AEFF211C05F0BFF8034904F0A8FF10BDC0460000F0400000F04110B5041C101C05F0B1F80549A1
:400BC00004F09AFF211C05F0ABF8034904F094FF10BDC0460000F0400000F041F0B585B0464B186806F098FF454A464B06F090F907F028F8041C444F7861444B186806F0CD
:400C00008BFF3F4A3F4B06F083F907F01BF8021CB861FD693B6A211C281CFFF70DFF3C4E7468211C04F068FF011C281C04F0EEFD0290F8617D6A291C201C04F05DFFB96AD2
:400C400004F0E4FDB862FA6A0390011C281CFFF79DFF011C201C04F04FFF011C281C04F0D5FD78623A6B0092111C201C04F044FFB16804F0CBFD051CB060F268011C009E0D
:400C8000301CFFF797FF011C201C04F035FF011C301C04F0BBFD3863029806F07FFF03F045FA00900191039806F078FF009A019B06F02EF900900191281C06F06FFF009A0A
:400CC000019B05F0D5F906F0BDFF7863114904F013FF06F063FF104A104B05F0F5FC06F0B1FF0F4B186005F0A1F901000D4B186064220120FFF7B4FD05B0F0BD44020020C7
:400D0000FCA9F1D24D62503F7401002038020020C400002000C07F448479B248A1F11440240200203402002010B5094B7F221A7049325A70C63A9A702932DA70054A12782D
:400D40001A7101F0B7F9192000F000FD10BDC046880200205402002010B5094B7F221A707B325A70F83A9A700832DA70054A12781A7101F09FF9192000F0E8FC10BDC046E6
:400D8000880200205402002010B5074B7F241C70597002219970DA70187101F08BF9192000F0D4FC10BDC0468802002070B50412104B80221A70104A127C551C5D700F4BD8
:400DC0001B689A4202D100250A4B5D70094B551E9D701B25DD7018715C719A71D97101F069F9FFF71DFE06F061FE6423584300F0ADFC70BD88020020C400002058020020C5
:400E000070B5FFF7A9FB474B1860474B1B7CFA2B00D085E000F0B4FF444B18600028F0D1404B1A68424B9A4219DDFFF7ADFB414C2060012000F010FCFFF7A6FB2060042064
:400E400000F084FC002000F007FCFFF79DFB2060042000F07BFCFFF797FB2060D1E70022314B1A74012000F0EBFB012000F000FCFA20C00000F06AFC2F4A137801332F4986
:400E80000B7000231370FFF767FF2AE04B2000F05DFC2B4B1B68142B20D1002000F0E8FB264C21780139C9B221700E220020FFF76BFF2378234D013B2B60052000F046FCB1
:400EC00029680E220020FFF75FFFFFF72DFF22781D4B1A6001221D4B9A6321E00133184A1360154B1978154B1B789942CED10022134B1A600E320120FFF746FF0E4B1B78AD
:400F0000012B09D90D4B197801390E4B19600E220020FFF739FFABE7002000F0A9FBA7E770BDC046B4020020C400002084020020B70B000020020020C80200205402002065
:400F4000180200201C020020580200207401002070B5854A147823007F3B59424B41DBB25178824A107C0A1A55426A411A4200D199E07D4B9B78022B03D0282B00D0F1E0DD
:400F80008CE0794BDB78033BDAB2182A00D9E9E09300774AD3589F46642000F0D7FB012000F042FB642000F0D1FB002000F03CFB704B1A68704B9A4200D8D3E06A4B1979DB
:400FC0006A4B19746D4B7F221A7000225A7028209870D9701A715A7101F06CF8012000F023FBBFE0604B197909025B795918644B19605E4B587C6422FFF732FCB2E05A4BBB
:401000001B79002B06D0012B00D0ABE0012000F00BFBA7E0002000F007FBA3E0524B1B79002B06D0012B00D09CE0012000F008FB98E0002000F004FB94E04B4B1B79002B53
:4010400006D0012B00D08DE0012000F005FB89E0002000F001FB85E0434B1B79002B05D0012B7FD1012000F003FB7BE0002000F0FFFA77E03C4B1B79984207D93A4A937979
:401080001B025279D3183F4A13606BE0364A93791B025279D3183C4A136063E0324BDA783A4B1A705EE00A00C83A55426A411A420FD02D4B9B78022B54D12B4BDB782B2BDA
:4010C00050D1294B1A79324B1A600122314B9A6348E0802C46D1814203D0234B9B78984240D1214BDB781B2B3CD12A4BDB6B012B38D0643000F02AFB1B4BD979264A116005
:401100009A791A4B1B7C9A4207D2174A53791B021279D3181B4A136006E0134A53791B021279D318184A1360104B1B7C1A4A1268934217D1164909688A4203DB0022164B52
:401140001A6002E00133144A1360124B586B04F06DFF114B1968FA239B005843FFF726FEFFF73CFD70BDC046D0020020C4000020E87F000020020020A30600008802002010
:40118000400200203802002044020020C802002058020020740100202C02002010B50BE0002000F041FA322000F0D0FA012000F03BFA322000F0CAFA144B9B6B002BEFD024
:4011C000002000F031FA124B1B7C002B07D1114A1268002A03D001220C4B1A6114E00D4A1268934205D1002A03D00222074B1A610AE0002B05D1002A03D10432034B1A61B0
:4012000002E00322014B1A6110BDC04674010020C40000205802002010B5FFF743FA054B984203DC0022044B1A6002E00122024B1A6010BD0F2700003C02002010B52C4AC6
:401240009078D378DA11012A04D1803B1A028018404201E01B02C01806F05EFC254A264B05F056FE06F0EEFC244B9862D862204A10795379DA11012A04D1803B1A02801854
:40128000404201E01B02C01806F046FC194A1A4B05F03EFE06F0D6FC06F080FC184A194B05F036FE06F0CEFC144B1862104A9079D379DA11012A04D1803B1A028018404258
:4012C00001E01B02C01806F027FC0A4A0A4B05F01FFE06F0B7FC0C4C06F060FC084A094B05F016FE06F0AEFCA060E06010BDC046680200202D431CEBE2361A3F7401002088
:40130000182D4454FB210940C400002010B50E4B1B78812B16D10C4B5B78202B02D0212B07D00CE0094B1B68012B08D1FFF786FF05E0064B1B68002B01D1FFF77FFF00224A
:40134000014B1A7010BDC046680200203C02002010B5012000F080F900F06CFEFFF7F8FDFFF7D4FF002000F077F910BD10B5030004000C43200010432FD0002C01D1012A7C
:401380001ED0002B03D1012901D1002A1AD0002B03D1012901D1012A16D0012B02D1080010431AD0012B03D1002901D1012A0DD0012B0DD101290DD1002A0DD000200CE0B8
:4013C00020000AE0012008E0012006E0002004E0002002E0002000E0012010BD10B562B6002000F021F9002000F02AF9002000F033F9002000F03CF901F00AF901F0FCF84B
:4014000001F0A6FA01F098FA01F042FC01F034FC01F0DEFD01F0D0FD642000F097F9FEF7C7FFFFF753F8FFF7F7F8FFF783F9FFF7F3FE00F0E1FD2B4800F068FF2A4C01234E
:40144000637400F0B1FF00F051FB032000F06CFF00F092FBFFF7D4FCFFF7A0FE237C002B03D101210020FFF7A1FC1F4B1B7C002BFBD182221D4B1A70FEF7E0FF1C4B98424E
:4014800003D90122194B5A7002E00022174B5A70FFF762F8164B98420AD90120FFF72AFA80239B00984203DC0122104B9A7002E000220E4B9A70FFF7F5F80D4B984203D94F
:4014C00001220A4BDA7002E00022084BDA70074B58789978DA78FFF749FF064BD86300F03DFEC2E751130000C400002098020020C409000074010020F0B50025002711E020
:40150000BB00C658F3B2FF22964308E06A008A181478A419527822700135013BDBB2002BF4D10137092FEBD9F0BDC0460323044A1360044A13600022034B1A607047C04675
:401540003000304030003140000E3F4010B50A00002106F056FC10BD10B506F049FC10BDFEE7C04610B50300084A1068C318084A9A1A802A02DC054A136005E006F00CFC40
:401580000C2303600120404210BDC046D80000208803002070B50F4E0F4D13E029686B68AC68002202E001C901C30432A242FAD1E868002202E0002102C304328242FAD1C1
:4015C0001035013E002EE9D106F0ECFBFFF706FFFEE7C046010000008087000010B50E4A136801218B43136000230AE0032B03D89A000A49505800E009489900094A885019
:4016000001332F2BF2D9FEF79BFD034A116801230B43136010BDC0460000104000000000611500000000002004490A68D2B204239A43800018401043086070470002044089
:4016400004490A68D2B208239A43C00018401043086070470002044004490A68D2B210239A43000118401043086070470002044004490A68D2B220239A434001184010439C
:401680000860704700020440024A1168024B0B401360704700002240FFFFFFBF034B18688023DB05184000D001207047000022401F2318401E3B8340014A13607047C0463C
:4016C00000E100E01F2318401E3B8340014A13607047C04680E100E001BE704770B504000D001F2802D90020FFF7F6FF1034A40080239B059C4664442068256070BDC046E9
:4017000070B504000E00032902D90020FFF7E4FF1F2C02D90020FFF7DFFF03252540ED00063501F0EAFDA408A400074B9C46644421680323AB4099430B003100A9401943A8
:40174000216001F0DEFD70BD00E400E010B5040006E0084B186801F0C7FD074B9C46644480231B029C42F4D8024B5868604301F0BBFD10BDDC0000200080FFFF30B583B0F6
:4017800000F0E8F800285AD001F0B7FD040000230AE02C4A12683F210A402B49C95C8A4201D1033303E001332D2BF2D90323274A1268D20606D1254802681F218A43133920
:4017C0000A430260224A1168224A0A40224959438020C00184466144C90B01394905490D0A43A021490311430800192B02D81B4B1A430EE01A4A9A1812781A3B1249C91860
:401800003023CB5CD318FF2B00D9FF239B0502001A430F4B1A60134D2B680193302001F073FD114A13688021C9050B4313601420FFF78CFF019B2B60200001F062FD03B00E
:4018400030BDC0462CFF0B401883000034FF0B400800224000F800C040420F000000D43FCDF1FF0F300010400000224030B587B0040001F042FD0500FFF710FF002803D01D
:40188000FFF702FF012100E00021104B1B6800930F4B1B680193033C0E4B1B5D02930E4B1B68039304AA0D4B04936B4605930C4B1A600C480C4A10601B68012901D1FFF7CF
:4018C0005DFF280001F01DFD07B030BD08010B4000010B401883000030001040B6EA000008001040170000800400104010B5034B1B7A584301F0F8FC10BDC046DC00002020
:40190000034B1868C0231B02184000D00120704700010B4010B50D4B1A6801218A431A601A68022082431A60094A10683024A043203C204310601068093CA043014311601C
:401940001A68802109060A431A6010BD00002240000F2240034B1B68002B01DA012000E0002070470000224010B501F0C6FC044A1368C02109020B43136001F0C2FC10BD53
:4019800000010B4010B501F0B8FC08490A68084B1A408024E40122430A600A6813408022120213430B6001F0ACFC10BD00010B40FF3FFFFF70B5050001F09FFC0400FFF7CF
:4019C0009FFF002803D0FFF7DDFF012100E0002108482840084A1568084B2B40184310601368012901D1FFF7BFFF200001F089FC70BDC0460404040010020B40FBFBFBFFFC
:401A000010B5244B1B685B0715D5234B5B685B070ED5224B596A042001401F4C62688A4362605A6A82435A629B69002B00D098470420FFF7BFFF174B1B685B0518D5164B46
:401A40005B685B0510D5154B596A8022D2001140114842688A434260596A114A0A405A62DB69002B00D098478020C000FFF7A2FF084B1B685B030CD5074B5B685B0304D56A
:401A8000064B1B6A002B00D098478020C002FFF791FF10BD10020B40EC000020BC010020FFFBFFFF0622044B1A704132034B1A70453A034B1A70704720000F4030000F403B
:401AC00081000F4010B501F018FC0400064A117810230B43DBB21370FF2000F023F8200001F00FFC10BDC04691000F4010B5064B1B78002B04D1FFF7D5FF0122024B1A7078
:401B0000FFF7E0FF10BDC046E4010020034B1B785B07FBD4024B18707047C04661000F4041000F40044B1B68002BFBDB0002034B1843014B18607047000001404600008014
:401B400010B50C4A136801218B431360F0231B0100E0013B002B03D0064A1268D207F8D4002B04D01B20FFF7ADFD002000E0012010BDC04610002E40054B1A6801210A4327
:401B80001A601B68194201D1012000E00020704704002E4010B50E4A0E4B1A60FFF7ECFF1B20FFF785FD0C4A116801230B43136090235B0000E0013B002B03D0064A126887
:401BC000D207F8D5002B01D1012000E0002010BD0112000000002E4010002E4003B2002B0DDB094A1168094B0B400004034313601268074B1340984203D0012002E0022074
:401C000000E000207047C04614002E40FFFF00800000FF7F002809D10C4B19680C4A0A401A601B68DB040CD501300DE0074B1A68802149010A431A601B680B4203D10120C9
:401C400002E0002000E000207047C04614002E40FFEFFFFF70B5841EE4B20D2C35D88C1EE4B2052C03D9002B31D1012931D1032A31D8904231D3914231D31C4D2C68240AE0
:401C8000E4B20F26B44320432E68194C3440000204432C602C686040F0242401204220D1002B00D002234901C9B29200D2B2114319430E4A1368EE2083430B43136013686D
:401CC000034099420FD0ED380EE002200CE002200AE0022008E0022006E0022004E0022002E0012000E0002070BDC04614002E40FFF0FFFF002809D10B4B1A6810218A4303
:401D00001A601B6819420BD001300CE0064B1A6810210A431A601B68194203D1012002E0002000E00020704714002E40002809D10B4B1A6801218A431A601B6819420BD07E
:401D400001300CE0064B1A6801210A431A601B68194203D1012002E0002000E00020704714002E40054B18601B681B041B0C984201D0012000E000207047C04604002E40F0
:401D8000024B1868000C0323184070470C002E4010B503785B01204A944663441F4A41680A431A6003785B01634419681C4A11401C4A44682240914224D182681A61037869
:401DC0005B0163441A6981688A421DD1C2685A6103785B0163445A69C1688A4216D1012252429A6103785B0163449A6901320FD10022DA6103785B016344DB69002B09D04F
:401E0000012008E0012006E0012004E0012002E0012000E0002010BDA0002E40800080007F007F007FFF7FFF10B503781B01104A944663440F4A41680A431A6003781B01FD
:401E4000634419680C4A11400C4A4468224091420AD182685A6003781B0163445A6883689A4203D0012002E0012000E0002010BD20002E4008008000F7007F00F7FF7FFF52
:401E800070B500240AE063001B199800104B1818FFF7CAFF002805D10134E4B2072CF2D9002500E00125002D0BD00FE0230108486030C018FFF76CFF002806D10134E4B286
:401EC00000E000240F2CF1D900E00125280070BD60830000002809D10C4B19680C4A0A401A601B689B040CD501300DE0074B1A68802189010A431A601B680B4203D10120FB
:401F000002E0002000E000207047C04614002E40FFDFFFFF10B580221206334B1A60334A136801218B431360F0231B0100E0013B002B03D02D4A1268D207F8D4002B49D08F
:401F40001B20FFF7BFFB2A491B20FFF7C7FB03211B20FFF7D5FB0120FFF740FE002819D1FFF758FE002817D1FFF7B4FF002815D10023012201210830FFF76CFE00280FD169
:401F8000FFF7B8FE00280DD1FFF7D0FE00280BD001230AE0012308E0012306E0012304E0012302E0012300E00023002B14D1FFF767FF002812D10F48FFF7D4FE00280FD1B1
:401FC0000A4B1A6807218A431A601B68194209D0013008E0012006E0012004E0012002E0012000E0002010BD00042E4010002E40952000000112000010B5084B1B78002B40
:4020000002D1FFF787FF00E00020002804D10122024B1A70FFF7BEFD10BDC046E601002010B580229200024B1A60FFF789FD10BD00002E4070B580225201134B1A60012540
:4020400000241EE0114B1B682B4216D06301104A944663441B689B060FD5AB070AD0002C02D0012C03D008E000F0DAF805E000F0FFF802E0200000F0C5F86D00ADB2013415
:40208000E4B20F2CDED970BD00002E4008002E40A0002E4010B5064B1B689B0501D5FFF7BFFF034B1B68DB0401D5FFF7C3FF10BD00002E4070B5234B1B68DB073FD4224BC5
:4020C00019680902090A214A107800060143196019681F4801400C0051780904214319601C681C490C402500947824022C431C601C68FF26B443D5782C431C60164B1C686F
:402100002402240A15792D062C431C601C68204054792404204318601868014090790002014319601868B043D17902000A431A60044A116801230B431360002000E001200F
:4021400070BDC04620002E4028002E4088020020FFFF00FFFF00FFFF2C002E4070B5234B1B68DB073FD4224B19680902090A214A107800060143196019681F4801400C00C8
:4021800051780904214319601C681C490C402500947824022C431C601C68FF26B443D5782C431C60164B1C682402240A15792D062C431C601C682040547924042043186084
:4021C0001868014090790002014319601868B043D17902000A431A60044A116801230B431360002000E0012070BDC04640002E4048002E4098020020FFFF00FFFF00FFFFB8
:402200004C002E404001054B9C4660440368DB0703D502680123134303607047A0002E400F4A1168090E0F4B19701168090C59701168090A99701268DA700B4A1168090E3B
:4022400019711168090C59711168090A99711268DA71064A116801230B4313607047C046A8002E40D0020020AC002E40A0002E400F4A1168090E0F4B19701168090C597063
:402280001168090A99701268DA700B4A1168090E19711168090C59711168090A99711268DA71064A116801230B4313607047C046C8002E4068020020CC002E40C0002E4010
:4022C000AC23014AD05070470000002010B5040001F013F8044A13689B009B08A4071C43146001F00EF810BD18E400E080221205014B1A607047C04600E100E0802212052D
:40230000014B1A607047C04680E100E010B50400FFF7F4FF2000FFF7D3FF0320FFF7D6FFFFF7E4FF10BDC046014B18707047C04671000F4010B509490020FFF7CFF903213B
:402340000020FFF7DDF90022054B1A707132054B1A70513A044B1A7010BDC04639250000E701002082000F4083000F4010B500F0C4FF04000A4A117820230B43DBB21370BE
:40238000084A117810230B43DBB213700020FFF78FF9FF2000F018F9200000F0B2FF10BD92000F4093000F4010B5064B5B78002B04D1FFF7BFFF0122024B5A70FFF7D6FF00
:4023C00010BDC046E701002010B50020FFF77AF9114A9378DBB2D178C9B21279002A01D18B4210D00D4AD45CE4B20133DBB20F2B00D90023084A93701379002B06D00022B1
:40240000054B1A7102E0064B1C78E4B20020FFF74FF9200010BDC046E7010020DC02002042000F4010B50020FFF74CF9174A9378DBB2D178C9B21279002A01D18B4210D06B
:40244000134AD45CE4B20133DBB20F2B00D900230E4A93701379002B12D000220B4B1A710EE00C4B1B78DBB29A0606D50A4A1478E4B21E221A4202D102E0002400E000247C
:402480000020FFF715F9200010BDC046E7010020DC02002063000F4042000F4010B50020FFF710F9134B9A78D2B2DB78DBB29A4205D1104B1B79002B15D0102414E00D4BD3
:4024C0009A78D2B2DB78DBB29A4205D2094AD37894781C1BE4B207E0064AD37894781C1B1034E4B200E000240020FFF7E1F8200010BDC046E701002010B500F0FEFE0C4AA8
:40250000117801230B43DBB21370137801218B43137000F0F6FE0020FFF7D4F8054B00229A70DA701A715A710020FFF7C1F810BD92000F40E70100201B4B1B78DBB21E2265
:402540001A4204D019481A4001780A4302702022134025D0164A1178C9B2164A1278D2B215488154154A1278002A02D00121144A117010490A780132D2B20A700A78D2B2B2
:402580000F2A02D900210B4A11700A4A1178C9B20C4A1278D2B2914202D10121074A1170002BC9D17047C04663000F40E701002042000F40EA010020DC020020EB010020D8
:4025C000EC010020E9010020044B1B68002BFBDB0002034B1843014B18607047000001404500008010B50920FFF762F810BDC04610B500F01DF810BD10B5044A13688021EE
:4026000009060B431360FFF7EDFF10BD0000254010B5064B1B78002B04D1FFF7E9FF0122024B1A70FFF7E8FF10BDC046F001002010B50024194B1C60194A1A4B1A601A4B04
:402640001A4A13601A4A14601A4A14601A4A13601A4B1C600920FFF735F803210920FFF74FF817490920FFF739F8164B1C60164B1C60164B1C601422FF32154B1A60154B5D
:402680001C60154B1C60043AFF3A144B1A70144B1C80144B1C60144B1C6010BD00002540770800806000254007010080000325400403254010032540000225400402254015
:4026C0005D330000C80E2540880E2540480F2540080F2540C80F2540880F2540EC0200200003002008030020F002002010B50920FEF7E8FF074B1C88A2B21400064B1B782A
:402700009B0602D504231A4394B20920FEF7D0FF200010BD00030020EC020020054B1B682022134000D0082301221343024A13607047C0466400254068002540F0B583B086
:4027400001900C0017001D00002917D0284B1B78102B08D10920FEF7B5FF264B1B68DB070ED508260FE0224B1B78602B0AD1224A138808218B431380002604E0042602E0A9
:40278000002600E00426002E2BD12822184B1A7000231A4A13601A4A13601A4B1F601A4B1C60EAB2194B1A70019B5C00FF231C40114A138802218B431380154A154B1A603F
:4027C0004023154A1360154A1360EB0704D5FFF7A5FF134B1C6004E0114B1C600222114B1A600920FEF764FF300003B0F0BDC046EC0200206400254000030020F8020020B2
:40280000F0020020F4020020040300201003002017030000000F2540800F2540880F25404002254068002540F0B583B001900C0017001D00002917D02D4B1B78102B08D14C
:402840000920FEF73FFF2B4B1B68DB070ED508260FE0274B1B78602B0AD1274A138808218B431380002604E0042602E0002600E00426002E35D129221D4B1A7000221F4BDD
:402880001A601F4A17601F4B1C60EBB21E490B70019B5C00FF231C400120044316490B8883430B8019491A4B19601368072B03D80422184B1A6008E0174A136880214900BF
:4028C0000B4313600822134B1A60EB0704D5FFF725FF124B1C6004E0104B1C600222104B1A600920FEF7E4FE300003B0F0BDC046EC020020640025400003002008030020E8
:402900000C030020FC0200201003002017030000000F2540C80F254060002540400225406800254010B50A20FEF7C2FE10BDC04610B500F01DF810BD10B5044A13688021D7
:4029400009060B431360FFF7EDFF10BD0000264010B5064B1B78002B04D1FFF7E9FF0122024B1A70FFF7E8FF10BDC046F801002010B50024194B1C60194A1A4B1A601A4BB8
:402980001A4A13601A4A14601A4A14601A4A13601A4B1C600A20FEF795FE03210A20FEF7AFFE17490A20FEF799FE164B1C60164B1C60164B1C601422FF32154B1A60154BE8
:4029C0001C60154B1C60043AFF3A144B1A70144B1C80144B1C60144B1C6010BD000026407708008060002640070100800003264004032640100326400002264004022640CB
:402A0000D1360000C80E2640880E2640480F2640080F2640C80F2640880F2640110300201C030020300300201803002010B50A20FEF748FE074B1C88A2B21400064B1B7876
:402A40009B0602D504231A4394B20A20FEF730FE200010BD1C03002011030020054B1B682022134000D0082301221343024A13607047C0466400264068002640F0B583B09F
:402A800001900C0017001D00002917D0284B1B78102B08D10A20FEF715FE264B1B68DB070ED508260FE0224B1B78602B0AD1224A138808218B431380002604E0042602E006
:402AC000002600E00426002E2BD12822184B1A7000231A4A13601A4A13601A4B1F601A4B1C60EAB2194B1A70019B5C00FF231C40114A138802218B431380154A154B1A60FC
:402B00004023154A1360154A1360EB0704D5FFF7A5FF134B1C6004E0114B1C600222114B1A600A20FEF7C4FD300003B0F0BDC04611030020640026401C030020240300209F
:402B40001803002020030020340300201403002017030000000F2640800F2640880F26404002264068002640F0B583B001900C0017001D00002917D02D4B1B78102B08D17A
:402B80000A20FEF79FFD2B4B1B68DB070ED508260FE0274B1B78602B0AD1274A138808218B431380002604E0042602E0002600E00426002E35D129221D4B1A7000221F4B3B
:402BC0001A601F4A17601F4B1C60EBB21E490B70019B5C00FF231C400120044316490B8883430B8019491A4B19601368072B03D80422184B1A6008E0174A1368802149007C
:402C00000B4313600822134B1A60EB0704D5FFF725FF124B1C6004E0104B1C600222104B1A600A20FEF744FD300003B0F0BDC04611030020640026401C03002030030020D9
:402C4000280300202C0300201403002017030000000F2640C80F264060002640400226406800264010B50B20FEF722FD10BDC04610B500F01DF810BD10B5044A13688021DE
:402C800009060B431360FFF7EDFF10BD0000274010B5064B1B78002B04D1FFF7E9FF0122024B1A70FFF7E8FF10BDC0460002002010B50024194B1C60194A1A4B1A601A4B6B
:402CC0001A4A13601A4A14601A4A14601A4A13601A4B1C600B20FEF7F5FC03210B20FEF70FFD17490B20FEF7F9FC164B1C60164B1C60164B1C601422FF32154B1A60154B87
:402D00001C60154B1C60043AFF3A144B1A70144B1C80144B1C60144B1C6010BD00002740770800806000274007010080000327400403274010032740000227400402274080
:402D4000453A0000C80E2740880E2740480F2740080F2740C80F2740880F274038030020400300203C0300205803002010B50B20FEF7A8FC074B1C88A2B21400064B1B78BF
:402D80009B0602D504231A4394B20B20FEF790FC200010BD4003002038030020054B1B682022134000D0082301221343024A13607047C0466400274068002740F0B583B0B0
:402DC00001900C0017001D00002917D0284B1B78102B08D10B20FEF775FC264B1B68DB070ED508260FE0224B1B78602B0AD1224A138808218B431380002604E0042602E064
:402E0000002600E00426002E2BD12822184B1A7000231A4A13601A4A13601A4B1F601A4B1C60EAB2194B1A70019B5C00FF231C40114A138802218B431380154A154B1A60B8
:402E40004023154A1360154A1360EB0704D5FFF7A5FF134B1C6004E0114B1C600222114B1A600B20FEF724FC300003B0F0BDC0463803002064002740400300204C03002088
:402E80005803002044030020540300205C03002017030000000F2740800F2740880F27404002274068002740F0B583B001900C0017001D00002917D02D4B1B78102B08D166
:402EC0000B20FEF7FFFB2B4B1B68DB070ED508260FE0274B1B78602B0AD1274A138808218B431380002604E0042602E0002600E00426002E35D129221D4B1A7000221F4B99
:402F00001A601F4A17601F4B1C60EBB21E490B70019B5C00FF231C400120044316490B8883430B8019491A4B19601368072B03D80422184B1A6008E0174A13688021490038
:402F40000B4313600822134B1A60EB0704D5FFF725FF124B1C6004E0104B1C600222104B1A600B20FEF7A4FB300003B0F0BDC0463803002064002740400300203C030020DF
:402F800048030020500300205C03002017030000000F2740C80F274060002740400227406800274010B50820FEF782FB10BDC04610B500F01DF810BD10B5044A13688021AF
:402FC00009060B431360FFF7EDFF10BD0000244010B5064B1B78002B04D1FFF7E9FF0122024B1A70FFF7E8FF10BDC0460802002010B50024194B1C60194A1A4B1A601A4B23
:403000001A4A13601A4A14601A4A14601A4A13601A4B1C600820FEF755FB03210820FEF76FFB17490820FEF759FB164B1C60164B1C60164B1C601422FF32154B1A60154B30
:403040001C60154B1C60043AFF3A144B1A70144B1C80144B1C60144B1C6010BD00002440770800806000244007010080000324400403244010032440000224400402244052
:40308000B93D0000C80E2440880E2440480F2440080F2440C80F2440880F24405D03002068030020740300207003002010B50820FEF708FB074B1C88A2B21400064B1B781E
:4030C0009B0602D504231A4394B20820FEF7F0FA200010BD680300205D030020054B1B682022134000D0082301221343024A13607047C0466400244068002440F0B583B0CB
:4031000001900C0017001D00002917D0284B1B78102B08D10820FEF7D5FA264B1B68DB070ED508260FE0224B1B78602B0AD1224A138808218B431380002604E0042602E0C5
:40314000002600E00426002E2BD12822184B1A7000231A4A13601A4A13601A4B1F601A4B1C60EAB2194B1A70019B5C00FF231C40114A138802218B431380154A154B1A6075
:403180004023154A1360154A1360EB0704D5FFF7A5FF134B1C6004E0114B1C600222114B1A600820FEF784FA300003B0F0BDC0465D03002064002440680300207803002074
:4031C0007003002064030020800300206003002017030000000F2440800F2440880F24404002244068002440F0B583B001900C0017001D00002917D02D4B1B78102B08D1CA
:403200000820FEF75FFA2B4B1B68DB070ED508260FE0274B1B78602B0AD1274A138808218B431380002604E0042602E0002600E00426002E35D129221D4B1A7000221F4BF9
:403240001A601F4A17601F4B1C60EBB21E490B70019B5C00FF231C400120044316490B8883430B8019491A4B19601368072B03D80422184B1A6008E0174A136880214900F5
:403280000B4313600822134B1A60EB0704D5FFF725FF124B1C6004E0104B1C600222104B1A600820FEF704FA300003B0F0BDC0465D030020640024406803002074030020BE
:4032C0007C0300206C0300206003002017030000000F2440C80F2440600024404002244068002440000000000230800803D00138FDD1C046C046C0467047EFF3108072B628
:40330000704780F31088704770B50400FFF7F5FF0500102C05D8104A136803218B43136016E0202C07D80C490B6803229343023A13430B600CE0302C07D807490B680322B9
:403340009343013A13430B6002E00020FEF7C4F92800FFF7D6FF70BD3000104010B5B94B1B68002B00D09847B74B1B68DB0702D50022B64B1A60B64B1B789B0628D5B54BF4
:403380001B68DB0507D5B44A1188C0239B000B431380012300E00023AE4A1268D20706D5AD4A118890239B000B4313800123002B0FD0A74A1278D20701D5012200E002224D
:4033C000A549088802430A800021A14A117000E000239F4A1278920600D417E19D4A1268D20611D510229D4B1A60994B1B78DB0701D5012300E00223974A11880B431380B3
:403400001022934B1A701BE1914A1278120720D5904A126892070AD50222904B1A608E4A118888239B000B431380012311E0884A1278D20703D52521854A117009E02421C0
:40344000834A1170864A1268002A02D01439854A11607F4A1278520700D4AEE07C4A1278D20749D5804A1268120727D57F4A12687F4909681F240C407E4909686418141B8F
:40348000082C09D8002C16D17B4A11687B4B0B401360012308340EE008240CE0754A116877480068411877480068C0B20870116801311160013C002CF0D119E06A4A126886
:4034C000520715D56B4A11686D48006841186D480068C0B208701168013111601168634A1268914203D20421674A116000E001236649674A116060E0564A1268920726D570
:403500000222564B1A6063490B681D321A40096880231B020B4000D001239B185E4A1168CB1A136012685D4B1A604B4A118884239B000B4313805A4B1A68802149020A439B
:403540001A601968574A0A401A60012335E0564A1268D2061ED427E04F4A1168404A126891421DD23E4A1268013A4B4909688A4204D140224D490A603A490A60464A1168B4
:403580004B48006841180978C9B24A4801601168013111603F4A12681F210A40082ADBD11021424A116008E03F4A1268520604D5394B1A68394B1A600123002B40D02E4A1C
:4035C00011682E4B0B40136000233B4A1360254A13603A4B1B789B070ED51D4B1B78DB0701D5092300E00A231B4A11880B4313806022174B1A7023E0314B1B689B0601D5CF
:40360000182200E01022204B1A6019E0104B1B78DB0615D42B4A13685B005B08136010210B4B1970144B186827490140196018682649014019601368802109060B431360D9
:4036400010BDC046F40100208C0E2540880E2540EC0200200C0F254000030020000F2540F4020020880F2540CC0F25400C030020080325400803002060002540FFFEFFFF67
:40368000FC0200204003254068002540ED0F0000C00F254008022540F8020020F002002004022540FFFFFEFF8C0F2540800F25400403002040022540C80F25401003002015
:4036C0006400254000002540FF5FFFFFFFFCFFFF10B5B94B1B68002B00D09847B74B1B68DB0702D50022B64B1A60B64B1B789B0628D5B54B1B68DB0507D5B44A1188C0235B
:403700009B000B431380012300E00023AE4A1268D20706D5AD4A118890239B000B4313800123002B0FD0A74A1278D20701D5012200E00222A549088802430A800021A14A29
:40374000117000E000239F4A1278920600D417E19D4A1268D20611D510229D4B1A60994B1B78DB0701D5012300E00223974A11880B4313801022934B1A701BE1914A12788D
:40378000120720D5904A126892070AD50222904B1A608E4A118888239B000B431380012311E0884A1278D20703D52521854A117009E02421834A1170864A1268002A02D0A4
:4037C0001439854A11607F4A1278520700D4AEE07C4A1278D20749D5804A1268120727D57F4A12687F4909681F240C407E4909686418141B082C09D8002C16D17B4A11683A
:403800007B4B0B401360012308340EE008240CE0754A116877480068411877480068C0B20870116801311160013C002CF0D119E06A4A1268520715D56B4A11686D480068DA
:4038400041186D480068C0B208701168013111601168634A1268914203D20421674A116000E001236649674A116060E0564A1268920726D50222564B1A6063490B681D32CD
:403880001A40096880231B020B4000D001239B185E4A1168CB1A136012685D4B1A604B4A118884239B000B4313805A4B1A68802149020A431A601968574A0A401A60012341
:4038C00035E0564A1268D2061ED427E04F4A1168404A126891421DD23E4A1268013A4B4909688A4204D140224D490A603A490A60464A11684B48006841180978C9B24A48D3
:4039000001601168013111603F4A12681F210A40082ADBD11021424A116008E03F4A1268520604D5394B1A68394B1A600123002B40D02E4A11682E4B0B40136000233B4A22
:403940001360254A13603A4B1B789B070ED51D4B1B78DB0701D5092300E00A231B4A11880B4313806022174B1A7023E0314B1B689B0601D5182200E01022204B1A6019E079
:40398000104B1B78DB0615D42B4A13685B005B08136010210B4B1970144B186827490140196018682649014019601368802109060B43136010BDC046FC0100208C0E264090
:4039C000880E2640110300200C0F26401C030020000F264020030020880F2640CC0F264028030020080326403003002060002640FFFEFFFF2C03002040032640680026404B
:403A0000ED0F0000C00F264008022640240300201803002004022640FFFFFEFF8C0F2640800F26403403002040022640C80F2640140300206400264000002640FF5FFFFF07
:403A4000FFFCFFFF10B5B94B1B68002B00D09847B74B1B68DB0702D50022B64B1A60B64B1B789B0628D5B54B1B68DB0507D5B44A1188C0239B000B431380012300E00023BE
:403A8000AE4A1268D20706D5AD4A118890239B000B4313800123002B0FD0A74A1278D20701D5012200E00222A549088802430A800021A14A117000E000239F4A12789206BA
:403AC00000D417E19D4A1268D20611D510229D4B1A60994B1B78DB0701D5012300E00223974A11880B4313801022934B1A701BE1914A1278120720D5904A126892070AD5BF
:403B00000222904B1A608E4A118888239B000B431380012311E0884A1278D20703D52521854A117009E02421834A1170864A1268002A02D01439854A11607F4A12785207C1
:403B400000D4AEE07C4A1278D20749D5804A1268120727D57F4A12687F4909681F240C407E4909686418141B082C09D8002C16D17B4A11687B4B0B401360012308340EE01D
:403B800008240CE0754A116877480068411877480068C0B20870116801311160013C002CF0D119E06A4A1268520715D56B4A11686D48006841186D480068C0B20870116850
:403BC000013111601168634A1268914203D20421674A116000E001236649674A116060E0564A1268920726D50222564B1A6063490B681D321A40096880231B020B4000D07D
:403C000001239B185E4A1168CB1A136012685D4B1A604B4A118884239B000B4313805A4B1A68802149020A431A601968574A0A401A60012335E0564A1268D2061ED427E063
:403C40004F4A1168404A126891421DD23E4A1268013A4B4909688A4204D140224D490A603A490A60464A11684B48006841180978C9B24A4801601168013111603F4A1268CF
:403C80001F210A40082ADBD11021424A116008E03F4A1268520604D5394B1A68394B1A600123002B40D02E4A11682E4B0B40136000233B4A1360254A13603A4B1B789B0710
:403CC0000ED51D4B1B78DB0701D5092300E00A231B4A11880B4313806022174B1A7023E0314B1B689B0601D5182200E01022204B1A6019E0104B1B78DB0615D42B4A13685D
:403D00005B005B08136010210B4B1970144B186827490140196018682649014019601368802109060B43136010BDC046040200208C0E2740880E2740380300200C0F2740D0
:403D400040030020000F274044030020880F2740CC0F274048030020080327403C03002060002740FFFEFFFF500300204003274068002740ED0F0000C00F27400802274036
:403D80004C0300205803002004022740FFFFFEFF8C0F2740800F27405403002040022740C80F27405C0300206400274000002740FF5FFFFFFFFCFFFF10B5B94B1B68002BDE
:403DC00000D09847B74B1B68DB0702D50022B64B1A60B64B1B789B0628D5B54B1B68DB0507D5B44A1188C0239B000B431380012300E00023AE4A1268D20706D5AD4A1188F5
:403E000090239B000B4313800123002B0FD0A74A1278D20701D5012200E00222A549088802430A800021A14A117000E000239F4A1278920600D417E19D4A1268D20611D501
:403E400010229D4B1A60994B1B78DB0701D5012300E00223974A11880B4313801022934B1A701BE1914A1278120720D5904A126892070AD50222904B1A608E4A1188882391
:403E80009B000B431380012311E0884A1278D20703D52521854A117009E02421834A1170864A1268002A02D01439854A11607F4A1278520700D4AEE07C4A1278D20749D52A
:403EC000804A1268120727D57F4A12687F4909681F240C407E4909686418141B082C09D8002C16D17B4A11687B4B0B401360012308340EE008240CE0754A116877480068CC
:403F0000411877480068C0B20870116801311160013C002CF0D119E06A4A1268520715D56B4A11686D48006841186D480068C0B208701168013111601168634A126891422D
:403F400003D20421674A116000E001236649674A116060E0564A1268920726D50222564B1A6063490B681D321A40096880231B020B4000D001239B185E4A1168CB1A1360BF
:403F800012685D4B1A604B4A118884239B000B4313805A4B1A68802149020A431A601968574A0A401A60012335E0564A1268D2061ED427E04F4A1168404A126891421DD258
:403FC0003E4A1268013A4B4909688A4204D140224D490A603A490A60464A11684B48006841180978C9B24A4801601168013111603F4A12681F210A40082ADBD11021424AFF
:40400000116008E03F4A1268520604D5394B1A68394B1A600123002B40D02E4A11682E4B0B40136000233B4A1360254A13603A4B1B789B070ED51D4B1B78DB0701D50923EF
:4040400000E00A231B4A11880B4313806022174B1A7023E0314B1B689B0601D5182200E01022204B1A6019E0104B1B78DB0615D42B4A13685B005B08136010210B4B19705A
:40408000144B186827490140196018682649014019601368802109060B43136010BDC0460C0200208C0E2440880E24405D0300200C0F244068030020000F244064030020E5
:4040C000880F2440CC0F24407C030020080324407403002060002440FFFEFFFF6C0300204003244068002440ED0F0000C00F244008022440780300207003002004022440EB
:40410000FFFFFEFF8C0F2440800F24408003002040022440C80F2440600300206400244000002440FF5FFFFFFFFCFFFF30B5204A4B0087B05B0893421CDD1E4A934205DDE9
:4041400002000B0003F05EF907B030BD02AA00F07BF803231840049A059B012818D002280DD000281ED0029803990124009400F0DDFFE9E70022002300F06CFAE4E70298C0
:40418000039900F067FA80231B069C466144DBE700900298039900F0C9FF80231B069C466144D1E70298039900F054FACCE7C046FB21E93FFFFFEF7F30B5214A4B0087B0D5
:4041C0005B0893421EDD1F4A934205DD02000B0003F018F907B030BD02AA00F035F803231840049A059B01281ED0022811D000281FD00298039900F02DFA80231B069C4606
:404200006144E7E7002300220093002300F08EFFE0E7012402980399009400F087FF80231B069C466144D5E70298039900F012FAD0E7012402980399009400F077FFC9E772
:40424000FB21E93FFFFFEF7FF0B54E4657464546E0B4DC4B4E0090B01700894676089E4200DC81E0D84B9E4220DCD84A002900DC89E1D74B03F0C6F8D54B04000D009E42EF
:4042800000D18AE0D34AD44B03F0BCF802000B0020003A607B60290003F0B4F8CD4ACE4B03F0B0F8B860F960012066E0CB4B9E4200DC8DE0CA4B9E4265DCCA4932158A4634
:4042C000924453461B05F51A2900040003F0EEFB03F022FC02000B00200029000A920B9303F090F80022C04B02F012FE0290039103F0DCFB03F010FC04000D0002000B00BF
:40430000029803990C940D9503F07CF80022B64B02F0FEFD002200230E900F9101F048FA002800D14CE1002300222000290001F03FFA0222431E9841131AAC4A39000192AD
:4043400002220AA80092524600F09EFA4B46002B13DA8022120694467B68404263447B60FB686344FB6008E002000B003A607B60002200230020BA60FB6010B01CBC90467A
:404380009946A246F0BD02000B0003F03BF8B860F960386079600020EFE7D3228E4B520503F030F8924A934B04000D0003F02AF802000B0020003A607B60290003F022F886
:4043C0008B4A8C4B03F01EF8B860F9600120D4E700F05CFF884A894B04000D0002F098FD0022874B01F044FE03F060FB804603F093FB764A764B0690079102F089FD02004D
:404400000B002000290002F0FDFF734B02900391069807996F4A02F07BFD434604000D00049405951F2B30DC013B764A9B009B589E422AD002000B000298039902F0E2FF59
:4044400002000B0005000C003A607B60029803992A00230002F0D6FF049A059B02F0D2FF06000B003200BA60FB604B464046002B00DB82E780231B069C46644461443D6090
:404480007C60BE60F960404277E7049A059B0298039902F0B7FF0B0002003A607B604B0036155B0D05000C00F31A102BCEDD06980799D322484B520502F02AFD04000D00E2
:4044C00002000B000298039902F09CFF02000B00029803990892099302F094FF22002B0002F090FF04000D0006980799404A414B02F00EFD22002B0002F084FF02000B00EF
:40450000049005910898099902F07CFF02000B003A607B604B005B0DF61A0500089A099B0C0002920393312E90DD06980799B822304B920502F0ECFC04000D0002000B00EE
:404540000298039902F05EFF0A00010013000291039202000898099902F054FF22002B0002F050FF04000D0006980799264A274B02F0CEFC22002B0002F044FF02000B00DD
:404580000492059358E7124B01F072FD104B04000D009E423CD00F4A0F4B01F069FD02000B0020003A607B60290002F02BFF094A094B01F05DFDB860F96001204042DCE6C0
:4045C0000323BAE6FB21E93F7BD9024000004054FB21F93F3163621A61B4D03DFB213941FFFFEF7FEAFBFFFF00007041408500007370032E8A19A33B83C8C96D305FE43FDE
:404600000000E03FC0840000C14920259A837B39D3220D4B520501F02BFD0C4A0C4B04000D0001F025FD02000B0020003A607B60290002F0E7FE054A054B01F019FDB86009
:40464000F9600120404298E661B4D03D7370032E8A19A33BF0B54F464646C0B487B000920193754B4F00814688467F089F4263DC03F01CFA002800D1DAE04A4643464846C4
:40468000414602F045FC04000D006C4A6C4B02F03FFC6C4A6C4B01F0EBFC22002B0002F037FC6A4A6A4B02F0ADFE22002B0002F02FFC684A684B01F0DBFC22002B0002F002
:4046C00027FC664A664B02F09DFE22002B0002F01FFC644A644B01F0CBFC22002B0002F017FC029003910022604B2000290002F00FFC029A039B06000F002000290002F025
:4047000007FC009A019B04000D004846414602F0FFFB02000B002000290002F073FE02000B003000390002F06DFE02000B0000204F4902F067FE70E002000B0002F0E8FB54
:4047400004000D003D4A3E4B02F0E2FB3D4A3E4B01F08EFC22002B0002F0DAFB3B4A3C4B02F050FE22002B0002F0D2FB394A3A4B01F07EFC22002B0002F0CAFB374A384BD7
:4047800002F040FE22002B0002F0C2FB354A364B01F06EFC2B00220002F0BAFB354B029003919F429FDD344B00229F423ADC334900207B182E4916001F0002F023FE049061
:4047C00005910022294B2000290002F0A1FB32003B0002F017FE029A039B06000F002000290002F095FB009A019B04000D004846414602F08DFB02000B002000290002F00A
:4048000001FE02000B003000390002F0FBFD02000B000498059902F0F5FD07B00CBC90469946F0BD164B002604920593154FC8E700200F49F1E7C046FFFF3F3ED43888BE22
:40484000E9FAA8BDC4B1B4BD9EEE213EAD529C804F7E923E9015CB19A001FA3E7751C1166CC1563F4C5555555555A53F0000E03F0000F03F3233D33F0000E93F0000E0FFFF
:404880000000E73F0000D23FF0B556464D4644465F46F0B4904CA544099119001400A89A0B938E4B9200D2580B000290013BE01E18211D0016000892009300F07DFEC34338
:4048C0000200DB171A401300110001330E929A009B1ADB001B1906934C1B761918D4A99BA5009C46361926AF6544013607E0286803F012F9013403C70435B44208D0002C23
:40490000F5DA00200021013403C70435B442F6D1089B002B01DA00F0FDFB76AB0A939A46009B0B9A9946089B94469B46D300E3449C46029A059362449046009B002B00DA9A
:40494000BBE14B46DC0026AB9C4600260027029D64442268636803CD02F0DAFA02000B003000390001F084FB083C06000F004545EFD15346C0C39A4601239C46E144D9452E
:40498000DBD1089A564913008C4663449B0012A8844619000298614484460D910599043361448B4612A98C4663440F930592059A0A98D30019000C938C46030063441E6819
:4049C0005F68002A34DD12AB99461300454A804694466344DB00984474AB9A460022424B3000390002F094FA03F060F803F094F800223E4B04000D0002F08AFA02000B00D9
:404A00003000390002F0FEFC03F050F84B4601C39946434620001A685B68290001F028FB08235B429C46E04406000F00D045D5D1069B30001A003900994600F0C3FCFF2315
:404A400000229B0504000D0002F062FA00F022FC0022274B02F05CFA02000B002000290002F0D0FC04000D0003F020F8804603F053F802000B002000290002F0C3FC4C465E
:404A800006000F00002C00DCF8E0059B18205A1E920012AB9B58001B19000141884481405B1A12A98B501722121B13410793079B002B4BDD01239C46059BE044002B00DC47
:404AC000F2E280251096119712AB0021002409486D04059F19E0C04684FDFFFF48860000FEFFFF3FFFFFFF1F0000703E0000704100002040FFFFFF00002A02D0AA1A1A60EE
:404B00000134013104338F4209DD1A68002CF3D0821A01311A60012404338F42F5DC109E119F069B002B0EDD012B00D1B1E0022B09D1059B12A95A1E920012AB9B58109307
:404B40009B029B0A8B50079B022B7ED0002300223000390000F02CFE059B002800D16BE208995A1E914210DCBF490F988C4612A963448C4600219B0063441C68043B214336
:404B80008342FAD1002900D0B5E0089B12AA013B9B00D358002B00D084E201220D9B043B596801320029FAD005990B008C46013362440792934242DC0E9A9446A99A6344D7
:404BC00092460B9A9B00944626AA90469A44059B0A9A6344DB0098440C9B94469946079BE144DB00634405935346186802F094FF434618605960009B002B23DB4446002690
:404C00000027029D2268636803CD02F081F902000B003000390001F02BFA083C06000F005D45EFD14B469E60DF6004239C460433E2449C46059BE144E0449945D4D1079BB2
:404C40000593B4E600260027ECE732003B000020864902F0D7FB06000F00002C00D175E7069A0020814900F0ADFB02000B003000390002F0C7FB06000F0067E7069B002BD9
:404C800012D1059B12AA013B9B00D558EB1507930DE7059B12A95A1E920012AB9B5810935B025B0A8B504EE70022714B00F0A4FD00280ED10023079348E753460026002751
:404CC000C0C39A4601239C46E144D94500D034E657E601239C4601330793059BE044002B00DDEEE632003B000020604902F08AFB06000F002AE743460B93069B12A8183BC5
:404D0000190006939300C3580092002B0FD156481300844612A8634484469B006344043B5868013A18390028F9D000920691069A00204E4900F046FB009B04000D00002B8A
:404D400000DAB3E112AA94469F00DB0067449C460A9A0593624493461600386802F0DCFE22002B0002F0D4F8424B3060716000222000290002F0CCF8083E74AB04000D005B
:404D8000043FB342E9D100239A464EAB0293089B99464B4600260027002B21DB8020364B5D469846C005354900260027002408E008239C460835E044A24511DB4346186861
:404DC00059682A686B6802F0A3F802000B003000390001F04DF9013406000F00A145E7DA029A53469446DB0063441E605F6001239C46093BE2449C4674ABE3449B45C8D183
:404E0000029B9946A89B022B00DD82E0002B37DC1DD1059B00254B441E000024326873682800210001F024F9009B05000C00083E5A1E0092F2D2079B002B03D080231B0695
:404E40009C4664442A00230009990A604B6007200B9B18409F239B009D443CBC90469946A246AB46F0BDC046FFFFFF3F0000F03F0000E03F0000703E58860000FB21F93F9E
:404E8000059B00204B441E0000214CAF32687368083E01F0EDF8BE42F8D1079B002B24D08023099A1B06CB18106053600B0002004E984F9902F0A6FA009B002B0BDD0124A1
:404EC00050AD0CCD01F0D4F8009B0134A342F8DA079B002B03D080231B069C4661440B00020009998A60CB60B1E702000B00099C226063600B0002004E984F9902F082FA11
:404F0000009B002BDBDC0B00020009998A60CB609DE7A89B032B9AD1009B002B00DCE3E07F4A059B94464B441E685F68009B63449A46DB004B4498464CAB9B4643465C68BD
:404F40001B681800210032003B000290039101F08FF804000D0002000B000298039902F051FA3B00320001F083F843469860D9601C605D6008235B429C46E04426002F00EA
:404F8000C345DBD1009B012B00DCADE0059BC8464B441E685F685346DB009B46D844434630005C681B683900009301941A00230001F05EF804000D0002000B0000980199DD
:404FC00002F020FA3B00320001F052F843469860D9601C605D6008235B429C46E04426002F00C145DBD15D460027002408354D4450AE2A686B683800210001F039F8083D56
:4050000007000C00AE42F4D1079B002B71D08021099A4E9B090613604B468C465B686444634453604B469B68176193604B46DB6854616344D3600AE7994643460B93069BC9
:4050400030005A42390000F0BDF90022354B04000D0000F0D1FB002832D0334B00222000290001F055FF02F021FD4A460600970002F052FD00222B4B01F04AFF02000B0061
:405080002000290002F0BEF902F010FD12AAD0514A46069B0132183300920693930012AAD65044E601227FE500243AE5A89B022B14DC002B0FDC00D0C9E600250024BAE601
:4050C0004B46200029009E0002F0F0FC12AB98514B4600932BE600200021DEE64EAB9946A89B032B00D0B2E6079B00270024002B8DD14E9A4F9B09990A604B604B469A6837
:40510000DB68009201938A60CB603A0023000A614B619CE676AB0A930B9BDB00059330E4FFFFFF1F000070410000703EF0B54F464646C0B487B000920193464A4B0081465C
:4051400088465B08934205DC02F0B0FC4146031E484666D04A4643464846414601F0D8FE04000D0002000B004846414601F0D0FE394A3A4B06000F002000290001F0C8FE3A
:40518000374A384B02F03EF922002B0001F0C0FE354A364B00F06CFF22002B0001F0B8FE334A344B02F02EF922002B0001F0B0FE314B324A00F05CFF0E9B02900391002B39
:4051C00034D00098019900222D4B01F0A1FE029A039B049005913000390001F099FE02000B000498059902F00DF922002B0001F08FFE009A019B02F005F9224A04000D004D
:40520000214B3000390001F083FE02000B002000290000F02DFF02000B004846414602F0F1F807B00CBC90469946F0BD02000B002000290001F06CFE124A134B02F0E2F8A0
:4052400032003B0001F064FE4A46434600F010FFE7E7C046FFFF3F3E7CD5CF5A3AD9E53DEB9C2B8AE6E55A3E7DFEB157E31DC73ED561C119A0012A3F1111813FA6F8101176
:405280000000E03F495555555555C53F49004B0819007047454AF8B5564692464B005B0D9A444D465F4644465246F0B4894605000C000E000700132A22DC002A47DB52461A
:4052C0003B4B134198460B0042461340034311D0384A394B00F0CCFE0022002300F082FA002805D0002C41DB4E46434600279E43380031003CBC90469946A246AB46F8BD6A
:405300005246332A08DD8023DB009A45F2D102000B0000F0ADFEEDE7284A9446012263445242DA4093460242E4D0224A224B00F09FFE0022002300F055FA0028D8D0002C7C
:405340001ADB5B464E469F4338003100D2E7194A194B00F08DFE0022002300F043FA0028C6D0002C16DB00270026C1E7802352465B0313419944B7E75346142B12D0342302
:40538000524601279B1A9F407F19AF429B415B429944D6E76400640825430027002DA7D0074EA5E7133B9C46E144CAE701FCFFFFFFFF0F009C7500883CE4377EEDFBFFFFB7
:4053C0000000F0BF4B0070B55B0D14000A00002B1AD14B005B08034315D00022224B01F097FD224B0A009C4222DB4B005B0D363B1F4DE318AB4220DC002B0DDD1D4C1B05A1
:4054000022401A43110070BD1B4DAB42F0D102000B0000F02DFEF6E71D00353518DA174B02009C420ADC0B001548164900F032F8134A144B01F06CFDE5E702000B00124889
:40544000124900F027F8104A104B01F061FDDAE7084C363322401B051343190000220C4B01F056FDCFE7C04600005043B03CFFFFFE070000FFFF0F80FF07000050C30000AE
:4054800059F3F8C21F6EA5019C7500883CE4377E0000903C30B54A00DB0FDB0752081A43110030BD002243088B4274D303098B425FD3030A8B4244D3030B8B4228D3030C67
:4054C0008B420DD3FF22090212BA030C8B4202D31212090265D0030B8B4219D300E0090AC30B8B4201D3CB03C01A5241830B8B4201D38B03C01A5241430B8B4201D34B0327
:40550000C01A5241030B8B4201D30B03C01A5241C30A8B4201D3CB02C01A5241830A8B4201D38B02C01A5241430A8B4201D34B02C01A5241030A8B4201D30B02C01A524134
:40554000CDD2C3098B4201D3CB01C01A524183098B4201D38B01C01A524143098B4201D34B01C01A524103098B4201D30B01C01A5241C3088B4201D3CB00C01A52418308C5
:405580008B4201D38B00C01A524143088B4201D34B00C01A5241411A00D20146524110467047FFE701B5002000F0F0F802BDC0460029F7D076E7704703460B437FD4002231
:4055C00043088B4274D303098B425FD3030A8B4244D3030B8B4228D3030C8B420DD3FF22090212BA030C8B4202D31212090265D0030B8B4219D300E0090AC30B8B4201D388
:40560000CB03C01A5241830B8B4201D38B03C01A5241430B8B4201D34B03C01A5241030B8B4201D30B03C01A5241C30A8B4201D3CB02C01A5241830A8B4201D38B02C01AF4
:405640005241430A8B4201D34B02C01A5241030A8B4201D30B02C01A5241CDD2C3098B4201D3CB01C01A524183098B4201D38B01C01A524143098B4201D34B01C01A5241B6
:4056800003098B4201D30B01C01A5241C3088B4201D3CB00C01A524183088B4201D38B00C01A524143088B4201D34B00C01A5241411A00D201465241104670475DE0CA0F2E
:4056C00000D04942031000D34042534000229C4603098B422DD3030A8B4212D3FC22890112BA030A8B420CD3890192118B4208D3890192118B4204D389013AD0921100E0CE
:405700008909C3098B4201D3CB01C01A524183098B4201D38B01C01A524143098B4201D34B01C01A524103098B4201D30B01C01A5241C3088B4201D3CB00C01A5241830810
:405740008B4201D38B00C01A5241D9D243088B4201D34B00C01A5241411A00D20146634652415B10104601D34042002B00D54942704763465B1000D3404201B5002000F009
:4057800005F802BD0029F8D016E770477047C0468446101C62468C46191C634600E0C0461FB501F04BFB002801D40021C8421FBD10B501F09FFA4042013010BD10B501F003
:4057C0003DFB002801DB002010BD012010BDC04610B501F033FB002801DD002010BD012010BDC04610B501F0C5FA002801DC002010BD012010BDC04610B501F0BBFA0028D3
:4058000001DA002010BD012010BDC046F8B54A02430244004E00C50F240E28009B09360EC90F92098D4259D0A01B002800DC8DE0002E1AD1002A00D079E05A0704D00F225D
:405840001A40042A00D004335A0138D50134FF2C00D189E028009B015B0AE4B25B02E4055B0A2343C0071843F8BDFF2CE5D08021C9040A431B2800DD89E016002021C6406F
:40588000081A8240511E8A4132439B1A5A0114D59B019E09300002F061FA05388640844265DC041B330020200134E340041BA640721E964100243343BFE75A07BFD1DF0824
:4058C0002800FF2C2FD1002F00D187E08022D20313003B435B025B0AFF24BFE7A11B002949DD002E29D0FF2CA7D08026F60432431B2900DD8DE017002026CF40711A8A4023
:40590000511E8A413A439B185A01D6D50134FF2C64D0012276491A405B080B4013438CE7031ECAD100207B025B0AE4B296E701380028AAD0FF2C9DD17FE7002A00D17CE7A7
:4059400001390029DFD0FF2CD2D176E7002820D1601CC0B2012853DD80279E1AFF0437402FD0D61A0D0095E72800002376E7614B241A334061E700294DD1611CCEB2012E79
:405980002FDDFF292AD09B185B080C0055E701227BE7002C1BD1002B5BD0C04300280CD0FF2E7ED01B2800DD92E01D002024C540201A8340581E83412B43D31A34000D001B
:4059C00064E7002E00D065E700200024ABE7FF2E67D08024E40440422343E3E7FF2400233CE7002C61D1002B7ED0002A00D124E79B185A0100D460E73E4A0C0013401CE741
:405A0000002C1ED1002B2FD1002A66D013000D0013E7012277E7002C1FD1002B5AD0C94300290BD0FF2E50D01B295FDC1F002024CF40611A8B40591E8B413B439B18340078
:405A400062E7002B1CD1002A4AD013000D00FF24F3E6130034000D00EFE6FF2E35D08024E40449422343DFE7002A00D1E5E68027981AFF04074000D152E7D31A0D00DCE698
:405A8000FF24002A00D1D8E68020DB08C003034204D0D208024201D113000D00DB00FF24CBE61300FF240D00C7E6002B0DD0FF24002A00D1C1E68021DB08C9030B42EDD0D5
:405AC000D2080A42EAD11300E8E71300FF24B4E6012372E713003400AFE60027002022E780270020FF03F1E61300A6E60123A5E7FFFFFF7DFFFFFFFBF0B557464E464546A8
:405B00004300E0B446028846760A1F0EC40F002F47D0FF2F25D0002380259A469946F600ED042E437F3F434642465D02D20F5B006D0A1B0E904640D0FF2B39D080220020CB
:405B4000ED00D20415437F3BFB1842465746591C62408C4607430F2F5CD86F49BF00C9598F46002E45D108239A46063B9946DAE7424602282DD0032800D1C3E0012800D08E
:405B8000A2E0002500260240D4B27602ED05760A2E43E407264330001CBC90469946A246F0BD002E1AD104239A46033B9946BAE72A00511E8A41901CC6E70120002DC3D0D3
:405BC000280002F0CBF8431F76309D4043420020BAE70124FF2514400026D6E7300002F0BDF8431F9E400023763047429A46994699E70C239A46093B994694E780260024FE
:405C0000F603FF25C1E735004846B2E7350022004846AEE72904090C0800370C3604360C2C0C7943704367437443060C64183619B14203D980214902884647440004000CB7
:405C4000310409188D01681E8541890E2943350CED19AD010D43290104D5012369081D4063460D4319007F31002925DD680704D00F202840042800D00435280103D527494A
:405C800080330D401900FE29A3DC0124AD016E0A1440CDB279E78020C003064207D0054205D128434602760A4446FF256DE706437602760AFF2568E70124611A1B2905DD59
:405CC00014400025002660E76346CBE72E002023CE40591A8D406B1E9D412E43730704D00F233340042B00D00436730104D5012401251440002648E70124B601760A1440AF
:405D0000002542E780260124F6032E437602760A1440FF2539E7C04698860000FFFFFFF7F8B54A024E0043024400240EC50F9B09360EC90F9209FF2E00D183E00120414004
:405D4000A01BA9425CD0002800DC95E0002E1CD1002A00D081E05A0704D00F221A40042A00D004335A013BD50134FF2C00D191E001209B015B0AE4B205405B02E4055B0AB8
:405D8000ED0723432B431800F8BDFF2CE3D08021C9040A431B2800DD90E016002021C640081A8240511E8A4132439B1A5A0115D59B019E09300001F0D1FF0538864084423E
:405DC0006CDC041B330020200134E340041BA640721E964100243343BDE70D005A07BCD1DF0801231D40FF2C33D1002F00D190E08022D20313003B435B025B0AFF24BCE735
:405E000000284FDD002E2ED0FF2CA4D08025ED042A431B2800DD97E016002025C640281A8240501E824132439B185A01D5D50134FF2C6DD001227B481A405B08034013430D
:405E40000D0088E7002A00D07AE777E7031EC5D100257B025B0AE4B28FE701380028A4D0FF2C97D177E7002A00D174E701380028DAD0FF2CCDD16EE7002821D1601CC0B2D6
:405E8000012858DD80279E1AFF0437402FD0D61A0D008FE701231D4000236EE7624B241A334058E7002851D1601CC6B2012E33DDFF282DD09B185B0804004CE7012274E737
:405EC000002C1AD0FF2E1FD08024E404404223431B2800DD96E01D002024C540201A8340581E83412B43D31A34000D005EE7002E00D05FE700250024ABE7002B44D0C04387
:405F00000028F0D0FF2EE3D11300FF240D0022E70D00FF24002330E7002C5DD1002B7DD0002A00D117E79B185A0100D456E73E4A040013400FE7002C1ED1002B2FD1002AB3
:405F400065D013000D0006E701226DE7002C1FD1002B59D0C04300280BD0FF2E4FD01B285EDC1D002024C540201A8340581E83412B439B18340058E7002B1CD1002A49D09D
:405F800013000D00FF24E6E6130034000D00E2E6FF2E34D08024E40440422343DFE7002A00D1D8E68027981AFF04074000D14DE7D31A0D00CFE6FF24002A00D1CBE68020CC
:405FC000DB08C003034204D0D208024201D113000D00DB00FF24BEE6002B10D0FF24002A00D1B8E68020DB08C003034203D0D208024200D11300DB000D00FF24ABE613005A
:40600000FF24A8E601236EE713003400A3E6002700251EE780270025FF03E9E613009AE60123A6E7FFFFFF7DFFFFFFFB4302590A4300C20F1B0E00207E2B0EDD9D2B0DDC78
:40604000802000040143952B0BDC9620C31AD9400B005842002A00D118007047034BD018FBE7963B99400B00F3E7C046FFFFFF7FF8B556465F464D464446F0B40F00FD0F83
:40608000AA4609037C002E005F00450F490A7F0D2943C5001803BC46400A570F640DDB0F3843D2009A4500D1AAE06646A61B002E00DCFFE06346002B39D10300134300D06B
:4060C000D9E06B0709D00F232B40042B05D02B1DAB42AD416D4249191D000B0200D482E0CA4B01349C4200D1FEE00A005646C84BED081A405007640552020543120B640D9E
:40610000002112030B0D1B056405120B1A436308C04CF60714401C43640064083443280021003CBC90469946A246AB46F8BDB74B9C42C6D080231B041843382E00DDEBE07B
:406140001F2E00DD1EE120239B1B9C4603006746BB40984613004746F3403B436746BA40571EBA4113430200F240EB1A9D42B6411D008A1A7642911B0B0231D54A02560AE1
:40618000002E00D1B4E0300001F0E8FD0300083B1F2B00DDB5E020222900D21AD1409E400A009D4032439C4200DDB1E01C1B631C1F2B00DDD5E0202114002800C91A8C4098
:4061C000D8408D400443DA40681E854111002543002476E74146314300D134E2310045466B0700D06FE756464807ED08C9080543864B9C4235D00A036405120B640D7FE7C6
:406200006346E31A9B46002B00DC8BE06746002F3CD07E4FBC4200D153E780273F0438435B46382B00DCF7E00243501E82410020D2B253194218AB4289411D0049428918AB
:406240000B02CDD5714B01349C4200D13DE101206F4A6B080A4028401843D507054351082FE72B000B4300D1CBE180231B030B431A03120B44E7013E002E6DD1AE1AB542F0
:406280009B41091A5B42C91A350075E70700174300D116E701235B429C46E3445B46002B00D0E0E0AA18AA429B4109185B4259181500C5E7002E75D1661C7605760D012EDC
:4062C00000DCF3E0AE1AB0464545BF410E1A7F42F61B370200D48FE0551BAA42B641411A76428E1B9A464BE756460022002507E7280001F033FD20300300083B1F2B00DC3A
:4063000049E72A002838824000259C4200DC4DE73F49E41A1140D4E60243501E8241D3B2002222E7002B00D0F3E0631C9C465B055B0D012B00DC9FE0344B9C4500D1C3E0C5
:40634000AA180918AA42804140424118CD075208154349086446B4E62C4B9C4200D0ECE6AFE611001F3CE1400C00202B00D17FE04021CB1A9A4015436A1E95410021254398
:4063800000242DE733000700203BDF403B00202E70D04027BE1BB0400243501E824113430022E2E6002C4FD0184CA44500D1ABE08024240476422143382E00DDDFE01F2E17
:4063C00000DD43E12027BC1BA1460C004F46BC40A0462C004746F4403C434F46BD406F1EBD41F1402C43151BAA429241411A5242891A64469A46BFE641464546314300D0E5
:40640000BEE6002600240025F2E6C046FF070000FFFF7FFFFFFF0F801F2B59DC2027FF1ABC46070063469F405B46B9461700DF40B8464F4643461F4363469A40531E9A41C9
:406440005B463A43D840F4E60C002C435CD0F643002E55D1551BAA42A441411A6442091B9A46644688E6964FBC4200D0D8E628E6002280E700208FE70B002B43002C00D067
:40648000C2E0002B00D101E10300134300D118E6AB18AB42B6410918764271180A0200D409E1884A1D00114064460AE6002C5BD10E002E4300D08AE00100114300D1C2E0AE
:4064C000010015009A46FCE56446002100258FE620235B429C46DC4463460700DF405B46BC46202B00D1ACE040235F46DB1B98400243501E8241634613431A00002098E661
:406500006F4CA44500D057E70100150064469A46D7E5002C39D10C002C436ED0DB43002B1AD0674CA44568D0382B00DDA4E01F2B00DDAEE020240F00E41AA740B9462F0078
:40654000DF40B846A3464F46444627435C46A5406C1EA541D9403D43AD1895429B4109185B42591864466BE60C002C4315D1010011437BD0010015009A46514CA1E50D43F0
:40658000691E8D410021ECB22DE74D4CA44534D0802424045B422143C6E7040014434ED0ED084C072C438025C9082D03294208D0C6082E4205D1D208410711430C009A4624
:4065C0003100620FC900E50011433D4C79E50600164300D175E5AE1AB0464545BF410E1A7F42F61B370200D4F4E5551BAA42B641411A7642891B9A4663E50100150064466C
:406600005FE5002200257BE5002B3BD00300134315D0ED084B072B438025C9082D03294207D0C4082C4204D141070B002100D2081343C9005A0F1143DD00214C41E5204C49
:406640003FE5002054E700260025D1E534000F00203CE7403C00202E2BD04027BE1BB1400D43691E8D4100212C43BCE6802100260903134C0025BBE50D43691E8D4100218A
:40668000EDB269E7010015000D4C1AE50100150017E51C000F00203CE7403C00202B0CD04027FB1A99400D43691E8D410021254352E70021D4E71D0092E50021F3E7C0462D
:4066C000FF070000FFFF7FFFF0B556464D4644465F46F0B41D000E034C00CB0F87B0070092468146360B640D98466AD06D4B9C4235D08022430F12041343F6001E43C30061
:406700009946694B00279C460023644402932B0368001B0BED0F51469B46400D009500D178E0604B98426CD05B46DA004B0F802109040B4313439B465346D9005A4B9C4660
:40674000002360444246201A6A40924601901F430F2F00D9B0E05548BF00C0598746374300D088E0002399460233082700260293CDE74346B34649460093029B009A9246F8
:40678000022B00D0BFE1002153460122002689461A40444B002136030C0D2405360B2643434C1B0526401E437600D207760816434846310007B03CBC90469946A246AB46A3
:4067C000F0BD330003434FD0002E00D1BCE1300001F0C4FA03000B3B1C2B00DDADE11D220100D31A08393A008F408E40DA40B9461643304B00279C460023604444420293C1
:4068000085E753465A4613432CD1002300219B46023397E70B4320D05B46002B00D19EE1584601F09BFA03000B3B1C2B00DD8FE102005946083A91408B461D21CB1A5146EE
:40684000D9400B0059460B4351469B469140194B9C4660444042002374E7002300219B4601336FE703236DE70023994601330427002602934BE703230C27029347E701221E
:40688000D51A382D00DCB0E153461A4000210023002689467EE700238026994600223603004B77E7FF07000001FCFFFFD8860000FFFF0F80F30300005E4500D972E100D158
:4068C0006DE1019B4D46013B01930023340002935B461E020B0E1E430B020393330C994633041B0C494620000093FEF7DBFD009B370043430600494620009846FEF758FEC0
:406900002C0C09040C43A04509D9E419731EA74200D95CE1A04500D859E1023EE4194346E41A49462000FEF7BDFD0300009A80465343494620009B46FEF73AFE2A04090465
:40694000120C0A4393450DD94346D219013B974200D93AE1934500D837E102235B429C46D219E0445B46D21A4346360433439B460399180C0B0C1D00059309045B46090C00
:406980000C001B041B0C4443049159436B4368431B190D0CEB189C4203D980246402A44660441C0C09041B04090C20185D18824200D2DEE000D1D7E0161A029B9C465D1BB9
:4069C000AC459B415B42F61AB74200D106E149463000FEF767FD009B04004343494630009846FEF7E5FD2E0C09040E43B04509D9F619631EB74200D9F3E0B04500D8F0E07A
:406A0000023CF6194346F31A494618000293FEF749FD009B06004343494602989846FEF7C7FD2D0409042D0C0D43A84509D9ED19731EAF4200D9D6E0A84500D8D3E0023EB0
:406A4000ED192404210043463143049E059A3000ED1A0B040C0C1B0C58436643534354439A19030C9B189E4203D980225202944664441A0C00041B04000C14191B18A5424E
:406A800050D34DD001231943964A019B94466344002B00DCF3E64A0709D00F220A40042A05D00A1D8A42894149428B4411005A46D20108D55A468C4B1A4093468022D200FB
:406AC0009446019B6344894A934200DD5BE65A46C908500708435602514601225B058146360B5B0D0A4055E680231B031E4211D05A461A420ED15E461E433603360B2A00B3
:406B000089467B4B46E6032B00D1E1E0012BBBD11A40BBE61E433603360B4246744B39E6002BB1D07D194A1EAF4252D91100A542A8D1039A9A42A5D1A6E703003E00283B89
:406B40009E400023994654E601F008F9203041E603005246283B9A400021934677E6504601F0FCF820305EE6029B0026AB4200D323E7039E0299B44661448846B045B64132
:406B80005B467642F619B218013B0291974213D290424FD800D18EE0161A9B460DE7894500D28EE674084B46F60735005B081D434B46DB0702938BE69742EDD10399029C79
:406BC000A142E5D93E1A9B46F7E69846CAE61E00A5E6AC423ED874D0110053E70121494252E71C000EE71E002BE71F2D3CDC20230A0058465B1B9840EA4099400243481EA2
:406C000081415E461143EE404B0709D00F230B40042B05D00B00191D99429B415B42F61833023CD55346012200211A40002601238946AFE502235B429C46039CE344A4469F
:406C4000029B63449846A045B6417642F6190293B218B1E603988A1E41008142B6417642F619AD19039161E71F225242D31A5A46DA401300202D29D040225846551BA84085
:406C80000143481E814107200B4318400026002809D00F2200261A401900042ABBD10B0070077602360BDB0803439946012253461A4000236EE502998D42BBD89B4600261D
:406CC0007BE603989842C5D3110032E70020D7E780265B4636031E433603360B009A8946034B57E5FF030000FFFFFFFEFE070000FF070000F0B55F4656464D464446F0B421
:406D00001F035C00DB0F9A46194B0E034D00C90F8046360B6D0D8B4691463F0B640D9D4219D0134B9C421BD00123A54206D018003CBC90469946A246AB46F0BDBE42F6D1AB
:406D4000C845F4D1D34510D0002DF0D1304303005A1E9341EBE7310001230143E7D1E0E73A430123002AE2D1DEE70023DFE7C046FF070000F0B55F46444656464D46F0B4D0
:406D80001F033C0B2C4F0E034D00A3465C008446360B6D0DC90F9046640DDB0FBD422BD0254FBC422ED0002D0ED130430700814678427841002C17D15F463A4314D14B46E8
:406DC0000020002B0AD006E0002C02D15846024301D099421AD00123484218433CBC90469946A246AB46F0BD0028F2D058425841012240421043F1E737000743D0D00220A4
:406E00004042EBE75F461743CDD0F8E7A542E2DC05DB5E45DFD808D000205E45DED248424841012340421843D8E7C445D3D80020C445F4D3D2E7C046FF070000F0B55F46D3
:406E40004D4644465646F0B41C03240BA4462F4C0F034D005E00C90F80463F0B6D0D8B469146760DDB0FA54220D0284CA64222D0002D12D1384344424441002E20D0002CC9
:406E80000DD05C42634101245B421C4320003CBC90469946A246AB46F0BD002E17D05B4519D05B465C4201231C43EFE7390002240143EBD1D9E7614602241143E6D1D7E754
:406EC00061460A43DBD100240028DFD0E9E761460A43E4D1E5E7B54203DD01225C421443D4E7B542CDDB6745DBD809D000246745CCD259464C426141012449420C43C5E749
:406F0000C845CED80024C845F3D3BFE7FF070000F0B55F4656464D464446F0B40D0399464E002B0B87B00700924680469B46760DCC0F002E69D06D4B9E4235D05B4680227F
:406F4000DD001204430F13432B439B46C3009846674B00279C460023664401934A4615035000D20F53462D0B400D914600D176E05E4A90426CD080225B0F120413435C4AA1
:406F8000ED0094461D4353460022DB00604449463618701C6140029017430F2F00D9AFE05448BF00C759BF465B461F4300D088E000239B469846023308270193CEE74946FB
:406FC000022A6AD0032A00D109E2012A00D0BBE111400022002300259046CCB200212D030A0D12052D0B1543434A1B0515401D436D00E4076D0825434046290007B03CBC98
:4070000090469946A246AB46F0BD034352D05B46002B00D18AE1584600F0A0FE03000B3B1C2B00DD7BE11D22D31A3A0001005D46DA4008398D4013008F402B439B46B8464F
:407040002E4B00279C46002360444642019385E752462A432CD100250023022297E752462A4321D0002D00D154E1280000F076FE03000B3B1C2B00DD46E11D21CB1A514650
:407080000200D9405346083A954093400D431B4A944660444042002279E7012400220C40124B0025904699E70025002301226EE703226CE700239B46984601330427019383
:4070C0004CE703230C27019348E700238025984600242D03054B81E75D464346019A6FE75D4643462100019A6AE7C046FF07000001FCFFFF18870000FFFF0F80F303000010
:407100004246120C91461A0C9446424617044A461B041B0C5A43604690464A4642431000039262461C003F0C7A437C4342440192220C9246019A5244904506D9824680208F
:4071400040028046C24450460390100C049048462404240C1204121905922A0C2D042D0C68432C00824648467C4350438146200C8046574357444744BA4503D98020400215
:407180008046C144380C3F04B84648442404240C01900498A044404404905846000C814658460404200C8246070048465F434C464343604660436446834650464443380CFB
:4071C0008446E4186444A34203D980235B029C46E34448463F04230C3F0C2404E419574668436F4384464D46504655434243380C814662444A445B44944503D98020400268
:407200008446654403983F04834604983F0C8446E344C345804140428246100484460198674484466744A344BC46A345A4419946D44464428742BF41D4458041E144A046B1
