:400000000040002011000000E5070000E507000008B500F0E9FBC04670B52C4C1223236000F0CCFD2A4802F0DBF8182000F07CFD00F006FD274A284B1A60284D8026F60593
:400040002E600021264B1960264B274A1A609C225202264802602648186026480260264A1A60E022120125480260254818602548026025481860254802602548186025486B
:400080000260254A1A6080221206244B1A60244B19604622234B1A60013A234B1A60013A224B1A60033A224B1A600232214B1A60013A214B1A600720204900F071FC072062
:4000C00000F058FC2E601123236070BD30001040001BB7000600008004010B400C020B40000301400000014040FF00801803014046FF00801403014045FF008010030140F4
:4001000044FF00800403014041FF00800C03014043FF00800803014042FF008008010B4000010B40580101405001014014010140100101400C01014008010140A90C000014
:4001400038B572B601224A4B1A70002410E0494863001A195200821891881B195B001A5AC31858880004104300F0B6FB0134E4B2022CECD9002412E03E4DA3001A195200AB
:40018000AA18918AD08A00040843131C128B598B09041143802200F0A5FB0134E4B2002CEAD03449081C2030483100F06BFBA0221201314B1A800123304A1370EE22304970
:4001C0000A60304830490860EE2000022F490860AA202F4908602F490A602F490A60992212042E490A602E482E490860802080052D4908608020C0052C4908602C490A60B3
:400200002C4A13602C4A13602C4B197802220A431A702B4802783C218A4328390A430270197816220A431A700322264B1A60242325490B60C32025490860254825490860E6
:40024000D8200001244908602449022008600F302349086023490A6023490B6023490A60234A1360FFF7D8FE00F026FB38BDC0461C700F409830000000600F4002600F4068
:4002800000010240EE000030000202400003024000040240000502400006024010500F400400990020500F4024500F4028500F4030500F402000104000800F4000700F401D
:4002C00001700F40000104400801044000020440A46D4700080204400803044000040440080404400005044008050440000604400806044010B5064C2378002B07D1054B9E
:40030000002B02D0044800E000BF0123237010BDE8000020000000009430000008B5084B002B03D00748084900E000BF07480368002B00D108BD064B002BFBD09847F9E7B7
:400340000000000094300000EC000020C80000200000000000B583B001AB187059701320191C0222002301F065F901F03BF98307FBD503B000BDC04600B583B001A90870E3
:4003800000236A46137013200122023301F052F901F028F98307FBD5132069460122012301F0BEF901F01EF9C307FBD56B46187803B000BD10B58120FFF7DEFF21280ED030
:4003C000012000F093FAFA246400201C00F020FB002000F08BFA201C00F01AFB1DE0002000F084FA0122154B1A600FE0012000F07DFAC82000F00CFB002000F077FAC82079
:4004000000F006FB0D4A1368013313600B4B1B68042BEBDD002000F069FA84200F21FFF799FF83201421FFF795FF89200021FFF791FF8A208121FFF78DFF10BD040100203B
:4004400000B583B001AB187059701320191C0222002301F08FFA01F065FA8307FBD503B000BDC04600B583B001A9087000236A46137013200122023301F07CFA01F052FABF
:400480008307FBD5132069460122012301F0E8FA01F048FAC307FBD56B46187803B000BD10B58120FFF7DEFF21280ED0012000F029FAFA246400201C00F0AAFA002000F072
:4004C00021FA201C00F0A4FA1DE0002000F01AFA0122154B5A600FE0012000F013FAC82000F096FA002000F00DFAC82000F090FA0D4A5368013353600B4B5B68042BEBDDC2
:40050000002000F0FFF984200F21FFF799FF83201421FFF795FF89200021FFF791FF8A208121FFF78DFF10BD0401002000B583B001AB187059701320191C0222002301F05A
:40054000B9FB01F08FFB8307FBD503B000BDC04600B583B001A9087000236A46137013200122023301F0A6FB01F07CFB8307FBD5132069460122012301F012FC01F072FBB7
:40058000C307FBD56B46187803B000BD10B58120FFF7DEFF21280ED0012000F0BFF9FA246400201C00F034FA002000F0B7F9201C00F02EFA1DE0002000F0B0F90122154B9E
:4005C0009A600FE0012000F0A9F9C82000F020FA002000F0A3F9C82000F01AFA0D4A9368013393600B4B9B68042BEBDD002000F089F984200F21FFF799FF83201421FFF74A
:4006000095FF89200021FFF791FF8A208121FFF78DFF10BD0401002000B583B001AB187059701320191C0222002301F0E3FC01F0B9FC8307FBD503B000BDC04600B583B054
:4006400001A9087000236A46137013200122023301F0D0FC01F0A6FC8307FBD5132069460122012301F03CFD01F09CFCC307FBD56B46187803B000BD10B58120FFF7DEFF6D
:4006800021280ED0012000F055F9FA246400201C00F0BEF9002000F04DF9201C00F0B8F91DE0002000F046F90122154BDA600FE0012000F03FF9C82000F0AAF9002000F050
:4006C00039F9C82000F0A4F90D4AD3680133D3600B4BDB68042BEBDD002000F02BF984200F21FFF799FF83201421FFF795FF89200021FFF791FF8A208121FFF78DFF10BDE7
:400700000401002010B500F0FFFE00F0F1FE012000F0F8F801F098F801F08AF8012000F0FDF801F031FA01F023FA012000F002F901F0CAFB01F0BCFB012000F0D7F8642010
:4007400000F066F9FFF736FEFFF7AAFEFFF71EFFFFF792FF62B600F08BFD01221D4B1A7000F058FE00F014FB032000F015FE00F049FB012000F0BAF8012000F0C3F80120D4
:4007800000F0CCF8012000F0D5F8FA20800000F03FF9114C0123237000F0C2FD322000F037F90223237000F0BBFD322000F030F900220A4B1A7000F0DDFD094B1B78002B08
:4007C00003D1002000F0AAF8D3E7012000F0A6F8CFE7C0467A01002078010020760100206F010020FEE7C04670B50F4E0F4D13E029686B68AC68002202E001C901C30432F7
:40080000A242FAD1E868002202E0002102C304328242FAD11035013E002EE9D102F002FCFFF770FFFEE7C046010000003435000008B50F4A136801218B43136000230AE0F3
:40084000032B03D89A000B49505800E00A4899000A4A885001332F2BF2D9FFF771FC0022074B1A60024A116801230B43136008BD0000104000000000E5070000000000206D
:40088000C0000020F0B50025002711E0BB00C658F3B2FF22964308E06A008A181478A419527822700135013BDBB2002BF4D10137092FEBD9F0BDC0460323044A1360044A5A
:4008C00013600022034B1A607047C0463000304030003140000E3F4008B50A1C002102F0D0FB08BD08B502F0C3FB08BD04490A68FB231A408000F73B1840104308607047A5
:400900000002044004490A68F7231A40C000EF3B18401043086070470002044004490A68EF231A400001DF3B18401043086070470002044004490A68DF231A404001BF3B98
:40094000184010430860704700020440024A1168024B0B401360704700002240FFFFFFBF034B18688023DB05184000D001207047000022401F2318401E3B8340181C014BD9
:400980001860704700E100E01F2318401E3B8340181C014B1860704780E100E001BE704738B5041C0D1C1F2802D90020FFF7F6FFA400034B9C4664442068256038BDC04644
:4009C0004000002070B5041C0E1E032E02D90020FFF7E4FF1F2C02D90020FFF7DFFF03252540ED00063501F004FCA408A400074B9C46644423680322AA409343AE40351C86
:400A00001D43256001F0F9FB70BDC04600E400E010B5041C06E0084B186801F0E1FB074B9C46644480231B029C42F4D8024B5868604301F0D5FB10BDCC0000200080FFFF9C
:400A400030B583B000F0DAF8002856D001F0D1FB041C00230AE02A4A11683F220A402949C95C8A4201D1033303E001332D2BF2D90323254A1268D20606D1234802681F2154
:400A80008A4313390A430260204A1168204A1140204A5A438020C00184466244D20B013A5205520D0A43A02149031143192B02D819490A430BE0194A9A1812781148C318F1
:400AC0009B7DD218FF2A00D9FF2292050A430F4B1A60134D2B680193302001F091FB114A13688021C9050B4313601420FFF790FF019B2B60201C01F080FB03B030BDC04691
:400B00002CFF0B406833000034FF0B400800224000F800C040420F000000D43FCDF1FF0F300010400000224030B587B0041C01F060FB051CFFF714FF002803D0FFF706FF0A
:400B4000012100E00021104B1B6800930F4B1B680193033C0E4B1B5D02930E4B1B68039304AA0D4B04936B4605930C4B1A600C480C4A10601B68012901D1FFF761FF281C6F
:400B800001F03BFB07B030BD08010B4000010B406833000030001040B6EA0000080010401700008004001040034B1868C0231B02184000D00120704700010B4010B50D4B95
:400BC0001A6801218A431A601A68022082431A60094A10683024A043203C204310601068093CA043014311601A68802109060A431A6010BD00002240000F2240034B1B6837
:400C0000002B01DA012000E0002070470000224008B501F0EEFA044A1368C02109020B43136001F0EAFA08BD00010B4010B501F0E0FA08490A68084B1A408024E401224394
:400C40000A600A6813408022120213430B6001F0D4FA10BD00010B40FF3FFFFF70B5061C01F0C7FA041CFFF79FFF002803D0FFF7DDFF012500E000250848331C0340084AE1
:400C8000106808490840184310601368012D01D1FFF7BEFF201C01F0B0FA70BD0404040010020B40FBFBFBFF10B5244B1B685B0715D5234B5B685B070ED5224B596A042000
:400CC00001401F4C62688A4362605A6A82435A629B69002B00D098470420FFF7BFFF174B1B685B0518D5164B5B685B0510D5154B596A8022D2001140114842688A434260FF
:400D0000596A114A0A405A62DB69002B00D098478020C000FFF7A2FF084B1B685B030CD5074B5B685B0304D5064B1B6A002B00D098478020C002FFF791FF10BD10020B4057
:400D4000DC00002014010020FFFBFFFF0622044B1A704132034B1A70453A034B1A70704720000F4030000F4081000F4010B501F040FA041C054A117810230B431370FF2027
:400D800000F016F8201C01F038FA10BD91000F4008B5064B1B78002B04D1FFF7D7FF0122024B1A70FFF7E2FF08BDC0463C010020044B1B68002BFBDB0002034B1843014BF9
:400DC00018607047000001404600008008B50C4A136801218B431360F023DB0100E0013B002B03D0064A1268D207F8D4002B04D01B20FFF7C9FD002000E0012008BDC04672
:400E000010002E40054B1A6801210A431A601B68194201D1012000E00020704704002E4008B50E4A0E4B1A60FFF7ECFF1B20FFF7A1FD0C4A116801230B43136090231B0164
:400E400000E0013B002B03D0064A1268D207F8D5002B01D1012000E0002008BD0112000000002E4010002E4003B2002B0DDB094A1168094B0B400004034313601268074B4A
:400E80001340984203D0012002E0022000E000207047C04614002E40FFFF00800000FF7F002809D10C4B19680C4A0A401A601B68DB040CD501300DE0074B1A6880214901BE
:400EC0000A431A601B680B4203D1012002E0002000E000207047C04614002E40FFEFFFFF70B5841E0D2C36D88C1E052C03D9002B33D1012933D1032A33D8824233D88A4244
:400F000033D81D4E3468250AF0242C40204335681A4C254004022C4334603568F02424012C400F2528400002844220D1002B00D002234901C9B29200D2B2114319430E4A82
:400F40001368EE2083430B4313601368034099420FD0ED380EE002200CE002200AE0022008E0022006E0022004E0022002E0012000E0002070BDC04614002E40FFF0FFFFDD
:400F8000002809D10B4B1A6810218A431A601B6819420BD001300CE0064B1A6810210A431A601B68194203D1012002E0002000E00020704714002E40002809D10B4B1A6856
:400FC00001218A431A601B6819420BD001300CE0064B1A6801210A431A601B68194203D1012002E0002000E00020704714002E40044B18601B689BB2834201D0012000E0BA
:401000000020704704002E4010B503785B01204A944663441F4A41680A431A6003785B01634419681C4A11401C4A44682240914224D182681A6103785B0163441A698168C6
:401040008A421DD1C2685A6103785B0163445A69C1688A4216D1012252429A6103785B0163449A6901320FD10022DA6103785B016344DB69002B09D0012008E0012006E03B
:40108000012004E0012002E0012000E0002010BDA0002E40800080007F007F007FFF7FFF10B503781B01104A944663440F4A41680A431A6003781B01634419680C4A1140CC
:4010C0000C4A4468224091420AD182685A6003781B0163445A6883689A4203D0012002E0012000E0002010BD20002E4008008000F7007F00F7FF7FFF38B500240AE0630051
:401100001B199B001048C018FFF7CAFF002805D10134E4B2072CF2D9002500E00125002D0BD00FE0230108486030C018FFF76CFF002806D10134E4B200E000240F2CF1D9F8
:4011400000E00125281C38BDB0330000002809D10C4B19680C4A0A401A601B689B040CD501300DE0074B1A68802189010A431A601B680B4203D1012002E0002000E00020AB
:401180007047C04614002E40FFDFFFFF08B580221206334B1A60334A136801218B431360F023DB0100E0013B002B03D02D4A1268D207F8D4002B49D01B20FFF7E5FB1B201B
:4011C0002949FFF7EDFB1B200321FFF7FBFB0B20FFF74AFE002819D1FFF762FE002817D1FFF7B4FF002815D10B30022102220023FFF776FE00280FD1FFF7C2FE00280DD1E9
:40120000FFF7DAFE00280BD001230AE0012308E0012306E0012304E0012302E0012300E00023002B14D1FFF767FF002812D10F48FFF7DEFE00280FD10A4B1A6807218A4310
:401240001A601B68194209D0013008E0012006E0012004E0012002E0012000E0002008BD00042E4010002E40011300000112000008B5084B1B78002B02D1FFF787FF00E01B
:401280000020002804D10122024B1A70FFF7C8FD08BDC0463E01002008B580229200024B1A60FFF793FD08BD00002E4038B580225201104B1A600125002418E00E4B1B68EC
:4012C0001D4210D063010D4A944663441B689B0609D5EB0704D5002C05D100F04BF802E0201C00F039F86D00ADB20134E4B20F2CE4D938BD00002E4008002E40A0002E40BC
:4013000008B5064B1B689B0501D5FFF7C5FF034B1B68DB0401D5FFF7C9FF08BD00002E400A4B1B68DB070FD409490B681B021B0A084A1278120613430B60044A1168012331
:401340000B431360002000E00120704720002E4028002E40780100204001054B9C4660440368DB0703D502680123134303607047A0002E40054B1B681B0E054A1370054AB2
:40138000116801230B4313607047C046A8002E406F010020A0002E40014B18707047C04671000F4008B500200849FFF7F9FA00200321FFF707FB0022054B1A707132054BCB
:4013C0001A70513A044B1A7008BDC046351400003F01002082000F4083000F4010B500F008FF041C094A117820230B431370084A117810230B4313700020FFF7BBFAFF2053
:4014000000F05EF8201C00F0F8FE10BD92000F4093000F4008B5064B5B78002B04D1FFF7C1FF0122024B5A70FFF7D8FF08BDC0463F0100201A4B1B78DBB21E221A4204D0F6
:4014400018481A4001780A4302702022134024D0154A1178C9B2154A1278D2B214488154144A1278002A02D00121134A11700F490A780132D2B20A700A78D2B20F2A02D9E7
:4014800000210A4A1170094A12780C490978D2B28A4202D10121074A1170002BCAD1704763000F403F01002042000F40420100208C01002043010020440100204101002011
:4014C000044B1B68002BFBDB0002034B1843014B18607047000001404500008008B50920FFF748FA08BDC04608B500F01DF808BD08B5044A1368802109060B431360FFF790
:40150000EDFF08BD0000254008B5064B1B78002B04D1FFF7E9FF0122024B1A70FFF7E8FF08BDC0464801002010B50024194B1C60194A1A4B1A601A4B1A4A13601A4A1460EC
:401540001A4A14601A4A13601A4B1C600920FFF71BFA09200321FFF735FA09201649FFF71FFA164B1C60164B1C60164B1C601422FF32154B1A60154B1C60154B1C60043AD0
:40158000FF3A144B1A70144B1C80144B1C60144B1C6010BD00002540770800806000254007010080000325400403254010032540000225400402254055220000C80E25400A
:4015C000880E2540480F2540080F2540C80F2540880F25409C010020B0010020B8010020A001002010B50920FFF7CEF9074B1B889BB21C1C064A1278920601D504241C4364
:401600000920FFF7B7F9201C10BDC046B00100209C010020054B1B682022134000D0082301221343024A13607047C0466400254068002540F0B583B001900C1C171C1D1C53
:40164000002919D0284B1B78102B0AD10920FFF79BF9264B1B68DB0701D508260FE000260DE0214B1B78602B08D1214A138808218B431380002602E0042600E00426002E50
:401680002BD12822184B1A7000231A4A13601A4A13601A4B1F601A4B1C60EAB2194B1A70019B5C00FF231C40114A138802218B431380154A154B1A604023154A1360154A1A
:4016C0001360EB0704D5FFF7A5FF134B1C6004E0114B1C600222114B1A600920FFF74AF9301C03B0F0BDC0469C01002064002540B0010020A8010020A0010020A4010020C8
:40170000B4010020C001002017030000000F2540800F2540880F25404002254068002540F0B583B001900C1C171C1D1C002919D02D4B1B78102B0AD10920FFF725F92B4B1E
:401740001B68DB0701D508260FE000260DE0264B1B78602B08D1264A138808218B431380002602E0042600E00426002E35D129221D4B1A7000221F4B1A601F4A17601F4B04
:401780001C60EBB21E490B70019B5C00FF231C400120044316490B8883430B8019491A4B19601368072B03D80422184B1A6008E0174A1368802149000B4313600822134B4B
:4017C0001A60EB0704D5FFF725FF124B1C6004E0104B1C600222104B1A600920FFF7CAF8301C03B0F0BDC0469C01002064002540B0010020B8010020BC010020AC01002090
:40180000C001002017030000000F2540C80F254060002540400225406800254008B50A20FFF7A8F808BDC04608B500F01DF808BD08B5044A1368802109060B431360FFF708
:40184000EDFF08BD0000264008B5064B1B78002B04D1FFF7E9FF0122024B1A70FFF7E8FF08BDC0465001002010B50024194B1C60194A1A4B1A601A4B1A4A13601A4A1460A0
:401880001A4A14601A4A13601A4B1C600A20FFF77BF80A200321FFF795F80A201649FFF77FF8164B1C60164B1C60164B1C601422FF32154B1A60154B1C60154B1C60043A70
:4018C000FF3A144B1A70144B1C80144B1C60144B1C6010BD000026407708008060002640070100800003264004032640100326400002264004022640C9250000C80E264048
:40190000880E2640480F2640080F2640C80F2640880F2640C1010020CC010020E0010020C801002010B50A20FFF72EF8074B1B889BB21C1C064A1278920601D504241C432A
:401940000A20FFF717F8201C10BDC046CC010020C1010020054B1B682022134000D0082301221343024A13607047C0466400264068002640F0B583B001900C1C171C1D1C6D
:40198000002919D0284B1B78102B0AD10A20FEF7FBFF264B1B68DB0701D508260FE000260DE0214B1B78602B08D1214A138808218B431380002602E0042600E00426002EA7
:4019C0002BD12822184B1A7000231A4A13601A4A13601A4B1F601A4B1C60EAB2194B1A70019B5C00FF231C40114A138802218B431380154A154B1A604023154A1360154AD7
:401A00001360EB0704D5FFF7A5FF134B1C6004E0114B1C600222114B1A600A20FEF7AAFF301C03B0F0BDC046C101002064002640CC010020D4010020C8010020D00100205C
:401A4000E4010020C401002017030000000F2640800F2640880F26404002264068002640F0B583B001900C1C171C1D1C002919D02D4B1B78102B0AD10A20FEF785FF2B4B3C
:401A80001B68DB0701D508260FE000260DE0264B1B78602B08D1264A138808218B431380002602E0042600E00426002E35D129221D4B1A7000221F4B1A601F4A17601F4BC1
:401AC0001C60EBB21E490B70019B5C00FF231C400120044316490B8883430B8019491A4B19601368072B03D80422184B1A6008E0174A1368802149000B4313600822134B08
:401B00001A60EB0704D5FFF725FF124B1C6004E0104B1C600222104B1A600A20FEF72AFF301C03B0F0BDC046C101002064002640CC010020E0010020D8010020DC0100202F
:401B4000C401002017030000000F2640C80F264060002640400226406800264008B50B20FEF708FF08BDC04608B500F01DF808BD08B5044A1368802109060B431360FFF755
:401B8000EDFF08BD0000274008B5064B1B78002B04D1FFF7E9FF0122024B1A70FFF7E8FF08BDC0465801002010B50024194B1C60194A1A4B1A601A4B1A4A13601A4A146054
:401BC0001A4A14601A4A13601A4B1C600B20FEF7DBFE0B200321FEF7F5FE0B201649FEF7DFFE164B1C60164B1C60164B1C601422FF32154B1A60154B1C60154B1C60043AFB
:401C0000FF3A144B1A70144B1C80144B1C60144B1C6010BD0000274077080080600027400701008000032740040327401003274000022740040227403D290000C80E274084
:401C4000880E2740480F2740080F2740C80F2740880F2740E8010020F0010020EC0100200802002010B50B20FEF78EFE074B1B889BB21C1C064A1278920601D504241C43E4
:401C80000B20FEF777FE201C10BDC046F0010020E8010020054B1B682022134000D0082301221343024A13607047C0466400274068002740F0B583B001900C1C171C1D1C77
:401CC000002919D0284B1B78102B0AD10B20FEF75BFE264B1B68DB0701D508260FE000260DE0214B1B78602B08D1214A138808218B431380002602E0042600E00426002E04
:401D00002BD12822184B1A7000231A4A13601A4A13601A4B1F601A4B1C60EAB2194B1A70019B5C00FF231C40114A138802218B431380154A154B1A604023154A1360154A93
:401D40001360EB0704D5FFF7A5FF134B1C6004E0114B1C600222114B1A600B20FEF70AFE301C03B0F0BDC046E801002064002740F0010020FC01002008020020F4010020E0
:401D8000040200200C02002017030000000F2740800F2740880F27404002274068002740F0B583B001900C1C171C1D1C002919D02D4B1B78102B0AD10B20FEF7E5FD2B4B2B
:401DC0001B68DB0701D508260FE000260DE0264B1B78602B08D1264A138808218B431380002602E0042600E00426002E35D129221D4B1A7000221F4B1A601F4A17601F4B7E
:401E00001C60EBB21E490B70019B5C00FF231C400120044316490B8883430B8019491A4B19601368072B03D80422184B1A6008E0174A1368802149000B4313600822134BC4
:401E40001A60EB0704D5FFF725FF124B1C6004E0104B1C600222104B1A600B20FEF78AFD301C03B0F0BDC046E801002064002740F0010020EC010020F801002000020020F0
:401E80000C02002017030000000F2740C80F274060002740400227406800274008B50820FEF768FD08BDC04608B500F01DF808BD08B5044A1368802109060B431360FFF769
:401EC000EDFF08BD0000244008B5064B1B78002B04D1FFF7E9FF0122024B1A70FFF7E8FF08BDC0466001002010B50024194B1C60194A1A4B1A601A4B1A4A13601A4A14600C
:401F00001A4A14601A4A13601A4B1C600820FEF73BFD08200321FEF755FD08201649FEF73FFD164B1C60164B1C60164B1C601422FF32154B1A60154B1C60154B1C60043AA3
:401F4000FF3A144B1A70144B1C80144B1C60144B1C6010BD000024407708008060002440070100800003244004032440100324400002244004022440B12C0000C80E2440E2
:401F8000880E2440480F2440080F2440C80F2440880F24400D02002018020020240200202002002010B50820FEF7EEFC074B1B889BB21C1C064A1278920601D504241C43B5
:401FC0000820FEF7D7FC201C10BDC046180200200D020020054B1B682022134000D0082301221343024A13607047C0466400244068002440F0B583B001900C1C171C1D1C90
:40200000002919D0284B1B78102B0AD10820FEF7BBFC264B1B68DB0701D508260FE000260DE0214B1B78602B08D1214A138808218B431380002602E0042600E00426002E65
:402040002BD12822184B1A7000231A4A13601A4A13601A4B1F601A4B1C60EAB2194B1A70019B5C00FF231C40114A138802218B431380154A154B1A604023154A1360154A50
:402080001360EB0704D5FFF7A5FF134B1C6004E0114B1C600222114B1A600820FEF76AFC301C03B0F0BDC0460D020020640024401802002028020020200200201402002090
:4020C000300200201002002017030000000F2440800F2440880F24404002244068002440F0B583B001900C1C171C1D1C002919D02D4B1B78102B0AD10820FEF745FC2B4B6B
:402100001B68DB0701D508260FE000260DE0264B1B78602B08D1264A138808218B431380002602E0042600E00426002E35D129221D4B1A7000221F4B1A601F4A17601F4B3A
:402140001C60EBB21E490B70019B5C00FF231C400120044316490B8883430B8019491A4B19601368072B03D80422184B1A6008E0174A1368802149000B4313600822134B81
:402180001A60EB0704D5FFF725FF124B1C6004E0104B1C600222104B1A600820FEF7EAFB301C03B0F0BDC0460D0200206400244018020020240200202C0200201C0200207C
:4021C0001002002017030000000F2440C80F2440600024404002244068002440000000000230800803D00138FDD1C046C046C0467047EFF3108072B6704780F3108870473F
:4022000038B5041CFFF7F5FF051C102C05D8104A136803218B43136016E0202C07D80C490B6803229343023A13430B600CE0302C07D807490B6803229343013A13430B6071
:4022400002E00020FEF7AAFB281CFFF7D6FF38BD3000104010B5B94B1B68002B00D09847B74B1B68DB0702D50022B64B1A60B64B1B789B0628D5B54B1B68DB0507D5B44ACE
:402280001188C0239B000B431380012300E00023AE4A1268D20706D5AD4A118890239B000B4313800123002B0FD0A74A1278D20701D5012200E00222A549088802430A804E
:4022C0000021A14A117000E000239F4A1278920600D417E19D4A1268D20611D510229D4B1A60994B1B78DB0701D5012300E00223974A11880B4313801022934B1A701BE17B
:40230000914A1278120720D5904A126892070AD50222904B1A608E4A118888239B000B431380012311E0884A1278D20703D52521854A117009E02421834A1170864A1268CF
:40234000002A02D01439854A11607F4A1278520700D4AEE07C4A1278D20749D5804A1268120727D57F4A12687F4909681F240C407E4909686418141B082C09D8002C16D110
:402380007B4A11687B4B0B401360012308340EE008240CE0754A116877480068411877480068C0B20870116801311160013C002CF0D119E06A4A1268520715D56B4A11684E
:4023C0006D48006841186D480068C0B208701168013111601168634A1268914203D20421674A116000E001236649674A116060E0564A1268920726D50222564B1A60634A06
:4024000013681F211940136880221202134000D00123CB185E4A1168CB1A136012685D4B1A604B4A118884239B000B4313805A4B1A68802149020A431A601968574A0A4081
:402440001A60012335E0564A1268D2061ED427E04F4A1168404A126891421DD23E4A1268013A4B4909688A4204D140224D490A603A490A60464A11684B48006841180978D6
:40248000C9B24A4801601168013111603F4A12681F210A40082ADBD11021424A116008E03F4A1268520604D5394B1A68394B1A600123002B40D02E4A11682E4B0B40136052
:4024C00000233B4A1360254A13603A4B1B789B070ED51D4B1B78DB0701D5092300E00A231B4A11880B4313806022174B1A7023E0314B1B689B0601D5182200E01022204BD9
:402500001A6019E0104B1B78DB0615D42B4A13685B005B08136010210B4B1970144B186827490140196018682649014019601368802109060B43136010BDC0464C01002061
:402540008C0E2540880E25409C0100200C0F2540B0010020000F2540A4010020880F2540CC0F2540BC01002008032540B801002060002540FFFEFFFFAC0100204003254083
:4025800068002540ED0F0000C00F254008022540A8010020A001002004022540FFFFFEFF8C0F2540800F2540B401002040022540C80F2540C0010020640025400000254004
:4025C000FF5FFFFFFFFCFFFF10B5B94B1B68002B00D09847B74B1B68DB0702D50022B64B1A60B64B1B789B0628D5B54B1B68DB0507D5B44A1188C0239B000B4313800123FA
:4026000000E00023AE4A1268D20706D5AD4A118890239B000B4313800123002B0FD0A74A1278D20701D5012200E00222A549088802430A800021A14A117000E000239F4A6D
:402640001278920600D417E19D4A1268D20611D510229D4B1A60994B1B78DB0701D5012300E00223974A11880B4313801022934B1A701BE1914A1278120720D5904A1268A9
:4026800092070AD50222904B1A608E4A118888239B000B431380012311E0884A1278D20703D52521854A117009E02421834A1170864A1268002A02D01439854A11607F4AC1
:4026C0001278520700D4AEE07C4A1278D20749D5804A1268120727D57F4A12687F4909681F240C407E4909686418141B082C09D8002C16D17B4A11687B4B0B4013600123F9
:4027000008340EE008240CE0754A116877480068411877480068C0B20870116801311160013C002CF0D119E06A4A1268520715D56B4A11686D48006841186D480068C0B2AB
:4027400008701168013111601168634A1268914203D20421674A116000E001236649674A116060E0564A1268920726D50222564B1A60634A13681F21194013688022120242
:40278000134000D00123CB185E4A1168CB1A136012685D4B1A604B4A118884239B000B4313805A4B1A68802149020A431A601968574A0A401A60012335E0564A1268D2069E
:4027C0001ED427E04F4A1168404A126891421DD23E4A1268013A4B4909688A4204D140224D490A603A490A60464A11684B48006841180978C9B24A4801601168013111606E
:402800003F4A12681F210A40082ADBD11021424A116008E03F4A1268520604D5394B1A68394B1A600123002B40D02E4A11682E4B0B40136000233B4A1360254A13603A4BD6
:402840001B789B070ED51D4B1B78DB0701D5092300E00A231B4A11880B4313806022174B1A7023E0314B1B689B0601D5182200E01022204B1A6019E0104B1B78DB0615D4AC
:402880002B4A13685B005B08136010210B4B1970144B186827490140196018682649014019601368802109060B43136010BDC046540100208C0E2640880E2640C101002023
:4028C0000C0F2640CC010020000F2640D0010020880F2640CC0F2640D801002008032640E001002060002640FFFEFFFFDC0100204003264068002640ED0F0000C00F2640F5
:4029000008022640D4010020C801002004022640FFFFFEFF8C0F2640800F2640E401002040022640C80F2640C40100206400264000002640FF5FFFFFFFFCFFFF10B5B94BCF
:402940001B68002B00D09847B74B1B68DB0702D50022B64B1A60B64B1B789B0628D5B54B1B68DB0507D5B44A1188C0239B000B431380012300E00023AE4A1268D20706D56B
:40298000AD4A118890239B000B4313800123002B0FD0A74A1278D20701D5012200E00222A549088802430A800021A14A117000E000239F4A1278920600D417E19D4A1268C4
:4029C000D20611D510229D4B1A60994B1B78DB0701D5012300E00223974A11880B4313801022934B1A701BE1914A1278120720D5904A126892070AD50222904B1A608E4AAC
:402A0000118888239B000B431380012311E0884A1278D20703D52521854A117009E02421834A1170864A1268002A02D01439854A11607F4A1278520700D4AEE07C4A127871
:402A4000D20749D5804A1268120727D57F4A12687F4909681F240C407E4909686418141B082C09D8002C16D17B4A11687B4B0B401360012308340EE008240CE0754A116890
:402A800077480068411877480068C0B20870116801311160013C002CF0D119E06A4A1268520715D56B4A11686D48006841186D480068C0B208701168013111601168634AE8
:402AC0001268914203D20421674A116000E001236649674A116060E0564A1268920726D50222564B1A60634A13681F211940136880221202134000D00123CB185E4A11682E
:402B0000CB1A136012685D4B1A604B4A118884239B000B4313805A4B1A68802149020A431A601968574A0A401A60012335E0564A1268D2061ED427E04F4A1168404A126856
:402B400091421DD23E4A1268013A4B4909688A4204D140224D490A603A490A60464A11684B48006841180978C9B24A4801601168013111603F4A12681F210A40082ADBD18E
:402B80001021424A116008E03F4A1268520604D5394B1A68394B1A600123002B40D02E4A11682E4B0B40136000233B4A1360254A13603A4B1B789B070ED51D4B1B78DB07C9
:402BC00001D5092300E00A231B4A11880B4313806022174B1A7023E0314B1B689B0601D5182200E01022204B1A6019E0104B1B78DB0615D42B4A13685B005B0813601021CC
:402C00000B4B1970144B186827490140196018682649014019601368802109060B43136010BDC0465C0100208C0E2740880E2740E80100200C0F2740F0010020000F2740B7
:402C4000F4010020880F2740CC0F2740F801002008032740EC01002060002740FFFEFFFF000200204003274068002740ED0F0000C00F274008022740FC0100200802002020
:402C800004022740FFFFFEFF8C0F2740800F27400402002040022740C80F27400C0200206400274000002740FF5FFFFFFFFCFFFF10B5B94B1B68002B00D09847B74B1B6847
:402CC000DB0702D50022B64B1A60B64B1B789B0628D5B54B1B68DB0507D5B44A1188C0239B000B431380012300E00023AE4A1268D20706D5AD4A118890239B000B4313800B
:402D00000123002B0FD0A74A1278D20701D5012200E00222A549088802430A800021A14A117000E000239F4A1278920600D417E19D4A1268D20611D510229D4B1A60994BC9
:402D40001B78DB0701D5012300E00223974A11880B4313801022934B1A701BE1914A1278120720D5904A126892070AD50222904B1A608E4A118888239B000B43138001237A
:402D800011E0884A1278D20703D52521854A117009E02421834A1170864A1268002A02D01439854A11607F4A1278520700D4AEE07C4A1278D20749D5804A1268120727D582
:402DC0007F4A12687F4909681F240C407E4909686418141B082C09D8002C16D17B4A11687B4B0B401360012308340EE008240CE0754A116877480068411877480068C0B244
:402E00000870116801311160013C002CF0D119E06A4A1268520715D56B4A11686D48006841186D480068C0B208701168013111601168634A1268914203D20421674A116014
:402E400000E001236649674A116060E0564A1268920726D50222564B1A60634A13681F211940136880221202134000D00123CB185E4A1168CB1A136012685D4B1A604B4A8A
:402E8000118884239B000B4313805A4B1A68802149020A431A601968574A0A401A60012335E0564A1268D2061ED427E04F4A1168404A126891421DD23E4A1268013A4B49C9
:402EC00009688A4204D140224D490A603A490A60464A11684B48006841180978C9B24A4801601168013111603F4A12681F210A40082ADBD11021424A116008E03F4A126885
:402F0000520604D5394B1A68394B1A600123002B40D02E4A11682E4B0B40136000233B4A1360254A13603A4B1B789B070ED51D4B1B78DB0701D5092300E00A231B4A118851
:402F40000B4313806022174B1A7023E0314B1B689B0601D5182200E01022204B1A6019E0104B1B78DB0615D42B4A13685B005B08136010210B4B1970144B186827490140E6
:402F8000196018682649014019601368802109060B43136010BDC046640100208C0E2440880E24400D0200200C0F244018020020000F244014020020880F2440CC0F2440E8
:402FC0002C020020080324402402002060002440FFFEFFFF1C0200204003244068002440ED0F0000C00F244008022440280200202002002004022440FFFFFEFF8C0F2440D1
:40300000800F24403002002040022440C80F2440100200206400244000002440FF5FFFFFFFFCFFFF0E4B70B500251E1C0D4CE41AA410A54204D0AB00F35898470135F8E72A
:4030400000F066FA084B00251E1C084CE41AA410A54204D0AB00F35898470135F8E770BD1C3500001C3500001C35000024350000002310B5934203D0CC5CC4540133F9E746
:4030800010BD031C8218934202D019700133FAE7704700000000000000300F40000280320F40800100400F400004000000320F40E83200008000000003000F4064300F40A8
:4030C00037310F4012320F4045330F4002400F4002410F4004420F4004430F4002600F40810F8271833802030308058007130C0C0E710F0C100912D01410152C16AC1743A5
:4031000018DC1A221C101E402171230E2414257127062A2030E031C0330F3530361F39223A023B083F104002454049FF4A074BFF4C404D204EF04F055008580459045A0403
:403140005C335D035F01604061A8624063208040861588408C138E049413960C9A209E20A003A214A501A80AA901AA14AD01AE08B010B101B20FB420B640B880BA08BE519A
:40318000C032C101C50BC60CC70EC815C9FFCAFFCBFFCEF0CF44D00CD401D804D904DA04DB04DC13DD33DF01E6C0EA40EB0200400380044805020704080109080A080B427E
:4031C0000D080E020F0810201204140116401720184019011B801C041D8C1E40211022042360250129052A012F2A320438083B424110450846054B024C205004520454042E
:4032000056405D085E405F126D506F04C0F9C2EFC4D6CA73CC02CE0BD074D6F08202840492019E01AC02B001B204B602B880BA20BE45D418D604D804DB04DC01DD10DF0117
:40324000000803800502060607100A830C400D220F201140151016101702180A19181B111D221E011F15261127112F15351036043D12444045A14C044E4157045B015E209D
:40328000600463426F2A761477028001860287048B409004915099029D08A004A181A204A380A601A72EAC04AF02B240B310B502B604C0FCC2F9C471CA70CC60CEA0D0B0C3
:4032C000D230D621D80DE220E4046804DA408804A40408206702C202D60183019702B420EA02100A11010000210000010000010008090000990064003900C200FF090000E3
:40330000E70718000000E6001000000018070000210400030004000358021F0838049801000A2A00000000102406050001C0000E12FFFFFF62A0F0410C000000000002114A
:4033400004040404111100010000000000004002001030100010101200000000000000000000000000000000030405060708090A0B0C0E0F101112131415161718191B1CEA
:403380001D1E1F2021222325262728292A2B2E2F3031323334350000EEDBC9B9AA9B8E82766B60564D443B332C241D17100A040000000000000008000000004A010000005E
:4033C0000800880000000000020000000000000000000000030000000000000000000000040000000000000000000000050000000000000000000000060000000000000029
:40340000000000000700000000000000000000000000000028000000F9FF1F0000002000010000000000000000000000000000000200000000000000000000000000000023
:40344000030000000000000000000000000000000400000000000000000000000000000005000000000000000000000000000000060000000000000000000000000000003A
:403480000700000000000000000000000000000008000000000000000000000000000000090000000000000000000000000000000A000000000000000000000000000000EA
:4034C0000B0000000000000000000000000000000C0000000000000000000000000000000D0000000000000000000000000000000E0000000000000000000000000000009A
:403500000F000000000000000000000000000000F8B5C046F8BC08BC9E4670471D03000031080000F8B5C046F8BC08BC9E467047F502000048350000C8000020200000001B
:403540005001000000000000000000000000E02EC05D00001800000000366E01F0000000040404000000000000000000000000000000000000000000000000000000000016
:40358000000000000000000000000000000000000000000000000000000000000000000000000000000000000000000000000000000000000000000000000000000000000B
:4035C00000000000000000000000000000000000000000000000000000000000000000000000000000000000000000000000000000000000000000000000000000000000CB
:40360000000000000000000000000000000000000000000000000000000000000000000000000000000000000000000000000000000000000000000000000000000000008A
:40364000000000000000000000000000000000000000000000000000000000000000000000000000000000000000000000000000000000000000000000000000000000004A
:020000040001F9
:0200000490303A
:020000009782E5
:0200000490402A
:4000000000000000000000000000000000000000000000000000000000000000000000000000000000000000000000000000000000000000000000000000000000000000C0
:400040000000000000000000000000000000000000000000000000000000000000000000000000000000000000000000000000000000000000000000000000000000000080
:0200000490501A
:0C0000000002112D11A10001113CA923E8
:0200000490600A
:0100000001FE
:00000001FF